{"contracts/TodoList.sol":{"TodoList":{"abi":[{"inputs":[],"name":"EmptyTaskContent","type":"error"},{"inputs":[],"name":"TaskAlreadyCompleted","type":"error"},{"inputs":[],"name":"TaskNotCompleted","type":"error"},{"inputs":[],"name":"TaskNotFound","type":"error"},{"inputs":[],"name":"UnauthorizedAccess","type":"error"},{"anonymous":false,"inputs":[{"indexed":true,"internalType":"address","name":"user","type":"address"},{"indexed":true,"internalType":"uint256","name":"taskId","type":"uint256"},{"indexed":false,"internalType":"string","name":"content","type":"string"},{"indexed":false,"internalType":"uint8","name":"priority","type":"uint8"},{"indexed":false,"internalType":"bytes32","name":"category","type":"bytes32"}],"name":"TaskCreated","type":"event"},{"anonymous":false,"inputs":[{"indexed":true,"internalType":"address","name":"user","type":"address"},{"indexed":true,"internalType":"uint256","name":"taskId","type":"uint256"}],"name":"TaskDeleted","type":"event"},{"anonymous":false,"inputs":[{"indexed":true,"internalType":"address","name":"user","type":"address"},{"indexed":true,"internalType":"uint256","name":"taskId","type":"uint256"},{"indexed":false,"internalType":"bool","name":"isCompleted","type":"bool"}],"name":"TaskToggled","type":"event"},{"anonymous":false,"inputs":[{"indexed":true,"internalType":"address","name":"user","type":"address"},{"indexed":true,"internalType":"uint256","name":"taskId","type":"uint256"},{"indexed":false,"internalType":"string","name":"newContent","type":"string"}],"name":"TaskUpdated","type":"event"},{"inputs":[{"internalType":"bytes32","name":"_bytes32","type":"bytes32"}],"name":"bytes32ToString","outputs":[{"internalType":"string","name":"","type":"string"}],"stateMutability":"pure","type":"function"},{"inputs":[],"name":"clearAllTasks","outputs":[],"stateMutability":"nonpayable","type":"function"},{"inputs":[{"internalType":"string","name":"_content","type":"string"},{"internalType":"uint8","name":"_priority","type":"uint8"},{"internalType":"string","name":"_category","type":"string"}],"name":"createTask","outputs":[],"stateMutability":"nonpayable","type":"function"},{"inputs":[{"internalType":"uint256","name":"_taskId","type":"uint256"}],"name":"deleteTask","outputs":[],"stateMutability":"nonpayable","type":"function"},{"inputs":[],"name":"getAllTasks","outputs":[{"components":[{"internalType":"string","name":"content","type":"string"},{"internalType":"bool","name":"isCompleted","type":"bool"},{"internalType":"uint32","name":"createdAt","type":"uint32"},{"internalType":"uint8","name":"priority","type":"uint8"},{"internalType":"bytes32","name":"category","type":"bytes32"}],"internalType":"struct TodoList.Task[]","name":"","type":"tuple[]"}],"stateMutability":"view","type":"function"},{"inputs":[{"internalType":"uint256","name":"_taskId","type":"uint256"}],"name":"getTask","outputs":[{"components":[{"internalType":"string","name":"content","type":"string"},{"internalType":"bool","name":"isCompleted","type":"bool"},{"internalType":"uint32","name":"createdAt","type":"uint32"},{"internalType":"uint8","name":"priority","type":"uint8"},{"internalType":"bytes32","name":"category","type":"bytes32"}],"internalType":"struct TodoList.Task","name":"","type":"tuple"}],"stateMutability":"view","type":"function"},{"inputs":[],"name":"getTaskStats","outputs":[{"internalType":"uint256","name":"total","type":"uint256"},{"internalType":"uint256","name":"completed","type":"uint256"},{"internalType":"uint256","name":"pending","type":"uint256"}],"stateMutability":"view","type":"function"},{"inputs":[{"internalType":"uint8","name":"_priority","type":"uint8"}],"name":"getTasksByPriority","outputs":[{"components":[{"internalType":"string","name":"content","type":"string"},{"internalType":"bool","name":"isCompleted","type":"bool"},{"internalType":"uint32","name":"createdAt","type":"uint32"},{"internalType":"uint8","name":"priority","type":"uint8"},{"internalType":"bytes32","name":"category","type":"bytes32"}],"internalType":"struct TodoList.Task[]","name":"","type":"tuple[]"},{"internalType":"uint256[]","name":"","type":"uint256[]"}],"stateMutability":"view","type":"function"},{"inputs":[{"internalType":"bool","name":"_completed","type":"bool"}],"name":"getTasksByStatus","outputs":[{"components":[{"internalType":"string","name":"content","type":"string"},{"internalType":"bool","name":"isCompleted","type":"bool"},{"internalType":"uint32","name":"createdAt","type":"uint32"},{"internalType":"uint8","name":"priority","type":"uint8"},{"internalType":"bytes32","name":"category","type":"bytes32"}],"internalType":"struct TodoList.Task[]","name":"","type":"tuple[]"},{"internalType":"uint256[]","name":"","type":"uint256[]"}],"stateMutability":"view","type":"function"},{"inputs":[{"internalType":"address","name":"","type":"address"}],"name":"taskCounts","outputs":[{"internalType":"uint256","name":"","type":"uint256"}],"stateMutability":"view","type":"function"},{"inputs":[{"internalType":"uint256","name":"_taskId","type":"uint256"}],"name":"toggleTask","outputs":[],"stateMutability":"nonpayable","type":"function"},{"inputs":[{"internalType":"uint256","name":"_taskId","type":"uint256"},{"internalType":"string","name":"_newContent","type":"string"}],"name":"updateTask","outputs":[],"stateMutability":"nonpayable","type":"function"}],"evm":{"bytecode":{"linkReferences":{},"object":"608080604052346100165761142c908161001c8239f35b600080fdfe6080604052600436101561001257600080fd5b60003560e01c8063072d2d3b146100d75780631d65e77e146100d25780634a84d2e7146100cd57806353d976ee146100c8578063560f3192146100c3578063613137a4146100be5780636e89fc62146100b95780636f1200e2146100b4578063779900b4146100af57806386533f6c146100aa5780639201de55146100a55763b7c8c412146100a057600080fd5b610c0e565b610b41565b61098b565b610912565b6107e7565b6106c8565b610640565b6104f6565b610460565b610422565b6103a5565b6101cc565b634e487b7160e01b600052604160045260246000fd5b60a0810190811067ffffffffffffffff82111761010e57604052565b6100dc565b90601f8019910116810190811067ffffffffffffffff82111761010e57604052565b60405190610142826100f2565b565b67ffffffffffffffff811161010e57601f01601f191660200190565b81601f820112156101a75780359061017782610144565b926101856040519485610113565b828452602083830101116101a757816000926020809301838601378301015290565b600080fd5b6024359060ff821682036101a757565b6004359060ff821682036101a757565b346101a75760603660031901126101a75767ffffffffffffffff6004358181116101a7576101fe903690600401610160565b6102066101ac565b916044359081116101a75761021f903690600401610160565b81511561030a5760ff831680159081156102ff575b506102f6575b6102647f2cad7c7bb1ee9f9e2606b98d677d214790fc0113313e1f0abc8ab8fb77dfb08191611398565b6102a961026f610135565b848152600060208201524263ffffffff16604082015260ff8616606082015260808101839052336000908152602081905260409020610e02565b3360009081526020819052604090206102c29054610fa8565b3360009081526001602052604090209094906102de8154610fb7565b90556102f1604051928392339684610fc6565b0390a3005b6003925061023a565b600591501138610234565b6040516374008f7960e01b8152600490fd5b919082519283825260005b848110610348575050826000602080949584010152601f8019910116010190565b602081830181015184830182015201610327565b90608080610373845160a0855260a085019061031c565b9360208101511515602085015263ffffffff604082015116604085015260ff6060820151166060850152015191015290565b346101a75760203660031901126101a7576004356103c16112d6565b50600090338252816020526040822054811015610410576103f26103f891604061040c943381528060205220610d3a565b506111f2565b60405191829160208352602083019061035c565b0390f35b60405163c325ae3360e01b8152600490fd5b346101a75760203660031901126101a7576004356001600160a01b038116908190036101a75760005260016020526020604060002054604051908152f35b346101a7576000806003193601126104f35780803382528160205260408220805492905b8382106104ae57505061040c90604051938493846040919493926060820195825260208201520152565b909360ff60016104be8785610d3a565b50015416156104df576104d36104d991610fb7565b94610fb7565b90610484565b93916104ed6104d991610fb7565b92610fb7565b80fd5b346101a75760203660031901126101a7576004356000903382528160205260408220548110156104105733825281602052604082208054600019810190811161063b5780830361058e575b5061054b90611137565b33600090815260016020526040902061056481546111cd565b9055337fd1bc87501afcaa22b7f6481dac99ed45fbe02321873ca9b55c1f41b9d78b8fb38380a380f35b6105989082610d3a565b50906105a48382610d3a565b610636578261054b9382036105bc575b505090610541565b6002816105ca829385610feb565b61062a6001850160ff600184016105f082825416849060ff801983541691151516179055565b8054835464ffffffff00191664ffffffff009091161783555460281c1665ff000000000082549160281b169065ff00000000001916179055565b015491015538806105b4565b610d56565b610f92565b346101a75760203660031901126101a757600435600090338252816020526040822054811015610410573382528160205260ff60016106828360408620610d3a565b5001805460ff1981169083161560ff16178155541660405190151581527fab7f8b4ae853164b2eec49792f0a9b5ce9ee4568a8d67c9aa3b27e949f31d18360203392a380f35b346101a7576000806003193601126104f3573381528060205260408120805482825580610706575b3360009081526001602052604090208390558280f35b600391818302918383040361063b57835260208320908101905b81811061072d57506106f0565b8061073884926110da565b01610720565b908082519081815260208091019281808460051b8301019501936000915b84831061076c5750505050505090565b909192939495848061078a600193601f198682030187528a5161035c565b980193019301919493929061075c565b906107ad9060408352604083019061073e565b81810360209283015282518082529082019282019160005b8281106107d3575050505090565b8351855293810193928101926001016107c5565b346101a75760203660031901126101a7576004358015158091036101a75733600090815260208190526040812080549092825b8281106108c3575061083461082e84611302565b93611352565b93600091825b848110610850576040518061040c89898361079a565b8161086960016108608487610d3a565b50015460ff1690565b15151461087f575b61087a90610fb7565b61083a565b926108bb61087a916108946103f28787610d3a565b61089e828a611384565b526108a98189611384565b50856108b5828b611384565b52610fb7565b939050610871565b816108d360016108608489610d3a565b1515146108e9575b6108e490610fb7565b61081a565b926108f66108e491610fb7565b9390506108db565b90602061090f92818152019061073e565b90565b346101a7576000806003193601126104f35733815260208181526040822080549061093c826111da565b9261094a6040519485610113565b82845280840191855280852094915b83831061096e576040518061040c87826108fe565b60038260019261097d896111f2565b815201960192019194610959565b346101a7576040806003193601126101a7576004356024359167ffffffffffffffff928381116101a7576109c3903690600401610160565b9060009333855260209085825282862054851015610b1f57835115610b0e573386528582526109f485848820610d3a565b5091845191821161010e57610a1382610a0d8554610d6c565b85610dbd565b80601f8311600114610a7f575090807f6b453b6adc8ef22128c2019adf1d4aa703ca6edd91f0d692ac03e638bde932719493928891610a74575b508160011b916000199060031b1c19161790555b5180610a6e339482610b30565b0390a380f35b905085015138610a4d565b90601f198316610a9485600052602060002090565b9289905b828210610af65750509183917f6b453b6adc8ef22128c2019adf1d4aa703ca6edd91f0d692ac03e638bde9327196959460019410610add575b5050811b019055610a61565b87015160001960f88460031b161c191690553880610ad1565b80600185968294968c01518155019501930190610a98565b82516374008f7960e01b8152600490fd5b825163c325ae3360e01b8152600490fd5b90602061090f92818152019061031c565b346101a7576020806003193601126101a75760043560005b60ff81168381109081610bf0575b5015610b7b57610b76906113ac565b610b59565b90610b8960ff8093166113bd565b9060005b808416908582108080610bd4575b15610bc65715610bc15781610bb684610bbc941a91866113e5565b536113ac565b610b8d565b610d24565b6040518061040c8782610b30565b15610bc15783831a60f81b6001600160f81b0319161515610b9b565b9015610bc15782901a60f81b6001600160f81b031916151538610b67565b346101a75760203660031901126101a757610c276101bc565b336000908152602081905260409020805460ff92831692600092835b838110610ce95750610c5d610c5785611302565b94611352565b94600092835b858110610c79576040518061040c8a8a8361079a565b8282610c966001610c8a8589610d3a565b50015460281c60ff1690565b1614610cab575b610ca690610fb7565b610c63565b93610ce1610ca691610cc06103f28888610d3a565b610cca828b611384565b52610cd5818a611384565b50866108b5828c611384565b949050610c9d565b8583610cfa6001610c8a8587610d3a565b1614610d0f575b610d0a90610fb7565b610c43565b93610d1c610d0a91610fb7565b949050610d01565b634e487b7160e01b600052603260045260246000fd5b8054821015610bc1576000526003602060002091020190600090565b634e487b7160e01b600052600060045260246000fd5b90600182811c92168015610d9c575b6020831014610d8657565b634e487b7160e01b600052602260045260246000fd5b91607f1691610d7b565b818110610db1575050565b60008155600101610da6565b9190601f8111610dcc57505050565b610142926000526020600020906020601f840160051c83019310610df8575b601f0160051c0190610da6565b9091508190610deb565b9081546801000000000000000081101561010e57610e27906001938482018155610d3a565b92909261063657815190815167ffffffffffffffff811161010e57610e5681610e508754610d6c565b87610dbd565b6020928390601f8311600114610f1857610ea16002969484610f069560809895610eb395600092610f0d575b5050600019600383901b1c191690821b1789555b880192850151151590565b829060ff801983541691151516179055565b610ee3610ec7604085015163ffffffff1690565b825464ffffffff00191660089190911b64ffffffff0016178255565b6060830151815465ff0000000000191660289190911b65ff000000000016179055565b0151910155565b015190503880610e82565b90601f19831691610f2e88600052602060002090565b9260005b818110610f7d575094808560809895610eb395610ea195610f069960029d9b10610f64575b505050811b018955610e96565b015160001960f88460031b161c19169055388080610f57565b82840151855593860193928701928701610f32565b634e487b7160e01b600052601160045260246000fd5b60001981019190821161063b57565b600019811461063b5760010190565b60ff610fe06040939695949660608452606084019061031c565b951660208201520152565b9190918281146110d557610fff8354610d6c565b67ffffffffffffffff811161010e576110228161101c8454610d6c565b84610dbd565b600093601f821160011461105e579381929394600092611053575b50508160011b916000199060031b1c1916179055565b01549050388061103d565b611072601f19831691600052602060002090565b9461108284600052602060002090565b91815b8181106110bd575095836001959697106110a4575b505050811b019055565b015460001960f88460031b161c1916905538808061109a565b87830154845560019384019390920191602001611085565b509050565b60026000916110e98154610d6c565b806110fa575b508260018201550155565b601f811160011461111057508281555b386110ef565b839082825261112e601f60208420920160051c820160018301610da6565b8183555561110a565b805480156111b757600019019061114e8282610d3a565b6106365760028161116160009354610d6c565b80611173575b50826001820155015555565b601f811160011461118957508281555b38611167565b818452602084206111a591601f0160051c810190600101610da6565b60008181526020812081835555611183565b634e487b7160e01b600052603160045260246000fd5b801561063b576000190190565b67ffffffffffffffff811161010e5760051b60200190565b906040516111ff816100f2565b809260405160009082549161121383610d6c565b8083526001938085169081156112b3575060011461127b575b5060ff6002938361124560809795611274950382610113565b875283015481811615156020880152600881901c63ffffffff16604088015260281c16606086019060ff169052565b0154910152565b90508360005260209081600020906000915b8183106112a057505082010160ff61122c565b805485840185015291830191850161128d565b60ff191660208086019190915291151560051b8401909101915060ff905061122c565b604051906112e3826100f2565b6000608083606081528260208201528260408201528260608201520152565b9061130c826111da565b6113196040519182610113565b828152809261132a601f19916111da565b019060005b82811061133b57505050565b6020906113466112d6565b8282850101520161132f565b9061135c826111da565b6113696040519182610113565b828152809261137a601f19916111da565b0190602036910137565b8051821015610bc15760209160051b010190565b8051156113a6576020015190565b50600090565b60ff1660ff811461063b5760010190565b906113c782610144565b6113d46040519182610113565b828152809261137a601f1991610144565b908151811015610bc157016020019056fea26469706673582212208b3072cf4c391172745b4faf6bdc9f202a6a1bd816ecdd7504c6a273fd86a44564736f6c63430008130033","opcodes":"PUSH1 0x80 DUP1 PUSH1 0x40 MSTORE CALLVALUE PUSH2 0x16 JUMPI PUSH2 0x142C SWAP1 DUP2 PUSH2 0x1C DUP3 CODECOPY RETURN JUMPDEST PUSH1 0x0 DUP1 REVERT INVALID PUSH1 0x80 PUSH1 0x40 MSTORE PUSH1 0x4 CALLDATASIZE LT ISZERO PUSH2 0x12 JUMPI PUSH1 0x0 DUP1 REVERT JUMPDEST PUSH1 0x0 CALLDATALOAD PUSH1 0xE0 SHR DUP1 PUSH4 0x72D2D3B EQ PUSH2 0xD7 JUMPI DUP1 PUSH4 0x1D65E77E EQ PUSH2 0xD2 JUMPI DUP1 PUSH4 0x4A84D2E7 EQ PUSH2 0xCD JUMPI DUP1 PUSH4 0x53D976EE EQ PUSH2 0xC8 JUMPI DUP1 PUSH4 0x560F3192 EQ PUSH2 0xC3 JUMPI DUP1 PUSH4 0x613137A4 EQ PUSH2 0xBE JUMPI DUP1 PUSH4 0x6E89FC62 EQ PUSH2 0xB9 JUMPI DUP1 PUSH4 0x6F1200E2 EQ PUSH2 0xB4 JUMPI DUP1 PUSH4 0x779900B4 EQ PUSH2 0xAF JUMPI DUP1 PUSH4 0x86533F6C EQ PUSH2 0xAA JUMPI DUP1 PUSH4 0x9201DE55 EQ PUSH2 0xA5 JUMPI PUSH4 0xB7C8C412 EQ PUSH2 0xA0 JUMPI PUSH1 0x0 DUP1 REVERT JUMPDEST PUSH2 0xC0E JUMP JUMPDEST PUSH2 0xB41 JUMP JUMPDEST PUSH2 0x98B JUMP JUMPDEST PUSH2 0x912 JUMP JUMPDEST PUSH2 0x7E7 JUMP JUMPDEST PUSH2 0x6C8 JUMP JUMPDEST PUSH2 0x640 JUMP JUMPDEST PUSH2 0x4F6 JUMP JUMPDEST PUSH2 0x460 JUMP JUMPDEST PUSH2 0x422 JUMP JUMPDEST PUSH2 0x3A5 JUMP JUMPDEST PUSH2 0x1CC JUMP JUMPDEST PUSH4 0x4E487B71 PUSH1 0xE0 SHL PUSH1 0x0 MSTORE PUSH1 0x41 PUSH1 0x4 MSTORE PUSH1 0x24 PUSH1 0x0 REVERT JUMPDEST PUSH1 0xA0 DUP2 ADD SWAP1 DUP2 LT PUSH8 0xFFFFFFFFFFFFFFFF DUP3 GT OR PUSH2 0x10E JUMPI PUSH1 0x40 MSTORE JUMP JUMPDEST PUSH2 0xDC JUMP JUMPDEST SWAP1 PUSH1 0x1F DUP1 NOT SWAP2 ADD AND DUP2 ADD SWAP1 DUP2 LT PUSH8 0xFFFFFFFFFFFFFFFF DUP3 GT OR PUSH2 0x10E JUMPI PUSH1 0x40 MSTORE JUMP JUMPDEST PUSH1 0x40 MLOAD SWAP1 PUSH2 0x142 DUP3 PUSH2 0xF2 JUMP JUMPDEST JUMP JUMPDEST PUSH8 0xFFFFFFFFFFFFFFFF DUP2 GT PUSH2 0x10E JUMPI PUSH1 0x1F ADD PUSH1 0x1F NOT AND PUSH1 0x20 ADD SWAP1 JUMP JUMPDEST DUP2 PUSH1 0x1F DUP3 ADD SLT ISZERO PUSH2 0x1A7 JUMPI DUP1 CALLDATALOAD SWAP1 PUSH2 0x177 DUP3 PUSH2 0x144 JUMP JUMPDEST SWAP3 PUSH2 0x185 PUSH1 0x40 MLOAD SWAP5 DUP6 PUSH2 0x113 JUMP JUMPDEST DUP3 DUP5 MSTORE PUSH1 0x20 DUP4 DUP4 ADD ADD GT PUSH2 0x1A7 JUMPI DUP2 PUSH1 0x0 SWAP3 PUSH1 0x20 DUP1 SWAP4 ADD DUP4 DUP7 ADD CALLDATACOPY DUP4 ADD ADD MSTORE SWAP1 JUMP JUMPDEST PUSH1 0x0 DUP1 REVERT JUMPDEST PUSH1 0x24 CALLDATALOAD SWAP1 PUSH1 0xFF DUP3 AND DUP3 SUB PUSH2 0x1A7 JUMPI JUMP JUMPDEST PUSH1 0x4 CALLDATALOAD SWAP1 PUSH1 0xFF DUP3 AND DUP3 SUB PUSH2 0x1A7 JUMPI JUMP JUMPDEST CALLVALUE PUSH2 0x1A7 JUMPI PUSH1 0x60 CALLDATASIZE PUSH1 0x3 NOT ADD SLT PUSH2 0x1A7 JUMPI PUSH8 0xFFFFFFFFFFFFFFFF PUSH1 0x4 CALLDATALOAD DUP2 DUP2 GT PUSH2 0x1A7 JUMPI PUSH2 0x1FE SWAP1 CALLDATASIZE SWAP1 PUSH1 0x4 ADD PUSH2 0x160 JUMP JUMPDEST PUSH2 0x206 PUSH2 0x1AC JUMP JUMPDEST SWAP2 PUSH1 0x44 CALLDATALOAD SWAP1 DUP2 GT PUSH2 0x1A7 JUMPI PUSH2 0x21F SWAP1 CALLDATASIZE SWAP1 PUSH1 0x4 ADD PUSH2 0x160 JUMP JUMPDEST DUP2 MLOAD ISZERO PUSH2 0x30A JUMPI PUSH1 0xFF DUP4 AND DUP1 ISZERO SWAP1 DUP2 ISZERO PUSH2 0x2FF JUMPI JUMPDEST POP PUSH2 0x2F6 JUMPI JUMPDEST PUSH2 0x264 PUSH32 0x2CAD7C7BB1EE9F9E2606B98D677D214790FC0113313E1F0ABC8AB8FB77DFB081 SWAP2 PUSH2 0x1398 JUMP JUMPDEST PUSH2 0x2A9 PUSH2 0x26F PUSH2 0x135 JUMP JUMPDEST DUP5 DUP2 MSTORE PUSH1 0x0 PUSH1 0x20 DUP3 ADD MSTORE TIMESTAMP PUSH4 0xFFFFFFFF AND PUSH1 0x40 DUP3 ADD MSTORE PUSH1 0xFF DUP7 AND PUSH1 0x60 DUP3 ADD MSTORE PUSH1 0x80 DUP2 ADD DUP4 SWAP1 MSTORE CALLER PUSH1 0x0 SWAP1 DUP2 MSTORE PUSH1 0x20 DUP2 SWAP1 MSTORE PUSH1 0x40 SWAP1 KECCAK256 PUSH2 0xE02 JUMP JUMPDEST CALLER PUSH1 0x0 SWAP1 DUP2 MSTORE PUSH1 0x20 DUP2 SWAP1 MSTORE PUSH1 0x40 SWAP1 KECCAK256 PUSH2 0x2C2 SWAP1 SLOAD PUSH2 0xFA8 JUMP JUMPDEST CALLER PUSH1 0x0 SWAP1 DUP2 MSTORE PUSH1 0x1 PUSH1 0x20 MSTORE PUSH1 0x40 SWAP1 KECCAK256 SWAP1 SWAP5 SWAP1 PUSH2 0x2DE DUP2 SLOAD PUSH2 0xFB7 JUMP JUMPDEST SWAP1 SSTORE PUSH2 0x2F1 PUSH1 0x40 MLOAD SWAP3 DUP4 SWAP3 CALLER SWAP7 DUP5 PUSH2 0xFC6 JUMP JUMPDEST SUB SWAP1 LOG3 STOP JUMPDEST PUSH1 0x3 SWAP3 POP PUSH2 0x23A JUMP JUMPDEST PUSH1 0x5 SWAP2 POP GT CODESIZE PUSH2 0x234 JUMP JUMPDEST PUSH1 0x40 MLOAD PUSH4 0x74008F79 PUSH1 0xE0 SHL DUP2 MSTORE PUSH1 0x4 SWAP1 REVERT JUMPDEST SWAP2 SWAP1 DUP3 MLOAD SWAP3 DUP4 DUP3 MSTORE PUSH1 0x0 JUMPDEST DUP5 DUP2 LT PUSH2 0x348 JUMPI POP POP DUP3 PUSH1 0x0 PUSH1 0x20 DUP1 SWAP5 SWAP6 DUP5 ADD ADD MSTORE PUSH1 0x1F DUP1 NOT SWAP2 ADD AND ADD ADD SWAP1 JUMP JUMPDEST PUSH1 0x20 DUP2 DUP4 ADD DUP2 ADD MLOAD DUP5 DUP4 ADD DUP3 ADD MSTORE ADD PUSH2 0x327 JUMP JUMPDEST SWAP1 PUSH1 0x80 DUP1 PUSH2 0x373 DUP5 MLOAD PUSH1 0xA0 DUP6 MSTORE PUSH1 0xA0 DUP6 ADD SWAP1 PUSH2 0x31C JUMP JUMPDEST SWAP4 PUSH1 0x20 DUP2 ADD MLOAD ISZERO ISZERO PUSH1 0x20 DUP6 ADD MSTORE PUSH4 0xFFFFFFFF PUSH1 0x40 DUP3 ADD MLOAD AND PUSH1 0x40 DUP6 ADD MSTORE PUSH1 0xFF PUSH1 0x60 DUP3 ADD MLOAD AND PUSH1 0x60 DUP6 ADD MSTORE ADD MLOAD SWAP2 ADD MSTORE SWAP1 JUMP JUMPDEST CALLVALUE PUSH2 0x1A7 JUMPI PUSH1 0x20 CALLDATASIZE PUSH1 0x3 NOT ADD SLT PUSH2 0x1A7 JUMPI PUSH1 0x4 CALLDATALOAD PUSH2 0x3C1 PUSH2 0x12D6 JUMP JUMPDEST POP PUSH1 0x0 SWAP1 CALLER DUP3 MSTORE DUP2 PUSH1 0x20 MSTORE PUSH1 0x40 DUP3 KECCAK256 SLOAD DUP2 LT ISZERO PUSH2 0x410 JUMPI PUSH2 0x3F2 PUSH2 0x3F8 SWAP2 PUSH1 0x40 PUSH2 0x40C SWAP5 CALLER DUP2 MSTORE DUP1 PUSH1 0x20 MSTORE KECCAK256 PUSH2 0xD3A JUMP JUMPDEST POP PUSH2 0x11F2 JUMP JUMPDEST PUSH1 0x40 MLOAD SWAP2 DUP3 SWAP2 PUSH1 0x20 DUP4 MSTORE PUSH1 0x20 DUP4 ADD SWAP1 PUSH2 0x35C JUMP JUMPDEST SUB SWAP1 RETURN JUMPDEST PUSH1 0x40 MLOAD PUSH4 0xC325AE33 PUSH1 0xE0 SHL DUP2 MSTORE PUSH1 0x4 SWAP1 REVERT JUMPDEST CALLVALUE PUSH2 0x1A7 JUMPI PUSH1 0x20 CALLDATASIZE PUSH1 0x3 NOT ADD SLT PUSH2 0x1A7 JUMPI PUSH1 0x4 CALLDATALOAD PUSH1 0x1 PUSH1 0x1 PUSH1 0xA0 SHL SUB DUP2 AND SWAP1 DUP2 SWAP1 SUB PUSH2 0x1A7 JUMPI PUSH1 0x0 MSTORE PUSH1 0x1 PUSH1 0x20 MSTORE PUSH1 0x20 PUSH1 0x40 PUSH1 0x0 KECCAK256 SLOAD PUSH1 0x40 MLOAD SWAP1 DUP2 MSTORE RETURN JUMPDEST CALLVALUE PUSH2 0x1A7 JUMPI PUSH1 0x0 DUP1 PUSH1 0x3 NOT CALLDATASIZE ADD SLT PUSH2 0x4F3 JUMPI DUP1 DUP1 CALLER DUP3 MSTORE DUP2 PUSH1 0x20 MSTORE PUSH1 0x40 DUP3 KECCAK256 DUP1 SLOAD SWAP3 SWAP1 JUMPDEST DUP4 DUP3 LT PUSH2 0x4AE JUMPI POP POP PUSH2 0x40C SWAP1 PUSH1 0x40 MLOAD SWAP4 DUP5 SWAP4 DUP5 PUSH1 0x40 SWAP2 SWAP5 SWAP4 SWAP3 PUSH1 0x60 DUP3 ADD SWAP6 DUP3 MSTORE PUSH1 0x20 DUP3 ADD MSTORE ADD MSTORE JUMP JUMPDEST SWAP1 SWAP4 PUSH1 0xFF PUSH1 0x1 PUSH2 0x4BE DUP8 DUP6 PUSH2 0xD3A JUMP JUMPDEST POP ADD SLOAD AND ISZERO PUSH2 0x4DF JUMPI PUSH2 0x4D3 PUSH2 0x4D9 SWAP2 PUSH2 0xFB7 JUMP JUMPDEST SWAP5 PUSH2 0xFB7 JUMP JUMPDEST SWAP1 PUSH2 0x484 JUMP JUMPDEST SWAP4 SWAP2 PUSH2 0x4ED PUSH2 0x4D9 SWAP2 PUSH2 0xFB7 JUMP JUMPDEST SWAP3 PUSH2 0xFB7 JUMP JUMPDEST DUP1 REVERT JUMPDEST CALLVALUE PUSH2 0x1A7 JUMPI PUSH1 0x20 CALLDATASIZE PUSH1 0x3 NOT ADD SLT PUSH2 0x1A7 JUMPI PUSH1 0x4 CALLDATALOAD PUSH1 0x0 SWAP1 CALLER DUP3 MSTORE DUP2 PUSH1 0x20 MSTORE PUSH1 0x40 DUP3 KECCAK256 SLOAD DUP2 LT ISZERO PUSH2 0x410 JUMPI CALLER DUP3 MSTORE DUP2 PUSH1 0x20 MSTORE PUSH1 0x40 DUP3 KECCAK256 DUP1 SLOAD PUSH1 0x0 NOT DUP2 ADD SWAP1 DUP2 GT PUSH2 0x63B JUMPI DUP1 DUP4 SUB PUSH2 0x58E JUMPI JUMPDEST POP PUSH2 0x54B SWAP1 PUSH2 0x1137 JUMP JUMPDEST CALLER PUSH1 0x0 SWAP1 DUP2 MSTORE PUSH1 0x1 PUSH1 0x20 MSTORE PUSH1 0x40 SWAP1 KECCAK256 PUSH2 0x564 DUP2 SLOAD PUSH2 0x11CD JUMP JUMPDEST SWAP1 SSTORE CALLER PUSH32 0xD1BC87501AFCAA22B7F6481DAC99ED45FBE02321873CA9B55C1F41B9D78B8FB3 DUP4 DUP1 LOG3 DUP1 RETURN JUMPDEST PUSH2 0x598 SWAP1 DUP3 PUSH2 0xD3A JUMP JUMPDEST POP SWAP1 PUSH2 0x5A4 DUP4 DUP3 PUSH2 0xD3A JUMP JUMPDEST PUSH2 0x636 JUMPI DUP3 PUSH2 0x54B SWAP4 DUP3 SUB PUSH2 0x5BC JUMPI JUMPDEST POP POP SWAP1 PUSH2 0x541 JUMP JUMPDEST PUSH1 0x2 DUP2 PUSH2 0x5CA DUP3 SWAP4 DUP6 PUSH2 0xFEB JUMP JUMPDEST PUSH2 0x62A PUSH1 0x1 DUP6 ADD PUSH1 0xFF PUSH1 0x1 DUP5 ADD PUSH2 0x5F0 DUP3 DUP3 SLOAD AND DUP5 SWAP1 PUSH1 0xFF DUP1 NOT DUP4 SLOAD AND SWAP2 ISZERO ISZERO AND OR SWAP1 SSTORE JUMP JUMPDEST DUP1 SLOAD DUP4 SLOAD PUSH5 0xFFFFFFFF00 NOT AND PUSH5 0xFFFFFFFF00 SWAP1 SWAP2 AND OR DUP4 SSTORE SLOAD PUSH1 0x28 SHR AND PUSH6 0xFF0000000000 DUP3 SLOAD SWAP2 PUSH1 0x28 SHL AND SWAP1 PUSH6 0xFF0000000000 NOT AND OR SWAP1 SSTORE JUMP JUMPDEST ADD SLOAD SWAP2 ADD SSTORE CODESIZE DUP1 PUSH2 0x5B4 JUMP JUMPDEST PUSH2 0xD56 JUMP JUMPDEST PUSH2 0xF92 JUMP JUMPDEST CALLVALUE PUSH2 0x1A7 JUMPI PUSH1 0x20 CALLDATASIZE PUSH1 0x3 NOT ADD SLT PUSH2 0x1A7 JUMPI PUSH1 0x4 CALLDATALOAD PUSH1 0x0 SWAP1 CALLER DUP3 MSTORE DUP2 PUSH1 0x20 MSTORE PUSH1 0x40 DUP3 KECCAK256 SLOAD DUP2 LT ISZERO PUSH2 0x410 JUMPI CALLER DUP3 MSTORE DUP2 PUSH1 0x20 MSTORE PUSH1 0xFF PUSH1 0x1 PUSH2 0x682 DUP4 PUSH1 0x40 DUP7 KECCAK256 PUSH2 0xD3A JUMP JUMPDEST POP ADD DUP1 SLOAD PUSH1 0xFF NOT DUP2 AND SWAP1 DUP4 AND ISZERO PUSH1 0xFF AND OR DUP2 SSTORE SLOAD AND PUSH1 0x40 MLOAD SWAP1 ISZERO ISZERO DUP2 MSTORE PUSH32 0xAB7F8B4AE853164B2EEC49792F0A9B5CE9EE4568A8D67C9AA3B27E949F31D183 PUSH1 0x20 CALLER SWAP3 LOG3 DUP1 RETURN JUMPDEST CALLVALUE PUSH2 0x1A7 JUMPI PUSH1 0x0 DUP1 PUSH1 0x3 NOT CALLDATASIZE ADD SLT PUSH2 0x4F3 JUMPI CALLER DUP2 MSTORE DUP1 PUSH1 0x20 MSTORE PUSH1 0x40 DUP2 KECCAK256 DUP1 SLOAD DUP3 DUP3 SSTORE DUP1 PUSH2 0x706 JUMPI JUMPDEST CALLER PUSH1 0x0 SWAP1 DUP2 MSTORE PUSH1 0x1 PUSH1 0x20 MSTORE PUSH1 0x40 SWAP1 KECCAK256 DUP4 SWAP1 SSTORE DUP3 DUP1 RETURN JUMPDEST PUSH1 0x3 SWAP2 DUP2 DUP4 MUL SWAP2 DUP4 DUP4 DIV SUB PUSH2 0x63B JUMPI DUP4 MSTORE PUSH1 0x20 DUP4 KECCAK256 SWAP1 DUP2 ADD SWAP1 JUMPDEST DUP2 DUP2 LT PUSH2 0x72D JUMPI POP PUSH2 0x6F0 JUMP JUMPDEST DUP1 PUSH2 0x738 DUP5 SWAP3 PUSH2 0x10DA JUMP JUMPDEST ADD PUSH2 0x720 JUMP JUMPDEST SWAP1 DUP1 DUP3 MLOAD SWAP1 DUP2 DUP2 MSTORE PUSH1 0x20 DUP1 SWAP2 ADD SWAP3 DUP2 DUP1 DUP5 PUSH1 0x5 SHL DUP4 ADD ADD SWAP6 ADD SWAP4 PUSH1 0x0 SWAP2 JUMPDEST DUP5 DUP4 LT PUSH2 0x76C JUMPI POP POP POP POP POP POP SWAP1 JUMP JUMPDEST SWAP1 SWAP2 SWAP3 SWAP4 SWAP5 SWAP6 DUP5 DUP1 PUSH2 0x78A PUSH1 0x1 SWAP4 PUSH1 0x1F NOT DUP7 DUP3 SUB ADD DUP8 MSTORE DUP11 MLOAD PUSH2 0x35C JUMP JUMPDEST SWAP9 ADD SWAP4 ADD SWAP4 ADD SWAP2 SWAP5 SWAP4 SWAP3 SWAP1 PUSH2 0x75C JUMP JUMPDEST SWAP1 PUSH2 0x7AD SWAP1 PUSH1 0x40 DUP4 MSTORE PUSH1 0x40 DUP4 ADD SWAP1 PUSH2 0x73E JUMP JUMPDEST DUP2 DUP2 SUB PUSH1 0x20 SWAP3 DUP4 ADD MSTORE DUP3 MLOAD DUP1 DUP3 MSTORE SWAP1 DUP3 ADD SWAP3 DUP3 ADD SWAP2 PUSH1 0x0 JUMPDEST DUP3 DUP2 LT PUSH2 0x7D3 JUMPI POP POP POP POP SWAP1 JUMP JUMPDEST DUP4 MLOAD DUP6 MSTORE SWAP4 DUP2 ADD SWAP4 SWAP3 DUP2 ADD SWAP3 PUSH1 0x1 ADD PUSH2 0x7C5 JUMP JUMPDEST CALLVALUE PUSH2 0x1A7 JUMPI PUSH1 0x20 CALLDATASIZE PUSH1 0x3 NOT ADD SLT PUSH2 0x1A7 JUMPI PUSH1 0x4 CALLDATALOAD DUP1 ISZERO ISZERO DUP1 SWAP2 SUB PUSH2 0x1A7 JUMPI CALLER PUSH1 0x0 SWAP1 DUP2 MSTORE PUSH1 0x20 DUP2 SWAP1 MSTORE PUSH1 0x40 DUP2 KECCAK256 DUP1 SLOAD SWAP1 SWAP3 DUP3 JUMPDEST DUP3 DUP2 LT PUSH2 0x8C3 JUMPI POP PUSH2 0x834 PUSH2 0x82E DUP5 PUSH2 0x1302 JUMP JUMPDEST SWAP4 PUSH2 0x1352 JUMP JUMPDEST SWAP4 PUSH1 0x0 SWAP2 DUP3 JUMPDEST DUP5 DUP2 LT PUSH2 0x850 JUMPI PUSH1 0x40 MLOAD DUP1 PUSH2 0x40C DUP10 DUP10 DUP4 PUSH2 0x79A JUMP JUMPDEST DUP2 PUSH2 0x869 PUSH1 0x1 PUSH2 0x860 DUP5 DUP8 PUSH2 0xD3A JUMP JUMPDEST POP ADD SLOAD PUSH1 0xFF AND SWAP1 JUMP JUMPDEST ISZERO ISZERO EQ PUSH2 0x87F JUMPI JUMPDEST PUSH2 0x87A SWAP1 PUSH2 0xFB7 JUMP JUMPDEST PUSH2 0x83A JUMP JUMPDEST SWAP3 PUSH2 0x8BB PUSH2 0x87A SWAP2 PUSH2 0x894 PUSH2 0x3F2 DUP8 DUP8 PUSH2 0xD3A JUMP JUMPDEST PUSH2 0x89E DUP3 DUP11 PUSH2 0x1384 JUMP JUMPDEST MSTORE PUSH2 0x8A9 DUP2 DUP10 PUSH2 0x1384 JUMP JUMPDEST POP DUP6 PUSH2 0x8B5 DUP3 DUP12 PUSH2 0x1384 JUMP JUMPDEST MSTORE PUSH2 0xFB7 JUMP JUMPDEST SWAP4 SWAP1 POP PUSH2 0x871 JUMP JUMPDEST DUP2 PUSH2 0x8D3 PUSH1 0x1 PUSH2 0x860 DUP5 DUP10 PUSH2 0xD3A JUMP JUMPDEST ISZERO ISZERO EQ PUSH2 0x8E9 JUMPI JUMPDEST PUSH2 0x8E4 SWAP1 PUSH2 0xFB7 JUMP JUMPDEST PUSH2 0x81A JUMP JUMPDEST SWAP3 PUSH2 0x8F6 PUSH2 0x8E4 SWAP2 PUSH2 0xFB7 JUMP JUMPDEST SWAP4 SWAP1 POP PUSH2 0x8DB JUMP JUMPDEST SWAP1 PUSH1 0x20 PUSH2 0x90F SWAP3 DUP2 DUP2 MSTORE ADD SWAP1 PUSH2 0x73E JUMP JUMPDEST SWAP1 JUMP JUMPDEST CALLVALUE PUSH2 0x1A7 JUMPI PUSH1 0x0 DUP1 PUSH1 0x3 NOT CALLDATASIZE ADD SLT PUSH2 0x4F3 JUMPI CALLER DUP2 MSTORE PUSH1 0x20 DUP2 DUP2 MSTORE PUSH1 0x40 DUP3 KECCAK256 DUP1 SLOAD SWAP1 PUSH2 0x93C DUP3 PUSH2 0x11DA JUMP JUMPDEST SWAP3 PUSH2 0x94A PUSH1 0x40 MLOAD SWAP5 DUP6 PUSH2 0x113 JUMP JUMPDEST DUP3 DUP5 MSTORE DUP1 DUP5 ADD SWAP2 DUP6 MSTORE DUP1 DUP6 KECCAK256 SWAP5 SWAP2 JUMPDEST DUP4 DUP4 LT PUSH2 0x96E JUMPI PUSH1 0x40 MLOAD DUP1 PUSH2 0x40C DUP8 DUP3 PUSH2 0x8FE JUMP JUMPDEST PUSH1 0x3 DUP3 PUSH1 0x1 SWAP3 PUSH2 0x97D DUP10 PUSH2 0x11F2 JUMP JUMPDEST DUP2 MSTORE ADD SWAP7 ADD SWAP3 ADD SWAP2 SWAP5 PUSH2 0x959 JUMP JUMPDEST CALLVALUE PUSH2 0x1A7 JUMPI PUSH1 0x40 DUP1 PUSH1 0x3 NOT CALLDATASIZE ADD SLT PUSH2 0x1A7 JUMPI PUSH1 0x4 CALLDATALOAD PUSH1 0x24 CALLDATALOAD SWAP2 PUSH8 0xFFFFFFFFFFFFFFFF SWAP3 DUP4 DUP2 GT PUSH2 0x1A7 JUMPI PUSH2 0x9C3 SWAP1 CALLDATASIZE SWAP1 PUSH1 0x4 ADD PUSH2 0x160 JUMP JUMPDEST SWAP1 PUSH1 0x0 SWAP4 CALLER DUP6 MSTORE PUSH1 0x20 SWAP1 DUP6 DUP3 MSTORE DUP3 DUP7 KECCAK256 SLOAD DUP6 LT ISZERO PUSH2 0xB1F JUMPI DUP4 MLOAD ISZERO PUSH2 0xB0E JUMPI CALLER DUP7 MSTORE DUP6 DUP3 MSTORE PUSH2 0x9F4 DUP6 DUP5 DUP9 KECCAK256 PUSH2 0xD3A JUMP JUMPDEST POP SWAP2 DUP5 MLOAD SWAP2 DUP3 GT PUSH2 0x10E JUMPI PUSH2 0xA13 DUP3 PUSH2 0xA0D DUP6 SLOAD PUSH2 0xD6C JUMP JUMPDEST DUP6 PUSH2 0xDBD JUMP JUMPDEST DUP1 PUSH1 0x1F DUP4 GT PUSH1 0x1 EQ PUSH2 0xA7F JUMPI POP SWAP1 DUP1 PUSH32 0x6B453B6ADC8EF22128C2019ADF1D4AA703CA6EDD91F0D692AC03E638BDE93271 SWAP5 SWAP4 SWAP3 DUP9 SWAP2 PUSH2 0xA74 JUMPI JUMPDEST POP DUP2 PUSH1 0x1 SHL SWAP2 PUSH1 0x0 NOT SWAP1 PUSH1 0x3 SHL SHR NOT AND OR SWAP1 SSTORE JUMPDEST MLOAD DUP1 PUSH2 0xA6E CALLER SWAP5 DUP3 PUSH2 0xB30 JUMP JUMPDEST SUB SWAP1 LOG3 DUP1 RETURN JUMPDEST SWAP1 POP DUP6 ADD MLOAD CODESIZE PUSH2 0xA4D JUMP JUMPDEST SWAP1 PUSH1 0x1F NOT DUP4 AND PUSH2 0xA94 DUP6 PUSH1 0x0 MSTORE PUSH1 0x20 PUSH1 0x0 KECCAK256 SWAP1 JUMP JUMPDEST SWAP3 DUP10 SWAP1 JUMPDEST DUP3 DUP3 LT PUSH2 0xAF6 JUMPI POP POP SWAP2 DUP4 SWAP2 PUSH32 0x6B453B6ADC8EF22128C2019ADF1D4AA703CA6EDD91F0D692AC03E638BDE93271 SWAP7 SWAP6 SWAP5 PUSH1 0x1 SWAP5 LT PUSH2 0xADD JUMPI JUMPDEST POP POP DUP2 SHL ADD SWAP1 SSTORE PUSH2 0xA61 JUMP JUMPDEST DUP8 ADD MLOAD PUSH1 0x0 NOT PUSH1 0xF8 DUP5 PUSH1 0x3 SHL AND SHR NOT AND SWAP1 SSTORE CODESIZE DUP1 PUSH2 0xAD1 JUMP JUMPDEST DUP1 PUSH1 0x1 DUP6 SWAP7 DUP3 SWAP5 SWAP7 DUP13 ADD MLOAD DUP2 SSTORE ADD SWAP6 ADD SWAP4 ADD SWAP1 PUSH2 0xA98 JUMP JUMPDEST DUP3 MLOAD PUSH4 0x74008F79 PUSH1 0xE0 SHL DUP2 MSTORE PUSH1 0x4 SWAP1 REVERT JUMPDEST DUP3 MLOAD PUSH4 0xC325AE33 PUSH1 0xE0 SHL DUP2 MSTORE PUSH1 0x4 SWAP1 REVERT JUMPDEST SWAP1 PUSH1 0x20 PUSH2 0x90F SWAP3 DUP2 DUP2 MSTORE ADD SWAP1 PUSH2 0x31C JUMP JUMPDEST CALLVALUE PUSH2 0x1A7 JUMPI PUSH1 0x20 DUP1 PUSH1 0x3 NOT CALLDATASIZE ADD SLT PUSH2 0x1A7 JUMPI PUSH1 0x4 CALLDATALOAD PUSH1 0x0 JUMPDEST PUSH1 0xFF DUP2 AND DUP4 DUP2 LT SWAP1 DUP2 PUSH2 0xBF0 JUMPI JUMPDEST POP ISZERO PUSH2 0xB7B JUMPI PUSH2 0xB76 SWAP1 PUSH2 0x13AC JUMP JUMPDEST PUSH2 0xB59 JUMP JUMPDEST SWAP1 PUSH2 0xB89 PUSH1 0xFF DUP1 SWAP4 AND PUSH2 0x13BD JUMP JUMPDEST SWAP1 PUSH1 0x0 JUMPDEST DUP1 DUP5 AND SWAP1 DUP6 DUP3 LT DUP1 DUP1 PUSH2 0xBD4 JUMPI JUMPDEST ISZERO PUSH2 0xBC6 JUMPI ISZERO PUSH2 0xBC1 JUMPI DUP2 PUSH2 0xBB6 DUP5 PUSH2 0xBBC SWAP5 BYTE SWAP2 DUP7 PUSH2 0x13E5 JUMP JUMPDEST MSTORE8 PUSH2 0x13AC JUMP JUMPDEST PUSH2 0xB8D JUMP JUMPDEST PUSH2 0xD24 JUMP JUMPDEST PUSH1 0x40 MLOAD DUP1 PUSH2 0x40C DUP8 DUP3 PUSH2 0xB30 JUMP JUMPDEST ISZERO PUSH2 0xBC1 JUMPI DUP4 DUP4 BYTE PUSH1 0xF8 SHL PUSH1 0x1 PUSH1 0x1 PUSH1 0xF8 SHL SUB NOT AND ISZERO ISZERO PUSH2 0xB9B JUMP JUMPDEST SWAP1 ISZERO PUSH2 0xBC1 JUMPI DUP3 SWAP1 BYTE PUSH1 0xF8 SHL PUSH1 0x1 PUSH1 0x1 PUSH1 0xF8 SHL SUB NOT AND ISZERO ISZERO CODESIZE PUSH2 0xB67 JUMP JUMPDEST CALLVALUE PUSH2 0x1A7 JUMPI PUSH1 0x20 CALLDATASIZE PUSH1 0x3 NOT ADD SLT PUSH2 0x1A7 JUMPI PUSH2 0xC27 PUSH2 0x1BC JUMP JUMPDEST CALLER PUSH1 0x0 SWAP1 DUP2 MSTORE PUSH1 0x20 DUP2 SWAP1 MSTORE PUSH1 0x40 SWAP1 KECCAK256 DUP1 SLOAD PUSH1 0xFF SWAP3 DUP4 AND SWAP3 PUSH1 0x0 SWAP3 DUP4 JUMPDEST DUP4 DUP2 LT PUSH2 0xCE9 JUMPI POP PUSH2 0xC5D PUSH2 0xC57 DUP6 PUSH2 0x1302 JUMP JUMPDEST SWAP5 PUSH2 0x1352 JUMP JUMPDEST SWAP5 PUSH1 0x0 SWAP3 DUP4 JUMPDEST DUP6 DUP2 LT PUSH2 0xC79 JUMPI PUSH1 0x40 MLOAD DUP1 PUSH2 0x40C DUP11 DUP11 DUP4 PUSH2 0x79A JUMP JUMPDEST DUP3 DUP3 PUSH2 0xC96 PUSH1 0x1 PUSH2 0xC8A DUP6 DUP10 PUSH2 0xD3A JUMP JUMPDEST POP ADD SLOAD PUSH1 0x28 SHR PUSH1 0xFF AND SWAP1 JUMP JUMPDEST AND EQ PUSH2 0xCAB JUMPI JUMPDEST PUSH2 0xCA6 SWAP1 PUSH2 0xFB7 JUMP JUMPDEST PUSH2 0xC63 JUMP JUMPDEST SWAP4 PUSH2 0xCE1 PUSH2 0xCA6 SWAP2 PUSH2 0xCC0 PUSH2 0x3F2 DUP9 DUP9 PUSH2 0xD3A JUMP JUMPDEST PUSH2 0xCCA DUP3 DUP12 PUSH2 0x1384 JUMP JUMPDEST MSTORE PUSH2 0xCD5 DUP2 DUP11 PUSH2 0x1384 JUMP JUMPDEST POP DUP7 PUSH2 0x8B5 DUP3 DUP13 PUSH2 0x1384 JUMP JUMPDEST SWAP5 SWAP1 POP PUSH2 0xC9D JUMP JUMPDEST DUP6 DUP4 PUSH2 0xCFA PUSH1 0x1 PUSH2 0xC8A DUP6 DUP8 PUSH2 0xD3A JUMP JUMPDEST AND EQ PUSH2 0xD0F JUMPI JUMPDEST PUSH2 0xD0A SWAP1 PUSH2 0xFB7 JUMP JUMPDEST PUSH2 0xC43 JUMP JUMPDEST SWAP4 PUSH2 0xD1C PUSH2 0xD0A SWAP2 PUSH2 0xFB7 JUMP JUMPDEST SWAP5 SWAP1 POP PUSH2 0xD01 JUMP JUMPDEST PUSH4 0x4E487B71 PUSH1 0xE0 SHL PUSH1 0x0 MSTORE PUSH1 0x32 PUSH1 0x4 MSTORE PUSH1 0x24 PUSH1 0x0 REVERT JUMPDEST DUP1 SLOAD DUP3 LT ISZERO PUSH2 0xBC1 JUMPI PUSH1 0x0 MSTORE PUSH1 0x3 PUSH1 0x20 PUSH1 0x0 KECCAK256 SWAP2 MUL ADD SWAP1 PUSH1 0x0 SWAP1 JUMP JUMPDEST PUSH4 0x4E487B71 PUSH1 0xE0 SHL PUSH1 0x0 MSTORE PUSH1 0x0 PUSH1 0x4 MSTORE PUSH1 0x24 PUSH1 0x0 REVERT JUMPDEST SWAP1 PUSH1 0x1 DUP3 DUP2 SHR SWAP3 AND DUP1 ISZERO PUSH2 0xD9C JUMPI JUMPDEST PUSH1 0x20 DUP4 LT EQ PUSH2 0xD86 JUMPI JUMP JUMPDEST PUSH4 0x4E487B71 PUSH1 0xE0 SHL PUSH1 0x0 MSTORE PUSH1 0x22 PUSH1 0x4 MSTORE PUSH1 0x24 PUSH1 0x0 REVERT JUMPDEST SWAP2 PUSH1 0x7F AND SWAP2 PUSH2 0xD7B JUMP JUMPDEST DUP2 DUP2 LT PUSH2 0xDB1 JUMPI POP POP JUMP JUMPDEST PUSH1 0x0 DUP2 SSTORE PUSH1 0x1 ADD PUSH2 0xDA6 JUMP JUMPDEST SWAP2 SWAP1 PUSH1 0x1F DUP2 GT PUSH2 0xDCC JUMPI POP POP POP JUMP JUMPDEST PUSH2 0x142 SWAP3 PUSH1 0x0 MSTORE PUSH1 0x20 PUSH1 0x0 KECCAK256 SWAP1 PUSH1 0x20 PUSH1 0x1F DUP5 ADD PUSH1 0x5 SHR DUP4 ADD SWAP4 LT PUSH2 0xDF8 JUMPI JUMPDEST PUSH1 0x1F ADD PUSH1 0x5 SHR ADD SWAP1 PUSH2 0xDA6 JUMP JUMPDEST SWAP1 SWAP2 POP DUP2 SWAP1 PUSH2 0xDEB JUMP JUMPDEST SWAP1 DUP2 SLOAD PUSH9 0x10000000000000000 DUP2 LT ISZERO PUSH2 0x10E JUMPI PUSH2 0xE27 SWAP1 PUSH1 0x1 SWAP4 DUP5 DUP3 ADD DUP2 SSTORE PUSH2 0xD3A JUMP JUMPDEST SWAP3 SWAP1 SWAP3 PUSH2 0x636 JUMPI DUP2 MLOAD SWAP1 DUP2 MLOAD PUSH8 0xFFFFFFFFFFFFFFFF DUP2 GT PUSH2 0x10E JUMPI PUSH2 0xE56 DUP2 PUSH2 0xE50 DUP8 SLOAD PUSH2 0xD6C JUMP JUMPDEST DUP8 PUSH2 0xDBD JUMP JUMPDEST PUSH1 0x20 SWAP3 DUP4 SWAP1 PUSH1 0x1F DUP4 GT PUSH1 0x1 EQ PUSH2 0xF18 JUMPI PUSH2 0xEA1 PUSH1 0x2 SWAP7 SWAP5 DUP5 PUSH2 0xF06 SWAP6 PUSH1 0x80 SWAP9 SWAP6 PUSH2 0xEB3 SWAP6 PUSH1 0x0 SWAP3 PUSH2 0xF0D JUMPI JUMPDEST POP POP PUSH1 0x0 NOT PUSH1 0x3 DUP4 SWAP1 SHL SHR NOT AND SWAP1 DUP3 SHL OR DUP10 SSTORE JUMPDEST DUP9 ADD SWAP3 DUP6 ADD MLOAD ISZERO ISZERO SWAP1 JUMP JUMPDEST DUP3 SWAP1 PUSH1 0xFF DUP1 NOT DUP4 SLOAD AND SWAP2 ISZERO ISZERO AND OR SWAP1 SSTORE JUMP JUMPDEST PUSH2 0xEE3 PUSH2 0xEC7 PUSH1 0x40 DUP6 ADD MLOAD PUSH4 0xFFFFFFFF AND SWAP1 JUMP JUMPDEST DUP3 SLOAD PUSH5 0xFFFFFFFF00 NOT AND PUSH1 0x8 SWAP2 SWAP1 SWAP2 SHL PUSH5 0xFFFFFFFF00 AND OR DUP3 SSTORE JUMP JUMPDEST PUSH1 0x60 DUP4 ADD MLOAD DUP2 SLOAD PUSH6 0xFF0000000000 NOT AND PUSH1 0x28 SWAP2 SWAP1 SWAP2 SHL PUSH6 0xFF0000000000 AND OR SWAP1 SSTORE JUMP JUMPDEST ADD MLOAD SWAP2 ADD SSTORE JUMP JUMPDEST ADD MLOAD SWAP1 POP CODESIZE DUP1 PUSH2 0xE82 JUMP JUMPDEST SWAP1 PUSH1 0x1F NOT DUP4 AND SWAP2 PUSH2 0xF2E DUP9 PUSH1 0x0 MSTORE PUSH1 0x20 PUSH1 0x0 KECCAK256 SWAP1 JUMP JUMPDEST SWAP3 PUSH1 0x0 JUMPDEST DUP2 DUP2 LT PUSH2 0xF7D JUMPI POP SWAP5 DUP1 DUP6 PUSH1 0x80 SWAP9 SWAP6 PUSH2 0xEB3 SWAP6 PUSH2 0xEA1 SWAP6 PUSH2 0xF06 SWAP10 PUSH1 0x2 SWAP14 SWAP12 LT PUSH2 0xF64 JUMPI JUMPDEST POP POP POP DUP2 SHL ADD DUP10 SSTORE PUSH2 0xE96 JUMP JUMPDEST ADD MLOAD PUSH1 0x0 NOT PUSH1 0xF8 DUP5 PUSH1 0x3 SHL AND SHR NOT AND SWAP1 SSTORE CODESIZE DUP1 DUP1 PUSH2 0xF57 JUMP JUMPDEST DUP3 DUP5 ADD MLOAD DUP6 SSTORE SWAP4 DUP7 ADD SWAP4 SWAP3 DUP8 ADD SWAP3 DUP8 ADD PUSH2 0xF32 JUMP JUMPDEST PUSH4 0x4E487B71 PUSH1 0xE0 SHL PUSH1 0x0 MSTORE PUSH1 0x11 PUSH1 0x4 MSTORE PUSH1 0x24 PUSH1 0x0 REVERT JUMPDEST PUSH1 0x0 NOT DUP2 ADD SWAP2 SWAP1 DUP3 GT PUSH2 0x63B JUMPI JUMP JUMPDEST PUSH1 0x0 NOT DUP2 EQ PUSH2 0x63B JUMPI PUSH1 0x1 ADD SWAP1 JUMP JUMPDEST PUSH1 0xFF PUSH2 0xFE0 PUSH1 0x40 SWAP4 SWAP7 SWAP6 SWAP5 SWAP7 PUSH1 0x60 DUP5 MSTORE PUSH1 0x60 DUP5 ADD SWAP1 PUSH2 0x31C JUMP JUMPDEST SWAP6 AND PUSH1 0x20 DUP3 ADD MSTORE ADD MSTORE JUMP JUMPDEST SWAP2 SWAP1 SWAP2 DUP3 DUP2 EQ PUSH2 0x10D5 JUMPI PUSH2 0xFFF DUP4 SLOAD PUSH2 0xD6C JUMP JUMPDEST PUSH8 0xFFFFFFFFFFFFFFFF DUP2 GT PUSH2 0x10E JUMPI PUSH2 0x1022 DUP2 PUSH2 0x101C DUP5 SLOAD PUSH2 0xD6C JUMP JUMPDEST DUP5 PUSH2 0xDBD JUMP JUMPDEST PUSH1 0x0 SWAP4 PUSH1 0x1F DUP3 GT PUSH1 0x1 EQ PUSH2 0x105E JUMPI SWAP4 DUP2 SWAP3 SWAP4 SWAP5 PUSH1 0x0 SWAP3 PUSH2 0x1053 JUMPI JUMPDEST POP POP DUP2 PUSH1 0x1 SHL SWAP2 PUSH1 0x0 NOT SWAP1 PUSH1 0x3 SHL SHR NOT AND OR SWAP1 SSTORE JUMP JUMPDEST ADD SLOAD SWAP1 POP CODESIZE DUP1 PUSH2 0x103D JUMP JUMPDEST PUSH2 0x1072 PUSH1 0x1F NOT DUP4 AND SWAP2 PUSH1 0x0 MSTORE PUSH1 0x20 PUSH1 0x0 KECCAK256 SWAP1 JUMP JUMPDEST SWAP5 PUSH2 0x1082 DUP5 PUSH1 0x0 MSTORE PUSH1 0x20 PUSH1 0x0 KECCAK256 SWAP1 JUMP JUMPDEST SWAP2 DUP2 JUMPDEST DUP2 DUP2 LT PUSH2 0x10BD JUMPI POP SWAP6 DUP4 PUSH1 0x1 SWAP6 SWAP7 SWAP8 LT PUSH2 0x10A4 JUMPI JUMPDEST POP POP POP DUP2 SHL ADD SWAP1 SSTORE JUMP JUMPDEST ADD SLOAD PUSH1 0x0 NOT PUSH1 0xF8 DUP5 PUSH1 0x3 SHL AND SHR NOT AND SWAP1 SSTORE CODESIZE DUP1 DUP1 PUSH2 0x109A JUMP JUMPDEST DUP8 DUP4 ADD SLOAD DUP5 SSTORE PUSH1 0x1 SWAP4 DUP5 ADD SWAP4 SWAP1 SWAP3 ADD SWAP2 PUSH1 0x20 ADD PUSH2 0x1085 JUMP JUMPDEST POP SWAP1 POP JUMP JUMPDEST PUSH1 0x2 PUSH1 0x0 SWAP2 PUSH2 0x10E9 DUP2 SLOAD PUSH2 0xD6C JUMP JUMPDEST DUP1 PUSH2 0x10FA JUMPI JUMPDEST POP DUP3 PUSH1 0x1 DUP3 ADD SSTORE ADD SSTORE JUMP JUMPDEST PUSH1 0x1F DUP2 GT PUSH1 0x1 EQ PUSH2 0x1110 JUMPI POP DUP3 DUP2 SSTORE JUMPDEST CODESIZE PUSH2 0x10EF JUMP JUMPDEST DUP4 SWAP1 DUP3 DUP3 MSTORE PUSH2 0x112E PUSH1 0x1F PUSH1 0x20 DUP5 KECCAK256 SWAP3 ADD PUSH1 0x5 SHR DUP3 ADD PUSH1 0x1 DUP4 ADD PUSH2 0xDA6 JUMP JUMPDEST DUP2 DUP4 SSTORE SSTORE PUSH2 0x110A JUMP JUMPDEST DUP1 SLOAD DUP1 ISZERO PUSH2 0x11B7 JUMPI PUSH1 0x0 NOT ADD SWAP1 PUSH2 0x114E DUP3 DUP3 PUSH2 0xD3A JUMP JUMPDEST PUSH2 0x636 JUMPI PUSH1 0x2 DUP2 PUSH2 0x1161 PUSH1 0x0 SWAP4 SLOAD PUSH2 0xD6C JUMP JUMPDEST DUP1 PUSH2 0x1173 JUMPI JUMPDEST POP DUP3 PUSH1 0x1 DUP3 ADD SSTORE ADD SSTORE SSTORE JUMP JUMPDEST PUSH1 0x1F DUP2 GT PUSH1 0x1 EQ PUSH2 0x1189 JUMPI POP DUP3 DUP2 SSTORE JUMPDEST CODESIZE PUSH2 0x1167 JUMP JUMPDEST DUP2 DUP5 MSTORE PUSH1 0x20 DUP5 KECCAK256 PUSH2 0x11A5 SWAP2 PUSH1 0x1F ADD PUSH1 0x5 SHR DUP2 ADD SWAP1 PUSH1 0x1 ADD PUSH2 0xDA6 JUMP JUMPDEST PUSH1 0x0 DUP2 DUP2 MSTORE PUSH1 0x20 DUP2 KECCAK256 DUP2 DUP4 SSTORE SSTORE PUSH2 0x1183 JUMP JUMPDEST PUSH4 0x4E487B71 PUSH1 0xE0 SHL PUSH1 0x0 MSTORE PUSH1 0x31 PUSH1 0x4 MSTORE PUSH1 0x24 PUSH1 0x0 REVERT JUMPDEST DUP1 ISZERO PUSH2 0x63B JUMPI PUSH1 0x0 NOT ADD SWAP1 JUMP JUMPDEST PUSH8 0xFFFFFFFFFFFFFFFF DUP2 GT PUSH2 0x10E JUMPI PUSH1 0x5 SHL PUSH1 0x20 ADD SWAP1 JUMP JUMPDEST SWAP1 PUSH1 0x40 MLOAD PUSH2 0x11FF DUP2 PUSH2 0xF2 JUMP JUMPDEST DUP1 SWAP3 PUSH1 0x40 MLOAD PUSH1 0x0 SWAP1 DUP3 SLOAD SWAP2 PUSH2 0x1213 DUP4 PUSH2 0xD6C JUMP JUMPDEST DUP1 DUP4 MSTORE PUSH1 0x1 SWAP4 DUP1 DUP6 AND SWAP1 DUP2 ISZERO PUSH2 0x12B3 JUMPI POP PUSH1 0x1 EQ PUSH2 0x127B JUMPI JUMPDEST POP PUSH1 0xFF PUSH1 0x2 SWAP4 DUP4 PUSH2 0x1245 PUSH1 0x80 SWAP8 SWAP6 PUSH2 0x1274 SWAP6 SUB DUP3 PUSH2 0x113 JUMP JUMPDEST DUP8 MSTORE DUP4 ADD SLOAD DUP2 DUP2 AND ISZERO ISZERO PUSH1 0x20 DUP9 ADD MSTORE PUSH1 0x8 DUP2 SWAP1 SHR PUSH4 0xFFFFFFFF AND PUSH1 0x40 DUP9 ADD MSTORE PUSH1 0x28 SHR AND PUSH1 0x60 DUP7 ADD SWAP1 PUSH1 0xFF AND SWAP1 MSTORE JUMP JUMPDEST ADD SLOAD SWAP2 ADD MSTORE JUMP JUMPDEST SWAP1 POP DUP4 PUSH1 0x0 MSTORE PUSH1 0x20 SWAP1 DUP2 PUSH1 0x0 KECCAK256 SWAP1 PUSH1 0x0 SWAP2 JUMPDEST DUP2 DUP4 LT PUSH2 0x12A0 JUMPI POP POP DUP3 ADD ADD PUSH1 0xFF PUSH2 0x122C JUMP JUMPDEST DUP1 SLOAD DUP6 DUP5 ADD DUP6 ADD MSTORE SWAP2 DUP4 ADD SWAP2 DUP6 ADD PUSH2 0x128D JUMP JUMPDEST PUSH1 0xFF NOT AND PUSH1 0x20 DUP1 DUP7 ADD SWAP2 SWAP1 SWAP2 MSTORE SWAP2 ISZERO ISZERO PUSH1 0x5 SHL DUP5 ADD SWAP1 SWAP2 ADD SWAP2 POP PUSH1 0xFF SWAP1 POP PUSH2 0x122C JUMP JUMPDEST PUSH1 0x40 MLOAD SWAP1 PUSH2 0x12E3 DUP3 PUSH2 0xF2 JUMP JUMPDEST PUSH1 0x0 PUSH1 0x80 DUP4 PUSH1 0x60 DUP2 MSTORE DUP3 PUSH1 0x20 DUP3 ADD MSTORE DUP3 PUSH1 0x40 DUP3 ADD MSTORE DUP3 PUSH1 0x60 DUP3 ADD MSTORE ADD MSTORE JUMP JUMPDEST SWAP1 PUSH2 0x130C DUP3 PUSH2 0x11DA JUMP JUMPDEST PUSH2 0x1319 PUSH1 0x40 MLOAD SWAP2 DUP3 PUSH2 0x113 JUMP JUMPDEST DUP3 DUP2 MSTORE DUP1 SWAP3 PUSH2 0x132A PUSH1 0x1F NOT SWAP2 PUSH2 0x11DA JUMP JUMPDEST ADD SWAP1 PUSH1 0x0 JUMPDEST DUP3 DUP2 LT PUSH2 0x133B JUMPI POP POP POP JUMP JUMPDEST PUSH1 0x20 SWAP1 PUSH2 0x1346 PUSH2 0x12D6 JUMP JUMPDEST DUP3 DUP3 DUP6 ADD ADD MSTORE ADD PUSH2 0x132F JUMP JUMPDEST SWAP1 PUSH2 0x135C DUP3 PUSH2 0x11DA JUMP JUMPDEST PUSH2 0x1369 PUSH1 0x40 MLOAD SWAP2 DUP3 PUSH2 0x113 JUMP JUMPDEST DUP3 DUP2 MSTORE DUP1 SWAP3 PUSH2 0x137A PUSH1 0x1F NOT SWAP2 PUSH2 0x11DA JUMP JUMPDEST ADD SWAP1 PUSH1 0x20 CALLDATASIZE SWAP2 ADD CALLDATACOPY JUMP JUMPDEST DUP1 MLOAD DUP3 LT ISZERO PUSH2 0xBC1 JUMPI PUSH1 0x20 SWAP2 PUSH1 0x5 SHL ADD ADD SWAP1 JUMP JUMPDEST DUP1 MLOAD ISZERO PUSH2 0x13A6 JUMPI PUSH1 0x20 ADD MLOAD SWAP1 JUMP JUMPDEST POP PUSH1 0x0 SWAP1 JUMP JUMPDEST PUSH1 0xFF AND PUSH1 0xFF DUP2 EQ PUSH2 0x63B JUMPI PUSH1 0x1 ADD SWAP1 JUMP JUMPDEST SWAP1 PUSH2 0x13C7 DUP3 PUSH2 0x144 JUMP JUMPDEST PUSH2 0x13D4 PUSH1 0x40 MLOAD SWAP2 DUP3 PUSH2 0x113 JUMP JUMPDEST DUP3 DUP2 MSTORE DUP1 SWAP3 PUSH2 0x137A PUSH1 0x1F NOT SWAP2 PUSH2 0x144 JUMP JUMPDEST SWAP1 DUP2 MLOAD DUP2 LT ISZERO PUSH2 0xBC1 JUMPI ADD PUSH1 0x20 ADD SWAP1 JUMP INVALID LOG2 PUSH5 0x6970667358 0x22 SLT KECCAK256 DUP12 ADDRESS PUSH19 0xCF4C391172745B4FAF6BDC9F202A6A1BD816EC 0xDD PUSH22 0x4C6A273FD86A44564736F6C63430008130033000000 "},"methodIdentifiers":{"bytes32ToString(bytes32)":"9201de55","clearAllTasks()":"6e89fc62","createTask(string,uint8,string)":"072d2d3b","deleteTask(uint256)":"560f3192","getAllTasks()":"779900b4","getTask(uint256)":"1d65e77e","getTaskStats()":"53d976ee","getTasksByPriority(uint8)":"b7c8c412","getTasksByStatus(bool)":"6f1200e2","taskCounts(address)":"4a84d2e7","toggleTask(uint256)":"613137a4","updateTask(uint256,string)":"86533f6c"}}}}}