{
  "_format": "hh-sol-artifact-1",
  "contractName": "TodoList",
  "sourceName": "contracts/TodoList.sol",
  "abi": [
    {
      "inputs": [],
      "name": "EmptyTaskContent",
      "type": "error"
    },
    {
      "inputs": [],
      "name": "TaskAlreadyCompleted",
      "type": "error"
    },
    {
      "inputs": [],
      "name": "TaskNotCompleted",
      "type": "error"
    },
    {
      "inputs": [],
      "name": "TaskNotFound",
      "type": "error"
    },
    {
      "inputs": [],
      "name": "UnauthorizedAccess",
      "type": "error"
    },
    {
      "anonymous": false,
      "inputs": [
        {
          "indexed": true,
          "internalType": "address",
          "name": "user",
          "type": "address"
        },
        {
          "indexed": true,
          "internalType": "uint256",
          "name": "taskId",
          "type": "uint256"
        },
        {
          "indexed": false,
          "internalType": "string",
          "name": "content",
          "type": "string"
        },
        {
          "indexed": false,
          "internalType": "uint8",
          "name": "priority",
          "type": "uint8"
        },
        {
          "indexed": false,
          "internalType": "bytes32",
          "name": "category",
          "type": "bytes32"
        }
      ],
      "name": "TaskCreated",
      "type": "event"
    },
    {
      "anonymous": false,
      "inputs": [
        {
          "indexed": true,
          "internalType": "address",
          "name": "user",
          "type": "address"
        },
        {
          "indexed": true,
          "internalType": "uint256",
          "name": "taskId",
          "type": "uint256"
        }
      ],
      "name": "TaskDeleted",
      "type": "event"
    },
    {
      "anonymous": false,
      "inputs": [
        {
          "indexed": true,
          "internalType": "address",
          "name": "user",
          "type": "address"
        },
        {
          "indexed": true,
          "internalType": "uint256",
          "name": "taskId",
          "type": "uint256"
        },
        {
          "indexed": false,
          "internalType": "bool",
          "name": "isCompleted",
          "type": "bool"
        }
      ],
      "name": "TaskToggled",
      "type": "event"
    },
    {
      "anonymous": false,
      "inputs": [
        {
          "indexed": true,
          "internalType": "address",
          "name": "user",
          "type": "address"
        },
        {
          "indexed": true,
          "internalType": "uint256",
          "name": "taskId",
          "type": "uint256"
        },
        {
          "indexed": false,
          "internalType": "string",
          "name": "newContent",
          "type": "string"
        }
      ],
      "name": "TaskUpdated",
      "type": "event"
    },
    {
      "inputs": [
        {
          "internalType": "bytes32",
          "name": "_bytes32",
          "type": "bytes32"
        }
      ],
      "name": "bytes32ToString",
      "outputs": [
        {
          "internalType": "string",
          "name": "",
          "type": "string"
        }
      ],
      "stateMutability": "pure",
      "type": "function"
    },
    {
      "inputs": [],
      "name": "clearAllTasks",
      "outputs": [],
      "stateMutability": "nonpayable",
      "type": "function"
    },
    {
      "inputs": [
        {
          "internalType": "string",
          "name": "_content",
          "type": "string"
        },
        {
          "internalType": "uint8",
          "name": "_priority",
          "type": "uint8"
        },
        {
          "internalType": "string",
          "name": "_category",
          "type": "string"
        }
      ],
      "name": "createTask",
      "outputs": [],
      "stateMutability": "nonpayable",
      "type": "function"
    },
    {
      "inputs": [
        {
          "internalType": "uint256",
          "name": "_taskId",
          "type": "uint256"
        }
      ],
      "name": "deleteTask",
      "outputs": [],
      "stateMutability": "nonpayable",
      "type": "function"
    },
    {
      "inputs": [],
      "name": "getAllTasks",
      "outputs": [
        {
          "components": [
            {
              "internalType": "string",
              "name": "content",
              "type": "string"
            },
            {
              "internalType": "bool",
              "name": "isCompleted",
              "type": "bool"
            },
            {
              "internalType": "uint32",
              "name": "createdAt",
              "type": "uint32"
            },
            {
              "internalType": "uint8",
              "name": "priority",
              "type": "uint8"
            },
            {
              "internalType": "bytes32",
              "name": "category",
              "type": "bytes32"
            }
          ],
          "internalType": "struct TodoList.Task[]",
          "name": "",
          "type": "tuple[]"
        }
      ],
      "stateMutability": "view",
      "type": "function"
    },
    {
      "inputs": [
        {
          "internalType": "uint256",
          "name": "_taskId",
          "type": "uint256"
        }
      ],
      "name": "getTask",
      "outputs": [
        {
          "components": [
            {
              "internalType": "string",
              "name": "content",
              "type": "string"
            },
            {
              "internalType": "bool",
              "name": "isCompleted",
              "type": "bool"
            },
            {
              "internalType": "uint32",
              "name": "createdAt",
              "type": "uint32"
            },
            {
              "internalType": "uint8",
              "name": "priority",
              "type": "uint8"
            },
            {
              "internalType": "bytes32",
              "name": "category",
              "type": "bytes32"
            }
          ],
          "internalType": "struct TodoList.Task",
          "name": "",
          "type": "tuple"
        }
      ],
      "stateMutability": "view",
      "type": "function"
    },
    {
      "inputs": [],
      "name": "getTaskStats",
      "outputs": [
        {
          "internalType": "uint256",
          "name": "total",
          "type": "uint256"
        },
        {
          "internalType": "uint256",
          "name": "completed",
          "type": "uint256"
        },
        {
          "internalType": "uint256",
          "name": "pending",
          "type": "uint256"
        }
      ],
      "stateMutability": "view",
      "type": "function"
    },
    {
      "inputs": [
        {
          "internalType": "uint8",
          "name": "_priority",
          "type": "uint8"
        }
      ],
      "name": "getTasksByPriority",
      "outputs": [
        {
          "components": [
            {
              "internalType": "string",
              "name": "content",
              "type": "string"
            },
            {
              "internalType": "bool",
              "name": "isCompleted",
              "type": "bool"
            },
            {
              "internalType": "uint32",
              "name": "createdAt",
              "type": "uint32"
            },
            {
              "internalType": "uint8",
              "name": "priority",
              "type": "uint8"
            },
            {
              "internalType": "bytes32",
              "name": "category",
              "type": "bytes32"
            }
          ],
          "internalType": "struct TodoList.Task[]",
          "name": "",
          "type": "tuple[]"
        },
        {
          "internalType": "uint256[]",
          "name": "",
          "type": "uint256[]"
        }
      ],
      "stateMutability": "view",
      "type": "function"
    },
    {
      "inputs": [
        {
          "internalType": "bool",
          "name": "_completed",
          "type": "bool"
        }
      ],
      "name": "getTasksByStatus",
      "outputs": [
        {
          "components": [
            {
              "internalType": "string",
              "name": "content",
              "type": "string"
            },
            {
              "internalType": "bool",
              "name": "isCompleted",
              "type": "bool"
            },
            {
              "internalType": "uint32",
              "name": "createdAt",
              "type": "uint32"
            },
            {
              "internalType": "uint8",
              "name": "priority",
              "type": "uint8"
            },
            {
              "internalType": "bytes32",
              "name": "category",
              "type": "bytes32"
            }
          ],
          "internalType": "struct TodoList.Task[]",
          "name": "",
          "type": "tuple[]"
        },
        {
          "internalType": "uint256[]",
          "name": "",
          "type": "uint256[]"
        }
      ],
      "stateMutability": "view",
      "type": "function"
    },
    {
      "inputs": [
        {
          "internalType": "address",
          "name": "",
          "type": "address"
        }
      ],
      "name": "taskCounts",
      "outputs": [
        {
          "internalType": "uint256",
          "name": "",
          "type": "uint256"
        }
      ],
      "stateMutability": "view",
      "type": "function"
    },
    {
      "inputs": [
        {
          "internalType": "uint256",
          "name": "_taskId",
          "type": "uint256"
        }
      ],
      "name": "toggleTask",
      "outputs": [],
      "stateMutability": "nonpayable",
      "type": "function"
    },
    {
      "inputs": [
        {
          "internalType": "uint256",
          "name": "_taskId",
          "type": "uint256"
        },
        {
          "internalType": "string",
          "name": "_newContent",
          "type": "string"
        }
      ],
      "name": "updateTask",
      "outputs": [],
      "stateMutability": "nonpayable",
      "type": "function"
    }
  ],
  "bytecode": "0x608080604052346100165761142c908161001c8239f35b600080fdfe6080604052600436101561001257600080fd5b60003560e01c8063072d2d3b146100d75780631d65e77e146100d25780634a84d2e7146100cd57806353d976ee146100c8578063560f3192146100c3578063613137a4146100be5780636e89fc62146100b95780636f1200e2146100b4578063779900b4146100af57806386533f6c146100aa5780639201de55146100a55763b7c8c412146100a057600080fd5b610c0e565b610b41565b61098b565b610912565b6107e7565b6106c8565b610640565b6104f6565b610460565b610422565b6103a5565b6101cc565b634e487b7160e01b600052604160045260246000fd5b60a0810190811067ffffffffffffffff82111761010e57604052565b6100dc565b90601f8019910116810190811067ffffffffffffffff82111761010e57604052565b60405190610142826100f2565b565b67ffffffffffffffff811161010e57601f01601f191660200190565b81601f820112156101a75780359061017782610144565b926101856040519485610113565b828452602083830101116101a757816000926020809301838601378301015290565b600080fd5b6024359060ff821682036101a757565b6004359060ff821682036101a757565b346101a75760603660031901126101a75767ffffffffffffffff6004358181116101a7576101fe903690600401610160565b6102066101ac565b916044359081116101a75761021f903690600401610160565b81511561030a5760ff831680159081156102ff575b506102f6575b6102647f2cad7c7bb1ee9f9e2606b98d677d214790fc0113313e1f0abc8ab8fb77dfb08191611398565b6102a961026f610135565b848152600060208201524263ffffffff16604082015260ff8616606082015260808101839052336000908152602081905260409020610e02565b3360009081526020819052604090206102c29054610fa8565b3360009081526001602052604090209094906102de8154610fb7565b90556102f1604051928392339684610fc6565b0390a3005b6003925061023a565b600591501138610234565b6040516374008f7960e01b8152600490fd5b919082519283825260005b848110610348575050826000602080949584010152601f8019910116010190565b602081830181015184830182015201610327565b90608080610373845160a0855260a085019061031c565b9360208101511515602085015263ffffffff604082015116604085015260ff6060820151166060850152015191015290565b346101a75760203660031901126101a7576004356103c16112d6565b50600090338252816020526040822054811015610410576103f26103f891604061040c943381528060205220610d3a565b506111f2565b60405191829160208352602083019061035c565b0390f35b60405163c325ae3360e01b8152600490fd5b346101a75760203660031901126101a7576004356001600160a01b038116908190036101a75760005260016020526020604060002054604051908152f35b346101a7576000806003193601126104f35780803382528160205260408220805492905b8382106104ae57505061040c90604051938493846040919493926060820195825260208201520152565b909360ff60016104be8785610d3a565b50015416156104df576104d36104d991610fb7565b94610fb7565b90610484565b93916104ed6104d991610fb7565b92610fb7565b80fd5b346101a75760203660031901126101a7576004356000903382528160205260408220548110156104105733825281602052604082208054600019810190811161063b5780830361058e575b5061054b90611137565b33600090815260016020526040902061056481546111cd565b9055337fd1bc87501afcaa22b7f6481dac99ed45fbe02321873ca9b55c1f41b9d78b8fb38380a380f35b6105989082610d3a565b50906105a48382610d3a565b610636578261054b9382036105bc575b505090610541565b6002816105ca829385610feb565b61062a6001850160ff600184016105f082825416849060ff801983541691151516179055565b8054835464ffffffff00191664ffffffff009091161783555460281c1665ff000000000082549160281b169065ff00000000001916179055565b015491015538806105b4565b610d56565b610f92565b346101a75760203660031901126101a757600435600090338252816020526040822054811015610410573382528160205260ff60016106828360408620610d3a565b5001805460ff1981169083161560ff16178155541660405190151581527fab7f8b4ae853164b2eec49792f0a9b5ce9ee4568a8d67c9aa3b27e949f31d18360203392a380f35b346101a7576000806003193601126104f3573381528060205260408120805482825580610706575b3360009081526001602052604090208390558280f35b600391818302918383040361063b57835260208320908101905b81811061072d57506106f0565b8061073884926110da565b01610720565b908082519081815260208091019281808460051b8301019501936000915b84831061076c5750505050505090565b909192939495848061078a600193601f198682030187528a5161035c565b980193019301919493929061075c565b906107ad9060408352604083019061073e565b81810360209283015282518082529082019282019160005b8281106107d3575050505090565b8351855293810193928101926001016107c5565b346101a75760203660031901126101a7576004358015158091036101a75733600090815260208190526040812080549092825b8281106108c3575061083461082e84611302565b93611352565b93600091825b848110610850576040518061040c89898361079a565b8161086960016108608487610d3a565b50015460ff1690565b15151461087f575b61087a90610fb7565b61083a565b926108bb61087a916108946103f28787610d3a565b61089e828a611384565b526108a98189611384565b50856108b5828b611384565b52610fb7565b939050610871565b816108d360016108608489610d3a565b1515146108e9575b6108e490610fb7565b61081a565b926108f66108e491610fb7565b9390506108db565b90602061090f92818152019061073e565b90565b346101a7576000806003193601126104f35733815260208181526040822080549061093c826111da565b9261094a6040519485610113565b82845280840191855280852094915b83831061096e576040518061040c87826108fe565b60038260019261097d896111f2565b815201960192019194610959565b346101a7576040806003193601126101a7576004356024359167ffffffffffffffff928381116101a7576109c3903690600401610160565b9060009333855260209085825282862054851015610b1f57835115610b0e573386528582526109f485848820610d3a565b5091845191821161010e57610a1382610a0d8554610d6c565b85610dbd565b80601f8311600114610a7f575090807f6b453b6adc8ef22128c2019adf1d4aa703ca6edd91f0d692ac03e638bde932719493928891610a74575b508160011b916000199060031b1c19161790555b5180610a6e339482610b30565b0390a380f35b905085015138610a4d565b90601f198316610a9485600052602060002090565b9289905b828210610af65750509183917f6b453b6adc8ef22128c2019adf1d4aa703ca6edd91f0d692ac03e638bde9327196959460019410610add575b5050811b019055610a61565b87015160001960f88460031b161c191690553880610ad1565b80600185968294968c01518155019501930190610a98565b82516374008f7960e01b8152600490fd5b825163c325ae3360e01b8152600490fd5b90602061090f92818152019061031c565b346101a7576020806003193601126101a75760043560005b60ff81168381109081610bf0575b5015610b7b57610b76906113ac565b610b59565b90610b8960ff8093166113bd565b9060005b808416908582108080610bd4575b15610bc65715610bc15781610bb684610bbc941a91866113e5565b536113ac565b610b8d565b610d24565b6040518061040c8782610b30565b15610bc15783831a60f81b6001600160f81b0319161515610b9b565b9015610bc15782901a60f81b6001600160f81b031916151538610b67565b346101a75760203660031901126101a757610c276101bc565b336000908152602081905260409020805460ff92831692600092835b838110610ce95750610c5d610c5785611302565b94611352565b94600092835b858110610c79576040518061040c8a8a8361079a565b8282610c966001610c8a8589610d3a565b50015460281c60ff1690565b1614610cab575b610ca690610fb7565b610c63565b93610ce1610ca691610cc06103f28888610d3a565b610cca828b611384565b52610cd5818a611384565b50866108b5828c611384565b949050610c9d565b8583610cfa6001610c8a8587610d3a565b1614610d0f575b610d0a90610fb7565b610c43565b93610d1c610d0a91610fb7565b949050610d01565b634e487b7160e01b600052603260045260246000fd5b8054821015610bc1576000526003602060002091020190600090565b634e487b7160e01b600052600060045260246000fd5b90600182811c92168015610d9c575b6020831014610d8657565b634e487b7160e01b600052602260045260246000fd5b91607f1691610d7b565b818110610db1575050565b60008155600101610da6565b9190601f8111610dcc57505050565b610142926000526020600020906020601f840160051c83019310610df8575b601f0160051c0190610da6565b9091508190610deb565b9081546801000000000000000081101561010e57610e27906001938482018155610d3a565b92909261063657815190815167ffffffffffffffff811161010e57610e5681610e508754610d6c565b87610dbd565b6020928390601f8311600114610f1857610ea16002969484610f069560809895610eb395600092610f0d575b5050600019600383901b1c191690821b1789555b880192850151151590565b829060ff801983541691151516179055565b610ee3610ec7604085015163ffffffff1690565b825464ffffffff00191660089190911b64ffffffff0016178255565b6060830151815465ff0000000000191660289190911b65ff000000000016179055565b0151910155565b015190503880610e82565b90601f19831691610f2e88600052602060002090565b9260005b818110610f7d575094808560809895610eb395610ea195610f069960029d9b10610f64575b505050811b018955610e96565b015160001960f88460031b161c19169055388080610f57565b82840151855593860193928701928701610f32565b634e487b7160e01b600052601160045260246000fd5b60001981019190821161063b57565b600019811461063b5760010190565b60ff610fe06040939695949660608452606084019061031c565b951660208201520152565b9190918281146110d557610fff8354610d6c565b67ffffffffffffffff811161010e576110228161101c8454610d6c565b84610dbd565b600093601f821160011461105e579381929394600092611053575b50508160011b916000199060031b1c1916179055565b01549050388061103d565b611072601f19831691600052602060002090565b9461108284600052602060002090565b91815b8181106110bd575095836001959697106110a4575b505050811b019055565b015460001960f88460031b161c1916905538808061109a565b87830154845560019384019390920191602001611085565b509050565b60026000916110e98154610d6c565b806110fa575b508260018201550155565b601f811160011461111057508281555b386110ef565b839082825261112e601f60208420920160051c820160018301610da6565b8183555561110a565b805480156111b757600019019061114e8282610d3a565b6106365760028161116160009354610d6c565b80611173575b50826001820155015555565b601f811160011461118957508281555b38611167565b818452602084206111a591601f0160051c810190600101610da6565b60008181526020812081835555611183565b634e487b7160e01b600052603160045260246000fd5b801561063b576000190190565b67ffffffffffffffff811161010e5760051b60200190565b906040516111ff816100f2565b809260405160009082549161121383610d6c565b8083526001938085169081156112b3575060011461127b575b5060ff6002938361124560809795611274950382610113565b875283015481811615156020880152600881901c63ffffffff16604088015260281c16606086019060ff169052565b0154910152565b90508360005260209081600020906000915b8183106112a057505082010160ff61122c565b805485840185015291830191850161128d565b60ff191660208086019190915291151560051b8401909101915060ff905061122c565b604051906112e3826100f2565b6000608083606081528260208201528260408201528260608201520152565b9061130c826111da565b6113196040519182610113565b828152809261132a601f19916111da565b019060005b82811061133b57505050565b6020906113466112d6565b8282850101520161132f565b9061135c826111da565b6113696040519182610113565b828152809261137a601f19916111da565b0190602036910137565b8051821015610bc15760209160051b010190565b8051156113a6576020015190565b50600090565b60ff1660ff811461063b5760010190565b906113c782610144565b6113d46040519182610113565b828152809261137a601f1991610144565b908151811015610bc157016020019056fea26469706673582212208b3072cf4c391172745b4faf6bdc9f202a6a1bd816ecdd7504c6a273fd86a44564736f6c63430008130033",
  "linkReferences": {},
  "deployedLinkReferences": {}
}