{
	"data": {
		"bytecode": {
			"linkReferences": {},
			"object": "6080604052348015600e575f5ffd5b506126d28061001c5f395ff3fe608060405234801561000f575f5ffd5b50600436106100b2575f3560e01c80636e89fc621161006f5780636e89fc621461018a5780636f1200e214610194578063779900b4146101c557806386533f6c146101e35780639201de55146101ff578063b7c8c4121461022f576100b2565b8063072d2d3b146100b65780631d65e77e146100d25780634a84d2e71461010257806353d976ee14610132578063560f319214610152578063613137a41461016e575b5f5ffd5b6100d060048036038101906100cb9190611a19565b610260565b005b6100ec60048036038101906100e79190611ad4565b6104e1565b6040516100f99190611c31565b60405180910390f35b61011c60048036038101906101179190611cab565b6106c5565b6040516101299190611ce5565b60405180910390f35b61013a6106da565b60405161014993929190611cfe565b60405180910390f35b61016c60048036038101906101679190611ad4565b61079e565b005b61018860048036038101906101839190611ad4565b610a77565b005b610192610bdd565b005b6101ae60048036038101906101a99190611d5d565b610c68565b6040516101bc929190611f6d565b60405180910390f35b6101cd610f91565b6040516101da9190611fa2565b60405180910390f35b6101fd60048036038101906101f89190611fc2565b61111d565b005b61021960048036038101906102149190612046565b611290565b60405161022691906120b9565b60405180910390f35b610249600480360381019061024491906120d9565b611428565b604051610257929190611f6d565b60405180910390f35b825f81510361029b576040517f74008f7900000000000000000000000000000000000000000000000000000000815260040160405180910390fd5b5f8360ff1614806102af575060058360ff16115b156102b957600392505b5f6102c383611757565b90505f6040518060a001604052808781526020015f151581526020014263ffffffff1681526020018660ff1681526020018381525090505f5f3373ffffffffffffffffffffffffffffffffffffffff1673ffffffffffffffffffffffffffffffffffffffff1681526020019081526020015f2081908060018154018082558091505060019003905f5260205f2090600302015f909190919091505f820151815f0190816103709190612301565b506020820151816001015f6101000a81548160ff02191690831515021790555060408201518160010160016101000a81548163ffffffff021916908363ffffffff16021790555060608201518160010160056101000a81548160ff021916908360ff1602179055506080820151816002015550505f60015f5f3373ffffffffffffffffffffffffffffffffffffffff1673ffffffffffffffffffffffffffffffffffffffff1681526020019081526020015f208054905061043191906123fd565b905060015f3373ffffffffffffffffffffffffffffffffffffffff1673ffffffffffffffffffffffffffffffffffffffff1681526020019081526020015f205f81548092919061048090612430565b9190505550803373ffffffffffffffffffffffffffffffffffffffff167f2cad7c7bb1ee9f9e2606b98d677d214790fc0113313e1f0abc8ab8fb77dfb0818989876040516104d093929190612495565b60405180910390a350505050505050565b6104e961177d565b815f5f3373ffffffffffffffffffffffffffffffffffffffff1673ffffffffffffffffffffffffffffffffffffffff1681526020019081526020015f20805490508110610562576040517fc325ae3300000000000000000000000000000000000000000000000000000000815260040160405180910390fd5b5f5f3373ffffffffffffffffffffffffffffffffffffffff1673ffffffffffffffffffffffffffffffffffffffff1681526020019081526020015f2083815481106105b0576105af6124d1565b5b905f5260205f2090600302016040518060a00160405290815f820180546105d690612131565b80601f016020809104026020016040519081016040528092919081815260200182805461060290612131565b801561064d5780601f106106245761010080835404028352916020019161064d565b820191905f5260205f20905b81548152906001019060200180831161063057829003601f168201915b50505050508152602001600182015f9054906101000a900460ff161515151581526020016001820160019054906101000a900463ffffffff1663ffffffff1663ffffffff1681526020016001820160059054906101000a900460ff1660ff1660ff168152602001600282015481525050915050919050565b6001602052805f5260405f205f915090505481565b5f5f5f5f5f5f3373ffffffffffffffffffffffffffffffffffffffff1673ffffffffffffffffffffffffffffffffffffffff1681526020019081526020015f209050808054905093505f5f90505b818054905081101561079757818181548110610747576107466124d1565b5b905f5260205f2090600302016001015f9054906101000a900460ff161561077b57838061077390612430565b94505061078a565b828061078690612430565b9350505b8080600101915050610728565b5050909192565b805f5f3373ffffffffffffffffffffffffffffffffffffffff1673ffffffffffffffffffffffffffffffffffffffff1681526020019081526020015f20805490508110610817576040517fc325ae3300000000000000000000000000000000000000000000000000000000815260040160405180910390fd5b5f5f5f3373ffffffffffffffffffffffffffffffffffffffff1673ffffffffffffffffffffffffffffffffffffffff1681526020019081526020015f2090505f6001828054905061086891906123fd565b905080841461096057818181548110610884576108836124d1565b5b905f5260205f2090600302018285815481106108a3576108a26124d1565b5b905f5260205f2090600302015f8201815f0190816108c19190612513565b50600182015f9054906101000a900460ff16816001015f6101000a81548160ff0219169083151502179055506001820160019054906101000a900463ffffffff168160010160016101000a81548163ffffffff021916908363ffffffff1602179055506001820160059054906101000a900460ff168160010160056101000a81548160ff021916908360ff160217905550600282015481600201559050505b81805480610971576109706125f8565b5b600190038181905f5260205f2090600302015f5f82015f61099291906117b3565b600182015f6101000a81549060ff02191690556001820160016101000a81549063ffffffff02191690556001820160056101000a81549060ff0219169055600282015f90555050905560015f3373ffffffffffffffffffffffffffffffffffffffff1673ffffffffffffffffffffffffffffffffffffffff1681526020019081526020015f205f815480929190610a2890612625565b9190505550833373ffffffffffffffffffffffffffffffffffffffff167fd1bc87501afcaa22b7f6481dac99ed45fbe02321873ca9b55c1f41b9d78b8fb360405160405180910390a350505050565b805f5f3373ffffffffffffffffffffffffffffffffffffffff1673ffffffffffffffffffffffffffffffffffffffff1681526020019081526020015f20805490508110610af0576040517fc325ae3300000000000000000000000000000000000000000000000000000000815260040160405180910390fd5b5f5f5f3373ffffffffffffffffffffffffffffffffffffffff1673ffffffffffffffffffffffffffffffffffffffff1681526020019081526020015f208381548110610b3f57610b3e6124d1565b5b905f5260205f2090600302019050806001015f9054906101000a900460ff1615816001015f6101000a81548160ff021916908315150217905550823373ffffffffffffffffffffffffffffffffffffffff167fab7f8b4ae853164b2eec49792f0a9b5ce9ee4568a8d67c9aa3b27e949f31d183836001015f9054906101000a900460ff16604051610bd0919061265b565b60405180910390a3505050565b5f5f3373ffffffffffffffffffffffffffffffffffffffff1673ffffffffffffffffffffffffffffffffffffffff1681526020019081526020015f205f610c2491906117f0565b5f60015f3373ffffffffffffffffffffffffffffffffffffffff1673ffffffffffffffffffffffffffffffffffffffff1681526020019081526020015f2081905550565b6060805f5f5f3373ffffffffffffffffffffffffffffffffffffffff1673ffffffffffffffffffffffffffffffffffffffff1681526020019081526020015f2090505f5f90505f5f90505b8280549050811015610d1457851515838281548110610cd557610cd46124d1565b5b905f5260205f2090600302016001015f9054906101000a900460ff16151503610d07578180610d0390612430565b9250505b8080600101915050610cb3565b505f8167ffffffffffffffff811115610d3057610d2f6118bf565b5b604051908082528060200260200182016040528015610d6957816020015b610d5661177d565b815260200190600190039081610d4e5790505b5090505f8267ffffffffffffffff811115610d8757610d866118bf565b5b604051908082528060200260200182016040528015610db55781602001602082028036833780820191505090505b5090505f5f90505f5f90505b8580549050811015610f8057881515868281548110610de357610de26124d1565b5b905f5260205f2090600302016001015f9054906101000a900460ff16151503610f7357858181548110610e1957610e186124d1565b5b905f5260205f2090600302016040518060a00160405290815f82018054610e3f90612131565b80601f0160208091040260200160405190810160405280929190818152602001828054610e6b90612131565b8015610eb65780601f10610e8d57610100808354040283529160200191610eb6565b820191905f5260205f20905b815481529060010190602001808311610e9957829003601f168201915b50505050508152602001600182015f9054906101000a900460ff161515151581526020016001820160019054906101000a900463ffffffff1663ffffffff1663ffffffff1681526020016001820160059054906101000a900460ff1660ff1660ff168152602001600282015481525050848381518110610f3957610f386124d1565b5b602002602001018190525080838381518110610f5857610f576124d1565b5b6020026020010181815250508180610f6f90612430565b9250505b8080600101915050610dc1565b508282965096505050505050915091565b60605f5f3373ffffffffffffffffffffffffffffffffffffffff1673ffffffffffffffffffffffffffffffffffffffff1681526020019081526020015f20805480602002602001604051908101604052809291908181526020015f905b82821015611114578382905f5260205f2090600302016040518060a00160405290815f8201805461101e90612131565b80601f016020809104026020016040519081016040528092919081815260200182805461104a90612131565b80156110955780601f1061106c57610100808354040283529160200191611095565b820191905f5260205f20905b81548152906001019060200180831161107857829003601f168201915b50505050508152602001600182015f9054906101000a900460ff161515151581526020016001820160019054906101000a900463ffffffff1663ffffffff1663ffffffff1681526020016001820160059054906101000a900460ff1660ff1660ff16815260200160028201548152505081526020019060010190610fee565b50505050905090565b815f5f3373ffffffffffffffffffffffffffffffffffffffff1673ffffffffffffffffffffffffffffffffffffffff1681526020019081526020015f20805490508110611196576040517fc325ae3300000000000000000000000000000000000000000000000000000000815260040160405180910390fd5b815f8151036111d1576040517f74008f7900000000000000000000000000000000000000000000000000000000815260040160405180910390fd5b825f5f3373ffffffffffffffffffffffffffffffffffffffff1673ffffffffffffffffffffffffffffffffffffffff1681526020019081526020015f2085815481106112205761121f6124d1565b5b905f5260205f2090600302015f01908161123a9190612301565b50833373ffffffffffffffffffffffffffffffffffffffff167f6b453b6adc8ef22128c2019adf1d4aa703ca6edd91f0d692ac03e638bde932718560405161128291906120b9565b60405180910390a350505050565b60605f5f90505b60208160ff161080156112e857505f60f81b838260ff16602081106112bf576112be6124d1565b5b1a60f81b7effffffffffffffffffffffffffffffffffffffffffffffffffffffffffffff191614155b156113005780806112f890612674565b915050611297565b5f8160ff1667ffffffffffffffff81111561131e5761131d6118bf565b5b6040519080825280601f01601f1916602001820160405280156113505781602001600182028036833780820191505090505b5090505f91505b60208260ff161080156113a857505f60f81b848360ff166020811061137f5761137e6124d1565b5b1a60f81b7effffffffffffffffffffffffffffffffffffffffffffffffffffffffffffff191614155b1561141e57838260ff16602081106113c3576113c26124d1565b5b1a60f81b818360ff16815181106113dd576113dc6124d1565b5b60200101907effffffffffffffffffffffffffffffffffffffffffffffffffffffffffffff191690815f1a905350818061141690612674565b925050611357565b8092505050919050565b6060805f5f5f3373ffffffffffffffffffffffffffffffffffffffff1673ffffffffffffffffffffffffffffffffffffffff1681526020019081526020015f2090505f5f90505f5f90505b82805490508110156114d7578560ff16838281548110611496576114956124d1565b5b905f5260205f20906003020160010160059054906101000a900460ff1660ff16036114ca5781806114c690612430565b9250505b8080600101915050611473565b505f8167ffffffffffffffff8111156114f3576114f26118bf565b5b60405190808252806020026020018201604052801561152c57816020015b61151961177d565b8152602001906001900390816115115790505b5090505f8267ffffffffffffffff81111561154a576115496118bf565b5b6040519080825280602002602001820160405280156115785781602001602082028036833780820191505090505b5090505f5f90505f5f90505b8580549050811015611746578860ff168682815481106115a7576115a66124d1565b5b905f5260205f20906003020160010160059054906101000a900460ff1660ff1603611739578581815481106115df576115de6124d1565b5b905f5260205f2090600302016040518060a00160405290815f8201805461160590612131565b80601f016020809104026020016040519081016040528092919081815260200182805461163190612131565b801561167c5780601f106116535761010080835404028352916020019161167c565b820191905f5260205f20905b81548152906001019060200180831161165f57829003601f168201915b50505050508152602001600182015f9054906101000a900460ff161515151581526020016001820160019054906101000a900463ffffffff1663ffffffff1663ffffffff1681526020016001820160059054906101000a900460ff1660ff1660ff1681526020016002820154815250508483815181106116ff576116fe6124d1565b5b60200260200101819052508083838151811061171e5761171d6124d1565b5b602002602001018181525050818061173590612430565b9250505b8080600101915050611584565b508282965096505050505050915091565b5f5f8290505f81510361176f575f5f1b915050611778565b60208301519150505b919050565b6040518060a00160405280606081526020015f151581526020015f63ffffffff1681526020015f60ff1681526020015f81525090565b5080546117bf90612131565b5f825580601f106117d057506117ed565b601f0160209004905f5260205f20908101906117ec9190611811565b5b50565b5080545f8255600302905f5260205f209081019061180e919061182c565b50565b5b80821115611828575f815f905550600101611812565b5090565b5b80821115611892575f5f82015f61184491906117b3565b600182015f6101000a81549060ff02191690556001820160016101000a81549063ffffffff02191690556001820160056101000a81549060ff0219169055600282015f90555060030161182d565b5090565b5f604051905090565b5f5ffd5b5f5ffd5b5f5ffd5b5f5ffd5b5f601f19601f8301169050919050565b7f4e487b71000000000000000000000000000000000000000000000000000000005f52604160045260245ffd5b6118f5826118af565b810181811067ffffffffffffffff82111715611914576119136118bf565b5b80604052505050565b5f611926611896565b905061193282826118ec565b919050565b5f67ffffffffffffffff821115611951576119506118bf565b5b61195a826118af565b9050602081019050919050565b828183375f83830152505050565b5f61198761198284611937565b61191d565b9050828152602081018484840111156119a3576119a26118ab565b5b6119ae848285611967565b509392505050565b5f82601f8301126119ca576119c96118a7565b5b81356119da848260208601611975565b91505092915050565b5f60ff82169050919050565b6119f8816119e3565b8114611a02575f5ffd5b50565b5f81359050611a13816119ef565b92915050565b5f5f5f60608486031215611a3057611a2f61189f565b5b5f84013567ffffffffffffffff811115611a4d57611a4c6118a3565b5b611a59868287016119b6565b9350506020611a6a86828701611a05565b925050604084013567ffffffffffffffff811115611a8b57611a8a6118a3565b5b611a97868287016119b6565b9150509250925092565b5f819050919050565b611ab381611aa1565b8114611abd575f5ffd5b50565b5f81359050611ace81611aaa565b92915050565b5f60208284031215611ae957611ae861189f565b5b5f611af684828501611ac0565b91505092915050565b5f81519050919050565b5f82825260208201905092915050565b8281835e5f83830152505050565b5f611b3182611aff565b611b3b8185611b09565b9350611b4b818560208601611b19565b611b54816118af565b840191505092915050565b5f8115159050919050565b611b7381611b5f565b82525050565b5f63ffffffff82169050919050565b611b9181611b79565b82525050565b611ba0816119e3565b82525050565b5f819050919050565b611bb881611ba6565b82525050565b5f60a083015f8301518482035f860152611bd88282611b27565b9150506020830151611bed6020860182611b6a565b506040830151611c006040860182611b88565b506060830151611c136060860182611b97565b506080830151611c266080860182611baf565b508091505092915050565b5f6020820190508181035f830152611c498184611bbe565b905092915050565b5f73ffffffffffffffffffffffffffffffffffffffff82169050919050565b5f611c7a82611c51565b9050919050565b611c8a81611c70565b8114611c94575f5ffd5b50565b5f81359050611ca581611c81565b92915050565b5f60208284031215611cc057611cbf61189f565b5b5f611ccd84828501611c97565b91505092915050565b611cdf81611aa1565b82525050565b5f602082019050611cf85f830184611cd6565b92915050565b5f606082019050611d115f830186611cd6565b611d1e6020830185611cd6565b611d2b6040830184611cd6565b949350505050565b611d3c81611b5f565b8114611d46575f5ffd5b50565b5f81359050611d5781611d33565b92915050565b5f60208284031215611d7257611d7161189f565b5b5f611d7f84828501611d49565b91505092915050565b5f81519050919050565b5f82825260208201905092915050565b5f819050602082019050919050565b5f60a083015f8301518482035f860152611dcb8282611b27565b9150506020830151611de06020860182611b6a565b506040830151611df36040860182611b88565b506060830151611e066060860182611b97565b506080830151611e196080860182611baf565b508091505092915050565b5f611e2f8383611db1565b905092915050565b5f602082019050919050565b5f611e4d82611d88565b611e578185611d92565b935083602082028501611e6985611da2565b805f5b85811015611ea45784840389528151611e858582611e24565b9450611e9083611e37565b925060208a01995050600181019050611e6c565b50829750879550505050505092915050565b5f81519050919050565b5f82825260208201905092915050565b5f819050602082019050919050565b611ee881611aa1565b82525050565b5f611ef98383611edf565b60208301905092915050565b5f602082019050919050565b5f611f1b82611eb6565b611f258185611ec0565b9350611f3083611ed0565b805f5b83811015611f60578151611f478882611eee565b9750611f5283611f05565b925050600181019050611f33565b5085935050505092915050565b5f6040820190508181035f830152611f858185611e43565b90508181036020830152611f998184611f11565b90509392505050565b5f6020820190508181035f830152611fba8184611e43565b905092915050565b5f5f60408385031215611fd857611fd761189f565b5b5f611fe585828601611ac0565b925050602083013567ffffffffffffffff811115612006576120056118a3565b5b612012858286016119b6565b9150509250929050565b61202581611ba6565b811461202f575f5ffd5b50565b5f813590506120408161201c565b92915050565b5f6020828403121561205b5761205a61189f565b5b5f61206884828501612032565b91505092915050565b5f82825260208201905092915050565b5f61208b82611aff565b6120958185612071565b93506120a5818560208601611b19565b6120ae816118af565b840191505092915050565b5f6020820190508181035f8301526120d18184612081565b905092915050565b5f602082840312156120ee576120ed61189f565b5b5f6120fb84828501611a05565b91505092915050565b7f4e487b71000000000000000000000000000000000000000000000000000000005f52602260045260245ffd5b5f600282049050600182168061214857607f821691505b60208210810361215b5761215a612104565b5b50919050565b5f819050815f5260205f209050919050565b5f6020601f8301049050919050565b5f82821b905092915050565b5f600883026121bd7fffffffffffffffffffffffffffffffffffffffffffffffffffffffffffffffff82612182565b6121c78683612182565b95508019841693508086168417925050509392505050565b5f819050919050565b5f6122026121fd6121f884611aa1565b6121df565b611aa1565b9050919050565b5f819050919050565b61221b836121e8565b61222f61222782612209565b84845461218e565b825550505050565b5f5f905090565b612246612237565b612251818484612212565b505050565b5b81811015612274576122695f8261223e565b600181019050612257565b5050565b601f8211156122b95761228a81612161565b61229384612173565b810160208510156122a2578190505b6122b66122ae85612173565b830182612256565b50505b505050565b5f82821c905092915050565b5f6122d95f19846008026122be565b1980831691505092915050565b5f6122f183836122ca565b9150826002028217905092915050565b61230a82611aff565b67ffffffffffffffff811115612323576123226118bf565b5b61232d8254612131565b612338828285612278565b5f60209050601f831160018114612369575f8415612357578287015190505b61236185826122e6565b8655506123c8565b601f19841661237786612161565b5f5b8281101561239e57848901518255600182019150602085019450602081019050612379565b868310156123bb57848901516123b7601f8916826122ca565b8355505b6001600288020188555050505b505050505050565b7f4e487b71000000000000000000000000000000000000000000000000000000005f52601160045260245ffd5b5f61240782611aa1565b915061241283611aa1565b925082820390508181111561242a576124296123d0565b5b92915050565b5f61243a82611aa1565b91507fffffffffffffffffffffffffffffffffffffffffffffffffffffffffffffffff820361246c5761246b6123d0565b5b600182019050919050565b612480816119e3565b82525050565b61248f81611ba6565b82525050565b5f6060820190508181035f8301526124ad8186612081565b90506124bc6020830185612477565b6124c96040830184612486565b949350505050565b7f4e487b71000000000000000000000000000000000000000000000000000000005f52603260045260245ffd5b5f8154905061250c81612131565b9050919050565b8181036125215750506125f6565b61252a826124fe565b67ffffffffffffffff811115612543576125426118bf565b5b61254d8254612131565b612558828285612278565b5f601f831160018114612585575f8415612573578287015490505b61257d85826122e6565b8655506125ef565b601f19841661259387612161565b965061259e86612161565b5f5b828110156125c5578489015482556001820191506001850194506020810190506125a0565b868310156125e257848901546125de601f8916826122ca565b8355505b6001600288020188555050505b5050505050505b565b7f4e487b71000000000000000000000000000000000000000000000000000000005f52603160045260245ffd5b5f61262f82611aa1565b91505f8203612641576126406123d0565b5b600182039050919050565b61265581611b5f565b82525050565b5f60208201905061266e5f83018461264c565b92915050565b5f61267e826119e3565b915060ff8203612691576126906123d0565b5b60018201905091905056fea2646970667358221220f53d3ba9be0f85021549eb2a880b6b8c6186daa8a7dbd0449f7ec13bc2c18a1c64736f6c634300081e0033",
			"opcodes": "PUSH1 0x80 PUSH1 0x40 MSTORE CALLVALUE DUP1 ISZERO PUSH1 0xE JUMPI PUSH0 PUSH0 REVERT JUMPDEST POP PUSH2 0x26D2 DUP1 PUSH2 0x1C PUSH0 CODECOPY PUSH0 RETURN INVALID PUSH1 0x80 PUSH1 0x40 MSTORE CALLVALUE DUP1 ISZERO PUSH2 0xF JUMPI PUSH0 PUSH0 REVERT JUMPDEST POP PUSH1 0x4 CALLDATASIZE LT PUSH2 0xB2 JUMPI PUSH0 CALLDATALOAD PUSH1 0xE0 SHR DUP1 PUSH4 0x6E89FC62 GT PUSH2 0x6F JUMPI DUP1 PUSH4 0x6E89FC62 EQ PUSH2 0x18A JUMPI DUP1 PUSH4 0x6F1200E2 EQ PUSH2 0x194 JUMPI DUP1 PUSH4 0x779900B4 EQ PUSH2 0x1C5 JUMPI DUP1 PUSH4 0x86533F6C EQ PUSH2 0x1E3 JUMPI DUP1 PUSH4 0x9201DE55 EQ PUSH2 0x1FF JUMPI DUP1 PUSH4 0xB7C8C412 EQ PUSH2 0x22F JUMPI PUSH2 0xB2 JUMP JUMPDEST DUP1 PUSH4 0x72D2D3B EQ PUSH2 0xB6 JUMPI DUP1 PUSH4 0x1D65E77E EQ PUSH2 0xD2 JUMPI DUP1 PUSH4 0x4A84D2E7 EQ PUSH2 0x102 JUMPI DUP1 PUSH4 0x53D976EE EQ PUSH2 0x132 JUMPI DUP1 PUSH4 0x560F3192 EQ PUSH2 0x152 JUMPI DUP1 PUSH4 0x613137A4 EQ PUSH2 0x16E JUMPI JUMPDEST PUSH0 PUSH0 REVERT JUMPDEST PUSH2 0xD0 PUSH1 0x4 DUP1 CALLDATASIZE SUB DUP2 ADD SWAP1 PUSH2 0xCB SWAP2 SWAP1 PUSH2 0x1A19 JUMP JUMPDEST PUSH2 0x260 JUMP JUMPDEST STOP JUMPDEST PUSH2 0xEC PUSH1 0x4 DUP1 CALLDATASIZE SUB DUP2 ADD SWAP1 PUSH2 0xE7 SWAP2 SWAP1 PUSH2 0x1AD4 JUMP JUMPDEST PUSH2 0x4E1 JUMP JUMPDEST PUSH1 0x40 MLOAD PUSH2 0xF9 SWAP2 SWAP1 PUSH2 0x1C31 JUMP JUMPDEST PUSH1 0x40 MLOAD DUP1 SWAP2 SUB SWAP1 RETURN JUMPDEST PUSH2 0x11C PUSH1 0x4 DUP1 CALLDATASIZE SUB DUP2 ADD SWAP1 PUSH2 0x117 SWAP2 SWAP1 PUSH2 0x1CAB JUMP JUMPDEST PUSH2 0x6C5 JUMP JUMPDEST PUSH1 0x40 MLOAD PUSH2 0x129 SWAP2 SWAP1 PUSH2 0x1CE5 JUMP JUMPDEST PUSH1 0x40 MLOAD DUP1 SWAP2 SUB SWAP1 RETURN JUMPDEST PUSH2 0x13A PUSH2 0x6DA JUMP JUMPDEST PUSH1 0x40 MLOAD PUSH2 0x149 SWAP4 SWAP3 SWAP2 SWAP1 PUSH2 0x1CFE JUMP JUMPDEST PUSH1 0x40 MLOAD DUP1 SWAP2 SUB SWAP1 RETURN JUMPDEST PUSH2 0x16C PUSH1 0x4 DUP1 CALLDATASIZE SUB DUP2 ADD SWAP1 PUSH2 0x167 SWAP2 SWAP1 PUSH2 0x1AD4 JUMP JUMPDEST PUSH2 0x79E JUMP JUMPDEST STOP JUMPDEST PUSH2 0x188 PUSH1 0x4 DUP1 CALLDATASIZE SUB DUP2 ADD SWAP1 PUSH2 0x183 SWAP2 SWAP1 PUSH2 0x1AD4 JUMP JUMPDEST PUSH2 0xA77 JUMP JUMPDEST STOP JUMPDEST PUSH2 0x192 PUSH2 0xBDD JUMP JUMPDEST STOP JUMPDEST PUSH2 0x1AE PUSH1 0x4 DUP1 CALLDATASIZE SUB DUP2 ADD SWAP1 PUSH2 0x1A9 SWAP2 SWAP1 PUSH2 0x1D5D JUMP JUMPDEST PUSH2 0xC68 JUMP JUMPDEST PUSH1 0x40 MLOAD PUSH2 0x1BC SWAP3 SWAP2 SWAP1 PUSH2 0x1F6D JUMP JUMPDEST PUSH1 0x40 MLOAD DUP1 SWAP2 SUB SWAP1 RETURN JUMPDEST PUSH2 0x1CD PUSH2 0xF91 JUMP JUMPDEST PUSH1 0x40 MLOAD PUSH2 0x1DA SWAP2 SWAP1 PUSH2 0x1FA2 JUMP JUMPDEST PUSH1 0x40 MLOAD DUP1 SWAP2 SUB SWAP1 RETURN JUMPDEST PUSH2 0x1FD PUSH1 0x4 DUP1 CALLDATASIZE SUB DUP2 ADD SWAP1 PUSH2 0x1F8 SWAP2 SWAP1 PUSH2 0x1FC2 JUMP JUMPDEST PUSH2 0x111D JUMP JUMPDEST STOP JUMPDEST PUSH2 0x219 PUSH1 0x4 DUP1 CALLDATASIZE SUB DUP2 ADD SWAP1 PUSH2 0x214 SWAP2 SWAP1 PUSH2 0x2046 JUMP JUMPDEST PUSH2 0x1290 JUMP JUMPDEST PUSH1 0x40 MLOAD PUSH2 0x226 SWAP2 SWAP1 PUSH2 0x20B9 JUMP JUMPDEST PUSH1 0x40 MLOAD DUP1 SWAP2 SUB SWAP1 RETURN JUMPDEST PUSH2 0x249 PUSH1 0x4 DUP1 CALLDATASIZE SUB DUP2 ADD SWAP1 PUSH2 0x244 SWAP2 SWAP1 PUSH2 0x20D9 JUMP JUMPDEST PUSH2 0x1428 JUMP JUMPDEST PUSH1 0x40 MLOAD PUSH2 0x257 SWAP3 SWAP2 SWAP1 PUSH2 0x1F6D JUMP JUMPDEST PUSH1 0x40 MLOAD DUP1 SWAP2 SUB SWAP1 RETURN JUMPDEST DUP3 PUSH0 DUP2 MLOAD SUB PUSH2 0x29B JUMPI PUSH1 0x40 MLOAD PUSH32 0x74008F7900000000000000000000000000000000000000000000000000000000 DUP2 MSTORE PUSH1 0x4 ADD PUSH1 0x40 MLOAD DUP1 SWAP2 SUB SWAP1 REVERT JUMPDEST PUSH0 DUP4 PUSH1 0xFF AND EQ DUP1 PUSH2 0x2AF JUMPI POP PUSH1 0x5 DUP4 PUSH1 0xFF AND GT JUMPDEST ISZERO PUSH2 0x2B9 JUMPI PUSH1 0x3 SWAP3 POP JUMPDEST PUSH0 PUSH2 0x2C3 DUP4 PUSH2 0x1757 JUMP JUMPDEST SWAP1 POP PUSH0 PUSH1 0x40 MLOAD DUP1 PUSH1 0xA0 ADD PUSH1 0x40 MSTORE DUP1 DUP8 DUP2 MSTORE PUSH1 0x20 ADD PUSH0 ISZERO ISZERO DUP2 MSTORE PUSH1 0x20 ADD TIMESTAMP PUSH4 0xFFFFFFFF AND DUP2 MSTORE PUSH1 0x20 ADD DUP7 PUSH1 0xFF AND DUP2 MSTORE PUSH1 0x20 ADD DUP4 DUP2 MSTORE POP SWAP1 POP PUSH0 PUSH0 CALLER PUSH20 0xFFFFFFFFFFFFFFFFFFFFFFFFFFFFFFFFFFFFFFFF AND PUSH20 0xFFFFFFFFFFFFFFFFFFFFFFFFFFFFFFFFFFFFFFFF AND DUP2 MSTORE PUSH1 0x20 ADD SWAP1 DUP2 MSTORE PUSH1 0x20 ADD PUSH0 KECCAK256 DUP2 SWAP1 DUP1 PUSH1 0x1 DUP2 SLOAD ADD DUP1 DUP3 SSTORE DUP1 SWAP2 POP POP PUSH1 0x1 SWAP1 SUB SWAP1 PUSH0 MSTORE PUSH1 0x20 PUSH0 KECCAK256 SWAP1 PUSH1 0x3 MUL ADD PUSH0 SWAP1 SWAP2 SWAP1 SWAP2 SWAP1 SWAP2 POP PUSH0 DUP3 ADD MLOAD DUP2 PUSH0 ADD SWAP1 DUP2 PUSH2 0x370 SWAP2 SWAP1 PUSH2 0x2301 JUMP JUMPDEST POP PUSH1 0x20 DUP3 ADD MLOAD DUP2 PUSH1 0x1 ADD PUSH0 PUSH2 0x100 EXP DUP2 SLOAD DUP2 PUSH1 0xFF MUL NOT AND SWAP1 DUP4 ISZERO ISZERO MUL OR SWAP1 SSTORE POP PUSH1 0x40 DUP3 ADD MLOAD DUP2 PUSH1 0x1 ADD PUSH1 0x1 PUSH2 0x100 EXP DUP2 SLOAD DUP2 PUSH4 0xFFFFFFFF MUL NOT AND SWAP1 DUP4 PUSH4 0xFFFFFFFF AND MUL OR SWAP1 SSTORE POP PUSH1 0x60 DUP3 ADD MLOAD DUP2 PUSH1 0x1 ADD PUSH1 0x5 PUSH2 0x100 EXP DUP2 SLOAD DUP2 PUSH1 0xFF MUL NOT AND SWAP1 DUP4 PUSH1 0xFF AND MUL OR SWAP1 SSTORE POP PUSH1 0x80 DUP3 ADD MLOAD DUP2 PUSH1 0x2 ADD SSTORE POP POP PUSH0 PUSH1 0x1 PUSH0 PUSH0 CALLER PUSH20 0xFFFFFFFFFFFFFFFFFFFFFFFFFFFFFFFFFFFFFFFF AND PUSH20 0xFFFFFFFFFFFFFFFFFFFFFFFFFFFFFFFFFFFFFFFF AND DUP2 MSTORE PUSH1 0x20 ADD SWAP1 DUP2 MSTORE PUSH1 0x20 ADD PUSH0 KECCAK256 DUP1 SLOAD SWAP1 POP PUSH2 0x431 SWAP2 SWAP1 PUSH2 0x23FD JUMP JUMPDEST SWAP1 POP PUSH1 0x1 PUSH0 CALLER PUSH20 0xFFFFFFFFFFFFFFFFFFFFFFFFFFFFFFFFFFFFFFFF AND PUSH20 0xFFFFFFFFFFFFFFFFFFFFFFFFFFFFFFFFFFFFFFFF AND DUP2 MSTORE PUSH1 0x20 ADD SWAP1 DUP2 MSTORE PUSH1 0x20 ADD PUSH0 KECCAK256 PUSH0 DUP2 SLOAD DUP1 SWAP3 SWAP2 SWAP1 PUSH2 0x480 SWAP1 PUSH2 0x2430 JUMP JUMPDEST SWAP2 SWAP1 POP SSTORE POP DUP1 CALLER PUSH20 0xFFFFFFFFFFFFFFFFFFFFFFFFFFFFFFFFFFFFFFFF AND PUSH32 0x2CAD7C7BB1EE9F9E2606B98D677D214790FC0113313E1F0ABC8AB8FB77DFB081 DUP10 DUP10 DUP8 PUSH1 0x40 MLOAD PUSH2 0x4D0 SWAP4 SWAP3 SWAP2 SWAP1 PUSH2 0x2495 JUMP JUMPDEST PUSH1 0x40 MLOAD DUP1 SWAP2 SUB SWAP1 LOG3 POP POP POP POP POP POP POP JUMP JUMPDEST PUSH2 0x4E9 PUSH2 0x177D JUMP JUMPDEST DUP2 PUSH0 PUSH0 CALLER PUSH20 0xFFFFFFFFFFFFFFFFFFFFFFFFFFFFFFFFFFFFFFFF AND PUSH20 0xFFFFFFFFFFFFFFFFFFFFFFFFFFFFFFFFFFFFFFFF AND DUP2 MSTORE PUSH1 0x20 ADD SWAP1 DUP2 MSTORE PUSH1 0x20 ADD PUSH0 KECCAK256 DUP1 SLOAD SWAP1 POP DUP2 LT PUSH2 0x562 JUMPI PUSH1 0x40 MLOAD PUSH32 0xC325AE3300000000000000000000000000000000000000000000000000000000 DUP2 MSTORE PUSH1 0x4 ADD PUSH1 0x40 MLOAD DUP1 SWAP2 SUB SWAP1 REVERT JUMPDEST PUSH0 PUSH0 CALLER PUSH20 0xFFFFFFFFFFFFFFFFFFFFFFFFFFFFFFFFFFFFFFFF AND PUSH20 0xFFFFFFFFFFFFFFFFFFFFFFFFFFFFFFFFFFFFFFFF AND DUP2 MSTORE PUSH1 0x20 ADD SWAP1 DUP2 MSTORE PUSH1 0x20 ADD PUSH0 KECCAK256 DUP4 DUP2 SLOAD DUP2 LT PUSH2 0x5B0 JUMPI PUSH2 0x5AF PUSH2 0x24D1 JUMP JUMPDEST JUMPDEST SWAP1 PUSH0 MSTORE PUSH1 0x20 PUSH0 KECCAK256 SWAP1 PUSH1 0x3 MUL ADD PUSH1 0x40 MLOAD DUP1 PUSH1 0xA0 ADD PUSH1 0x40 MSTORE SWAP1 DUP2 PUSH0 DUP3 ADD DUP1 SLOAD PUSH2 0x5D6 SWAP1 PUSH2 0x2131 JUMP JUMPDEST DUP1 PUSH1 0x1F ADD PUSH1 0x20 DUP1 SWAP2 DIV MUL PUSH1 0x20 ADD PUSH1 0x40 MLOAD SWAP1 DUP2 ADD PUSH1 0x40 MSTORE DUP1 SWAP3 SWAP2 SWAP1 DUP2 DUP2 MSTORE PUSH1 0x20 ADD DUP3 DUP1 SLOAD PUSH2 0x602 SWAP1 PUSH2 0x2131 JUMP JUMPDEST DUP1 ISZERO PUSH2 0x64D JUMPI DUP1 PUSH1 0x1F LT PUSH2 0x624 JUMPI PUSH2 0x100 DUP1 DUP4 SLOAD DIV MUL DUP4 MSTORE SWAP2 PUSH1 0x20 ADD SWAP2 PUSH2 0x64D JUMP JUMPDEST DUP3 ADD SWAP2 SWAP1 PUSH0 MSTORE PUSH1 0x20 PUSH0 KECCAK256 SWAP1 JUMPDEST DUP2 SLOAD DUP2 MSTORE SWAP1 PUSH1 0x1 ADD SWAP1 PUSH1 0x20 ADD DUP1 DUP4 GT PUSH2 0x630 JUMPI DUP3 SWAP1 SUB PUSH1 0x1F AND DUP3 ADD SWAP2 JUMPDEST POP POP POP POP POP DUP2 MSTORE PUSH1 0x20 ADD PUSH1 0x1 DUP3 ADD PUSH0 SWAP1 SLOAD SWAP1 PUSH2 0x100 EXP SWAP1 DIV PUSH1 0xFF AND ISZERO ISZERO ISZERO ISZERO DUP2 MSTORE PUSH1 0x20 ADD PUSH1 0x1 DUP3 ADD PUSH1 0x1 SWAP1 SLOAD SWAP1 PUSH2 0x100 EXP SWAP1 DIV PUSH4 0xFFFFFFFF AND PUSH4 0xFFFFFFFF AND PUSH4 0xFFFFFFFF AND DUP2 MSTORE PUSH1 0x20 ADD PUSH1 0x1 DUP3 ADD PUSH1 0x5 SWAP1 SLOAD SWAP1 PUSH2 0x100 EXP SWAP1 DIV PUSH1 0xFF AND PUSH1 0xFF AND PUSH1 0xFF AND DUP2 MSTORE PUSH1 0x20 ADD PUSH1 0x2 DUP3 ADD SLOAD DUP2 MSTORE POP POP SWAP2 POP POP SWAP2 SWAP1 POP JUMP JUMPDEST PUSH1 0x1 PUSH1 0x20 MSTORE DUP1 PUSH0 MSTORE PUSH1 0x40 PUSH0 KECCAK256 PUSH0 SWAP2 POP SWAP1 POP SLOAD DUP2 JUMP JUMPDEST PUSH0 PUSH0 PUSH0 PUSH0 PUSH0 PUSH0 CALLER PUSH20 0xFFFFFFFFFFFFFFFFFFFFFFFFFFFFFFFFFFFFFFFF AND PUSH20 0xFFFFFFFFFFFFFFFFFFFFFFFFFFFFFFFFFFFFFFFF AND DUP2 MSTORE PUSH1 0x20 ADD SWAP1 DUP2 MSTORE PUSH1 0x20 ADD PUSH0 KECCAK256 SWAP1 POP DUP1 DUP1 SLOAD SWAP1 POP SWAP4 POP PUSH0 PUSH0 SWAP1 POP JUMPDEST DUP2 DUP1 SLOAD SWAP1 POP DUP2 LT ISZERO PUSH2 0x797 JUMPI DUP2 DUP2 DUP2 SLOAD DUP2 LT PUSH2 0x747 JUMPI PUSH2 0x746 PUSH2 0x24D1 JUMP JUMPDEST JUMPDEST SWAP1 PUSH0 MSTORE PUSH1 0x20 PUSH0 KECCAK256 SWAP1 PUSH1 0x3 MUL ADD PUSH1 0x1 ADD PUSH0 SWAP1 SLOAD SWAP1 PUSH2 0x100 EXP SWAP1 DIV PUSH1 0xFF AND ISZERO PUSH2 0x77B JUMPI DUP4 DUP1 PUSH2 0x773 SWAP1 PUSH2 0x2430 JUMP JUMPDEST SWAP5 POP POP PUSH2 0x78A JUMP JUMPDEST DUP3 DUP1 PUSH2 0x786 SWAP1 PUSH2 0x2430 JUMP JUMPDEST SWAP4 POP POP JUMPDEST DUP1 DUP1 PUSH1 0x1 ADD SWAP2 POP POP PUSH2 0x728 JUMP JUMPDEST POP POP SWAP1 SWAP2 SWAP3 JUMP JUMPDEST DUP1 PUSH0 PUSH0 CALLER PUSH20 0xFFFFFFFFFFFFFFFFFFFFFFFFFFFFFFFFFFFFFFFF AND PUSH20 0xFFFFFFFFFFFFFFFFFFFFFFFFFFFFFFFFFFFFFFFF AND DUP2 MSTORE PUSH1 0x20 ADD SWAP1 DUP2 MSTORE PUSH1 0x20 ADD PUSH0 KECCAK256 DUP1 SLOAD SWAP1 POP DUP2 LT PUSH2 0x817 JUMPI PUSH1 0x40 MLOAD PUSH32 0xC325AE3300000000000000000000000000000000000000000000000000000000 DUP2 MSTORE PUSH1 0x4 ADD PUSH1 0x40 MLOAD DUP1 SWAP2 SUB SWAP1 REVERT JUMPDEST PUSH0 PUSH0 PUSH0 CALLER PUSH20 0xFFFFFFFFFFFFFFFFFFFFFFFFFFFFFFFFFFFFFFFF AND PUSH20 0xFFFFFFFFFFFFFFFFFFFFFFFFFFFFFFFFFFFFFFFF AND DUP2 MSTORE PUSH1 0x20 ADD SWAP1 DUP2 MSTORE PUSH1 0x20 ADD PUSH0 KECCAK256 SWAP1 POP PUSH0 PUSH1 0x1 DUP3 DUP1 SLOAD SWAP1 POP PUSH2 0x868 SWAP2 SWAP1 PUSH2 0x23FD JUMP JUMPDEST SWAP1 POP DUP1 DUP5 EQ PUSH2 0x960 JUMPI DUP2 DUP2 DUP2 SLOAD DUP2 LT PUSH2 0x884 JUMPI PUSH2 0x883 PUSH2 0x24D1 JUMP JUMPDEST JUMPDEST SWAP1 PUSH0 MSTORE PUSH1 0x20 PUSH0 KECCAK256 SWAP1 PUSH1 0x3 MUL ADD DUP3 DUP6 DUP2 SLOAD DUP2 LT PUSH2 0x8A3 JUMPI PUSH2 0x8A2 PUSH2 0x24D1 JUMP JUMPDEST JUMPDEST SWAP1 PUSH0 MSTORE PUSH1 0x20 PUSH0 KECCAK256 SWAP1 PUSH1 0x3 MUL ADD PUSH0 DUP3 ADD DUP2 PUSH0 ADD SWAP1 DUP2 PUSH2 0x8C1 SWAP2 SWAP1 PUSH2 0x2513 JUMP JUMPDEST POP PUSH1 0x1 DUP3 ADD PUSH0 SWAP1 SLOAD SWAP1 PUSH2 0x100 EXP SWAP1 DIV PUSH1 0xFF AND DUP2 PUSH1 0x1 ADD PUSH0 PUSH2 0x100 EXP DUP2 SLOAD DUP2 PUSH1 0xFF MUL NOT AND SWAP1 DUP4 ISZERO ISZERO MUL OR SWAP1 SSTORE POP PUSH1 0x1 DUP3 ADD PUSH1 0x1 SWAP1 SLOAD SWAP1 PUSH2 0x100 EXP SWAP1 DIV PUSH4 0xFFFFFFFF AND DUP2 PUSH1 0x1 ADD PUSH1 0x1 PUSH2 0x100 EXP DUP2 SLOAD DUP2 PUSH4 0xFFFFFFFF MUL NOT AND SWAP1 DUP4 PUSH4 0xFFFFFFFF AND MUL OR SWAP1 SSTORE POP PUSH1 0x1 DUP3 ADD PUSH1 0x5 SWAP1 SLOAD SWAP1 PUSH2 0x100 EXP SWAP1 DIV PUSH1 0xFF AND DUP2 PUSH1 0x1 ADD PUSH1 0x5 PUSH2 0x100 EXP DUP2 SLOAD DUP2 PUSH1 0xFF MUL NOT AND SWAP1 DUP4 PUSH1 0xFF AND MUL OR SWAP1 SSTORE POP PUSH1 0x2 DUP3 ADD SLOAD DUP2 PUSH1 0x2 ADD SSTORE SWAP1 POP POP JUMPDEST DUP2 DUP1 SLOAD DUP1 PUSH2 0x971 JUMPI PUSH2 0x970 PUSH2 0x25F8 JUMP JUMPDEST JUMPDEST PUSH1 0x1 SWAP1 SUB DUP2 DUP2 SWAP1 PUSH0 MSTORE PUSH1 0x20 PUSH0 KECCAK256 SWAP1 PUSH1 0x3 MUL ADD PUSH0 PUSH0 DUP3 ADD PUSH0 PUSH2 0x992 SWAP2 SWAP1 PUSH2 0x17B3 JUMP JUMPDEST PUSH1 0x1 DUP3 ADD PUSH0 PUSH2 0x100 EXP DUP2 SLOAD SWAP1 PUSH1 0xFF MUL NOT AND SWAP1 SSTORE PUSH1 0x1 DUP3 ADD PUSH1 0x1 PUSH2 0x100 EXP DUP2 SLOAD SWAP1 PUSH4 0xFFFFFFFF MUL NOT AND SWAP1 SSTORE PUSH1 0x1 DUP3 ADD PUSH1 0x5 PUSH2 0x100 EXP DUP2 SLOAD SWAP1 PUSH1 0xFF MUL NOT AND SWAP1 SSTORE PUSH1 0x2 DUP3 ADD PUSH0 SWAP1 SSTORE POP POP SWAP1 SSTORE PUSH1 0x1 PUSH0 CALLER PUSH20 0xFFFFFFFFFFFFFFFFFFFFFFFFFFFFFFFFFFFFFFFF AND PUSH20 0xFFFFFFFFFFFFFFFFFFFFFFFFFFFFFFFFFFFFFFFF AND DUP2 MSTORE PUSH1 0x20 ADD SWAP1 DUP2 MSTORE PUSH1 0x20 ADD PUSH0 KECCAK256 PUSH0 DUP2 SLOAD DUP1 SWAP3 SWAP2 SWAP1 PUSH2 0xA28 SWAP1 PUSH2 0x2625 JUMP JUMPDEST SWAP2 SWAP1 POP SSTORE POP DUP4 CALLER PUSH20 0xFFFFFFFFFFFFFFFFFFFFFFFFFFFFFFFFFFFFFFFF AND PUSH32 0xD1BC87501AFCAA22B7F6481DAC99ED45FBE02321873CA9B55C1F41B9D78B8FB3 PUSH1 0x40 MLOAD PUSH1 0x40 MLOAD DUP1 SWAP2 SUB SWAP1 LOG3 POP POP POP POP JUMP JUMPDEST DUP1 PUSH0 PUSH0 CALLER PUSH20 0xFFFFFFFFFFFFFFFFFFFFFFFFFFFFFFFFFFFFFFFF AND PUSH20 0xFFFFFFFFFFFFFFFFFFFFFFFFFFFFFFFFFFFFFFFF AND DUP2 MSTORE PUSH1 0x20 ADD SWAP1 DUP2 MSTORE PUSH1 0x20 ADD PUSH0 KECCAK256 DUP1 SLOAD SWAP1 POP DUP2 LT PUSH2 0xAF0 JUMPI PUSH1 0x40 MLOAD PUSH32 0xC325AE3300000000000000000000000000000000000000000000000000000000 DUP2 MSTORE PUSH1 0x4 ADD PUSH1 0x40 MLOAD DUP1 SWAP2 SUB SWAP1 REVERT JUMPDEST PUSH0 PUSH0 PUSH0 CALLER PUSH20 0xFFFFFFFFFFFFFFFFFFFFFFFFFFFFFFFFFFFFFFFF AND PUSH20 0xFFFFFFFFFFFFFFFFFFFFFFFFFFFFFFFFFFFFFFFF AND DUP2 MSTORE PUSH1 0x20 ADD SWAP1 DUP2 MSTORE PUSH1 0x20 ADD PUSH0 KECCAK256 DUP4 DUP2 SLOAD DUP2 LT PUSH2 0xB3F JUMPI PUSH2 0xB3E PUSH2 0x24D1 JUMP JUMPDEST JUMPDEST SWAP1 PUSH0 MSTORE PUSH1 0x20 PUSH0 KECCAK256 SWAP1 PUSH1 0x3 MUL ADD SWAP1 POP DUP1 PUSH1 0x1 ADD PUSH0 SWAP1 SLOAD SWAP1 PUSH2 0x100 EXP SWAP1 DIV PUSH1 0xFF AND ISZERO DUP2 PUSH1 0x1 ADD PUSH0 PUSH2 0x100 EXP DUP2 SLOAD DUP2 PUSH1 0xFF MUL NOT AND SWAP1 DUP4 ISZERO ISZERO MUL OR SWAP1 SSTORE POP DUP3 CALLER PUSH20 0xFFFFFFFFFFFFFFFFFFFFFFFFFFFFFFFFFFFFFFFF AND PUSH32 0xAB7F8B4AE853164B2EEC49792F0A9B5CE9EE4568A8D67C9AA3B27E949F31D183 DUP4 PUSH1 0x1 ADD PUSH0 SWAP1 SLOAD SWAP1 PUSH2 0x100 EXP SWAP1 DIV PUSH1 0xFF AND PUSH1 0x40 MLOAD PUSH2 0xBD0 SWAP2 SWAP1 PUSH2 0x265B JUMP JUMPDEST PUSH1 0x40 MLOAD DUP1 SWAP2 SUB SWAP1 LOG3 POP POP POP JUMP JUMPDEST PUSH0 PUSH0 CALLER PUSH20 0xFFFFFFFFFFFFFFFFFFFFFFFFFFFFFFFFFFFFFFFF AND PUSH20 0xFFFFFFFFFFFFFFFFFFFFFFFFFFFFFFFFFFFFFFFF AND DUP2 MSTORE PUSH1 0x20 ADD SWAP1 DUP2 MSTORE PUSH1 0x20 ADD PUSH0 KECCAK256 PUSH0 PUSH2 0xC24 SWAP2 SWAP1 PUSH2 0x17F0 JUMP JUMPDEST PUSH0 PUSH1 0x1 PUSH0 CALLER PUSH20 0xFFFFFFFFFFFFFFFFFFFFFFFFFFFFFFFFFFFFFFFF AND PUSH20 0xFFFFFFFFFFFFFFFFFFFFFFFFFFFFFFFFFFFFFFFF AND DUP2 MSTORE PUSH1 0x20 ADD SWAP1 DUP2 MSTORE PUSH1 0x20 ADD PUSH0 KECCAK256 DUP2 SWAP1 SSTORE POP JUMP JUMPDEST PUSH1 0x60 DUP1 PUSH0 PUSH0 PUSH0 CALLER PUSH20 0xFFFFFFFFFFFFFFFFFFFFFFFFFFFFFFFFFFFFFFFF AND PUSH20 0xFFFFFFFFFFFFFFFFFFFFFFFFFFFFFFFFFFFFFFFF AND DUP2 MSTORE PUSH1 0x20 ADD SWAP1 DUP2 MSTORE PUSH1 0x20 ADD PUSH0 KECCAK256 SWAP1 POP PUSH0 PUSH0 SWAP1 POP PUSH0 PUSH0 SWAP1 POP JUMPDEST DUP3 DUP1 SLOAD SWAP1 POP DUP2 LT ISZERO PUSH2 0xD14 JUMPI DUP6 ISZERO ISZERO DUP4 DUP3 DUP2 SLOAD DUP2 LT PUSH2 0xCD5 JUMPI PUSH2 0xCD4 PUSH2 0x24D1 JUMP JUMPDEST JUMPDEST SWAP1 PUSH0 MSTORE PUSH1 0x20 PUSH0 KECCAK256 SWAP1 PUSH1 0x3 MUL ADD PUSH1 0x1 ADD PUSH0 SWAP1 SLOAD SWAP1 PUSH2 0x100 EXP SWAP1 DIV PUSH1 0xFF AND ISZERO ISZERO SUB PUSH2 0xD07 JUMPI DUP2 DUP1 PUSH2 0xD03 SWAP1 PUSH2 0x2430 JUMP JUMPDEST SWAP3 POP POP JUMPDEST DUP1 DUP1 PUSH1 0x1 ADD SWAP2 POP POP PUSH2 0xCB3 JUMP JUMPDEST POP PUSH0 DUP2 PUSH8 0xFFFFFFFFFFFFFFFF DUP2 GT ISZERO PUSH2 0xD30 JUMPI PUSH2 0xD2F PUSH2 0x18BF JUMP JUMPDEST JUMPDEST PUSH1 0x40 MLOAD SWAP1 DUP1 DUP3 MSTORE DUP1 PUSH1 0x20 MUL PUSH1 0x20 ADD DUP3 ADD PUSH1 0x40 MSTORE DUP1 ISZERO PUSH2 0xD69 JUMPI DUP2 PUSH1 0x20 ADD JUMPDEST PUSH2 0xD56 PUSH2 0x177D JUMP JUMPDEST DUP2 MSTORE PUSH1 0x20 ADD SWAP1 PUSH1 0x1 SWAP1 SUB SWAP1 DUP2 PUSH2 0xD4E JUMPI SWAP1 POP JUMPDEST POP SWAP1 POP PUSH0 DUP3 PUSH8 0xFFFFFFFFFFFFFFFF DUP2 GT ISZERO PUSH2 0xD87 JUMPI PUSH2 0xD86 PUSH2 0x18BF JUMP JUMPDEST JUMPDEST PUSH1 0x40 MLOAD SWAP1 DUP1 DUP3 MSTORE DUP1 PUSH1 0x20 MUL PUSH1 0x20 ADD DUP3 ADD PUSH1 0x40 MSTORE DUP1 ISZERO PUSH2 0xDB5 JUMPI DUP2 PUSH1 0x20 ADD PUSH1 0x20 DUP3 MUL DUP1 CALLDATASIZE DUP4 CALLDATACOPY DUP1 DUP3 ADD SWAP2 POP POP SWAP1 POP JUMPDEST POP SWAP1 POP PUSH0 PUSH0 SWAP1 POP PUSH0 PUSH0 SWAP1 POP JUMPDEST DUP6 DUP1 SLOAD SWAP1 POP DUP2 LT ISZERO PUSH2 0xF80 JUMPI DUP9 ISZERO ISZERO DUP7 DUP3 DUP2 SLOAD DUP2 LT PUSH2 0xDE3 JUMPI PUSH2 0xDE2 PUSH2 0x24D1 JUMP JUMPDEST JUMPDEST SWAP1 PUSH0 MSTORE PUSH1 0x20 PUSH0 KECCAK256 SWAP1 PUSH1 0x3 MUL ADD PUSH1 0x1 ADD PUSH0 SWAP1 SLOAD SWAP1 PUSH2 0x100 EXP SWAP1 DIV PUSH1 0xFF AND ISZERO ISZERO SUB PUSH2 0xF73 JUMPI DUP6 DUP2 DUP2 SLOAD DUP2 LT PUSH2 0xE19 JUMPI PUSH2 0xE18 PUSH2 0x24D1 JUMP JUMPDEST JUMPDEST SWAP1 PUSH0 MSTORE PUSH1 0x20 PUSH0 KECCAK256 SWAP1 PUSH1 0x3 MUL ADD PUSH1 0x40 MLOAD DUP1 PUSH1 0xA0 ADD PUSH1 0x40 MSTORE SWAP1 DUP2 PUSH0 DUP3 ADD DUP1 SLOAD PUSH2 0xE3F SWAP1 PUSH2 0x2131 JUMP JUMPDEST DUP1 PUSH1 0x1F ADD PUSH1 0x20 DUP1 SWAP2 DIV MUL PUSH1 0x20 ADD PUSH1 0x40 MLOAD SWAP1 DUP2 ADD PUSH1 0x40 MSTORE DUP1 SWAP3 SWAP2 SWAP1 DUP2 DUP2 MSTORE PUSH1 0x20 ADD DUP3 DUP1 SLOAD PUSH2 0xE6B SWAP1 PUSH2 0x2131 JUMP JUMPDEST DUP1 ISZERO PUSH2 0xEB6 JUMPI DUP1 PUSH1 0x1F LT PUSH2 0xE8D JUMPI PUSH2 0x100 DUP1 DUP4 SLOAD DIV MUL DUP4 MSTORE SWAP2 PUSH1 0x20 ADD SWAP2 PUSH2 0xEB6 JUMP JUMPDEST DUP3 ADD SWAP2 SWAP1 PUSH0 MSTORE PUSH1 0x20 PUSH0 KECCAK256 SWAP1 JUMPDEST DUP2 SLOAD DUP2 MSTORE SWAP1 PUSH1 0x1 ADD SWAP1 PUSH1 0x20 ADD DUP1 DUP4 GT PUSH2 0xE99 JUMPI DUP3 SWAP1 SUB PUSH1 0x1F AND DUP3 ADD SWAP2 JUMPDEST POP POP POP POP POP DUP2 MSTORE PUSH1 0x20 ADD PUSH1 0x1 DUP3 ADD PUSH0 SWAP1 SLOAD SWAP1 PUSH2 0x100 EXP SWAP1 DIV PUSH1 0xFF AND ISZERO ISZERO ISZERO ISZERO DUP2 MSTORE PUSH1 0x20 ADD PUSH1 0x1 DUP3 ADD PUSH1 0x1 SWAP1 SLOAD SWAP1 PUSH2 0x100 EXP SWAP1 DIV PUSH4 0xFFFFFFFF AND PUSH4 0xFFFFFFFF AND PUSH4 0xFFFFFFFF AND DUP2 MSTORE PUSH1 0x20 ADD PUSH1 0x1 DUP3 ADD PUSH1 0x5 SWAP1 SLOAD SWAP1 PUSH2 0x100 EXP SWAP1 DIV PUSH1 0xFF AND PUSH1 0xFF AND PUSH1 0xFF AND DUP2 MSTORE PUSH1 0x20 ADD PUSH1 0x2 DUP3 ADD SLOAD DUP2 MSTORE POP POP DUP5 DUP4 DUP2 MLOAD DUP2 LT PUSH2 0xF39 JUMPI PUSH2 0xF38 PUSH2 0x24D1 JUMP JUMPDEST JUMPDEST PUSH1 0x20 MUL PUSH1 0x20 ADD ADD DUP2 SWAP1 MSTORE POP DUP1 DUP4 DUP4 DUP2 MLOAD DUP2 LT PUSH2 0xF58 JUMPI PUSH2 0xF57 PUSH2 0x24D1 JUMP JUMPDEST JUMPDEST PUSH1 0x20 MUL PUSH1 0x20 ADD ADD DUP2 DUP2 MSTORE POP POP DUP2 DUP1 PUSH2 0xF6F SWAP1 PUSH2 0x2430 JUMP JUMPDEST SWAP3 POP POP JUMPDEST DUP1 DUP1 PUSH1 0x1 ADD SWAP2 POP POP PUSH2 0xDC1 JUMP JUMPDEST POP DUP3 DUP3 SWAP7 POP SWAP7 POP POP POP POP POP POP SWAP2 POP SWAP2 JUMP JUMPDEST PUSH1 0x60 PUSH0 PUSH0 CALLER PUSH20 0xFFFFFFFFFFFFFFFFFFFFFFFFFFFFFFFFFFFFFFFF AND PUSH20 0xFFFFFFFFFFFFFFFFFFFFFFFFFFFFFFFFFFFFFFFF AND DUP2 MSTORE PUSH1 0x20 ADD SWAP1 DUP2 MSTORE PUSH1 0x20 ADD PUSH0 KECCAK256 DUP1 SLOAD DUP1 PUSH1 0x20 MUL PUSH1 0x20 ADD PUSH1 0x40 MLOAD SWAP1 DUP2 ADD PUSH1 0x40 MSTORE DUP1 SWAP3 SWAP2 SWAP1 DUP2 DUP2 MSTORE PUSH1 0x20 ADD PUSH0 SWAP1 JUMPDEST DUP3 DUP3 LT ISZERO PUSH2 0x1114 JUMPI DUP4 DUP3 SWAP1 PUSH0 MSTORE PUSH1 0x20 PUSH0 KECCAK256 SWAP1 PUSH1 0x3 MUL ADD PUSH1 0x40 MLOAD DUP1 PUSH1 0xA0 ADD PUSH1 0x40 MSTORE SWAP1 DUP2 PUSH0 DUP3 ADD DUP1 SLOAD PUSH2 0x101E SWAP1 PUSH2 0x2131 JUMP JUMPDEST DUP1 PUSH1 0x1F ADD PUSH1 0x20 DUP1 SWAP2 DIV MUL PUSH1 0x20 ADD PUSH1 0x40 MLOAD SWAP1 DUP2 ADD PUSH1 0x40 MSTORE DUP1 SWAP3 SWAP2 SWAP1 DUP2 DUP2 MSTORE PUSH1 0x20 ADD DUP3 DUP1 SLOAD PUSH2 0x104A SWAP1 PUSH2 0x2131 JUMP JUMPDEST DUP1 ISZERO PUSH2 0x1095 JUMPI DUP1 PUSH1 0x1F LT PUSH2 0x106C JUMPI PUSH2 0x100 DUP1 DUP4 SLOAD DIV MUL DUP4 MSTORE SWAP2 PUSH1 0x20 ADD SWAP2 PUSH2 0x1095 JUMP JUMPDEST DUP3 ADD SWAP2 SWAP1 PUSH0 MSTORE PUSH1 0x20 PUSH0 KECCAK256 SWAP1 JUMPDEST DUP2 SLOAD DUP2 MSTORE SWAP1 PUSH1 0x1 ADD SWAP1 PUSH1 0x20 ADD DUP1 DUP4 GT PUSH2 0x1078 JUMPI DUP3 SWAP1 SUB PUSH1 0x1F AND DUP3 ADD SWAP2 JUMPDEST POP POP POP POP POP DUP2 MSTORE PUSH1 0x20 ADD PUSH1 0x1 DUP3 ADD PUSH0 SWAP1 SLOAD SWAP1 PUSH2 0x100 EXP SWAP1 DIV PUSH1 0xFF AND ISZERO ISZERO ISZERO ISZERO DUP2 MSTORE PUSH1 0x20 ADD PUSH1 0x1 DUP3 ADD PUSH1 0x1 SWAP1 SLOAD SWAP1 PUSH2 0x100 EXP SWAP1 DIV PUSH4 0xFFFFFFFF AND PUSH4 0xFFFFFFFF AND PUSH4 0xFFFFFFFF AND DUP2 MSTORE PUSH1 0x20 ADD PUSH1 0x1 DUP3 ADD PUSH1 0x5 SWAP1 SLOAD SWAP1 PUSH2 0x100 EXP SWAP1 DIV PUSH1 0xFF AND PUSH1 0xFF AND PUSH1 0xFF AND DUP2 MSTORE PUSH1 0x20 ADD PUSH1 0x2 DUP3 ADD SLOAD DUP2 MSTORE POP POP DUP2 MSTORE PUSH1 0x20 ADD SWAP1 PUSH1 0x1 ADD SWAP1 PUSH2 0xFEE JUMP JUMPDEST POP POP POP POP SWAP1 POP SWAP1 JUMP JUMPDEST DUP2 PUSH0 PUSH0 CALLER PUSH20 0xFFFFFFFFFFFFFFFFFFFFFFFFFFFFFFFFFFFFFFFF AND PUSH20 0xFFFFFFFFFFFFFFFFFFFFFFFFFFFFFFFFFFFFFFFF AND DUP2 MSTORE PUSH1 0x20 ADD SWAP1 DUP2 MSTORE PUSH1 0x20 ADD PUSH0 KECCAK256 DUP1 SLOAD SWAP1 POP DUP2 LT PUSH2 0x1196 JUMPI PUSH1 0x40 MLOAD PUSH32 0xC325AE3300000000000000000000000000000000000000000000000000000000 DUP2 MSTORE PUSH1 0x4 ADD PUSH1 0x40 MLOAD DUP1 SWAP2 SUB SWAP1 REVERT JUMPDEST DUP2 PUSH0 DUP2 MLOAD SUB PUSH2 0x11D1 JUMPI PUSH1 0x40 MLOAD PUSH32 0x74008F7900000000000000000000000000000000000000000000000000000000 DUP2 MSTORE PUSH1 0x4 ADD PUSH1 0x40 MLOAD DUP1 SWAP2 SUB SWAP1 REVERT JUMPDEST DUP3 PUSH0 PUSH0 CALLER PUSH20 0xFFFFFFFFFFFFFFFFFFFFFFFFFFFFFFFFFFFFFFFF AND PUSH20 0xFFFFFFFFFFFFFFFFFFFFFFFFFFFFFFFFFFFFFFFF AND DUP2 MSTORE PUSH1 0x20 ADD SWAP1 DUP2 MSTORE PUSH1 0x20 ADD PUSH0 KECCAK256 DUP6 DUP2 SLOAD DUP2 LT PUSH2 0x1220 JUMPI PUSH2 0x121F PUSH2 0x24D1 JUMP JUMPDEST JUMPDEST SWAP1 PUSH0 MSTORE PUSH1 0x20 PUSH0 KECCAK256 SWAP1 PUSH1 0x3 MUL ADD PUSH0 ADD SWAP1 DUP2 PUSH2 0x123A SWAP2 SWAP1 PUSH2 0x2301 JUMP JUMPDEST POP DUP4 CALLER PUSH20 0xFFFFFFFFFFFFFFFFFFFFFFFFFFFFFFFFFFFFFFFF AND PUSH32 0x6B453B6ADC8EF22128C2019ADF1D4AA703CA6EDD91F0D692AC03E638BDE93271 DUP6 PUSH1 0x40 MLOAD PUSH2 0x1282 SWAP2 SWAP1 PUSH2 0x20B9 JUMP JUMPDEST PUSH1 0x40 MLOAD DUP1 SWAP2 SUB SWAP1 LOG3 POP POP POP POP JUMP JUMPDEST PUSH1 0x60 PUSH0 PUSH0 SWAP1 POP JUMPDEST PUSH1 0x20 DUP2 PUSH1 0xFF AND LT DUP1 ISZERO PUSH2 0x12E8 JUMPI POP PUSH0 PUSH1 0xF8 SHL DUP4 DUP3 PUSH1 0xFF AND PUSH1 0x20 DUP2 LT PUSH2 0x12BF JUMPI PUSH2 0x12BE PUSH2 0x24D1 JUMP JUMPDEST JUMPDEST BYTE PUSH1 0xF8 SHL PUSH31 0xFFFFFFFFFFFFFFFFFFFFFFFFFFFFFFFFFFFFFFFFFFFFFFFFFFFFFFFFFFFFFF NOT AND EQ ISZERO JUMPDEST ISZERO PUSH2 0x1300 JUMPI DUP1 DUP1 PUSH2 0x12F8 SWAP1 PUSH2 0x2674 JUMP JUMPDEST SWAP2 POP POP PUSH2 0x1297 JUMP JUMPDEST PUSH0 DUP2 PUSH1 0xFF AND PUSH8 0xFFFFFFFFFFFFFFFF DUP2 GT ISZERO PUSH2 0x131E JUMPI PUSH2 0x131D PUSH2 0x18BF JUMP JUMPDEST JUMPDEST PUSH1 0x40 MLOAD SWAP1 DUP1 DUP3 MSTORE DUP1 PUSH1 0x1F ADD PUSH1 0x1F NOT AND PUSH1 0x20 ADD DUP3 ADD PUSH1 0x40 MSTORE DUP1 ISZERO PUSH2 0x1350 JUMPI DUP2 PUSH1 0x20 ADD PUSH1 0x1 DUP3 MUL DUP1 CALLDATASIZE DUP4 CALLDATACOPY DUP1 DUP3 ADD SWAP2 POP POP SWAP1 POP JUMPDEST POP SWAP1 POP PUSH0 SWAP2 POP JUMPDEST PUSH1 0x20 DUP3 PUSH1 0xFF AND LT DUP1 ISZERO PUSH2 0x13A8 JUMPI POP PUSH0 PUSH1 0xF8 SHL DUP5 DUP4 PUSH1 0xFF AND PUSH1 0x20 DUP2 LT PUSH2 0x137F JUMPI PUSH2 0x137E PUSH2 0x24D1 JUMP JUMPDEST JUMPDEST BYTE PUSH1 0xF8 SHL PUSH31 0xFFFFFFFFFFFFFFFFFFFFFFFFFFFFFFFFFFFFFFFFFFFFFFFFFFFFFFFFFFFFFF NOT AND EQ ISZERO JUMPDEST ISZERO PUSH2 0x141E JUMPI DUP4 DUP3 PUSH1 0xFF AND PUSH1 0x20 DUP2 LT PUSH2 0x13C3 JUMPI PUSH2 0x13C2 PUSH2 0x24D1 JUMP JUMPDEST JUMPDEST BYTE PUSH1 0xF8 SHL DUP2 DUP4 PUSH1 0xFF AND DUP2 MLOAD DUP2 LT PUSH2 0x13DD JUMPI PUSH2 0x13DC PUSH2 0x24D1 JUMP JUMPDEST JUMPDEST PUSH1 0x20 ADD ADD SWAP1 PUSH31 0xFFFFFFFFFFFFFFFFFFFFFFFFFFFFFFFFFFFFFFFFFFFFFFFFFFFFFFFFFFFFFF NOT AND SWAP1 DUP2 PUSH0 BYTE SWAP1 MSTORE8 POP DUP2 DUP1 PUSH2 0x1416 SWAP1 PUSH2 0x2674 JUMP JUMPDEST SWAP3 POP POP PUSH2 0x1357 JUMP JUMPDEST DUP1 SWAP3 POP POP POP SWAP2 SWAP1 POP JUMP JUMPDEST PUSH1 0x60 DUP1 PUSH0 PUSH0 PUSH0 CALLER PUSH20 0xFFFFFFFFFFFFFFFFFFFFFFFFFFFFFFFFFFFFFFFF AND PUSH20 0xFFFFFFFFFFFFFFFFFFFFFFFFFFFFFFFFFFFFFFFF AND DUP2 MSTORE PUSH1 0x20 ADD SWAP1 DUP2 MSTORE PUSH1 0x20 ADD PUSH0 KECCAK256 SWAP1 POP PUSH0 PUSH0 SWAP1 POP PUSH0 PUSH0 SWAP1 POP JUMPDEST DUP3 DUP1 SLOAD SWAP1 POP DUP2 LT ISZERO PUSH2 0x14D7 JUMPI DUP6 PUSH1 0xFF AND DUP4 DUP3 DUP2 SLOAD DUP2 LT PUSH2 0x1496 JUMPI PUSH2 0x1495 PUSH2 0x24D1 JUMP JUMPDEST JUMPDEST SWAP1 PUSH0 MSTORE PUSH1 0x20 PUSH0 KECCAK256 SWAP1 PUSH1 0x3 MUL ADD PUSH1 0x1 ADD PUSH1 0x5 SWAP1 SLOAD SWAP1 PUSH2 0x100 EXP SWAP1 DIV PUSH1 0xFF AND PUSH1 0xFF AND SUB PUSH2 0x14CA JUMPI DUP2 DUP1 PUSH2 0x14C6 SWAP1 PUSH2 0x2430 JUMP JUMPDEST SWAP3 POP POP JUMPDEST DUP1 DUP1 PUSH1 0x1 ADD SWAP2 POP POP PUSH2 0x1473 JUMP JUMPDEST POP PUSH0 DUP2 PUSH8 0xFFFFFFFFFFFFFFFF DUP2 GT ISZERO PUSH2 0x14F3 JUMPI PUSH2 0x14F2 PUSH2 0x18BF JUMP JUMPDEST JUMPDEST PUSH1 0x40 MLOAD SWAP1 DUP1 DUP3 MSTORE DUP1 PUSH1 0x20 MUL PUSH1 0x20 ADD DUP3 ADD PUSH1 0x40 MSTORE DUP1 ISZERO PUSH2 0x152C JUMPI DUP2 PUSH1 0x20 ADD JUMPDEST PUSH2 0x1519 PUSH2 0x177D JUMP JUMPDEST DUP2 MSTORE PUSH1 0x20 ADD SWAP1 PUSH1 0x1 SWAP1 SUB SWAP1 DUP2 PUSH2 0x1511 JUMPI SWAP1 POP JUMPDEST POP SWAP1 POP PUSH0 DUP3 PUSH8 0xFFFFFFFFFFFFFFFF DUP2 GT ISZERO PUSH2 0x154A JUMPI PUSH2 0x1549 PUSH2 0x18BF JUMP JUMPDEST JUMPDEST PUSH1 0x40 MLOAD SWAP1 DUP1 DUP3 MSTORE DUP1 PUSH1 0x20 MUL PUSH1 0x20 ADD DUP3 ADD PUSH1 0x40 MSTORE DUP1 ISZERO PUSH2 0x1578 JUMPI DUP2 PUSH1 0x20 ADD PUSH1 0x20 DUP3 MUL DUP1 CALLDATASIZE DUP4 CALLDATACOPY DUP1 DUP3 ADD SWAP2 POP POP SWAP1 POP JUMPDEST POP SWAP1 POP PUSH0 PUSH0 SWAP1 POP PUSH0 PUSH0 SWAP1 POP JUMPDEST DUP6 DUP1 SLOAD SWAP1 POP DUP2 LT ISZERO PUSH2 0x1746 JUMPI DUP9 PUSH1 0xFF AND DUP7 DUP3 DUP2 SLOAD DUP2 LT PUSH2 0x15A7 JUMPI PUSH2 0x15A6 PUSH2 0x24D1 JUMP JUMPDEST JUMPDEST SWAP1 PUSH0 MSTORE PUSH1 0x20 PUSH0 KECCAK256 SWAP1 PUSH1 0x3 MUL ADD PUSH1 0x1 ADD PUSH1 0x5 SWAP1 SLOAD SWAP1 PUSH2 0x100 EXP SWAP1 DIV PUSH1 0xFF AND PUSH1 0xFF AND SUB PUSH2 0x1739 JUMPI DUP6 DUP2 DUP2 SLOAD DUP2 LT PUSH2 0x15DF JUMPI PUSH2 0x15DE PUSH2 0x24D1 JUMP JUMPDEST JUMPDEST SWAP1 PUSH0 MSTORE PUSH1 0x20 PUSH0 KECCAK256 SWAP1 PUSH1 0x3 MUL ADD PUSH1 0x40 MLOAD DUP1 PUSH1 0xA0 ADD PUSH1 0x40 MSTORE SWAP1 DUP2 PUSH0 DUP3 ADD DUP1 SLOAD PUSH2 0x1605 SWAP1 PUSH2 0x2131 JUMP JUMPDEST DUP1 PUSH1 0x1F ADD PUSH1 0x20 DUP1 SWAP2 DIV MUL PUSH1 0x20 ADD PUSH1 0x40 MLOAD SWAP1 DUP2 ADD PUSH1 0x40 MSTORE DUP1 SWAP3 SWAP2 SWAP1 DUP2 DUP2 MSTORE PUSH1 0x20 ADD DUP3 DUP1 SLOAD PUSH2 0x1631 SWAP1 PUSH2 0x2131 JUMP JUMPDEST DUP1 ISZERO PUSH2 0x167C JUMPI DUP1 PUSH1 0x1F LT PUSH2 0x1653 JUMPI PUSH2 0x100 DUP1 DUP4 SLOAD DIV MUL DUP4 MSTORE SWAP2 PUSH1 0x20 ADD SWAP2 PUSH2 0x167C JUMP JUMPDEST DUP3 ADD SWAP2 SWAP1 PUSH0 MSTORE PUSH1 0x20 PUSH0 KECCAK256 SWAP1 JUMPDEST DUP2 SLOAD DUP2 MSTORE SWAP1 PUSH1 0x1 ADD SWAP1 PUSH1 0x20 ADD DUP1 DUP4 GT PUSH2 0x165F JUMPI DUP3 SWAP1 SUB PUSH1 0x1F AND DUP3 ADD SWAP2 JUMPDEST POP POP POP POP POP DUP2 MSTORE PUSH1 0x20 ADD PUSH1 0x1 DUP3 ADD PUSH0 SWAP1 SLOAD SWAP1 PUSH2 0x100 EXP SWAP1 DIV PUSH1 0xFF AND ISZERO ISZERO ISZERO ISZERO DUP2 MSTORE PUSH1 0x20 ADD PUSH1 0x1 DUP3 ADD PUSH1 0x1 SWAP1 SLOAD SWAP1 PUSH2 0x100 EXP SWAP1 DIV PUSH4 0xFFFFFFFF AND PUSH4 0xFFFFFFFF AND PUSH4 0xFFFFFFFF AND DUP2 MSTORE PUSH1 0x20 ADD PUSH1 0x1 DUP3 ADD PUSH1 0x5 SWAP1 SLOAD SWAP1 PUSH2 0x100 EXP SWAP1 DIV PUSH1 0xFF AND PUSH1 0xFF AND PUSH1 0xFF AND DUP2 MSTORE PUSH1 0x20 ADD PUSH1 0x2 DUP3 ADD SLOAD DUP2 MSTORE POP POP DUP5 DUP4 DUP2 MLOAD DUP2 LT PUSH2 0x16FF JUMPI PUSH2 0x16FE PUSH2 0x24D1 JUMP JUMPDEST JUMPDEST PUSH1 0x20 MUL PUSH1 0x20 ADD ADD DUP2 SWAP1 MSTORE POP DUP1 DUP4 DUP4 DUP2 MLOAD DUP2 LT PUSH2 0x171E JUMPI PUSH2 0x171D PUSH2 0x24D1 JUMP JUMPDEST JUMPDEST PUSH1 0x20 MUL PUSH1 0x20 ADD ADD DUP2 DUP2 MSTORE POP POP DUP2 DUP1 PUSH2 0x1735 SWAP1 PUSH2 0x2430 JUMP JUMPDEST SWAP3 POP POP JUMPDEST DUP1 DUP1 PUSH1 0x1 ADD SWAP2 POP POP PUSH2 0x1584 JUMP JUMPDEST POP DUP3 DUP3 SWAP7 POP SWAP7 POP POP POP POP POP POP SWAP2 POP SWAP2 JUMP JUMPDEST PUSH0 PUSH0 DUP3 SWAP1 POP PUSH0 DUP2 MLOAD SUB PUSH2 0x176F JUMPI PUSH0 PUSH0 SHL SWAP2 POP POP PUSH2 0x1778 JUMP JUMPDEST PUSH1 0x20 DUP4 ADD MLOAD SWAP2 POP POP JUMPDEST SWAP2 SWAP1 POP JUMP JUMPDEST PUSH1 0x40 MLOAD DUP1 PUSH1 0xA0 ADD PUSH1 0x40 MSTORE DUP1 PUSH1 0x60 DUP2 MSTORE PUSH1 0x20 ADD PUSH0 ISZERO ISZERO DUP2 MSTORE PUSH1 0x20 ADD PUSH0 PUSH4 0xFFFFFFFF AND DUP2 MSTORE PUSH1 0x20 ADD PUSH0 PUSH1 0xFF AND DUP2 MSTORE PUSH1 0x20 ADD PUSH0 DUP2 MSTORE POP SWAP1 JUMP JUMPDEST POP DUP1 SLOAD PUSH2 0x17BF SWAP1 PUSH2 0x2131 JUMP JUMPDEST PUSH0 DUP3 SSTORE DUP1 PUSH1 0x1F LT PUSH2 0x17D0 JUMPI POP PUSH2 0x17ED JUMP JUMPDEST PUSH1 0x1F ADD PUSH1 0x20 SWAP1 DIV SWAP1 PUSH0 MSTORE PUSH1 0x20 PUSH0 KECCAK256 SWAP1 DUP2 ADD SWAP1 PUSH2 0x17EC SWAP2 SWAP1 PUSH2 0x1811 JUMP JUMPDEST JUMPDEST POP JUMP JUMPDEST POP DUP1 SLOAD PUSH0 DUP3 SSTORE PUSH1 0x3 MUL SWAP1 PUSH0 MSTORE PUSH1 0x20 PUSH0 KECCAK256 SWAP1 DUP2 ADD SWAP1 PUSH2 0x180E SWAP2 SWAP1 PUSH2 0x182C JUMP JUMPDEST POP JUMP JUMPDEST JUMPDEST DUP1 DUP3 GT ISZERO PUSH2 0x1828 JUMPI PUSH0 DUP2 PUSH0 SWAP1 SSTORE POP PUSH1 0x1 ADD PUSH2 0x1812 JUMP JUMPDEST POP SWAP1 JUMP JUMPDEST JUMPDEST DUP1 DUP3 GT ISZERO PUSH2 0x1892 JUMPI PUSH0 PUSH0 DUP3 ADD PUSH0 PUSH2 0x1844 SWAP2 SWAP1 PUSH2 0x17B3 JUMP JUMPDEST PUSH1 0x1 DUP3 ADD PUSH0 PUSH2 0x100 EXP DUP2 SLOAD SWAP1 PUSH1 0xFF MUL NOT AND SWAP1 SSTORE PUSH1 0x1 DUP3 ADD PUSH1 0x1 PUSH2 0x100 EXP DUP2 SLOAD SWAP1 PUSH4 0xFFFFFFFF MUL NOT AND SWAP1 SSTORE PUSH1 0x1 DUP3 ADD PUSH1 0x5 PUSH2 0x100 EXP DUP2 SLOAD SWAP1 PUSH1 0xFF MUL NOT AND SWAP1 SSTORE PUSH1 0x2 DUP3 ADD PUSH0 SWAP1 SSTORE POP PUSH1 0x3 ADD PUSH2 0x182D JUMP JUMPDEST POP SWAP1 JUMP JUMPDEST PUSH0 PUSH1 0x40 MLOAD SWAP1 POP SWAP1 JUMP JUMPDEST PUSH0 PUSH0 REVERT JUMPDEST PUSH0 PUSH0 REVERT JUMPDEST PUSH0 PUSH0 REVERT JUMPDEST PUSH0 PUSH0 REVERT JUMPDEST PUSH0 PUSH1 0x1F NOT PUSH1 0x1F DUP4 ADD AND SWAP1 POP SWAP2 SWAP1 POP JUMP JUMPDEST PUSH32 0x4E487B7100000000000000000000000000000000000000000000000000000000 PUSH0 MSTORE PUSH1 0x41 PUSH1 0x4 MSTORE PUSH1 0x24 PUSH0 REVERT JUMPDEST PUSH2 0x18F5 DUP3 PUSH2 0x18AF JUMP JUMPDEST DUP2 ADD DUP2 DUP2 LT PUSH8 0xFFFFFFFFFFFFFFFF DUP3 GT OR ISZERO PUSH2 0x1914 JUMPI PUSH2 0x1913 PUSH2 0x18BF JUMP JUMPDEST JUMPDEST DUP1 PUSH1 0x40 MSTORE POP POP POP JUMP JUMPDEST PUSH0 PUSH2 0x1926 PUSH2 0x1896 JUMP JUMPDEST SWAP1 POP PUSH2 0x1932 DUP3 DUP3 PUSH2 0x18EC JUMP JUMPDEST SWAP2 SWAP1 POP JUMP JUMPDEST PUSH0 PUSH8 0xFFFFFFFFFFFFFFFF DUP3 GT ISZERO PUSH2 0x1951 JUMPI PUSH2 0x1950 PUSH2 0x18BF JUMP JUMPDEST JUMPDEST PUSH2 0x195A DUP3 PUSH2 0x18AF JUMP JUMPDEST SWAP1 POP PUSH1 0x20 DUP2 ADD SWAP1 POP SWAP2 SWAP1 POP JUMP JUMPDEST DUP3 DUP2 DUP4 CALLDATACOPY PUSH0 DUP4 DUP4 ADD MSTORE POP POP POP JUMP JUMPDEST PUSH0 PUSH2 0x1987 PUSH2 0x1982 DUP5 PUSH2 0x1937 JUMP JUMPDEST PUSH2 0x191D JUMP JUMPDEST SWAP1 POP DUP3 DUP2 MSTORE PUSH1 0x20 DUP2 ADD DUP5 DUP5 DUP5 ADD GT ISZERO PUSH2 0x19A3 JUMPI PUSH2 0x19A2 PUSH2 0x18AB JUMP JUMPDEST JUMPDEST PUSH2 0x19AE DUP5 DUP3 DUP6 PUSH2 0x1967 JUMP JUMPDEST POP SWAP4 SWAP3 POP POP POP JUMP JUMPDEST PUSH0 DUP3 PUSH1 0x1F DUP4 ADD SLT PUSH2 0x19CA JUMPI PUSH2 0x19C9 PUSH2 0x18A7 JUMP JUMPDEST JUMPDEST DUP2 CALLDATALOAD PUSH2 0x19DA DUP5 DUP3 PUSH1 0x20 DUP7 ADD PUSH2 0x1975 JUMP JUMPDEST SWAP2 POP POP SWAP3 SWAP2 POP POP JUMP JUMPDEST PUSH0 PUSH1 0xFF DUP3 AND SWAP1 POP SWAP2 SWAP1 POP JUMP JUMPDEST PUSH2 0x19F8 DUP2 PUSH2 0x19E3 JUMP JUMPDEST DUP2 EQ PUSH2 0x1A02 JUMPI PUSH0 PUSH0 REVERT JUMPDEST POP JUMP JUMPDEST PUSH0 DUP2 CALLDATALOAD SWAP1 POP PUSH2 0x1A13 DUP2 PUSH2 0x19EF JUMP JUMPDEST SWAP3 SWAP2 POP POP JUMP JUMPDEST PUSH0 PUSH0 PUSH0 PUSH1 0x60 DUP5 DUP7 SUB SLT ISZERO PUSH2 0x1A30 JUMPI PUSH2 0x1A2F PUSH2 0x189F JUMP JUMPDEST JUMPDEST PUSH0 DUP5 ADD CALLDATALOAD PUSH8 0xFFFFFFFFFFFFFFFF DUP2 GT ISZERO PUSH2 0x1A4D JUMPI PUSH2 0x1A4C PUSH2 0x18A3 JUMP JUMPDEST JUMPDEST PUSH2 0x1A59 DUP7 DUP3 DUP8 ADD PUSH2 0x19B6 JUMP JUMPDEST SWAP4 POP POP PUSH1 0x20 PUSH2 0x1A6A DUP7 DUP3 DUP8 ADD PUSH2 0x1A05 JUMP JUMPDEST SWAP3 POP POP PUSH1 0x40 DUP5 ADD CALLDATALOAD PUSH8 0xFFFFFFFFFFFFFFFF DUP2 GT ISZERO PUSH2 0x1A8B JUMPI PUSH2 0x1A8A PUSH2 0x18A3 JUMP JUMPDEST JUMPDEST PUSH2 0x1A97 DUP7 DUP3 DUP8 ADD PUSH2 0x19B6 JUMP JUMPDEST SWAP2 POP POP SWAP3 POP SWAP3 POP SWAP3 JUMP JUMPDEST PUSH0 DUP2 SWAP1 POP SWAP2 SWAP1 POP JUMP JUMPDEST PUSH2 0x1AB3 DUP2 PUSH2 0x1AA1 JUMP JUMPDEST DUP2 EQ PUSH2 0x1ABD JUMPI PUSH0 PUSH0 REVERT JUMPDEST POP JUMP JUMPDEST PUSH0 DUP2 CALLDATALOAD SWAP1 POP PUSH2 0x1ACE DUP2 PUSH2 0x1AAA JUMP JUMPDEST SWAP3 SWAP2 POP POP JUMP JUMPDEST PUSH0 PUSH1 0x20 DUP3 DUP5 SUB SLT ISZERO PUSH2 0x1AE9 JUMPI PUSH2 0x1AE8 PUSH2 0x189F JUMP JUMPDEST JUMPDEST PUSH0 PUSH2 0x1AF6 DUP5 DUP3 DUP6 ADD PUSH2 0x1AC0 JUMP JUMPDEST SWAP2 POP POP SWAP3 SWAP2 POP POP JUMP JUMPDEST PUSH0 DUP2 MLOAD SWAP1 POP SWAP2 SWAP1 POP JUMP JUMPDEST PUSH0 DUP3 DUP3 MSTORE PUSH1 0x20 DUP3 ADD SWAP1 POP SWAP3 SWAP2 POP POP JUMP JUMPDEST DUP3 DUP2 DUP4 MCOPY PUSH0 DUP4 DUP4 ADD MSTORE POP POP POP JUMP JUMPDEST PUSH0 PUSH2 0x1B31 DUP3 PUSH2 0x1AFF JUMP JUMPDEST PUSH2 0x1B3B DUP2 DUP6 PUSH2 0x1B09 JUMP JUMPDEST SWAP4 POP PUSH2 0x1B4B DUP2 DUP6 PUSH1 0x20 DUP7 ADD PUSH2 0x1B19 JUMP JUMPDEST PUSH2 0x1B54 DUP2 PUSH2 0x18AF JUMP JUMPDEST DUP5 ADD SWAP2 POP POP SWAP3 SWAP2 POP POP JUMP JUMPDEST PUSH0 DUP2 ISZERO ISZERO SWAP1 POP SWAP2 SWAP1 POP JUMP JUMPDEST PUSH2 0x1B73 DUP2 PUSH2 0x1B5F JUMP JUMPDEST DUP3 MSTORE POP POP JUMP JUMPDEST PUSH0 PUSH4 0xFFFFFFFF DUP3 AND SWAP1 POP SWAP2 SWAP1 POP JUMP JUMPDEST PUSH2 0x1B91 DUP2 PUSH2 0x1B79 JUMP JUMPDEST DUP3 MSTORE POP POP JUMP JUMPDEST PUSH2 0x1BA0 DUP2 PUSH2 0x19E3 JUMP JUMPDEST DUP3 MSTORE POP POP JUMP JUMPDEST PUSH0 DUP2 SWAP1 POP SWAP2 SWAP1 POP JUMP JUMPDEST PUSH2 0x1BB8 DUP2 PUSH2 0x1BA6 JUMP JUMPDEST DUP3 MSTORE POP POP JUMP JUMPDEST PUSH0 PUSH1 0xA0 DUP4 ADD PUSH0 DUP4 ADD MLOAD DUP5 DUP3 SUB PUSH0 DUP7 ADD MSTORE PUSH2 0x1BD8 DUP3 DUP3 PUSH2 0x1B27 JUMP JUMPDEST SWAP2 POP POP PUSH1 0x20 DUP4 ADD MLOAD PUSH2 0x1BED PUSH1 0x20 DUP7 ADD DUP3 PUSH2 0x1B6A JUMP JUMPDEST POP PUSH1 0x40 DUP4 ADD MLOAD PUSH2 0x1C00 PUSH1 0x40 DUP7 ADD DUP3 PUSH2 0x1B88 JUMP JUMPDEST POP PUSH1 0x60 DUP4 ADD MLOAD PUSH2 0x1C13 PUSH1 0x60 DUP7 ADD DUP3 PUSH2 0x1B97 JUMP JUMPDEST POP PUSH1 0x80 DUP4 ADD MLOAD PUSH2 0x1C26 PUSH1 0x80 DUP7 ADD DUP3 PUSH2 0x1BAF JUMP JUMPDEST POP DUP1 SWAP2 POP POP SWAP3 SWAP2 POP POP JUMP JUMPDEST PUSH0 PUSH1 0x20 DUP3 ADD SWAP1 POP DUP2 DUP2 SUB PUSH0 DUP4 ADD MSTORE PUSH2 0x1C49 DUP2 DUP5 PUSH2 0x1BBE JUMP JUMPDEST SWAP1 POP SWAP3 SWAP2 POP POP JUMP JUMPDEST PUSH0 PUSH20 0xFFFFFFFFFFFFFFFFFFFFFFFFFFFFFFFFFFFFFFFF DUP3 AND SWAP1 POP SWAP2 SWAP1 POP JUMP JUMPDEST PUSH0 PUSH2 0x1C7A DUP3 PUSH2 0x1C51 JUMP JUMPDEST SWAP1 POP SWAP2 SWAP1 POP JUMP JUMPDEST PUSH2 0x1C8A DUP2 PUSH2 0x1C70 JUMP JUMPDEST DUP2 EQ PUSH2 0x1C94 JUMPI PUSH0 PUSH0 REVERT JUMPDEST POP JUMP JUMPDEST PUSH0 DUP2 CALLDATALOAD SWAP1 POP PUSH2 0x1CA5 DUP2 PUSH2 0x1C81 JUMP JUMPDEST SWAP3 SWAP2 POP POP JUMP JUMPDEST PUSH0 PUSH1 0x20 DUP3 DUP5 SUB SLT ISZERO PUSH2 0x1CC0 JUMPI PUSH2 0x1CBF PUSH2 0x189F JUMP JUMPDEST JUMPDEST PUSH0 PUSH2 0x1CCD DUP5 DUP3 DUP6 ADD PUSH2 0x1C97 JUMP JUMPDEST SWAP2 POP POP SWAP3 SWAP2 POP POP JUMP JUMPDEST PUSH2 0x1CDF DUP2 PUSH2 0x1AA1 JUMP JUMPDEST DUP3 MSTORE POP POP JUMP JUMPDEST PUSH0 PUSH1 0x20 DUP3 ADD SWAP1 POP PUSH2 0x1CF8 PUSH0 DUP4 ADD DUP5 PUSH2 0x1CD6 JUMP JUMPDEST SWAP3 SWAP2 POP POP JUMP JUMPDEST PUSH0 PUSH1 0x60 DUP3 ADD SWAP1 POP PUSH2 0x1D11 PUSH0 DUP4 ADD DUP7 PUSH2 0x1CD6 JUMP JUMPDEST PUSH2 0x1D1E PUSH1 0x20 DUP4 ADD DUP6 PUSH2 0x1CD6 JUMP JUMPDEST PUSH2 0x1D2B PUSH1 0x40 DUP4 ADD DUP5 PUSH2 0x1CD6 JUMP JUMPDEST SWAP5 SWAP4 POP POP POP POP JUMP JUMPDEST PUSH2 0x1D3C DUP2 PUSH2 0x1B5F JUMP JUMPDEST DUP2 EQ PUSH2 0x1D46 JUMPI PUSH0 PUSH0 REVERT JUMPDEST POP JUMP JUMPDEST PUSH0 DUP2 CALLDATALOAD SWAP1 POP PUSH2 0x1D57 DUP2 PUSH2 0x1D33 JUMP JUMPDEST SWAP3 SWAP2 POP POP JUMP JUMPDEST PUSH0 PUSH1 0x20 DUP3 DUP5 SUB SLT ISZERO PUSH2 0x1D72 JUMPI PUSH2 0x1D71 PUSH2 0x189F JUMP JUMPDEST JUMPDEST PUSH0 PUSH2 0x1D7F DUP5 DUP3 DUP6 ADD PUSH2 0x1D49 JUMP JUMPDEST SWAP2 POP POP SWAP3 SWAP2 POP POP JUMP JUMPDEST PUSH0 DUP2 MLOAD SWAP1 POP SWAP2 SWAP1 POP JUMP JUMPDEST PUSH0 DUP3 DUP3 MSTORE PUSH1 0x20 DUP3 ADD SWAP1 POP SWAP3 SWAP2 POP POP JUMP JUMPDEST PUSH0 DUP2 SWAP1 POP PUSH1 0x20 DUP3 ADD SWAP1 POP SWAP2 SWAP1 POP JUMP JUMPDEST PUSH0 PUSH1 0xA0 DUP4 ADD PUSH0 DUP4 ADD MLOAD DUP5 DUP3 SUB PUSH0 DUP7 ADD MSTORE PUSH2 0x1DCB DUP3 DUP3 PUSH2 0x1B27 JUMP JUMPDEST SWAP2 POP POP PUSH1 0x20 DUP4 ADD MLOAD PUSH2 0x1DE0 PUSH1 0x20 DUP7 ADD DUP3 PUSH2 0x1B6A JUMP JUMPDEST POP PUSH1 0x40 DUP4 ADD MLOAD PUSH2 0x1DF3 PUSH1 0x40 DUP7 ADD DUP3 PUSH2 0x1B88 JUMP JUMPDEST POP PUSH1 0x60 DUP4 ADD MLOAD PUSH2 0x1E06 PUSH1 0x60 DUP7 ADD DUP3 PUSH2 0x1B97 JUMP JUMPDEST POP PUSH1 0x80 DUP4 ADD MLOAD PUSH2 0x1E19 PUSH1 0x80 DUP7 ADD DUP3 PUSH2 0x1BAF JUMP JUMPDEST POP DUP1 SWAP2 POP POP SWAP3 SWAP2 POP POP JUMP JUMPDEST PUSH0 PUSH2 0x1E2F DUP4 DUP4 PUSH2 0x1DB1 JUMP JUMPDEST SWAP1 POP SWAP3 SWAP2 POP POP JUMP JUMPDEST PUSH0 PUSH1 0x20 DUP3 ADD SWAP1 POP SWAP2 SWAP1 POP JUMP JUMPDEST PUSH0 PUSH2 0x1E4D DUP3 PUSH2 0x1D88 JUMP JUMPDEST PUSH2 0x1E57 DUP2 DUP6 PUSH2 0x1D92 JUMP JUMPDEST SWAP4 POP DUP4 PUSH1 0x20 DUP3 MUL DUP6 ADD PUSH2 0x1E69 DUP6 PUSH2 0x1DA2 JUMP JUMPDEST DUP1 PUSH0 JUMPDEST DUP6 DUP2 LT ISZERO PUSH2 0x1EA4 JUMPI DUP5 DUP5 SUB DUP10 MSTORE DUP2 MLOAD PUSH2 0x1E85 DUP6 DUP3 PUSH2 0x1E24 JUMP JUMPDEST SWAP5 POP PUSH2 0x1E90 DUP4 PUSH2 0x1E37 JUMP JUMPDEST SWAP3 POP PUSH1 0x20 DUP11 ADD SWAP10 POP POP PUSH1 0x1 DUP2 ADD SWAP1 POP PUSH2 0x1E6C JUMP JUMPDEST POP DUP3 SWAP8 POP DUP8 SWAP6 POP POP POP POP POP POP SWAP3 SWAP2 POP POP JUMP JUMPDEST PUSH0 DUP2 MLOAD SWAP1 POP SWAP2 SWAP1 POP JUMP JUMPDEST PUSH0 DUP3 DUP3 MSTORE PUSH1 0x20 DUP3 ADD SWAP1 POP SWAP3 SWAP2 POP POP JUMP JUMPDEST PUSH0 DUP2 SWAP1 POP PUSH1 0x20 DUP3 ADD SWAP1 POP SWAP2 SWAP1 POP JUMP JUMPDEST PUSH2 0x1EE8 DUP2 PUSH2 0x1AA1 JUMP JUMPDEST DUP3 MSTORE POP POP JUMP JUMPDEST PUSH0 PUSH2 0x1EF9 DUP4 DUP4 PUSH2 0x1EDF JUMP JUMPDEST PUSH1 0x20 DUP4 ADD SWAP1 POP SWAP3 SWAP2 POP POP JUMP JUMPDEST PUSH0 PUSH1 0x20 DUP3 ADD SWAP1 POP SWAP2 SWAP1 POP JUMP JUMPDEST PUSH0 PUSH2 0x1F1B DUP3 PUSH2 0x1EB6 JUMP JUMPDEST PUSH2 0x1F25 DUP2 DUP6 PUSH2 0x1EC0 JUMP JUMPDEST SWAP4 POP PUSH2 0x1F30 DUP4 PUSH2 0x1ED0 JUMP JUMPDEST DUP1 PUSH0 JUMPDEST DUP4 DUP2 LT ISZERO PUSH2 0x1F60 JUMPI DUP2 MLOAD PUSH2 0x1F47 DUP9 DUP3 PUSH2 0x1EEE JUMP JUMPDEST SWAP8 POP PUSH2 0x1F52 DUP4 PUSH2 0x1F05 JUMP JUMPDEST SWAP3 POP POP PUSH1 0x1 DUP2 ADD SWAP1 POP PUSH2 0x1F33 JUMP JUMPDEST POP DUP6 SWAP4 POP POP POP POP SWAP3 SWAP2 POP POP JUMP JUMPDEST PUSH0 PUSH1 0x40 DUP3 ADD SWAP1 POP DUP2 DUP2 SUB PUSH0 DUP4 ADD MSTORE PUSH2 0x1F85 DUP2 DUP6 PUSH2 0x1E43 JUMP JUMPDEST SWAP1 POP DUP2 DUP2 SUB PUSH1 0x20 DUP4 ADD MSTORE PUSH2 0x1F99 DUP2 DUP5 PUSH2 0x1F11 JUMP JUMPDEST SWAP1 POP SWAP4 SWAP3 POP POP POP JUMP JUMPDEST PUSH0 PUSH1 0x20 DUP3 ADD SWAP1 POP DUP2 DUP2 SUB PUSH0 DUP4 ADD MSTORE PUSH2 0x1FBA DUP2 DUP5 PUSH2 0x1E43 JUMP JUMPDEST SWAP1 POP SWAP3 SWAP2 POP POP JUMP JUMPDEST PUSH0 PUSH0 PUSH1 0x40 DUP4 DUP6 SUB SLT ISZERO PUSH2 0x1FD8 JUMPI PUSH2 0x1FD7 PUSH2 0x189F JUMP JUMPDEST JUMPDEST PUSH0 PUSH2 0x1FE5 DUP6 DUP3 DUP7 ADD PUSH2 0x1AC0 JUMP JUMPDEST SWAP3 POP POP PUSH1 0x20 DUP4 ADD CALLDATALOAD PUSH8 0xFFFFFFFFFFFFFFFF DUP2 GT ISZERO PUSH2 0x2006 JUMPI PUSH2 0x2005 PUSH2 0x18A3 JUMP JUMPDEST JUMPDEST PUSH2 0x2012 DUP6 DUP3 DUP7 ADD PUSH2 0x19B6 JUMP JUMPDEST SWAP2 POP POP SWAP3 POP SWAP3 SWAP1 POP JUMP JUMPDEST PUSH2 0x2025 DUP2 PUSH2 0x1BA6 JUMP JUMPDEST DUP2 EQ PUSH2 0x202F JUMPI PUSH0 PUSH0 REVERT JUMPDEST POP JUMP JUMPDEST PUSH0 DUP2 CALLDATALOAD SWAP1 POP PUSH2 0x2040 DUP2 PUSH2 0x201C JUMP JUMPDEST SWAP3 SWAP2 POP POP JUMP JUMPDEST PUSH0 PUSH1 0x20 DUP3 DUP5 SUB SLT ISZERO PUSH2 0x205B JUMPI PUSH2 0x205A PUSH2 0x189F JUMP JUMPDEST JUMPDEST PUSH0 PUSH2 0x2068 DUP5 DUP3 DUP6 ADD PUSH2 0x2032 JUMP JUMPDEST SWAP2 POP POP SWAP3 SWAP2 POP POP JUMP JUMPDEST PUSH0 DUP3 DUP3 MSTORE PUSH1 0x20 DUP3 ADD SWAP1 POP SWAP3 SWAP2 POP POP JUMP JUMPDEST PUSH0 PUSH2 0x208B DUP3 PUSH2 0x1AFF JUMP JUMPDEST PUSH2 0x2095 DUP2 DUP6 PUSH2 0x2071 JUMP JUMPDEST SWAP4 POP PUSH2 0x20A5 DUP2 DUP6 PUSH1 0x20 DUP7 ADD PUSH2 0x1B19 JUMP JUMPDEST PUSH2 0x20AE DUP2 PUSH2 0x18AF JUMP JUMPDEST DUP5 ADD SWAP2 POP POP SWAP3 SWAP2 POP POP JUMP JUMPDEST PUSH0 PUSH1 0x20 DUP3 ADD SWAP1 POP DUP2 DUP2 SUB PUSH0 DUP4 ADD MSTORE PUSH2 0x20D1 DUP2 DUP5 PUSH2 0x2081 JUMP JUMPDEST SWAP1 POP SWAP3 SWAP2 POP POP JUMP JUMPDEST PUSH0 PUSH1 0x20 DUP3 DUP5 SUB SLT ISZERO PUSH2 0x20EE JUMPI PUSH2 0x20ED PUSH2 0x189F JUMP JUMPDEST JUMPDEST PUSH0 PUSH2 0x20FB DUP5 DUP3 DUP6 ADD PUSH2 0x1A05 JUMP JUMPDEST SWAP2 POP POP SWAP3 SWAP2 POP POP JUMP JUMPDEST PUSH32 0x4E487B7100000000000000000000000000000000000000000000000000000000 PUSH0 MSTORE PUSH1 0x22 PUSH1 0x4 MSTORE PUSH1 0x24 PUSH0 REVERT JUMPDEST PUSH0 PUSH1 0x2 DUP3 DIV SWAP1 POP PUSH1 0x1 DUP3 AND DUP1 PUSH2 0x2148 JUMPI PUSH1 0x7F DUP3 AND SWAP2 POP JUMPDEST PUSH1 0x20 DUP3 LT DUP2 SUB PUSH2 0x215B JUMPI PUSH2 0x215A PUSH2 0x2104 JUMP JUMPDEST JUMPDEST POP SWAP2 SWAP1 POP JUMP JUMPDEST PUSH0 DUP2 SWAP1 POP DUP2 PUSH0 MSTORE PUSH1 0x20 PUSH0 KECCAK256 SWAP1 POP SWAP2 SWAP1 POP JUMP JUMPDEST PUSH0 PUSH1 0x20 PUSH1 0x1F DUP4 ADD DIV SWAP1 POP SWAP2 SWAP1 POP JUMP JUMPDEST PUSH0 DUP3 DUP3 SHL SWAP1 POP SWAP3 SWAP2 POP POP JUMP JUMPDEST PUSH0 PUSH1 0x8 DUP4 MUL PUSH2 0x21BD PUSH32 0xFFFFFFFFFFFFFFFFFFFFFFFFFFFFFFFFFFFFFFFFFFFFFFFFFFFFFFFFFFFFFFFF DUP3 PUSH2 0x2182 JUMP JUMPDEST PUSH2 0x21C7 DUP7 DUP4 PUSH2 0x2182 JUMP JUMPDEST SWAP6 POP DUP1 NOT DUP5 AND SWAP4 POP DUP1 DUP7 AND DUP5 OR SWAP3 POP POP POP SWAP4 SWAP3 POP POP POP JUMP JUMPDEST PUSH0 DUP2 SWAP1 POP SWAP2 SWAP1 POP JUMP JUMPDEST PUSH0 PUSH2 0x2202 PUSH2 0x21FD PUSH2 0x21F8 DUP5 PUSH2 0x1AA1 JUMP JUMPDEST PUSH2 0x21DF JUMP JUMPDEST PUSH2 0x1AA1 JUMP JUMPDEST SWAP1 POP SWAP2 SWAP1 POP JUMP JUMPDEST PUSH0 DUP2 SWAP1 POP SWAP2 SWAP1 POP JUMP JUMPDEST PUSH2 0x221B DUP4 PUSH2 0x21E8 JUMP JUMPDEST PUSH2 0x222F PUSH2 0x2227 DUP3 PUSH2 0x2209 JUMP JUMPDEST DUP5 DUP5 SLOAD PUSH2 0x218E JUMP JUMPDEST DUP3 SSTORE POP POP POP POP JUMP JUMPDEST PUSH0 PUSH0 SWAP1 POP SWAP1 JUMP JUMPDEST PUSH2 0x2246 PUSH2 0x2237 JUMP JUMPDEST PUSH2 0x2251 DUP2 DUP5 DUP5 PUSH2 0x2212 JUMP JUMPDEST POP POP POP JUMP JUMPDEST JUMPDEST DUP2 DUP2 LT ISZERO PUSH2 0x2274 JUMPI PUSH2 0x2269 PUSH0 DUP3 PUSH2 0x223E JUMP JUMPDEST PUSH1 0x1 DUP2 ADD SWAP1 POP PUSH2 0x2257 JUMP JUMPDEST POP POP JUMP JUMPDEST PUSH1 0x1F DUP3 GT ISZERO PUSH2 0x22B9 JUMPI PUSH2 0x228A DUP2 PUSH2 0x2161 JUMP JUMPDEST PUSH2 0x2293 DUP5 PUSH2 0x2173 JUMP JUMPDEST DUP2 ADD PUSH1 0x20 DUP6 LT ISZERO PUSH2 0x22A2 JUMPI DUP2 SWAP1 POP JUMPDEST PUSH2 0x22B6 PUSH2 0x22AE DUP6 PUSH2 0x2173 JUMP JUMPDEST DUP4 ADD DUP3 PUSH2 0x2256 JUMP JUMPDEST POP POP JUMPDEST POP POP POP JUMP JUMPDEST PUSH0 DUP3 DUP3 SHR SWAP1 POP SWAP3 SWAP2 POP POP JUMP JUMPDEST PUSH0 PUSH2 0x22D9 PUSH0 NOT DUP5 PUSH1 0x8 MUL PUSH2 0x22BE JUMP JUMPDEST NOT DUP1 DUP4 AND SWAP2 POP POP SWAP3 SWAP2 POP POP JUMP JUMPDEST PUSH0 PUSH2 0x22F1 DUP4 DUP4 PUSH2 0x22CA JUMP JUMPDEST SWAP2 POP DUP3 PUSH1 0x2 MUL DUP3 OR SWAP1 POP SWAP3 SWAP2 POP POP JUMP JUMPDEST PUSH2 0x230A DUP3 PUSH2 0x1AFF JUMP JUMPDEST PUSH8 0xFFFFFFFFFFFFFFFF DUP2 GT ISZERO PUSH2 0x2323 JUMPI PUSH2 0x2322 PUSH2 0x18BF JUMP JUMPDEST JUMPDEST PUSH2 0x232D DUP3 SLOAD PUSH2 0x2131 JUMP JUMPDEST PUSH2 0x2338 DUP3 DUP3 DUP6 PUSH2 0x2278 JUMP JUMPDEST PUSH0 PUSH1 0x20 SWAP1 POP PUSH1 0x1F DUP4 GT PUSH1 0x1 DUP2 EQ PUSH2 0x2369 JUMPI PUSH0 DUP5 ISZERO PUSH2 0x2357 JUMPI DUP3 DUP8 ADD MLOAD SWAP1 POP JUMPDEST PUSH2 0x2361 DUP6 DUP3 PUSH2 0x22E6 JUMP JUMPDEST DUP7 SSTORE POP PUSH2 0x23C8 JUMP JUMPDEST PUSH1 0x1F NOT DUP5 AND PUSH2 0x2377 DUP7 PUSH2 0x2161 JUMP JUMPDEST PUSH0 JUMPDEST DUP3 DUP2 LT ISZERO PUSH2 0x239E JUMPI DUP5 DUP10 ADD MLOAD DUP3 SSTORE PUSH1 0x1 DUP3 ADD SWAP2 POP PUSH1 0x20 DUP6 ADD SWAP5 POP PUSH1 0x20 DUP2 ADD SWAP1 POP PUSH2 0x2379 JUMP JUMPDEST DUP7 DUP4 LT ISZERO PUSH2 0x23BB JUMPI DUP5 DUP10 ADD MLOAD PUSH2 0x23B7 PUSH1 0x1F DUP10 AND DUP3 PUSH2 0x22CA JUMP JUMPDEST DUP4 SSTORE POP JUMPDEST PUSH1 0x1 PUSH1 0x2 DUP9 MUL ADD DUP9 SSTORE POP POP POP JUMPDEST POP POP POP POP POP POP JUMP JUMPDEST PUSH32 0x4E487B7100000000000000000000000000000000000000000000000000000000 PUSH0 MSTORE PUSH1 0x11 PUSH1 0x4 MSTORE PUSH1 0x24 PUSH0 REVERT JUMPDEST PUSH0 PUSH2 0x2407 DUP3 PUSH2 0x1AA1 JUMP JUMPDEST SWAP2 POP PUSH2 0x2412 DUP4 PUSH2 0x1AA1 JUMP JUMPDEST SWAP3 POP DUP3 DUP3 SUB SWAP1 POP DUP2 DUP2 GT ISZERO PUSH2 0x242A JUMPI PUSH2 0x2429 PUSH2 0x23D0 JUMP JUMPDEST JUMPDEST SWAP3 SWAP2 POP POP JUMP JUMPDEST PUSH0 PUSH2 0x243A DUP3 PUSH2 0x1AA1 JUMP JUMPDEST SWAP2 POP PUSH32 0xFFFFFFFFFFFFFFFFFFFFFFFFFFFFFFFFFFFFFFFFFFFFFFFFFFFFFFFFFFFFFFFF DUP3 SUB PUSH2 0x246C JUMPI PUSH2 0x246B PUSH2 0x23D0 JUMP JUMPDEST JUMPDEST PUSH1 0x1 DUP3 ADD SWAP1 POP SWAP2 SWAP1 POP JUMP JUMPDEST PUSH2 0x2480 DUP2 PUSH2 0x19E3 JUMP JUMPDEST DUP3 MSTORE POP POP JUMP JUMPDEST PUSH2 0x248F DUP2 PUSH2 0x1BA6 JUMP JUMPDEST DUP3 MSTORE POP POP JUMP JUMPDEST PUSH0 PUSH1 0x60 DUP3 ADD SWAP1 POP DUP2 DUP2 SUB PUSH0 DUP4 ADD MSTORE PUSH2 0x24AD DUP2 DUP7 PUSH2 0x2081 JUMP JUMPDEST SWAP1 POP PUSH2 0x24BC PUSH1 0x20 DUP4 ADD DUP6 PUSH2 0x2477 JUMP JUMPDEST PUSH2 0x24C9 PUSH1 0x40 DUP4 ADD DUP5 PUSH2 0x2486 JUMP JUMPDEST SWAP5 SWAP4 POP POP POP POP JUMP JUMPDEST PUSH32 0x4E487B7100000000000000000000000000000000000000000000000000000000 PUSH0 MSTORE PUSH1 0x32 PUSH1 0x4 MSTORE PUSH1 0x24 PUSH0 REVERT JUMPDEST PUSH0 DUP2 SLOAD SWAP1 POP PUSH2 0x250C DUP2 PUSH2 0x2131 JUMP JUMPDEST SWAP1 POP SWAP2 SWAP1 POP JUMP JUMPDEST DUP2 DUP2 SUB PUSH2 0x2521 JUMPI POP POP PUSH2 0x25F6 JUMP JUMPDEST PUSH2 0x252A DUP3 PUSH2 0x24FE JUMP JUMPDEST PUSH8 0xFFFFFFFFFFFFFFFF DUP2 GT ISZERO PUSH2 0x2543 JUMPI PUSH2 0x2542 PUSH2 0x18BF JUMP JUMPDEST JUMPDEST PUSH2 0x254D DUP3 SLOAD PUSH2 0x2131 JUMP JUMPDEST PUSH2 0x2558 DUP3 DUP3 DUP6 PUSH2 0x2278 JUMP JUMPDEST PUSH0 PUSH1 0x1F DUP4 GT PUSH1 0x1 DUP2 EQ PUSH2 0x2585 JUMPI PUSH0 DUP5 ISZERO PUSH2 0x2573 JUMPI DUP3 DUP8 ADD SLOAD SWAP1 POP JUMPDEST PUSH2 0x257D DUP6 DUP3 PUSH2 0x22E6 JUMP JUMPDEST DUP7 SSTORE POP PUSH2 0x25EF JUMP JUMPDEST PUSH1 0x1F NOT DUP5 AND PUSH2 0x2593 DUP8 PUSH2 0x2161 JUMP JUMPDEST SWAP7 POP PUSH2 0x259E DUP7 PUSH2 0x2161 JUMP JUMPDEST PUSH0 JUMPDEST DUP3 DUP2 LT ISZERO PUSH2 0x25C5 JUMPI DUP5 DUP10 ADD SLOAD DUP3 SSTORE PUSH1 0x1 DUP3 ADD SWAP2 POP PUSH1 0x1 DUP6 ADD SWAP5 POP PUSH1 0x20 DUP2 ADD SWAP1 POP PUSH2 0x25A0 JUMP JUMPDEST DUP7 DUP4 LT ISZERO PUSH2 0x25E2 JUMPI DUP5 DUP10 ADD SLOAD PUSH2 0x25DE PUSH1 0x1F DUP10 AND DUP3 PUSH2 0x22CA JUMP JUMPDEST DUP4 SSTORE POP JUMPDEST PUSH1 0x1 PUSH1 0x2 DUP9 MUL ADD DUP9 SSTORE POP POP POP JUMPDEST POP POP POP POP POP POP JUMPDEST JUMP JUMPDEST PUSH32 0x4E487B7100000000000000000000000000000000000000000000000000000000 PUSH0 MSTORE PUSH1 0x31 PUSH1 0x4 MSTORE PUSH1 0x24 PUSH0 REVERT JUMPDEST PUSH0 PUSH2 0x262F DUP3 PUSH2 0x1AA1 JUMP JUMPDEST SWAP2 POP PUSH0 DUP3 SUB PUSH2 0x2641 JUMPI PUSH2 0x2640 PUSH2 0x23D0 JUMP JUMPDEST JUMPDEST PUSH1 0x1 DUP3 SUB SWAP1 POP SWAP2 SWAP1 POP JUMP JUMPDEST PUSH2 0x2655 DUP2 PUSH2 0x1B5F JUMP JUMPDEST DUP3 MSTORE POP POP JUMP JUMPDEST PUSH0 PUSH1 0x20 DUP3 ADD SWAP1 POP PUSH2 0x266E PUSH0 DUP4 ADD DUP5 PUSH2 0x264C JUMP JUMPDEST SWAP3 SWAP2 POP POP JUMP JUMPDEST PUSH0 PUSH2 0x267E DUP3 PUSH2 0x19E3 JUMP JUMPDEST SWAP2 POP PUSH1 0xFF DUP3 SUB PUSH2 0x2691 JUMPI PUSH2 0x2690 PUSH2 0x23D0 JUMP JUMPDEST JUMPDEST PUSH1 0x1 DUP3 ADD SWAP1 POP SWAP2 SWAP1 POP JUMP INVALID LOG2 PUSH5 0x6970667358 0x22 SLT KECCAK256 CREATE2 RETURNDATASIZE EXTCODESIZE 0xA9 0xBE 0xF DUP6 MUL ISZERO BLOBHASH 0xEB 0x2A DUP9 SIGNEXTEND PUSH12 0x8C6186DAA8A7DBD0449F7EC1 EXTCODESIZE 0xC2 0xC1 DUP11 SHR PUSH5 0x736F6C6343 STOP ADDMOD 0x1E STOP CALLER "
		},
		"gasEstimates": {
			"creation": {
				"codeDepositCost": "1987600",
				"executionCost": "2103",
				"totalCost": "1989703"
			},
			"external": {
				"bytes32ToString(bytes32)": "infinite",
				"clearAllTasks()": "infinite",
				"createTask(string,uint8,string)": "infinite",
				"deleteTask(uint256)": "infinite",
				"getAllTasks()": "infinite",
				"getTask(uint256)": "infinite",
				"getTaskStats()": "infinite",
				"getTasksByPriority(uint8)": "infinite",
				"getTasksByStatus(bool)": "infinite",
				"taskCounts(address)": "2847",
				"toggleTask(uint256)": "35533",
				"updateTask(uint256,string)": "infinite"
			},
			"internal": {
				"stringToBytes32(string memory)": "infinite"
			}
		},
		"methodIdentifiers": {
			"bytes32ToString(bytes32)": "9201de55",
			"clearAllTasks()": "6e89fc62",
			"createTask(string,uint8,string)": "072d2d3b",
			"deleteTask(uint256)": "560f3192",
			"getAllTasks()": "779900b4",
			"getTask(uint256)": "1d65e77e",
			"getTaskStats()": "53d976ee",
			"getTasksByPriority(uint8)": "b7c8c412",
			"getTasksByStatus(bool)": "6f1200e2",
			"taskCounts(address)": "4a84d2e7",
			"toggleTask(uint256)": "613137a4",
			"updateTask(uint256,string)": "86533f6c"
		}
	},
	"abi": [
		{
			"inputs": [],
			"name": "EmptyTaskContent",
			"type": "error"
		},
		{
			"inputs": [],
			"name": "TaskAlreadyCompleted",
			"type": "error"
		},
		{
			"inputs": [],
			"name": "TaskNotCompleted",
			"type": "error"
		},
		{
			"inputs": [],
			"name": "TaskNotFound",
			"type": "error"
		},
		{
			"inputs": [],
			"name": "UnauthorizedAccess",
			"type": "error"
		},
		{
			"anonymous": false,
			"inputs": [
				{
					"indexed": true,
					"internalType": "address",
					"name": "user",
					"type": "address"
				},
				{
					"indexed": true,
					"internalType": "uint256",
					"name": "taskId",
					"type": "uint256"
				},
				{
					"indexed": false,
					"internalType": "string",
					"name": "content",
					"type": "string"
				},
				{
					"indexed": false,
					"internalType": "uint8",
					"name": "priority",
					"type": "uint8"
				},
				{
					"indexed": false,
					"internalType": "bytes32",
					"name": "category",
					"type": "bytes32"
				}
			],
			"name": "TaskCreated",
			"type": "event"
		},
		{
			"anonymous": false,
			"inputs": [
				{
					"indexed": true,
					"internalType": "address",
					"name": "user",
					"type": "address"
				},
				{
					"indexed": true,
					"internalType": "uint256",
					"name": "taskId",
					"type": "uint256"
				}
			],
			"name": "TaskDeleted",
			"type": "event"
		},
		{
			"anonymous": false,
			"inputs": [
				{
					"indexed": true,
					"internalType": "address",
					"name": "user",
					"type": "address"
				},
				{
					"indexed": true,
					"internalType": "uint256",
					"name": "taskId",
					"type": "uint256"
				},
				{
					"indexed": false,
					"internalType": "bool",
					"name": "isCompleted",
					"type": "bool"
				}
			],
			"name": "TaskToggled",
			"type": "event"
		},
		{
			"anonymous": false,
			"inputs": [
				{
					"indexed": true,
					"internalType": "address",
					"name": "user",
					"type": "address"
				},
				{
					"indexed": true,
					"internalType": "uint256",
					"name": "taskId",
					"type": "uint256"
				},
				{
					"indexed": false,
					"internalType": "string",
					"name": "newContent",
					"type": "string"
				}
			],
			"name": "TaskUpdated",
			"type": "event"
		},
		{
			"inputs": [
				{
					"internalType": "bytes32",
					"name": "_bytes32",
					"type": "bytes32"
				}
			],
			"name": "bytes32ToString",
			"outputs": [
				{
					"internalType": "string",
					"name": "",
					"type": "string"
				}
			],
			"stateMutability": "pure",
			"type": "function"
		},
		{
			"inputs": [],
			"name": "clearAllTasks",
			"outputs": [],
			"stateMutability": "nonpayable",
			"type": "function"
		},
		{
			"inputs": [
				{
					"internalType": "string",
					"name": "_content",
					"type": "string"
				},
				{
					"internalType": "uint8",
					"name": "_priority",
					"type": "uint8"
				},
				{
					"internalType": "string",
					"name": "_category",
					"type": "string"
				}
			],
			"name": "createTask",
			"outputs": [],
			"stateMutability": "nonpayable",
			"type": "function"
		},
		{
			"inputs": [
				{
					"internalType": "uint256",
					"name": "_taskId",
					"type": "uint256"
				}
			],
			"name": "deleteTask",
			"outputs": [],
			"stateMutability": "nonpayable",
			"type": "function"
		},
		{
			"inputs": [],
			"name": "getAllTasks",
			"outputs": [
				{
					"components": [
						{
							"internalType": "string",
							"name": "content",
							"type": "string"
						},
						{
							"internalType": "bool",
							"name": "isCompleted",
							"type": "bool"
						},
						{
							"internalType": "uint32",
							"name": "createdAt",
							"type": "uint32"
						},
						{
							"internalType": "uint8",
							"name": "priority",
							"type": "uint8"
						},
						{
							"internalType": "bytes32",
							"name": "category",
							"type": "bytes32"
						}
					],
					"internalType": "struct TodoList.Task[]",
					"name": "",
					"type": "tuple[]"
				}
			],
			"stateMutability": "view",
			"type": "function"
		},
		{
			"inputs": [
				{
					"internalType": "uint256",
					"name": "_taskId",
					"type": "uint256"
				}
			],
			"name": "getTask",
			"outputs": [
				{
					"components": [
						{
							"internalType": "string",
							"name": "content",
							"type": "string"
						},
						{
							"internalType": "bool",
							"name": "isCompleted",
							"type": "bool"
						},
						{
							"internalType": "uint32",
							"name": "createdAt",
							"type": "uint32"
						},
						{
							"internalType": "uint8",
							"name": "priority",
							"type": "uint8"
						},
						{
							"internalType": "bytes32",
							"name": "category",
							"type": "bytes32"
						}
					],
					"internalType": "struct TodoList.Task",
					"name": "",
					"type": "tuple"
				}
			],
			"stateMutability": "view",
			"type": "function"
		},
		{
			"inputs": [],
			"name": "getTaskStats",
			"outputs": [
				{
					"internalType": "uint256",
					"name": "total",
					"type": "uint256"
				},
				{
					"internalType": "uint256",
					"name": "completed",
					"type": "uint256"
				},
				{
					"internalType": "uint256",
					"name": "pending",
					"type": "uint256"
				}
			],
			"stateMutability": "view",
			"type": "function"
		},
		{
			"inputs": [
				{
					"internalType": "uint8",
					"name": "_priority",
					"type": "uint8"
				}
			],
			"name": "getTasksByPriority",
			"outputs": [
				{
					"components": [
						{
							"internalType": "string",
							"name": "content",
							"type": "string"
						},
						{
							"internalType": "bool",
							"name": "isCompleted",
							"type": "bool"
						},
						{
							"internalType": "uint32",
							"name": "createdAt",
							"type": "uint32"
						},
						{
							"internalType": "uint8",
							"name": "priority",
							"type": "uint8"
						},
						{
							"internalType": "bytes32",
							"name": "category",
							"type": "bytes32"
						}
					],
					"internalType": "struct TodoList.Task[]",
					"name": "",
					"type": "tuple[]"
				},
				{
					"internalType": "uint256[]",
					"name": "",
					"type": "uint256[]"
				}
			],
			"stateMutability": "view",
			"type": "function"
		},
		{
			"inputs": [
				{
					"internalType": "bool",
					"name": "_completed",
					"type": "bool"
				}
			],
			"name": "getTasksByStatus",
			"outputs": [
				{
					"components": [
						{
							"internalType": "string",
							"name": "content",
							"type": "string"
						},
						{
							"internalType": "bool",
							"name": "isCompleted",
							"type": "bool"
						},
						{
							"internalType": "uint32",
							"name": "createdAt",
							"type": "uint32"
						},
						{
							"internalType": "uint8",
							"name": "priority",
							"type": "uint8"
						},
						{
							"internalType": "bytes32",
							"name": "category",
							"type": "bytes32"
						}
					],
					"internalType": "struct TodoList.Task[]",
					"name": "",
					"type": "tuple[]"
				},
				{
					"internalType": "uint256[]",
					"name": "",
					"type": "uint256[]"
				}
			],
			"stateMutability": "view",
			"type": "function"
		},
		{
			"inputs": [
				{
					"internalType": "address",
					"name": "",
					"type": "address"
				}
			],
			"name": "taskCounts",
			"outputs": [
				{
					"internalType": "uint256",
					"name": "",
					"type": "uint256"
				}
			],
			"stateMutability": "view",
			"type": "function"
		},
		{
			"inputs": [
				{
					"internalType": "uint256",
					"name": "_taskId",
					"type": "uint256"
				}
			],
			"name": "toggleTask",
			"outputs": [],
			"stateMutability": "nonpayable",
			"type": "function"
		},
		{
			"inputs": [
				{
					"internalType": "uint256",
					"name": "_taskId",
					"type": "uint256"
				},
				{
					"internalType": "string",
					"name": "_newContent",
					"type": "string"
				}
			],
			"name": "updateTask",
			"outputs": [],
			"stateMutability": "nonpayable",
			"type": "function"
		}
	]
}