{
	"data": {
		"bytecode": {
			"linkReferences": {},
			"object": "610160604052348015610010575f5ffd5b50604051616f5a380380616f5a83398181016040528101906100329190611073565b336040518060400160405280600481526020017f436c617700000000000000000000000000000000000000000000000000000000815250806040518060400160405280600181526020017f31000000000000000000000000000000000000000000000000000000000000008152506040518060400160405280600481526020017f436c6177000000000000000000000000000000000000000000000000000000008152506040518060400160405280600481526020017f434c415700000000000000000000000000000000000000000000000000000000815250816044908161011b91906112d2565b50806045908161012b91906112d2565b50505061014260478361047b60201b90919060201c565b610120818152505061015e60488261047b60201b90919060201c565b6101408181525050818051906020012060e08181525050808051906020012061010081815250504660a0818152505061019b6104c860201b60201c565b608081815250503073ffffffffffffffffffffffffffffffffffffffff1660c08173ffffffffffffffffffffffffffffffffffffffff16815250505050505f73ffffffffffffffffffffffffffffffffffffffff168173ffffffffffffffffffffffffffffffffffffffff1603610249575f6040517f1e4fbdf700000000000000000000000000000000000000000000000000000000815260040161024091906113e0565b60405180910390fd5b6102588161052260201b60201c565b506001604c819055503360015f6101000a81548173ffffffffffffffffffffffffffffffffffffffff021916908373ffffffffffffffffffffffffffffffffffffffff16021790555061012c5f819055506064816102b69190611453565b600281905550600160045f3373ffffffffffffffffffffffffffffffffffffffff1673ffffffffffffffffffffffffffffffffffffffff1681526020019081526020015f205f6101000a81548160ff021916908315150217905550600160045f3073ffffffffffffffffffffffffffffffffffffffff1673ffffffffffffffffffffffffffffffffffffffff1681526020019081526020015f205f6101000a81548160ff021916908315150217905550600160055f3373ffffffffffffffffffffffffffffffffffffffff1673ffffffffffffffffffffffffffffffffffffffff1681526020019081526020015f205f6101000a81548160ff021916908315150217905550600160055f3073ffffffffffffffffffffffffffffffffffffffff1673ffffffffffffffffffffffffffffffffffffffff1681526020019081526020015f205f6101000a81548160ff021916908315150217905550600160055f5f73ffffffffffffffffffffffffffffffffffffffff1673ffffffffffffffffffffffffffffffffffffffff1681526020019081526020015f205f6101000a81548160ff021916908315150217905550610475338261055860201b60201c565b5061175d565b5f60208351101561049c57610495836105dd60201b60201c565b90506104c2565b826104ac8361064260201b60201c565b5f0190816104ba91906112d2565b5060ff5f1b90505b92915050565b5f7f8b73c3c69bb8fe3d512ecc4cf759cc79239f7b179b0ffacaa9a75d522b39400f60e0516101005146306040516020016105079594939291906114aa565b60405160208183030381529060405280519060200120905090565b604b5f6101000a81549073ffffffffffffffffffffffffffffffffffffffff02191690556105558161064b60201b60201c565b50565b5f73ffffffffffffffffffffffffffffffffffffffff168273ffffffffffffffffffffffffffffffffffffffff16036105c8575f6040517fec442f050000000000000000000000000000000000000000000000000000000081526004016105bf91906113e0565b60405180910390fd5b6105d95f838361070e60201b60201c565b5050565b5f5f829050601f8151111561062957826040517f305a27a90000000000000000000000000000000000000000000000000000000081526004016106209190611561565b60405180910390fd5b805181610635906115ae565b5f1c175f1b915050919050565b5f819050919050565b5f604a5f9054906101000a900473ffffffffffffffffffffffffffffffffffffffff16905081604a5f6101000a81548173ffffffffffffffffffffffffffffffffffffffff021916908373ffffffffffffffffffffffffffffffffffffffff1602179055508173ffffffffffffffffffffffffffffffffffffffff168173ffffffffffffffffffffffffffffffffffffffff167f8be0079c531659141344cd1fd0a4f28419497f9722a3daafe3b4186f6b6457e060405160405180910390a35050565b8260035f8273ffffffffffffffffffffffffffffffffffffffff1673ffffffffffffffffffffffffffffffffffffffff1681526020019081526020015f205f9054906101000a900460ff161561079b57806040517f571f7b4900000000000000000000000000000000000000000000000000000000815260040161079291906113e0565b60405180910390fd5b8260035f8273ffffffffffffffffffffffffffffffffffffffff1673ffffffffffffffffffffffffffffffffffffffff1681526020019081526020015f205f9054906101000a900460ff161561082857806040517f571f7b4900000000000000000000000000000000000000000000000000000000815260040161081f91906113e0565b60405180910390fd5b5f73ffffffffffffffffffffffffffffffffffffffff168573ffffffffffffffffffffffffffffffffffffffff16146108b6576108b5604e5f8773ffffffffffffffffffffffffffffffffffffffff1673ffffffffffffffffffffffffffffffffffffffff1681526020019081526020015f206108aa87610c8260201b60201c565b610cc860201b60201c565b5b5f73ffffffffffffffffffffffffffffffffffffffff168473ffffffffffffffffffffffffffffffffffffffff161461094457610943604e5f8673ffffffffffffffffffffffffffffffffffffffff1673ffffffffffffffffffffffffffffffffffffffff1681526020019081526020015f2061093886610c8260201b60201c565b610cc860201b60201c565b5b610962604f610957610cdc60201b60201c565b610ce560201b60201c565b5f73ffffffffffffffffffffffffffffffffffffffff168573ffffffffffffffffffffffffffffffffffffffff16141580156109ca57505f73ffffffffffffffffffffffffffffffffffffffff168473ffffffffffffffffffffffffffffffffffffffff1614155b15610c695760055f8673ffffffffffffffffffffffffffffffffffffffff1673ffffffffffffffffffffffffffffffffffffffff1681526020019081526020015f205f9054906101000a900460ff16158015610a6d575060055f8573ffffffffffffffffffffffffffffffffffffffff1673ffffffffffffffffffffffffffffffffffffffff1681526020019081526020015f205f9054906101000a900460ff16155b15610abd57600254831115610abc57826002546040517e83fa18000000000000000000000000000000000000000000000000000000008152600401610ab3929190611614565b60405180910390fd5b5b60045f8673ffffffffffffffffffffffffffffffffffffffff1673ffffffffffffffffffffffffffffffffffffffff1681526020019081526020015f205f9054906101000a900460ff16158015610b5b575060045f8573ffffffffffffffffffffffffffffffffffffffff1673ffffffffffffffffffffffffffffffffffffffff1681526020019081526020015f205f9054906101000a900460ff16155b8015610b6757505f5f54115b15610c68575f6127105f5485610b7d919061163b565b610b879190611453565b90505f8185610b96919061167c565b9050610bca8760015f9054906101000a900473ffffffffffffffffffffffffffffffffffffffff1684610d5860201b60201c565b60015f9054906101000a900473ffffffffffffffffffffffffffffffffffffffff1673ffffffffffffffffffffffffffffffffffffffff168773ffffffffffffffffffffffffffffffffffffffff167f5d37fd68fe66745a199f8c603e00ae02183f4aabb8ec0089589b0b40c4ead5e184604051610c4891906116af565b60405180910390a3610c61878783610d5860201b60201c565b5050610c7b565b5b610c7a858585610d5860201b60201c565b5b5050505050565b5f60415f8373ffffffffffffffffffffffffffffffffffffffff1673ffffffffffffffffffffffffffffffffffffffff1681526020019081526020015f20549050919050565b610cd88282610ce560201b60201c565b5050565b5f604354905090565b5f604d54905080610cfd845f01610d7c60201b60201c565b1015610d5357825f0181908060018154018082558091505060019003905f5260205f20015f90919091909150558260010182908060018154018082558091505060019003905f5260205f20015f90919091909150555b505050565b610d66610dc460201b60201c565b610d77838383610e0b60201b60201c565b505050565b5f5f828054905003610d90575f9050610dbf565b8160018380549050610da2919061167c565b81548110610db357610db26116c8565b5b905f5260205f20015490505b919050565b610dd261102760201b60201c565b15610e09576040517fd93c066500000000000000000000000000000000000000000000000000000000815260040160405180910390fd5b565b5f73ffffffffffffffffffffffffffffffffffffffff168373ffffffffffffffffffffffffffffffffffffffff1603610e5b578060435f828254610e4f91906116f5565b92505081905550610f2b565b5f60415f8573ffffffffffffffffffffffffffffffffffffffff1673ffffffffffffffffffffffffffffffffffffffff1681526020019081526020015f2054905081811015610ee5578381836040517fe450d38c000000000000000000000000000000000000000000000000000000008152600401610edc93929190611728565b60405180910390fd5b81810360415f8673ffffffffffffffffffffffffffffffffffffffff1673ffffffffffffffffffffffffffffffffffffffff1681526020019081526020015f2081905550505b5f73ffffffffffffffffffffffffffffffffffffffff168273ffffffffffffffffffffffffffffffffffffffff1603610f72578060435f8282540392505081905550610fbd565b8060415f8473ffffffffffffffffffffffffffffffffffffffff1673ffffffffffffffffffffffffffffffffffffffff1681526020019081526020015f205f82825401925050819055505b8173ffffffffffffffffffffffffffffffffffffffff168373ffffffffffffffffffffffffffffffffffffffff167fddf252ad1be2c89b69c2b068fc378daa952ba7f163c4a11628f55a4df523b3ef8360405161101a91906116af565b60405180910390a3505050565b5f60465f9054906101000a900460ff16905090565b5f5ffd5b5f819050919050565b61105281611040565b811461105c575f5ffd5b50565b5f8151905061106d81611049565b92915050565b5f602082840312156110885761108761103c565b5b5f6110958482850161105f565b91505092915050565b5f81519050919050565b7f4e487b71000000000000000000000000000000000000000000000000000000005f52604160045260245ffd5b7f4e487b71000000000000000000000000000000000000000000000000000000005f52602260045260245ffd5b5f600282049050600182168061111957607f821691505b60208210810361112c5761112b6110d5565b5b50919050565b5f819050815f5260205f209050919050565b5f6020601f8301049050919050565b5f82821b905092915050565b5f6008830261118e7fffffffffffffffffffffffffffffffffffffffffffffffffffffffffffffffff82611153565b6111988683611153565b95508019841693508086168417925050509392505050565b5f819050919050565b5f6111d36111ce6111c984611040565b6111b0565b611040565b9050919050565b5f819050919050565b6111ec836111b9565b6112006111f8826111da565b84845461115f565b825550505050565b5f5f905090565b611217611208565b6112228184846111e3565b505050565b5b818110156112455761123a5f8261120f565b600181019050611228565b5050565b601f82111561128a5761125b81611132565b61126484611144565b81016020851015611273578190505b61128761127f85611144565b830182611227565b50505b505050565b5f82821c905092915050565b5f6112aa5f198460080261128f565b1980831691505092915050565b5f6112c2838361129b565b9150826002028217905092915050565b6112db8261109e565b67ffffffffffffffff8111156112f4576112f36110a8565b5b6112fe8254611102565b611309828285611249565b5f60209050601f83116001811461133a575f8415611328578287015190505b61133285826112b7565b865550611399565b601f19841661134886611132565b5f5b8281101561136f5784890151825560018201915060208501945060208101905061134a565b8683101561138c5784890151611388601f89168261129b565b8355505b6001600288020188555050505b505050505050565b5f73ffffffffffffffffffffffffffffffffffffffff82169050919050565b5f6113ca826113a1565b9050919050565b6113da816113c0565b82525050565b5f6020820190506113f35f8301846113d1565b92915050565b7f4e487b71000000000000000000000000000000000000000000000000000000005f52601260045260245ffd5b7f4e487b71000000000000000000000000000000000000000000000000000000005f52601160045260245ffd5b5f61145d82611040565b915061146883611040565b925082611478576114776113f9565b5b828204905092915050565b5f819050919050565b61149581611483565b82525050565b6114a481611040565b82525050565b5f60a0820190506114bd5f83018861148c565b6114ca602083018761148c565b6114d7604083018661148c565b6114e4606083018561149b565b6114f160808301846113d1565b9695505050505050565b5f82825260208201905092915050565b8281835e5f83830152505050565b5f601f19601f8301169050919050565b5f6115338261109e565b61153d81856114fb565b935061154d81856020860161150b565b61155681611519565b840191505092915050565b5f6020820190508181035f8301526115798184611529565b905092915050565b5f81519050919050565b5f819050602082019050919050565b5f6115a58251611483565b80915050919050565b5f6115b882611581565b826115c28461158b565b90506115cd8161159a565b9250602082101561160d576116087fffffffffffffffffffffffffffffffffffffffffffffffffffffffffffffffff83602003600802611153565b831692505b5050919050565b5f6040820190506116275f83018561149b565b611634602083018461149b565b9392505050565b5f61164582611040565b915061165083611040565b925082820261165e81611040565b9150828204841483151761167557611674611426565b5b5092915050565b5f61168682611040565b915061169183611040565b92508282039050818111156116a9576116a8611426565b5b92915050565b5f6020820190506116c25f83018461149b565b92915050565b7f4e487b71000000000000000000000000000000000000000000000000000000005f52603260045260245ffd5b5f6116ff82611040565b915061170a83611040565b925082820190508082111561172257611721611426565b5b92915050565b5f60608201905061173b5f8301866113d1565b611748602083018561149b565b611755604083018461149b565b949350505050565b60805160a05160c05160e0516101005161012051610140516157ac6117ae5f395f61323a01525f6131ff01525f613b6101525f613b4001525f612f4401525f612f9a01525f612fc301526157ac5ff3fe608060405260043610610353575f3560e01c806379cc6790116101c5578063ba183d1a116100f6578063cfdbf25411610094578063dd62ed3e1161006e578063dd62ed3e14610bda578063e30c397814610c16578063e6ef73d614610c40578063f2fde38b14610c6a57610354565b8063cfdbf25414610b4c578063d505accf14610b76578063dbac26e914610b9e57610354565b8063c81b6848116100d0578063c81b684814610aaa578063c8c8ebe414610ad2578063cd8de42c14610afc578063cea9d26f14610b2457610354565b8063ba183d1a14610a3f578063c2ed286b14610a55578063c6a38e7c14610a7d57610354565b806395d89b4111610163578063989763ef1161013d578063989763ef14610975578063a457c2d7146109b1578063a9059cbb146109ed578063b3bbb66214610a2957610354565b806395d89b41146108e55780639711715a1461090f578063981b24d01461093957610354565b806384b0196e1161019f57806384b0196e146108255780638da5cb5b146108555780638fa817321461087f578063926ada6c146108a957610354565b806379cc6790146107ab5780637ecebe00146107d35780638456cb591461080f57610354565b806340c10f191161029f5780635c975abb1161023d57806370a082311161021757806370a0823114610719578063715018a614610755578063771a3a1d1461076b57806379ba50971461079557610354565b80635c975abb1461069f57806366650dae146106c957806368573107146106f157610354565b80634623c81e116102795780634623c81e146105fb5780634ee2cd7e14610625578063537df3b6146106615780635a1b4b701461068957610354565b806340c10f191461058357806342966c68146105ab57806344337ea1146105d357610354565b8063100e70f51161030c578063313ce567116102e6578063313ce567146104dd5780633644e5151461050757806339509351146105315780633f4ba83a1461056d57610354565b8063100e70f51461046157806318160ddd1461047757806323b872dd146104a157610354565b8063018fa4511461035657806306fdde031461037e578063095ea7b3146103a8578063099a04e5146103e45780630d0c0e331461040c5780630f8240fd1461043957610354565b5b005b348015610361575f5ffd5b5061037c6004803603810190610377919061472a565b610c92565b005b348015610389575f5ffd5b50610392610def565b60405161039f91906147c5565b60405180910390f35b3480156103b3575f5ffd5b506103ce60048036038101906103c9919061483f565b610e7f565b6040516103db9190614897565b60405180910390f35b3480156103ef575f5ffd5b5061040a600480360381019061040591906148eb565b610ef6565b005b348015610417575f5ffd5b50610420611064565b6040516104309493929190614947565b60405180910390f35b348015610444575f5ffd5b5061045f600480360381019061045a919061472a565b6110ac565b005b34801561046c575f5ffd5b506104756111fb565b005b348015610482575f5ffd5b5061048b6112cd565b604051610498919061498a565b60405180910390f35b3480156104ac575f5ffd5b506104c760048036038101906104c291906149a3565b6112d6565b6040516104d49190614897565b60405180910390f35b3480156104e8575f5ffd5b506104f1611304565b6040516104fe9190614a0e565b60405180910390f35b348015610512575f5ffd5b5061051b61130c565b6040516105289190614a3f565b60405180910390f35b34801561053c575f5ffd5b506105576004803603810190610552919061483f565b61131a565b6040516105649190614897565b60405180910390f35b348015610578575f5ffd5b50610581611350565b005b34801561058e575f5ffd5b506105a960048036038101906105a4919061483f565b611362565b005b3480156105b6575f5ffd5b506105d160048036038101906105cc919061472a565b611474565b005b3480156105de575f5ffd5b506105f960048036038101906105f49190614a58565b611488565b005b348015610606575f5ffd5b5061060f611623565b60405161061c919061498a565b60405180910390f35b348015610630575f5ffd5b5061064b6004803603810190610646919061483f565b61162a565b604051610658919061498a565b60405180910390f35b34801561066c575f5ffd5b5061068760048036038101906106829190614a58565b611696565b005b348015610694575f5ffd5b5061069d6117c3565b005b3480156106aa575f5ffd5b506106b3611895565b6040516106c09190614897565b60405180910390f35b3480156106d4575f5ffd5b506106ef60048036038101906106ea9190614aad565b6118aa565b005b3480156106fc575f5ffd5b5061071760048036038101906107129190614ba1565b611990565b005b348015610724575f5ffd5b5061073f600480360381019061073a9190614a58565b611c1a565b60405161074c919061498a565b60405180910390f35b348015610760575f5ffd5b50610769611c60565b005b348015610776575f5ffd5b5061077f611c73565b60405161078c919061498a565b60405180910390f35b3480156107a0575f5ffd5b506107a9611c78565b005b3480156107b6575f5ffd5b506107d160048036038101906107cc919061483f565b611d06565b005b3480156107de575f5ffd5b506107f960048036038101906107f49190614a58565b611d26565b604051610806919061498a565b60405180910390f35b34801561081a575f5ffd5b50610823611d37565b005b348015610830575f5ffd5b50610839611d49565b60405161084c9796959493929190614d10565b60405180910390f35b348015610860575f5ffd5b50610869611dee565b6040516108769190614d92565b60405180910390f35b34801561088a575f5ffd5b50610893611e16565b6040516108a0919061498a565b60405180910390f35b3480156108b4575f5ffd5b506108cf60048036038101906108ca9190614a58565b611e1c565b6040516108dc9190614897565b60405180910390f35b3480156108f0575f5ffd5b506108f9611e39565b60405161090691906147c5565b60405180910390f35b34801561091a575f5ffd5b50610923611ec9565b604051610930919061498a565b60405180910390f35b348015610944575f5ffd5b5061095f600480360381019061095a919061472a565b611edf565b60405161096c919061498a565b60405180910390f35b348015610980575f5ffd5b5061099b60048036038101906109969190614a58565b611f0e565b6040516109a89190614897565b60405180910390f35b3480156109bc575f5ffd5b506109d760048036038101906109d2919061483f565b611f2b565b6040516109e49190614897565b60405180910390f35b3480156109f8575f5ffd5b50610a136004803603810190610a0e919061483f565b611fa6565b604051610a209190614897565b60405180910390f35b348015610a34575f5ffd5b50610a3d611fc8565b005b348015610a4a575f5ffd5b50610a53612103565b005b348015610a60575f5ffd5b50610a7b6004803603810190610a769190614aad565b61223b565b005b348015610a88575f5ffd5b50610a91612321565b604051610aa19493929190614947565b60405180910390f35b348015610ab5575f5ffd5b50610ad06004803603810190610acb9190614dab565b612369565b005b348015610add575f5ffd5b50610ae66125b0565b604051610af3919061498a565b60405180910390f35b348015610b07575f5ffd5b50610b226004803603810190610b1d9190614a58565b6125b6565b005b348015610b2f575f5ffd5b50610b4a6004803603810190610b4591906149a3565b61276c565b005b348015610b57575f5ffd5b50610b606129ee565b604051610b6d919061498a565b60405180910390f35b348015610b81575f5ffd5b50610b9c6004803603810190610b979190614e4a565b6129f3565b005b348015610ba9575f5ffd5b50610bc46004803603810190610bbf9190614a58565b612b36565b604051610bd19190614897565b60405180910390f35b348015610be5575f5ffd5b50610c006004803603810190610bfb9190614ee7565b612b53565b604051610c0d919061498a565b60405180910390f35b348015610c21575f5ffd5b50610c2a612bd5565b604051610c379190614d92565b60405180910390f35b348015610c4b575f5ffd5b50610c54612bfd565b604051610c619190614d92565b60405180910390f35b348015610c75575f5ffd5b50610c906004803603810190610c8b9190614a58565b612c22565b005b610c9a612cce565b6103e8811115610ce157806040517fcfdd26ea000000000000000000000000000000000000000000000000000000008152600401610cd8919061498a565b60405180910390fd5b60405180608001604052808281526020015f73ffffffffffffffffffffffffffffffffffffffff1681526020016201518042610d1d9190614f52565b81526020016001151581525060075f820151815f01556020820151816001015f6101000a81548173ffffffffffffffffffffffffffffffffffffffff021916908373ffffffffffffffffffffffffffffffffffffffff160217905550604082015181600201556060820151816003015f6101000a81548160ff0219169083151502179055509050507f64bfb855be199de2d0dfd918e58e6539a39398b7fc47b28312e94805b0f54d09816201518042610dd69190614f52565b604051610de4929190614f85565b60405180910390a150565b606060448054610dfe90614fd9565b80601f0160208091040260200160405190810160405280929190818152602001828054610e2a90614fd9565b8015610e755780601f10610e4c57610100808354040283529160200191610e75565b820191905f5260205f20905b815481529060010190602001808311610e5857829003601f168201915b5050505050905090565b5f5f610e89612d55565b90505f610e968286612b53565b90505f8114158015610ea857505f8414155b15610edf576040517f52e8549800000000000000000000000000000000000000000000000000000000815260040160405180910390fd5b610eea828686612d5c565b60019250505092915050565b610efe612cce565b610f06612d6e565b5f73ffffffffffffffffffffffffffffffffffffffff168273ffffffffffffffffffffffffffffffffffffffff1603610f6b576040517fe6c4247b00000000000000000000000000000000000000000000000000000000815260040160405180910390fd5b5f811480610f7857504781115b15610faf576040517f2c5211c600000000000000000000000000000000000000000000000000000000815260040160405180910390fd5b5f8273ffffffffffffffffffffffffffffffffffffffff1682604051610fd490615036565b5f6040518083038185875af1925050503d805f811461100e576040519150601f19603f3d011682016040523d82523d5f602084013e611013565b606091505b5050905080611057576040517f08c379a000000000000000000000000000000000000000000000000000000000815260040161104e90615094565b60405180910390fd5b50611060612db4565b5050565b6007805f015490806001015f9054906101000a900473ffffffffffffffffffffffffffffffffffffffff1690806002015490806003015f9054906101000a900460ff16905084565b6110b4612cce565b5f81036110ed576040517f2c5211c600000000000000000000000000000000000000000000000000000000815260040160405180910390fd5b60405180608001604052808281526020015f73ffffffffffffffffffffffffffffffffffffffff16815260200162015180426111299190614f52565b815260200160011515815250600b5f820151815f01556020820151816001015f6101000a81548173ffffffffffffffffffffffffffffffffffffffff021916908373ffffffffffffffffffffffffffffffffffffffff160217905550604082015181600201556060820151816003015f6101000a81548160ff0219169083151502179055509050507f6a239f868fca1feb2785591a74767fe999ba17befedc673187ec9681e7973c068162015180426111e29190614f52565b6040516111f0929190614f85565b60405180910390a150565b611203612cce565b600b6003015f9054906101000a900460ff1661124b576040517f259faa2c00000000000000000000000000000000000000000000000000000000815260040160405180910390fd5b600b5f5f82015f9055600182015f6101000a81549073ffffffffffffffffffffffffffffffffffffffff0219169055600282015f9055600382015f6101000a81549060ff021916905550507fb5ab2bba66254976c098d63bfde60e058dadffe9f19d46425aa84d89a61412d26040516112c3906150fc565b60405180910390a1565b5f604354905090565b5f5f6112e0612d55565b90506112ed858285612dbe565b6112f8858585612e51565b60019150509392505050565b5f6012905090565b5f611315612f41565b905090565b5f5f611324612d55565b90506113458185856113368589612b53565b6113409190614f52565b612d5c565b600191505092915050565b611358612cce565b611360612ff7565b565b61136a612cce565b611372612d6e565b5f73ffffffffffffffffffffffffffffffffffffffff168273ffffffffffffffffffffffffffffffffffffffff16036113d7576040517fe6c4247b00000000000000000000000000000000000000000000000000000000815260040160405180910390fd5b5f8103611410576040517f2c5211c600000000000000000000000000000000000000000000000000000000815260040160405180910390fd5b61141a8282613001565b8173ffffffffffffffffffffffffffffffffffffffff167f3f2c9d57c068687834f0de942a9babb9e5acab57d516d3480a3c16ee165a427382604051611460919061498a565b60405180910390a2611470612db4565b5050565b61148561147f612d55565b8261300f565b50565b611490612cce565b611498611dee565b73ffffffffffffffffffffffffffffffffffffffff168173ffffffffffffffffffffffffffffffffffffffff16036114fc576040517fe6e791c400000000000000000000000000000000000000000000000000000000815260040160405180910390fd5b60035f8273ffffffffffffffffffffffffffffffffffffffff1673ffffffffffffffffffffffffffffffffffffffff1681526020019081526020015f205f9054906101000a900460ff161561158857806040517f571f7b4900000000000000000000000000000000000000000000000000000000815260040161157f9190614d92565b60405180910390fd5b600160035f8373ffffffffffffffffffffffffffffffffffffffff1673ffffffffffffffffffffffffffffffffffffffff1681526020019081526020015f205f6101000a81548160ff0219169083151502179055508073ffffffffffffffffffffffffffffffffffffffff167fffa4e6181777692565cf28528fc88fd1516ea86b56da075235fa575af6a4b85560405160405180910390a250565b6201518081565b5f5f5f61167384604e5f8873ffffffffffffffffffffffffffffffffffffffff1673ffffffffffffffffffffffffffffffffffffffff1681526020019081526020015f2061308e565b915091508161168a5761168585611c1a565b61168c565b805b9250505092915050565b61169e612cce565b60035f8273ffffffffffffffffffffffffffffffffffffffff1673ffffffffffffffffffffffffffffffffffffffff1681526020019081526020015f205f9054906101000a900460ff1661172957806040517fe0b7a2280000000000000000000000000000000000000000000000000000000081526004016117209190614d92565b60405180910390fd5b5f60035f8373ffffffffffffffffffffffffffffffffffffffff1673ffffffffffffffffffffffffffffffffffffffff1681526020019081526020015f205f6101000a81548160ff0219169083151502179055508073ffffffffffffffffffffffffffffffffffffffff167f117e3210bb9aa7d9baff172026820255c6f6c30ba8999d1c2fd88e2848137c4e60405160405180910390a250565b6117cb612cce565b60076003015f9054906101000a900460ff16611813576040517f259faa2c00000000000000000000000000000000000000000000000000000000815260040160405180910390fd5b60075f5f82015f9055600182015f6101000a81549073ffffffffffffffffffffffffffffffffffffffff0219169055600282015f9055600382015f6101000a81549060ff021916905550507fb5ab2bba66254976c098d63bfde60e058dadffe9f19d46425aa84d89a61412d260405161188b90615164565b60405180910390a1565b5f60465f9054906101000a900460ff16905090565b6118b2612cce565b80151560055f8473ffffffffffffffffffffffffffffffffffffffff1673ffffffffffffffffffffffffffffffffffffffff1681526020019081526020015f205f9054906101000a900460ff16151503611938576040517f8617982100000000000000000000000000000000000000000000000000000000815260040160405180910390fd5b8060055f8473ffffffffffffffffffffffffffffffffffffffff1673ffffffffffffffffffffffffffffffffffffffff1681526020019081526020015f205f6101000a81548160ff0219169083151502179055505050565b611998612cce565b6119a0612d6e565b8181905084849050146119df576040517fa24a13a600000000000000000000000000000000000000000000000000000000815260040160405180910390fd5b5f8484905014806119f3575060c884849050115b15611a3857838390506040517fe0f549da000000000000000000000000000000000000000000000000000000008152600401611a2f919061498a565b60405180910390fd5b5f5f90505b84849050811015611c0b575f73ffffffffffffffffffffffffffffffffffffffff16858583818110611a7257611a71615182565b5b9050602002016020810190611a879190614a58565b73ffffffffffffffffffffffffffffffffffffffff1603611ad4576040517fe6c4247b00000000000000000000000000000000000000000000000000000000815260040160405180910390fd5b5f838383818110611ae857611ae7615182565b5b9050602002013503611b26576040517f2c5211c600000000000000000000000000000000000000000000000000000000815260040160405180910390fd5b611b70858583818110611b3c57611b3b615182565b5b9050602002016020810190611b519190614a58565b848484818110611b6457611b63615182565b5b90506020020135613001565b848482818110611b8357611b82615182565b5b9050602002016020810190611b989190614a58565b73ffffffffffffffffffffffffffffffffffffffff167f3f2c9d57c068687834f0de942a9babb9e5acab57d516d3480a3c16ee165a4273848484818110611be257611be1615182565b5b90506020020135604051611bf6919061498a565b60405180910390a28080600101915050611a3d565b50611c14612db4565b50505050565b5f60415f8373ffffffffffffffffffffffffffffffffffffffff1673ffffffffffffffffffffffffffffffffffffffff1681526020019081526020015f20549050919050565b611c68612cce565b611c715f613176565b565b5f5481565b5f611c81612d55565b90508073ffffffffffffffffffffffffffffffffffffffff16611ca2612bd5565b73ffffffffffffffffffffffffffffffffffffffff1614611cfa57806040517f118cdaa7000000000000000000000000000000000000000000000000000000008152600401611cf19190614d92565b60405180910390fd5b611d0381613176565b50565b611d1882611d12612d55565b83612dbe565b611d22828261300f565b5050565b5f611d30826131a6565b9050919050565b611d3f612cce565b611d476131ec565b565b5f6060805f5f5f6060611d5a6131f6565b611d62613231565b46305f5f1b5f67ffffffffffffffff811115611d8157611d806151af565b5b604051908082528060200260200182016040528015611daf5781602001602082028036833780820191505090505b507f0f00000000000000000000000000000000000000000000000000000000000000959493929190965096509650965096509650965090919293949596565b5f604a5f9054906101000a900473ffffffffffffffffffffffffffffffffffffffff16905090565b6103e881565b6005602052805f5260405f205f915054906101000a900460ff1681565b606060458054611e4890614fd9565b80601f0160208091040260200160405190810160405280929190818152602001828054611e7490614fd9565b8015611ebf5780601f10611e9657610100808354040283529160200191611ebf565b820191905f5260205f20905b815481529060010190602001808311611ea257829003601f168201915b5050505050905090565b5f611ed2612cce565b611eda61326c565b905090565b5f5f5f611eed84604f61308e565b9150915081611f0357611efe6112cd565b611f05565b805b92505050919050565b6004602052805f5260405f205f915054906101000a900460ff1681565b5f5f611f35612d55565b90505f611f428286612b53565b905083811015611f8d578481856040517ffb8f41b2000000000000000000000000000000000000000000000000000000008152600401611f84939291906151dc565b60405180910390fd5b611f9a8286868403612d5c565b60019250505092915050565b5f5f611fb0612d55565b9050611fbd818585612e51565b600191505092915050565b611fd0612cce565b600b6003015f9054906101000a900460ff16612018576040517f259faa2c00000000000000000000000000000000000000000000000000000000815260040160405180910390fd5b600b600201544210156120695742600b600201546040517f24d6e9ba000000000000000000000000000000000000000000000000000000008152600401612060929190614f85565b60405180910390fd5b5f6002549050600b5f0154600281905550600b5f5f82015f9055600182015f6101000a81549073ffffffffffffffffffffffffffffffffffffffff0219169055600282015f9055600382015f6101000a81549060ff021916905550507fd40d861b6c61fb22040b4eb8de22cc4c267673593fef5c5880e2f55e75ef4548816002546040516120f8929190614f85565b60405180910390a150565b61210b612cce565b60076003015f9054906101000a900460ff16612153576040517f259faa2c00000000000000000000000000000000000000000000000000000000815260040160405180910390fd5b6007600201544210156121a457426007600201546040517f24d6e9ba00000000000000000000000000000000000000000000000000000000815260040161219b929190614f85565b60405180910390fd5b5f5f54905060075f01545f8190555060075f5f82015f9055600182015f6101000a81549073ffffffffffffffffffffffffffffffffffffffff0219169055600282015f9055600382015f6101000a81549060ff021916905550507fa8ee157eb2a9aa895d74df4d2d3bc0ad165ff3162f8ec46a4ecf602dd5c48fda815f54604051612230929190614f85565b60405180910390a150565b612243612cce565b80151560045f8473ffffffffffffffffffffffffffffffffffffffff1673ffffffffffffffffffffffffffffffffffffffff1681526020019081526020015f205f9054906101000a900460ff161515036122c9576040517f8617982100000000000000000000000000000000000000000000000000000000815260040160405180910390fd5b8060045f8473ffffffffffffffffffffffffffffffffffffffff1673ffffffffffffffffffffffffffffffffffffffff1681526020019081526020015f205f6101000a81548160ff0219169083151502179055505050565b600b805f015490806001015f9054906101000a900473ffffffffffffffffffffffffffffffffffffffff1690806002015490806003015f9054906101000a900460ff16905084565b612371612cce565b5f828290501480612385575060c882829050115b156123ca57818190506040517fe0f549da0000000000000000000000000000000000000000000000000000000081526004016123c1919061498a565b60405180910390fd5b5f5f90505b828290508110156125ab5760035f8484848181106123f0576123ef615182565b5b90506020020160208101906124059190614a58565b73ffffffffffffffffffffffffffffffffffffffff1673ffffffffffffffffffffffffffffffffffffffff1681526020019081526020015f205f9054906101000a900460ff161580156124b2575061245b611dee565b73ffffffffffffffffffffffffffffffffffffffff1683838381811061248457612483615182565b5b90506020020160208101906124999190614a58565b73ffffffffffffffffffffffffffffffffffffffff1614155b1561259e57600160035f8585858181106124cf576124ce615182565b5b90506020020160208101906124e49190614a58565b73ffffffffffffffffffffffffffffffffffffffff1673ffffffffffffffffffffffffffffffffffffffff1681526020019081526020015f205f6101000a81548160ff02191690831515021790555082828281811061254657612545615182565b5b905060200201602081019061255b9190614a58565b73ffffffffffffffffffffffffffffffffffffffff167fffa4e6181777692565cf28528fc88fd1516ea86b56da075235fa575af6a4b85560405160405180910390a25b80806001019150506123cf565b505050565b60025481565b6125be612cce565b5f73ffffffffffffffffffffffffffffffffffffffff168173ffffffffffffffffffffffffffffffffffffffff1603612623576040517fe6c4247b00000000000000000000000000000000000000000000000000000000815260040160405180910390fd5b60015f9054906101000a900473ffffffffffffffffffffffffffffffffffffffff1673ffffffffffffffffffffffffffffffffffffffff168173ffffffffffffffffffffffffffffffffffffffff16036126a9576040517f8617982100000000000000000000000000000000000000000000000000000000815260040160405180910390fd5b5f60015f9054906101000a900473ffffffffffffffffffffffffffffffffffffffff1690508160015f6101000a81548173ffffffffffffffffffffffffffffffffffffffff021916908373ffffffffffffffffffffffffffffffffffffffff1602179055508173ffffffffffffffffffffffffffffffffffffffff168173ffffffffffffffffffffffffffffffffffffffff167ff970bc488f38cdc7caf559de1924e9c564d90c54d1767c82df2cbc55c9829a5e60405160405180910390a35050565b612774612cce565b61277c612d6e565b3073ffffffffffffffffffffffffffffffffffffffff168373ffffffffffffffffffffffffffffffffffffffff16036127e1576040517fddacedeb00000000000000000000000000000000000000000000000000000000815260040160405180910390fd5b5f73ffffffffffffffffffffffffffffffffffffffff168273ffffffffffffffffffffffffffffffffffffffff1603612846576040517fe6c4247b00000000000000000000000000000000000000000000000000000000815260040160405180910390fd5b5f810361287f576040517f2c5211c600000000000000000000000000000000000000000000000000000000815260040160405180910390fd5b5f5f8473ffffffffffffffffffffffffffffffffffffffff1684846040516024016128ab929190615211565b6040516020818303038152906040527fa9059cbb000000000000000000000000000000000000000000000000000000007bffffffffffffffffffffffffffffffffffffffffffffffffffffffff19166020820180517bffffffffffffffffffffffffffffffffffffffffffffffffffffffff83818316178352505050506040516129359190615272565b5f604051808303815f865af19150503d805f811461296e576040519150601f19603f3d011682016040523d82523d5f602084013e612973565b606091505b50915091508180156129a057505f8151148061299f57508080602001905181019061299e919061529c565b5b5b6129df576040517f08c379a00000000000000000000000000000000000000000000000000000000081526004016129d690615311565b60405180910390fd5b50506129e9612db4565b505050565b60c881565b5f87878787878787604051602001612a1197969594939291906153e8565b60405160208183030381529060405280519060200120905060065f8973ffffffffffffffffffffffffffffffffffffffff1673ffffffffffffffffffffffffffffffffffffffff1681526020019081526020015f205f8281526020019081526020015f205f9054906101000a900460ff1615612ab9576040517f493efc1900000000000000000000000000000000000000000000000000000000815260040160405180910390fd5b600160065f8a73ffffffffffffffffffffffffffffffffffffffff1673ffffffffffffffffffffffffffffffffffffffff1681526020019081526020015f205f8381526020019081526020015f205f6101000a81548160ff021916908315150217905550612b2c888888888888886132ca565b5050505050505050565b6003602052805f5260405f205f915054906101000a900460ff1681565b5f60425f8473ffffffffffffffffffffffffffffffffffffffff1673ffffffffffffffffffffffffffffffffffffffff1681526020019081526020015f205f8373ffffffffffffffffffffffffffffffffffffffff1673ffffffffffffffffffffffffffffffffffffffff1681526020019081526020015f2054905092915050565b5f604b5f9054906101000a900473ffffffffffffffffffffffffffffffffffffffff16905090565b60015f9054906101000a900473ffffffffffffffffffffffffffffffffffffffff1681565b612c2a612cce565b80604b5f6101000a81548173ffffffffffffffffffffffffffffffffffffffff021916908373ffffffffffffffffffffffffffffffffffffffff1602179055508073ffffffffffffffffffffffffffffffffffffffff16612c89611dee565b73ffffffffffffffffffffffffffffffffffffffff167f38d16b8cac22d99fc7c124b9cd0de2d3fa1faef420bfe791d8c362d765e2270060405160405180910390a350565b612cd6612d55565b73ffffffffffffffffffffffffffffffffffffffff16612cf4611dee565b73ffffffffffffffffffffffffffffffffffffffff1614612d5357612d17612d55565b6040517f118cdaa7000000000000000000000000000000000000000000000000000000008152600401612d4a9190614d92565b60405180910390fd5b565b5f33905090565b612d69838383600161340f565b505050565b6002604c5403612daa576040517f3ee5aeb500000000000000000000000000000000000000000000000000000000815260040160405180910390fd5b6002604c81905550565b6001604c81905550565b5f612dc98484612b53565b90507fffffffffffffffffffffffffffffffffffffffffffffffffffffffffffffffff811015612e4b5781811015612e3c578281836040517ffb8f41b2000000000000000000000000000000000000000000000000000000008152600401612e33939291906151dc565b60405180910390fd5b612e4a84848484035f61340f565b5b50505050565b5f73ffffffffffffffffffffffffffffffffffffffff168373ffffffffffffffffffffffffffffffffffffffff1603612ec1575f6040517f96c6fd1e000000000000000000000000000000000000000000000000000000008152600401612eb89190614d92565b60405180910390fd5b5f73ffffffffffffffffffffffffffffffffffffffff168273ffffffffffffffffffffffffffffffffffffffff1603612f31575f6040517fec442f05000000000000000000000000000000000000000000000000000000008152600401612f289190614d92565b60405180910390fd5b612f3c8383836135de565b505050565b5f7f000000000000000000000000000000000000000000000000000000000000000073ffffffffffffffffffffffffffffffffffffffff163073ffffffffffffffffffffffffffffffffffffffff16148015612fbc57507f000000000000000000000000000000000000000000000000000000000000000046145b15612fe9577f00000000000000000000000000000000000000000000000000000000000000009050612ff4565b612ff1613b1c565b90505b90565b612fff613bb1565b565b61300b8282613c12565b5050565b5f73ffffffffffffffffffffffffffffffffffffffff168273ffffffffffffffffffffffffffffffffffffffff160361307f575f6040517f96c6fd1e0000000000000000000000000000000000000000000000000000000081526004016130769190614d92565b60405180910390fd5b61308a825f836135de565b5050565b5f5f5f84116130d2576040517f08c379a00000000000000000000000000000000000000000000000000000000081526004016130c9906154b2565b60405180910390fd5b604d54841115613117576040517f08c379a000000000000000000000000000000000000000000000000000000000815260040161310e90615540565b60405180910390fd5b5f61312d85855f01613c9190919063ffffffff16565b9050835f01805490508103613148575f5f925092505061316f565b60018460010182815481106131605761315f615182565b5b905f5260205f20015492509250505b9250929050565b604b5f6101000a81549073ffffffffffffffffffffffffffffffffffffffff02191690556131a381613d44565b50565b5f60495f8373ffffffffffffffffffffffffffffffffffffffff1673ffffffffffffffffffffffffffffffffffffffff1681526020019081526020015f20549050919050565b6131f4613e07565b565b606061322c60477f0000000000000000000000000000000000000000000000000000000000000000613e6990919063ffffffff16565b905090565b606061326760487f0000000000000000000000000000000000000000000000000000000000000000613e6990919063ffffffff16565b905090565b5f6001604d5f82825461327f9190614f52565b925050819055505f604d5490507f8030e83b04d87bef53480e26263266d6ca66863aa8506aca6f2559d18aa1cb67816040516132bb919061498a565b60405180910390a18091505090565b8342111561330f57836040517f62791302000000000000000000000000000000000000000000000000000000008152600401613306919061498a565b60405180910390fd5b5f7f6e71edae12b1b97f4d1f60370fef10105fa2faae0126114a169c64845d6126c988888861333d8c613f16565b896040516020016133539695949392919061555e565b6040516020818303038152906040528051906020012090505f61337582613f69565b90505f61338482878787613f82565b90508973ffffffffffffffffffffffffffffffffffffffff168173ffffffffffffffffffffffffffffffffffffffff16146133f857808a6040517f4b800e460000000000000000000000000000000000000000000000000000000081526004016133ef9291906155bd565b60405180910390fd5b6134038a8a8a612d5c565b50505050505050505050565b5f73ffffffffffffffffffffffffffffffffffffffff168473ffffffffffffffffffffffffffffffffffffffff160361347f575f6040517fe602df050000000000000000000000000000000000000000000000000000000081526004016134769190614d92565b60405180910390fd5b5f73ffffffffffffffffffffffffffffffffffffffff168373ffffffffffffffffffffffffffffffffffffffff16036134ef575f6040517f94280d620000000000000000000000000000000000000000000000000000000081526004016134e69190614d92565b60405180910390fd5b8160425f8673ffffffffffffffffffffffffffffffffffffffff1673ffffffffffffffffffffffffffffffffffffffff1681526020019081526020015f205f8573ffffffffffffffffffffffffffffffffffffffff1673ffffffffffffffffffffffffffffffffffffffff1681526020019081526020015f208190555080156135d8578273ffffffffffffffffffffffffffffffffffffffff168473ffffffffffffffffffffffffffffffffffffffff167f8c5be1e5ebec7d5bd14f71427d1e84f3dd0314c0f7b2291e5b200ac8c7c3b925846040516135cf919061498a565b60405180910390a35b50505050565b8260035f8273ffffffffffffffffffffffffffffffffffffffff1673ffffffffffffffffffffffffffffffffffffffff1681526020019081526020015f205f9054906101000a900460ff161561366b57806040517f571f7b490000000000000000000000000000000000000000000000000000000081526004016136629190614d92565b60405180910390fd5b8260035f8273ffffffffffffffffffffffffffffffffffffffff1673ffffffffffffffffffffffffffffffffffffffff1681526020019081526020015f205f9054906101000a900460ff16156136f857806040517f571f7b490000000000000000000000000000000000000000000000000000000081526004016136ef9190614d92565b60405180910390fd5b5f73ffffffffffffffffffffffffffffffffffffffff168573ffffffffffffffffffffffffffffffffffffffff161461377a57613779604e5f8773ffffffffffffffffffffffffffffffffffffffff1673ffffffffffffffffffffffffffffffffffffffff1681526020019081526020015f2061377487611c1a565b613fb0565b5b5f73ffffffffffffffffffffffffffffffffffffffff168473ffffffffffffffffffffffffffffffffffffffff16146137fc576137fb604e5f8673ffffffffffffffffffffffffffffffffffffffff1673ffffffffffffffffffffffffffffffffffffffff1681526020019081526020015f206137f686611c1a565b613fb0565b5b61380e604f6138096112cd565b613fbe565b5f73ffffffffffffffffffffffffffffffffffffffff168573ffffffffffffffffffffffffffffffffffffffff161415801561387657505f73ffffffffffffffffffffffffffffffffffffffff168473ffffffffffffffffffffffffffffffffffffffff1614155b15613b095760055f8673ffffffffffffffffffffffffffffffffffffffff1673ffffffffffffffffffffffffffffffffffffffff1681526020019081526020015f205f9054906101000a900460ff16158015613919575060055f8573ffffffffffffffffffffffffffffffffffffffff1673ffffffffffffffffffffffffffffffffffffffff1681526020019081526020015f205f9054906101000a900460ff16155b156139695760025483111561396857826002546040517e83fa1800000000000000000000000000000000000000000000000000000000815260040161395f929190614f85565b60405180910390fd5b5b60045f8673ffffffffffffffffffffffffffffffffffffffff1673ffffffffffffffffffffffffffffffffffffffff1681526020019081526020015f205f9054906101000a900460ff16158015613a07575060045f8573ffffffffffffffffffffffffffffffffffffffff1673ffffffffffffffffffffffffffffffffffffffff1681526020019081526020015f205f9054906101000a900460ff16155b8015613a1357505f5f54115b15613b08575f6127105f5485613a2991906155e4565b613a339190615652565b90505f8185613a429190615682565b9050613a708760015f9054906101000a900473ffffffffffffffffffffffffffffffffffffffff168461402b565b60015f9054906101000a900473ffffffffffffffffffffffffffffffffffffffff1673ffffffffffffffffffffffffffffffffffffffff168773ffffffffffffffffffffffffffffffffffffffff167f5d37fd68fe66745a199f8c603e00ae02183f4aabb8ec0089589b0b40c4ead5e184604051613aee919061498a565b60405180910390a3613b0187878361402b565b5050613b15565b5b613b1485858561402b565b5b5050505050565b5f7f8b73c3c69bb8fe3d512ecc4cf759cc79239f7b179b0ffacaa9a75d522b39400f7f00000000000000000000000000000000000000000000000000000000000000007f00000000000000000000000000000000000000000000000000000000000000004630604051602001613b969594939291906156b5565b60405160208183030381529060405280519060200120905090565b613bb9614043565b5f60465f6101000a81548160ff0219169083151502179055507f5db9ee0a495bf2e6ff9c91a7834c1ba4fdd244a5e8aa4e537bd38aeae4b073aa613bfb612d55565b604051613c089190614d92565b60405180910390a1565b5f73ffffffffffffffffffffffffffffffffffffffff168273ffffffffffffffffffffffffffffffffffffffff1603613c82575f6040517fec442f05000000000000000000000000000000000000000000000000000000008152600401613c799190614d92565b60405180910390fd5b613c8d5f83836135de565b5050565b5f5f5f90505f848054905090505f8103613caf575f92505050613d3e565b5b80821015613cf7575f613cc38383614083565b905084613cd087836140a8565b5f01541115613ce157809150613cf1565b600181613cee9190614f52565b92505b50613cb0565b5f82118015613d1d575083613d1886600185613d139190615682565b6140a8565b5f0154145b15613d3857600182613d2f9190615682565b92505050613d3e565b81925050505b92915050565b5f604a5f9054906101000a900473ffffffffffffffffffffffffffffffffffffffff16905081604a5f6101000a81548173ffffffffffffffffffffffffffffffffffffffff021916908373ffffffffffffffffffffffffffffffffffffffff1602179055508173ffffffffffffffffffffffffffffffffffffffff168173ffffffffffffffffffffffffffffffffffffffff167f8be0079c531659141344cd1fd0a4f28419497f9722a3daafe3b4186f6b6457e060405160405180910390a35050565b613e0f6140d9565b600160465f6101000a81548160ff0219169083151502179055507f62e78cea01bee320cd4e420270b5ea74000d11b0c9f74754ebdbfc544b05a258613e52612d55565b604051613e5f9190614d92565b60405180910390a1565b606060ff5f1b8314613e8557613e7e8361411a565b9050613f10565b818054613e9190614fd9565b80601f0160208091040260200160405190810160405280929190818152602001828054613ebd90614fd9565b8015613f085780601f10613edf57610100808354040283529160200191613f08565b820191905f5260205f20905b815481529060010190602001808311613eeb57829003601f168201915b505050505090505b92915050565b5f60495f8373ffffffffffffffffffffffffffffffffffffffff1673ffffffffffffffffffffffffffffffffffffffff1681526020019081526020015f205f815480929190600101919050559050919050565b5f613f7b613f75612f41565b8361418c565b9050919050565b5f5f5f5f613f92888888886141cc565b925092509250613fa282826142b3565b829350505050949350505050565b613fba8282613fbe565b5050565b5f604d54905080613fd0845f01614415565b101561402657825f0181908060018154018082558091505060019003905f5260205f20015f90919091909150558260010182908060018154018082558091505060019003905f5260205f20015f90919091909150555b505050565b6140336140d9565b61403e83838361445d565b505050565b61404b611895565b614081576040517f8dfc202b00000000000000000000000000000000000000000000000000000000815260040160405180910390fd5b565b5f60028284186140939190615652565b8284166140a09190614f52565b905092915050565b5f5f8390506140d06140cb846140bd84614679565b61468890919063ffffffff16565b614698565b91505092915050565b6140e1611895565b15614118576040517fd93c066500000000000000000000000000000000000000000000000000000000815260040160405180910390fd5b565b60605f614126836146a1565b90505f602067ffffffffffffffff811115614144576141436151af565b5b6040519080825280601f01601f1916602001820160405280156141765781602001600182028036833780820191505090505b5090508181528360208201528092505050919050565b5f6040517f190100000000000000000000000000000000000000000000000000000000000081528360028201528260228201526042812091505092915050565b5f5f5f7f7fffffffffffffffffffffffffffffff5d576e7357a4501ddfe92f46681b20a0845f1c1115614208575f6003859250925092506142a9565b5f6001888888886040515f815260200160405260405161422b9493929190615706565b6020604051602081039080840390855afa15801561424b573d5f5f3e3d5ffd5b5050506020604051035190505f73ffffffffffffffffffffffffffffffffffffffff168173ffffffffffffffffffffffffffffffffffffffff160361429c575f60015f5f1b935093509350506142a9565b805f5f5f1b935093509350505b9450945094915050565b5f60038111156142c6576142c5615749565b5b8260038111156142d9576142d8615749565b5b031561441157600160038111156142f3576142f2615749565b5b82600381111561430657614305615749565b5b0361433d576040517ff645eedf00000000000000000000000000000000000000000000000000000000815260040160405180910390fd5b6002600381111561435157614350615749565b5b82600381111561436457614363615749565b5b036143a857805f1c6040517ffce698f700000000000000000000000000000000000000000000000000000000815260040161439f919061498a565b60405180910390fd5b6003808111156143bb576143ba615749565b5b8260038111156143ce576143cd615749565b5b0361441057806040517fd78bce0c0000000000000000000000000000000000000000000000000000000081526004016144079190614a3f565b60405180910390fd5b5b5050565b5f5f828054905003614429575f9050614458565b816001838054905061443b9190615682565b8154811061444c5761444b615182565b5b905f5260205f20015490505b919050565b5f73ffffffffffffffffffffffffffffffffffffffff168373ffffffffffffffffffffffffffffffffffffffff16036144ad578060435f8282546144a19190614f52565b9250508190555061457d565b5f60415f8573ffffffffffffffffffffffffffffffffffffffff1673ffffffffffffffffffffffffffffffffffffffff1681526020019081526020015f2054905081811015614537578381836040517fe450d38c00000000000000000000000000000000000000000000000000000000815260040161452e939291906151dc565b60405180910390fd5b81810360415f8673ffffffffffffffffffffffffffffffffffffffff1673ffffffffffffffffffffffffffffffffffffffff1681526020019081526020015f2081905550505b5f73ffffffffffffffffffffffffffffffffffffffff168273ffffffffffffffffffffffffffffffffffffffff16036145c4578060435f828254039250508190555061460f565b8060415f8473ffffffffffffffffffffffffffffffffffffffff1673ffffffffffffffffffffffffffffffffffffffff1681526020019081526020015f205f82825401925050819055505b8173ffffffffffffffffffffffffffffffffffffffff168373ffffffffffffffffffffffffffffffffffffffff167fddf252ad1be2c89b69c2b068fc378daa952ba7f163c4a11628f55a4df523b3ef8360405161466c919061498a565b60405180910390a3505050565b5f815f5260205f209050919050565b5f81835f1c015f1b905092915050565b5f819050919050565b5f5f60ff835f1c169050601f8111156146e6576040517fb3512b0c00000000000000000000000000000000000000000000000000000000815260040160405180910390fd5b80915050919050565b5f5ffd5b5f5ffd5b5f819050919050565b614709816146f7565b8114614713575f5ffd5b50565b5f8135905061472481614700565b92915050565b5f6020828403121561473f5761473e6146ef565b5b5f61474c84828501614716565b91505092915050565b5f81519050919050565b5f82825260208201905092915050565b8281835e5f83830152505050565b5f601f19601f8301169050919050565b5f61479782614755565b6147a1818561475f565b93506147b181856020860161476f565b6147ba8161477d565b840191505092915050565b5f6020820190508181035f8301526147dd818461478d565b905092915050565b5f73ffffffffffffffffffffffffffffffffffffffff82169050919050565b5f61480e826147e5565b9050919050565b61481e81614804565b8114614828575f5ffd5b50565b5f8135905061483981614815565b92915050565b5f5f60408385031215614855576148546146ef565b5b5f6148628582860161482b565b925050602061487385828601614716565b9150509250929050565b5f8115159050919050565b6148918161487d565b82525050565b5f6020820190506148aa5f830184614888565b92915050565b5f6148ba826147e5565b9050919050565b6148ca816148b0565b81146148d4575f5ffd5b50565b5f813590506148e5816148c1565b92915050565b5f5f60408385031215614901576149006146ef565b5b5f61490e858286016148d7565b925050602061491f85828601614716565b9150509250929050565b614932816146f7565b82525050565b61494181614804565b82525050565b5f60808201905061495a5f830187614929565b6149676020830186614938565b6149746040830185614929565b6149816060830184614888565b95945050505050565b5f60208201905061499d5f830184614929565b92915050565b5f5f5f606084860312156149ba576149b96146ef565b5b5f6149c78682870161482b565b93505060206149d88682870161482b565b92505060406149e986828701614716565b9150509250925092565b5f60ff82169050919050565b614a08816149f3565b82525050565b5f602082019050614a215f8301846149ff565b92915050565b5f819050919050565b614a3981614a27565b82525050565b5f602082019050614a525f830184614a30565b92915050565b5f60208284031215614a6d57614a6c6146ef565b5b5f614a7a8482850161482b565b91505092915050565b614a8c8161487d565b8114614a96575f5ffd5b50565b5f81359050614aa781614a83565b92915050565b5f5f60408385031215614ac357614ac26146ef565b5b5f614ad08582860161482b565b9250506020614ae185828601614a99565b9150509250929050565b5f5ffd5b5f5ffd5b5f5ffd5b5f5f83601f840112614b0c57614b0b614aeb565b5b8235905067ffffffffffffffff811115614b2957614b28614aef565b5b602083019150836020820283011115614b4557614b44614af3565b5b9250929050565b5f5f83601f840112614b6157614b60614aeb565b5b8235905067ffffffffffffffff811115614b7e57614b7d614aef565b5b602083019150836020820283011115614b9a57614b99614af3565b5b9250929050565b5f5f5f5f60408587031215614bb957614bb86146ef565b5b5f85013567ffffffffffffffff811115614bd657614bd56146f3565b5b614be287828801614af7565b9450945050602085013567ffffffffffffffff811115614c0557614c046146f3565b5b614c1187828801614b4c565b925092505092959194509250565b5f7fff0000000000000000000000000000000000000000000000000000000000000082169050919050565b614c5381614c1f565b82525050565b5f81519050919050565b5f82825260208201905092915050565b5f819050602082019050919050565b614c8b816146f7565b82525050565b5f614c9c8383614c82565b60208301905092915050565b5f602082019050919050565b5f614cbe82614c59565b614cc88185614c63565b9350614cd383614c73565b805f5b83811015614d03578151614cea8882614c91565b9750614cf583614ca8565b925050600181019050614cd6565b5085935050505092915050565b5f60e082019050614d235f83018a614c4a565b8181036020830152614d35818961478d565b90508181036040830152614d49818861478d565b9050614d586060830187614929565b614d656080830186614938565b614d7260a0830185614a30565b81810360c0830152614d848184614cb4565b905098975050505050505050565b5f602082019050614da55f830184614938565b92915050565b5f5f60208385031215614dc157614dc06146ef565b5b5f83013567ffffffffffffffff811115614dde57614ddd6146f3565b5b614dea85828601614af7565b92509250509250929050565b614dff816149f3565b8114614e09575f5ffd5b50565b5f81359050614e1a81614df6565b92915050565b614e2981614a27565b8114614e33575f5ffd5b50565b5f81359050614e4481614e20565b92915050565b5f5f5f5f5f5f5f60e0888a031215614e6557614e646146ef565b5b5f614e728a828b0161482b565b9750506020614e838a828b0161482b565b9650506040614e948a828b01614716565b9550506060614ea58a828b01614716565b9450506080614eb68a828b01614e0c565b93505060a0614ec78a828b01614e36565b92505060c0614ed88a828b01614e36565b91505092959891949750929550565b5f5f60408385031215614efd57614efc6146ef565b5b5f614f0a8582860161482b565b9250506020614f1b8582860161482b565b9150509250929050565b7f4e487b71000000000000000000000000000000000000000000000000000000005f52601160045260245ffd5b5f614f5c826146f7565b9150614f67836146f7565b9250828201905080821115614f7f57614f7e614f25565b5b92915050565b5f604082019050614f985f830185614929565b614fa56020830184614929565b9392505050565b7f4e487b71000000000000000000000000000000000000000000000000000000005f52602260045260245ffd5b5f6002820490506001821680614ff057607f821691505b60208210810361500357615002614fac565b5b50919050565b5f81905092915050565b50565b5f6150215f83615009565b915061502c82615013565b5f82019050919050565b5f61504082615016565b9150819050919050565b7f436c6177546f6b656e3a2045544820726573637565206661696c6564000000005f82015250565b5f61507e601c8361475f565b91506150898261504a565b602082019050919050565b5f6020820190508181035f8301526150ab81615072565b9050919050565b7f4d61785472616e73616374696f6e0000000000000000000000000000000000005f82015250565b5f6150e6600e8361475f565b91506150f1826150b2565b602082019050919050565b5f6020820190508181035f830152615113816150da565b9050919050565b7f54617852617465000000000000000000000000000000000000000000000000005f82015250565b5f61514e60078361475f565b91506151598261511a565b602082019050919050565b5f6020820190508181035f83015261517b81615142565b9050919050565b7f4e487b71000000000000000000000000000000000000000000000000000000005f52603260045260245ffd5b7f4e487b71000000000000000000000000000000000000000000000000000000005f52604160045260245ffd5b5f6060820190506151ef5f830186614938565b6151fc6020830185614929565b6152096040830184614929565b949350505050565b5f6040820190506152245f830185614938565b6152316020830184614929565b9392505050565b5f81519050919050565b5f61524c82615238565b6152568185615009565b935061526681856020860161476f565b80840191505092915050565b5f61527d8284615242565b915081905092915050565b5f8151905061529681614a83565b92915050565b5f602082840312156152b1576152b06146ef565b5b5f6152be84828501615288565b91505092915050565b7f436c6177546f6b656e3a20546f6b656e20726573637565206661696c656400005f82015250565b5f6152fb601e8361475f565b9150615306826152c7565b602082019050919050565b5f6020820190508181035f830152615328816152ef565b9050919050565b5f8160601b9050919050565b5f6153458261532f565b9050919050565b5f6153568261533b565b9050919050565b61536e61536982614804565b61534c565b82525050565b5f819050919050565b61538e615389826146f7565b615374565b82525050565b5f8160f81b9050919050565b5f6153aa82615394565b9050919050565b6153c26153bd826149f3565b6153a0565b82525050565b5f819050919050565b6153e26153dd82614a27565b6153c8565b82525050565b5f6153f3828a61535d565b601482019150615403828961535d565b601482019150615413828861537d565b602082019150615423828761537d565b60208201915061543382866153b1565b60018201915061544382856153d1565b60208201915061545382846153d1565b60208201915081905098975050505050505050565b7f436c6177546f6b656e3a20736e617073686f74206964206973203000000000005f82015250565b5f61549c601b8361475f565b91506154a782615468565b602082019050919050565b5f6020820190508181035f8301526154c981615490565b9050919050565b7f436c6177546f6b656e3a206e6f6e6578697374656e7420736e617073686f74205f8201527f6964000000000000000000000000000000000000000000000000000000000000602082015250565b5f61552a60228361475f565b9150615535826154d0565b604082019050919050565b5f6020820190508181035f8301526155578161551e565b9050919050565b5f60c0820190506155715f830189614a30565b61557e6020830188614938565b61558b6040830187614938565b6155986060830186614929565b6155a56080830185614929565b6155b260a0830184614929565b979650505050505050565b5f6040820190506155d05f830185614938565b6155dd6020830184614938565b9392505050565b5f6155ee826146f7565b91506155f9836146f7565b9250828202615607816146f7565b9150828204841483151761561e5761561d614f25565b5b5092915050565b7f4e487b71000000000000000000000000000000000000000000000000000000005f52601260045260245ffd5b5f61565c826146f7565b9150615667836146f7565b92508261567757615676615625565b5b828204905092915050565b5f61568c826146f7565b9150615697836146f7565b92508282039050818111156156af576156ae614f25565b5b92915050565b5f60a0820190506156c85f830188614a30565b6156d56020830187614a30565b6156e26040830186614a30565b6156ef6060830185614929565b6156fc6080830184614938565b9695505050505050565b5f6080820190506157195f830187614a30565b61572660208301866149ff565b6157336040830185614a30565b6157406060830184614a30565b95945050505050565b7f4e487b71000000000000000000000000000000000000000000000000000000005f52602160045260245ffdfea2646970667358221220b889ca0d1e471f47b25445023c9429afa807b1f019dae118e75bdb6a092db3bc64736f6c634300081b0033",
			"opcodes": "PUSH2 0x160 PUSH1 0x40 MSTORE CALLVALUE DUP1 ISZERO PUSH2 0x10 JUMPI PUSH0 PUSH0 REVERT JUMPDEST POP PUSH1 0x40 MLOAD PUSH2 0x6F5A CODESIZE SUB DUP1 PUSH2 0x6F5A DUP4 CODECOPY DUP2 DUP2 ADD PUSH1 0x40 MSTORE DUP2 ADD SWAP1 PUSH2 0x32 SWAP2 SWAP1 PUSH2 0x1073 JUMP JUMPDEST CALLER PUSH1 0x40 MLOAD DUP1 PUSH1 0x40 ADD PUSH1 0x40 MSTORE DUP1 PUSH1 0x4 DUP2 MSTORE PUSH1 0x20 ADD PUSH32 0x436C617700000000000000000000000000000000000000000000000000000000 DUP2 MSTORE POP DUP1 PUSH1 0x40 MLOAD DUP1 PUSH1 0x40 ADD PUSH1 0x40 MSTORE DUP1 PUSH1 0x1 DUP2 MSTORE PUSH1 0x20 ADD PUSH32 0x3100000000000000000000000000000000000000000000000000000000000000 DUP2 MSTORE POP PUSH1 0x40 MLOAD DUP1 PUSH1 0x40 ADD PUSH1 0x40 MSTORE DUP1 PUSH1 0x4 DUP2 MSTORE PUSH1 0x20 ADD PUSH32 0x436C617700000000000000000000000000000000000000000000000000000000 DUP2 MSTORE POP PUSH1 0x40 MLOAD DUP1 PUSH1 0x40 ADD PUSH1 0x40 MSTORE DUP1 PUSH1 0x4 DUP2 MSTORE PUSH1 0x20 ADD PUSH32 0x434C415700000000000000000000000000000000000000000000000000000000 DUP2 MSTORE POP DUP2 PUSH1 0x44 SWAP1 DUP2 PUSH2 0x11B SWAP2 SWAP1 PUSH2 0x12D2 JUMP JUMPDEST POP DUP1 PUSH1 0x45 SWAP1 DUP2 PUSH2 0x12B SWAP2 SWAP1 PUSH2 0x12D2 JUMP JUMPDEST POP POP POP PUSH2 0x142 PUSH1 0x47 DUP4 PUSH2 0x47B PUSH1 0x20 SHL SWAP1 SWAP2 SWAP1 PUSH1 0x20 SHR JUMP JUMPDEST PUSH2 0x120 DUP2 DUP2 MSTORE POP POP PUSH2 0x15E PUSH1 0x48 DUP3 PUSH2 0x47B PUSH1 0x20 SHL SWAP1 SWAP2 SWAP1 PUSH1 0x20 SHR JUMP JUMPDEST PUSH2 0x140 DUP2 DUP2 MSTORE POP POP DUP2 DUP1 MLOAD SWAP1 PUSH1 0x20 ADD KECCAK256 PUSH1 0xE0 DUP2 DUP2 MSTORE POP POP DUP1 DUP1 MLOAD SWAP1 PUSH1 0x20 ADD KECCAK256 PUSH2 0x100 DUP2 DUP2 MSTORE POP POP CHAINID PUSH1 0xA0 DUP2 DUP2 MSTORE POP POP PUSH2 0x19B PUSH2 0x4C8 PUSH1 0x20 SHL PUSH1 0x20 SHR JUMP JUMPDEST PUSH1 0x80 DUP2 DUP2 MSTORE POP POP ADDRESS PUSH20 0xFFFFFFFFFFFFFFFFFFFFFFFFFFFFFFFFFFFFFFFF AND PUSH1 0xC0 DUP2 PUSH20 0xFFFFFFFFFFFFFFFFFFFFFFFFFFFFFFFFFFFFFFFF AND DUP2 MSTORE POP POP POP POP POP PUSH0 PUSH20 0xFFFFFFFFFFFFFFFFFFFFFFFFFFFFFFFFFFFFFFFF AND DUP2 PUSH20 0xFFFFFFFFFFFFFFFFFFFFFFFFFFFFFFFFFFFFFFFF AND SUB PUSH2 0x249 JUMPI PUSH0 PUSH1 0x40 MLOAD PUSH32 0x1E4FBDF700000000000000000000000000000000000000000000000000000000 DUP2 MSTORE PUSH1 0x4 ADD PUSH2 0x240 SWAP2 SWAP1 PUSH2 0x13E0 JUMP JUMPDEST PUSH1 0x40 MLOAD DUP1 SWAP2 SUB SWAP1 REVERT JUMPDEST PUSH2 0x258 DUP2 PUSH2 0x522 PUSH1 0x20 SHL PUSH1 0x20 SHR JUMP JUMPDEST POP PUSH1 0x1 PUSH1 0x4C DUP2 SWAP1 SSTORE POP CALLER PUSH1 0x1 PUSH0 PUSH2 0x100 EXP DUP2 SLOAD DUP2 PUSH20 0xFFFFFFFFFFFFFFFFFFFFFFFFFFFFFFFFFFFFFFFF MUL NOT AND SWAP1 DUP4 PUSH20 0xFFFFFFFFFFFFFFFFFFFFFFFFFFFFFFFFFFFFFFFF AND MUL OR SWAP1 SSTORE POP PUSH2 0x12C PUSH0 DUP2 SWAP1 SSTORE POP PUSH1 0x64 DUP2 PUSH2 0x2B6 SWAP2 SWAP1 PUSH2 0x1453 JUMP JUMPDEST PUSH1 0x2 DUP2 SWAP1 SSTORE POP PUSH1 0x1 PUSH1 0x4 PUSH0 CALLER PUSH20 0xFFFFFFFFFFFFFFFFFFFFFFFFFFFFFFFFFFFFFFFF AND PUSH20 0xFFFFFFFFFFFFFFFFFFFFFFFFFFFFFFFFFFFFFFFF AND DUP2 MSTORE PUSH1 0x20 ADD SWAP1 DUP2 MSTORE PUSH1 0x20 ADD PUSH0 KECCAK256 PUSH0 PUSH2 0x100 EXP DUP2 SLOAD DUP2 PUSH1 0xFF MUL NOT AND SWAP1 DUP4 ISZERO ISZERO MUL OR SWAP1 SSTORE POP PUSH1 0x1 PUSH1 0x4 PUSH0 ADDRESS PUSH20 0xFFFFFFFFFFFFFFFFFFFFFFFFFFFFFFFFFFFFFFFF AND PUSH20 0xFFFFFFFFFFFFFFFFFFFFFFFFFFFFFFFFFFFFFFFF AND DUP2 MSTORE PUSH1 0x20 ADD SWAP1 DUP2 MSTORE PUSH1 0x20 ADD PUSH0 KECCAK256 PUSH0 PUSH2 0x100 EXP DUP2 SLOAD DUP2 PUSH1 0xFF MUL NOT AND SWAP1 DUP4 ISZERO ISZERO MUL OR SWAP1 SSTORE POP PUSH1 0x1 PUSH1 0x5 PUSH0 CALLER PUSH20 0xFFFFFFFFFFFFFFFFFFFFFFFFFFFFFFFFFFFFFFFF AND PUSH20 0xFFFFFFFFFFFFFFFFFFFFFFFFFFFFFFFFFFFFFFFF AND DUP2 MSTORE PUSH1 0x20 ADD SWAP1 DUP2 MSTORE PUSH1 0x20 ADD PUSH0 KECCAK256 PUSH0 PUSH2 0x100 EXP DUP2 SLOAD DUP2 PUSH1 0xFF MUL NOT AND SWAP1 DUP4 ISZERO ISZERO MUL OR SWAP1 SSTORE POP PUSH1 0x1 PUSH1 0x5 PUSH0 ADDRESS PUSH20 0xFFFFFFFFFFFFFFFFFFFFFFFFFFFFFFFFFFFFFFFF AND PUSH20 0xFFFFFFFFFFFFFFFFFFFFFFFFFFFFFFFFFFFFFFFF AND DUP2 MSTORE PUSH1 0x20 ADD SWAP1 DUP2 MSTORE PUSH1 0x20 ADD PUSH0 KECCAK256 PUSH0 PUSH2 0x100 EXP DUP2 SLOAD DUP2 PUSH1 0xFF MUL NOT AND SWAP1 DUP4 ISZERO ISZERO MUL OR SWAP1 SSTORE POP PUSH1 0x1 PUSH1 0x5 PUSH0 PUSH0 PUSH20 0xFFFFFFFFFFFFFFFFFFFFFFFFFFFFFFFFFFFFFFFF AND PUSH20 0xFFFFFFFFFFFFFFFFFFFFFFFFFFFFFFFFFFFFFFFF AND DUP2 MSTORE PUSH1 0x20 ADD SWAP1 DUP2 MSTORE PUSH1 0x20 ADD PUSH0 KECCAK256 PUSH0 PUSH2 0x100 EXP DUP2 SLOAD DUP2 PUSH1 0xFF MUL NOT AND SWAP1 DUP4 ISZERO ISZERO MUL OR SWAP1 SSTORE POP PUSH2 0x475 CALLER DUP3 PUSH2 0x558 PUSH1 0x20 SHL PUSH1 0x20 SHR JUMP JUMPDEST POP PUSH2 0x175D JUMP JUMPDEST PUSH0 PUSH1 0x20 DUP4 MLOAD LT ISZERO PUSH2 0x49C JUMPI PUSH2 0x495 DUP4 PUSH2 0x5DD PUSH1 0x20 SHL PUSH1 0x20 SHR JUMP JUMPDEST SWAP1 POP PUSH2 0x4C2 JUMP JUMPDEST DUP3 PUSH2 0x4AC DUP4 PUSH2 0x642 PUSH1 0x20 SHL PUSH1 0x20 SHR JUMP JUMPDEST PUSH0 ADD SWAP1 DUP2 PUSH2 0x4BA SWAP2 SWAP1 PUSH2 0x12D2 JUMP JUMPDEST POP PUSH1 0xFF PUSH0 SHL SWAP1 POP JUMPDEST SWAP3 SWAP2 POP POP JUMP JUMPDEST PUSH0 PUSH32 0x8B73C3C69BB8FE3D512ECC4CF759CC79239F7B179B0FFACAA9A75D522B39400F PUSH1 0xE0 MLOAD PUSH2 0x100 MLOAD CHAINID ADDRESS PUSH1 0x40 MLOAD PUSH1 0x20 ADD PUSH2 0x507 SWAP6 SWAP5 SWAP4 SWAP3 SWAP2 SWAP1 PUSH2 0x14AA JUMP JUMPDEST PUSH1 0x40 MLOAD PUSH1 0x20 DUP2 DUP4 SUB SUB DUP2 MSTORE SWAP1 PUSH1 0x40 MSTORE DUP1 MLOAD SWAP1 PUSH1 0x20 ADD KECCAK256 SWAP1 POP SWAP1 JUMP JUMPDEST PUSH1 0x4B PUSH0 PUSH2 0x100 EXP DUP2 SLOAD SWAP1 PUSH20 0xFFFFFFFFFFFFFFFFFFFFFFFFFFFFFFFFFFFFFFFF MUL NOT AND SWAP1 SSTORE PUSH2 0x555 DUP2 PUSH2 0x64B PUSH1 0x20 SHL PUSH1 0x20 SHR JUMP JUMPDEST POP JUMP JUMPDEST PUSH0 PUSH20 0xFFFFFFFFFFFFFFFFFFFFFFFFFFFFFFFFFFFFFFFF AND DUP3 PUSH20 0xFFFFFFFFFFFFFFFFFFFFFFFFFFFFFFFFFFFFFFFF AND SUB PUSH2 0x5C8 JUMPI PUSH0 PUSH1 0x40 MLOAD PUSH32 0xEC442F0500000000000000000000000000000000000000000000000000000000 DUP2 MSTORE PUSH1 0x4 ADD PUSH2 0x5BF SWAP2 SWAP1 PUSH2 0x13E0 JUMP JUMPDEST PUSH1 0x40 MLOAD DUP1 SWAP2 SUB SWAP1 REVERT JUMPDEST PUSH2 0x5D9 PUSH0 DUP4 DUP4 PUSH2 0x70E PUSH1 0x20 SHL PUSH1 0x20 SHR JUMP JUMPDEST POP POP JUMP JUMPDEST PUSH0 PUSH0 DUP3 SWAP1 POP PUSH1 0x1F DUP2 MLOAD GT ISZERO PUSH2 0x629 JUMPI DUP3 PUSH1 0x40 MLOAD PUSH32 0x305A27A900000000000000000000000000000000000000000000000000000000 DUP2 MSTORE PUSH1 0x4 ADD PUSH2 0x620 SWAP2 SWAP1 PUSH2 0x1561 JUMP JUMPDEST PUSH1 0x40 MLOAD DUP1 SWAP2 SUB SWAP1 REVERT JUMPDEST DUP1 MLOAD DUP2 PUSH2 0x635 SWAP1 PUSH2 0x15AE JUMP JUMPDEST PUSH0 SHR OR PUSH0 SHL SWAP2 POP POP SWAP2 SWAP1 POP JUMP JUMPDEST PUSH0 DUP2 SWAP1 POP SWAP2 SWAP1 POP JUMP JUMPDEST PUSH0 PUSH1 0x4A PUSH0 SWAP1 SLOAD SWAP1 PUSH2 0x100 EXP SWAP1 DIV PUSH20 0xFFFFFFFFFFFFFFFFFFFFFFFFFFFFFFFFFFFFFFFF AND SWAP1 POP DUP2 PUSH1 0x4A PUSH0 PUSH2 0x100 EXP DUP2 SLOAD DUP2 PUSH20 0xFFFFFFFFFFFFFFFFFFFFFFFFFFFFFFFFFFFFFFFF MUL NOT AND SWAP1 DUP4 PUSH20 0xFFFFFFFFFFFFFFFFFFFFFFFFFFFFFFFFFFFFFFFF AND MUL OR SWAP1 SSTORE POP DUP2 PUSH20 0xFFFFFFFFFFFFFFFFFFFFFFFFFFFFFFFFFFFFFFFF AND DUP2 PUSH20 0xFFFFFFFFFFFFFFFFFFFFFFFFFFFFFFFFFFFFFFFF AND PUSH32 0x8BE0079C531659141344CD1FD0A4F28419497F9722A3DAAFE3B4186F6B6457E0 PUSH1 0x40 MLOAD PUSH1 0x40 MLOAD DUP1 SWAP2 SUB SWAP1 LOG3 POP POP JUMP JUMPDEST DUP3 PUSH1 0x3 PUSH0 DUP3 PUSH20 0xFFFFFFFFFFFFFFFFFFFFFFFFFFFFFFFFFFFFFFFF AND PUSH20 0xFFFFFFFFFFFFFFFFFFFFFFFFFFFFFFFFFFFFFFFF AND DUP2 MSTORE PUSH1 0x20 ADD SWAP1 DUP2 MSTORE PUSH1 0x20 ADD PUSH0 KECCAK256 PUSH0 SWAP1 SLOAD SWAP1 PUSH2 0x100 EXP SWAP1 DIV PUSH1 0xFF AND ISZERO PUSH2 0x79B JUMPI DUP1 PUSH1 0x40 MLOAD PUSH32 0x571F7B4900000000000000000000000000000000000000000000000000000000 DUP2 MSTORE PUSH1 0x4 ADD PUSH2 0x792 SWAP2 SWAP1 PUSH2 0x13E0 JUMP JUMPDEST PUSH1 0x40 MLOAD DUP1 SWAP2 SUB SWAP1 REVERT JUMPDEST DUP3 PUSH1 0x3 PUSH0 DUP3 PUSH20 0xFFFFFFFFFFFFFFFFFFFFFFFFFFFFFFFFFFFFFFFF AND PUSH20 0xFFFFFFFFFFFFFFFFFFFFFFFFFFFFFFFFFFFFFFFF AND DUP2 MSTORE PUSH1 0x20 ADD SWAP1 DUP2 MSTORE PUSH1 0x20 ADD PUSH0 KECCAK256 PUSH0 SWAP1 SLOAD SWAP1 PUSH2 0x100 EXP SWAP1 DIV PUSH1 0xFF AND ISZERO PUSH2 0x828 JUMPI DUP1 PUSH1 0x40 MLOAD PUSH32 0x571F7B4900000000000000000000000000000000000000000000000000000000 DUP2 MSTORE PUSH1 0x4 ADD PUSH2 0x81F SWAP2 SWAP1 PUSH2 0x13E0 JUMP JUMPDEST PUSH1 0x40 MLOAD DUP1 SWAP2 SUB SWAP1 REVERT JUMPDEST PUSH0 PUSH20 0xFFFFFFFFFFFFFFFFFFFFFFFFFFFFFFFFFFFFFFFF AND DUP6 PUSH20 0xFFFFFFFFFFFFFFFFFFFFFFFFFFFFFFFFFFFFFFFF AND EQ PUSH2 0x8B6 JUMPI PUSH2 0x8B5 PUSH1 0x4E PUSH0 DUP8 PUSH20 0xFFFFFFFFFFFFFFFFFFFFFFFFFFFFFFFFFFFFFFFF AND PUSH20 0xFFFFFFFFFFFFFFFFFFFFFFFFFFFFFFFFFFFFFFFF AND DUP2 MSTORE PUSH1 0x20 ADD SWAP1 DUP2 MSTORE PUSH1 0x20 ADD PUSH0 KECCAK256 PUSH2 0x8AA DUP8 PUSH2 0xC82 PUSH1 0x20 SHL PUSH1 0x20 SHR JUMP JUMPDEST PUSH2 0xCC8 PUSH1 0x20 SHL PUSH1 0x20 SHR JUMP JUMPDEST JUMPDEST PUSH0 PUSH20 0xFFFFFFFFFFFFFFFFFFFFFFFFFFFFFFFFFFFFFFFF AND DUP5 PUSH20 0xFFFFFFFFFFFFFFFFFFFFFFFFFFFFFFFFFFFFFFFF AND EQ PUSH2 0x944 JUMPI PUSH2 0x943 PUSH1 0x4E PUSH0 DUP7 PUSH20 0xFFFFFFFFFFFFFFFFFFFFFFFFFFFFFFFFFFFFFFFF AND PUSH20 0xFFFFFFFFFFFFFFFFFFFFFFFFFFFFFFFFFFFFFFFF AND DUP2 MSTORE PUSH1 0x20 ADD SWAP1 DUP2 MSTORE PUSH1 0x20 ADD PUSH0 KECCAK256 PUSH2 0x938 DUP7 PUSH2 0xC82 PUSH1 0x20 SHL PUSH1 0x20 SHR JUMP JUMPDEST PUSH2 0xCC8 PUSH1 0x20 SHL PUSH1 0x20 SHR JUMP JUMPDEST JUMPDEST PUSH2 0x962 PUSH1 0x4F PUSH2 0x957 PUSH2 0xCDC PUSH1 0x20 SHL PUSH1 0x20 SHR JUMP JUMPDEST PUSH2 0xCE5 PUSH1 0x20 SHL PUSH1 0x20 SHR JUMP JUMPDEST PUSH0 PUSH20 0xFFFFFFFFFFFFFFFFFFFFFFFFFFFFFFFFFFFFFFFF AND DUP6 PUSH20 0xFFFFFFFFFFFFFFFFFFFFFFFFFFFFFFFFFFFFFFFF AND EQ ISZERO DUP1 ISZERO PUSH2 0x9CA JUMPI POP PUSH0 PUSH20 0xFFFFFFFFFFFFFFFFFFFFFFFFFFFFFFFFFFFFFFFF AND DUP5 PUSH20 0xFFFFFFFFFFFFFFFFFFFFFFFFFFFFFFFFFFFFFFFF AND EQ ISZERO JUMPDEST ISZERO PUSH2 0xC69 JUMPI PUSH1 0x5 PUSH0 DUP7 PUSH20 0xFFFFFFFFFFFFFFFFFFFFFFFFFFFFFFFFFFFFFFFF AND PUSH20 0xFFFFFFFFFFFFFFFFFFFFFFFFFFFFFFFFFFFFFFFF AND DUP2 MSTORE PUSH1 0x20 ADD SWAP1 DUP2 MSTORE PUSH1 0x20 ADD PUSH0 KECCAK256 PUSH0 SWAP1 SLOAD SWAP1 PUSH2 0x100 EXP SWAP1 DIV PUSH1 0xFF AND ISZERO DUP1 ISZERO PUSH2 0xA6D JUMPI POP PUSH1 0x5 PUSH0 DUP6 PUSH20 0xFFFFFFFFFFFFFFFFFFFFFFFFFFFFFFFFFFFFFFFF AND PUSH20 0xFFFFFFFFFFFFFFFFFFFFFFFFFFFFFFFFFFFFFFFF AND DUP2 MSTORE PUSH1 0x20 ADD SWAP1 DUP2 MSTORE PUSH1 0x20 ADD PUSH0 KECCAK256 PUSH0 SWAP1 SLOAD SWAP1 PUSH2 0x100 EXP SWAP1 DIV PUSH1 0xFF AND ISZERO JUMPDEST ISZERO PUSH2 0xABD JUMPI PUSH1 0x2 SLOAD DUP4 GT ISZERO PUSH2 0xABC JUMPI DUP3 PUSH1 0x2 SLOAD PUSH1 0x40 MLOAD PUSH31 0x83FA1800000000000000000000000000000000000000000000000000000000 DUP2 MSTORE PUSH1 0x4 ADD PUSH2 0xAB3 SWAP3 SWAP2 SWAP1 PUSH2 0x1614 JUMP JUMPDEST PUSH1 0x40 MLOAD DUP1 SWAP2 SUB SWAP1 REVERT JUMPDEST JUMPDEST PUSH1 0x4 PUSH0 DUP7 PUSH20 0xFFFFFFFFFFFFFFFFFFFFFFFFFFFFFFFFFFFFFFFF AND PUSH20 0xFFFFFFFFFFFFFFFFFFFFFFFFFFFFFFFFFFFFFFFF AND DUP2 MSTORE PUSH1 0x20 ADD SWAP1 DUP2 MSTORE PUSH1 0x20 ADD PUSH0 KECCAK256 PUSH0 SWAP1 SLOAD SWAP1 PUSH2 0x100 EXP SWAP1 DIV PUSH1 0xFF AND ISZERO DUP1 ISZERO PUSH2 0xB5B JUMPI POP PUSH1 0x4 PUSH0 DUP6 PUSH20 0xFFFFFFFFFFFFFFFFFFFFFFFFFFFFFFFFFFFFFFFF AND PUSH20 0xFFFFFFFFFFFFFFFFFFFFFFFFFFFFFFFFFFFFFFFF AND DUP2 MSTORE PUSH1 0x20 ADD SWAP1 DUP2 MSTORE PUSH1 0x20 ADD PUSH0 KECCAK256 PUSH0 SWAP1 SLOAD SWAP1 PUSH2 0x100 EXP SWAP1 DIV PUSH1 0xFF AND ISZERO JUMPDEST DUP1 ISZERO PUSH2 0xB67 JUMPI POP PUSH0 PUSH0 SLOAD GT JUMPDEST ISZERO PUSH2 0xC68 JUMPI PUSH0 PUSH2 0x2710 PUSH0 SLOAD DUP6 PUSH2 0xB7D SWAP2 SWAP1 PUSH2 0x163B JUMP JUMPDEST PUSH2 0xB87 SWAP2 SWAP1 PUSH2 0x1453 JUMP JUMPDEST SWAP1 POP PUSH0 DUP2 DUP6 PUSH2 0xB96 SWAP2 SWAP1 PUSH2 0x167C JUMP JUMPDEST SWAP1 POP PUSH2 0xBCA DUP8 PUSH1 0x1 PUSH0 SWAP1 SLOAD SWAP1 PUSH2 0x100 EXP SWAP1 DIV PUSH20 0xFFFFFFFFFFFFFFFFFFFFFFFFFFFFFFFFFFFFFFFF AND DUP5 PUSH2 0xD58 PUSH1 0x20 SHL PUSH1 0x20 SHR JUMP JUMPDEST PUSH1 0x1 PUSH0 SWAP1 SLOAD SWAP1 PUSH2 0x100 EXP SWAP1 DIV PUSH20 0xFFFFFFFFFFFFFFFFFFFFFFFFFFFFFFFFFFFFFFFF AND PUSH20 0xFFFFFFFFFFFFFFFFFFFFFFFFFFFFFFFFFFFFFFFF AND DUP8 PUSH20 0xFFFFFFFFFFFFFFFFFFFFFFFFFFFFFFFFFFFFFFFF AND PUSH32 0x5D37FD68FE66745A199F8C603E00AE02183F4AABB8EC0089589B0B40C4EAD5E1 DUP5 PUSH1 0x40 MLOAD PUSH2 0xC48 SWAP2 SWAP1 PUSH2 0x16AF JUMP JUMPDEST PUSH1 0x40 MLOAD DUP1 SWAP2 SUB SWAP1 LOG3 PUSH2 0xC61 DUP8 DUP8 DUP4 PUSH2 0xD58 PUSH1 0x20 SHL PUSH1 0x20 SHR JUMP JUMPDEST POP POP PUSH2 0xC7B JUMP JUMPDEST JUMPDEST PUSH2 0xC7A DUP6 DUP6 DUP6 PUSH2 0xD58 PUSH1 0x20 SHL PUSH1 0x20 SHR JUMP JUMPDEST JUMPDEST POP POP POP POP POP JUMP JUMPDEST PUSH0 PUSH1 0x41 PUSH0 DUP4 PUSH20 0xFFFFFFFFFFFFFFFFFFFFFFFFFFFFFFFFFFFFFFFF AND PUSH20 0xFFFFFFFFFFFFFFFFFFFFFFFFFFFFFFFFFFFFFFFF AND DUP2 MSTORE PUSH1 0x20 ADD SWAP1 DUP2 MSTORE PUSH1 0x20 ADD PUSH0 KECCAK256 SLOAD SWAP1 POP SWAP2 SWAP1 POP JUMP JUMPDEST PUSH2 0xCD8 DUP3 DUP3 PUSH2 0xCE5 PUSH1 0x20 SHL PUSH1 0x20 SHR JUMP JUMPDEST POP POP JUMP JUMPDEST PUSH0 PUSH1 0x43 SLOAD SWAP1 POP SWAP1 JUMP JUMPDEST PUSH0 PUSH1 0x4D SLOAD SWAP1 POP DUP1 PUSH2 0xCFD DUP5 PUSH0 ADD PUSH2 0xD7C PUSH1 0x20 SHL PUSH1 0x20 SHR JUMP JUMPDEST LT ISZERO PUSH2 0xD53 JUMPI DUP3 PUSH0 ADD DUP2 SWAP1 DUP1 PUSH1 0x1 DUP2 SLOAD ADD DUP1 DUP3 SSTORE DUP1 SWAP2 POP POP PUSH1 0x1 SWAP1 SUB SWAP1 PUSH0 MSTORE PUSH1 0x20 PUSH0 KECCAK256 ADD PUSH0 SWAP1 SWAP2 SWAP1 SWAP2 SWAP1 SWAP2 POP SSTORE DUP3 PUSH1 0x1 ADD DUP3 SWAP1 DUP1 PUSH1 0x1 DUP2 SLOAD ADD DUP1 DUP3 SSTORE DUP1 SWAP2 POP POP PUSH1 0x1 SWAP1 SUB SWAP1 PUSH0 MSTORE PUSH1 0x20 PUSH0 KECCAK256 ADD PUSH0 SWAP1 SWAP2 SWAP1 SWAP2 SWAP1 SWAP2 POP SSTORE JUMPDEST POP POP POP JUMP JUMPDEST PUSH2 0xD66 PUSH2 0xDC4 PUSH1 0x20 SHL PUSH1 0x20 SHR JUMP JUMPDEST PUSH2 0xD77 DUP4 DUP4 DUP4 PUSH2 0xE0B PUSH1 0x20 SHL PUSH1 0x20 SHR JUMP JUMPDEST POP POP POP JUMP JUMPDEST PUSH0 PUSH0 DUP3 DUP1 SLOAD SWAP1 POP SUB PUSH2 0xD90 JUMPI PUSH0 SWAP1 POP PUSH2 0xDBF JUMP JUMPDEST DUP2 PUSH1 0x1 DUP4 DUP1 SLOAD SWAP1 POP PUSH2 0xDA2 SWAP2 SWAP1 PUSH2 0x167C JUMP JUMPDEST DUP2 SLOAD DUP2 LT PUSH2 0xDB3 JUMPI PUSH2 0xDB2 PUSH2 0x16C8 JUMP JUMPDEST JUMPDEST SWAP1 PUSH0 MSTORE PUSH1 0x20 PUSH0 KECCAK256 ADD SLOAD SWAP1 POP JUMPDEST SWAP2 SWAP1 POP JUMP JUMPDEST PUSH2 0xDD2 PUSH2 0x1027 PUSH1 0x20 SHL PUSH1 0x20 SHR JUMP JUMPDEST ISZERO PUSH2 0xE09 JUMPI PUSH1 0x40 MLOAD PUSH32 0xD93C066500000000000000000000000000000000000000000000000000000000 DUP2 MSTORE PUSH1 0x4 ADD PUSH1 0x40 MLOAD DUP1 SWAP2 SUB SWAP1 REVERT JUMPDEST JUMP JUMPDEST PUSH0 PUSH20 0xFFFFFFFFFFFFFFFFFFFFFFFFFFFFFFFFFFFFFFFF AND DUP4 PUSH20 0xFFFFFFFFFFFFFFFFFFFFFFFFFFFFFFFFFFFFFFFF AND SUB PUSH2 0xE5B JUMPI DUP1 PUSH1 0x43 PUSH0 DUP3 DUP3 SLOAD PUSH2 0xE4F SWAP2 SWAP1 PUSH2 0x16F5 JUMP JUMPDEST SWAP3 POP POP DUP2 SWAP1 SSTORE POP PUSH2 0xF2B JUMP JUMPDEST PUSH0 PUSH1 0x41 PUSH0 DUP6 PUSH20 0xFFFFFFFFFFFFFFFFFFFFFFFFFFFFFFFFFFFFFFFF AND PUSH20 0xFFFFFFFFFFFFFFFFFFFFFFFFFFFFFFFFFFFFFFFF AND DUP2 MSTORE PUSH1 0x20 ADD SWAP1 DUP2 MSTORE PUSH1 0x20 ADD PUSH0 KECCAK256 SLOAD SWAP1 POP DUP2 DUP2 LT ISZERO PUSH2 0xEE5 JUMPI DUP4 DUP2 DUP4 PUSH1 0x40 MLOAD PUSH32 0xE450D38C00000000000000000000000000000000000000000000000000000000 DUP2 MSTORE PUSH1 0x4 ADD PUSH2 0xEDC SWAP4 SWAP3 SWAP2 SWAP1 PUSH2 0x1728 JUMP JUMPDEST PUSH1 0x40 MLOAD DUP1 SWAP2 SUB SWAP1 REVERT JUMPDEST DUP2 DUP2 SUB PUSH1 0x41 PUSH0 DUP7 PUSH20 0xFFFFFFFFFFFFFFFFFFFFFFFFFFFFFFFFFFFFFFFF AND PUSH20 0xFFFFFFFFFFFFFFFFFFFFFFFFFFFFFFFFFFFFFFFF AND DUP2 MSTORE PUSH1 0x20 ADD SWAP1 DUP2 MSTORE PUSH1 0x20 ADD PUSH0 KECCAK256 DUP2 SWAP1 SSTORE POP POP JUMPDEST PUSH0 PUSH20 0xFFFFFFFFFFFFFFFFFFFFFFFFFFFFFFFFFFFFFFFF AND DUP3 PUSH20 0xFFFFFFFFFFFFFFFFFFFFFFFFFFFFFFFFFFFFFFFF AND SUB PUSH2 0xF72 JUMPI DUP1 PUSH1 0x43 PUSH0 DUP3 DUP3 SLOAD SUB SWAP3 POP POP DUP2 SWAP1 SSTORE POP PUSH2 0xFBD JUMP JUMPDEST DUP1 PUSH1 0x41 PUSH0 DUP5 PUSH20 0xFFFFFFFFFFFFFFFFFFFFFFFFFFFFFFFFFFFFFFFF AND PUSH20 0xFFFFFFFFFFFFFFFFFFFFFFFFFFFFFFFFFFFFFFFF AND DUP2 MSTORE PUSH1 0x20 ADD SWAP1 DUP2 MSTORE PUSH1 0x20 ADD PUSH0 KECCAK256 PUSH0 DUP3 DUP3 SLOAD ADD SWAP3 POP POP DUP2 SWAP1 SSTORE POP JUMPDEST DUP2 PUSH20 0xFFFFFFFFFFFFFFFFFFFFFFFFFFFFFFFFFFFFFFFF AND DUP4 PUSH20 0xFFFFFFFFFFFFFFFFFFFFFFFFFFFFFFFFFFFFFFFF AND PUSH32 0xDDF252AD1BE2C89B69C2B068FC378DAA952BA7F163C4A11628F55A4DF523B3EF DUP4 PUSH1 0x40 MLOAD PUSH2 0x101A SWAP2 SWAP1 PUSH2 0x16AF JUMP JUMPDEST PUSH1 0x40 MLOAD DUP1 SWAP2 SUB SWAP1 LOG3 POP POP POP JUMP JUMPDEST PUSH0 PUSH1 0x46 PUSH0 SWAP1 SLOAD SWAP1 PUSH2 0x100 EXP SWAP1 DIV PUSH1 0xFF AND SWAP1 POP SWAP1 JUMP JUMPDEST PUSH0 PUSH0 REVERT JUMPDEST PUSH0 DUP2 SWAP1 POP SWAP2 SWAP1 POP JUMP JUMPDEST PUSH2 0x1052 DUP2 PUSH2 0x1040 JUMP JUMPDEST DUP2 EQ PUSH2 0x105C JUMPI PUSH0 PUSH0 REVERT JUMPDEST POP JUMP JUMPDEST PUSH0 DUP2 MLOAD SWAP1 POP PUSH2 0x106D DUP2 PUSH2 0x1049 JUMP JUMPDEST SWAP3 SWAP2 POP POP JUMP JUMPDEST PUSH0 PUSH1 0x20 DUP3 DUP5 SUB SLT ISZERO PUSH2 0x1088 JUMPI PUSH2 0x1087 PUSH2 0x103C JUMP JUMPDEST JUMPDEST PUSH0 PUSH2 0x1095 DUP5 DUP3 DUP6 ADD PUSH2 0x105F JUMP JUMPDEST SWAP2 POP POP SWAP3 SWAP2 POP POP JUMP JUMPDEST PUSH0 DUP2 MLOAD SWAP1 POP SWAP2 SWAP1 POP JUMP JUMPDEST PUSH32 0x4E487B7100000000000000000000000000000000000000000000000000000000 PUSH0 MSTORE PUSH1 0x41 PUSH1 0x4 MSTORE PUSH1 0x24 PUSH0 REVERT JUMPDEST PUSH32 0x4E487B7100000000000000000000000000000000000000000000000000000000 PUSH0 MSTORE PUSH1 0x22 PUSH1 0x4 MSTORE PUSH1 0x24 PUSH0 REVERT JUMPDEST PUSH0 PUSH1 0x2 DUP3 DIV SWAP1 POP PUSH1 0x1 DUP3 AND DUP1 PUSH2 0x1119 JUMPI PUSH1 0x7F DUP3 AND SWAP2 POP JUMPDEST PUSH1 0x20 DUP3 LT DUP2 SUB PUSH2 0x112C JUMPI PUSH2 0x112B PUSH2 0x10D5 JUMP JUMPDEST JUMPDEST POP SWAP2 SWAP1 POP JUMP JUMPDEST PUSH0 DUP2 SWAP1 POP DUP2 PUSH0 MSTORE PUSH1 0x20 PUSH0 KECCAK256 SWAP1 POP SWAP2 SWAP1 POP JUMP JUMPDEST PUSH0 PUSH1 0x20 PUSH1 0x1F DUP4 ADD DIV SWAP1 POP SWAP2 SWAP1 POP JUMP JUMPDEST PUSH0 DUP3 DUP3 SHL SWAP1 POP SWAP3 SWAP2 POP POP JUMP JUMPDEST PUSH0 PUSH1 0x8 DUP4 MUL PUSH2 0x118E PUSH32 0xFFFFFFFFFFFFFFFFFFFFFFFFFFFFFFFFFFFFFFFFFFFFFFFFFFFFFFFFFFFFFFFF DUP3 PUSH2 0x1153 JUMP JUMPDEST PUSH2 0x1198 DUP7 DUP4 PUSH2 0x1153 JUMP JUMPDEST SWAP6 POP DUP1 NOT DUP5 AND SWAP4 POP DUP1 DUP7 AND DUP5 OR SWAP3 POP POP POP SWAP4 SWAP3 POP POP POP JUMP JUMPDEST PUSH0 DUP2 SWAP1 POP SWAP2 SWAP1 POP JUMP JUMPDEST PUSH0 PUSH2 0x11D3 PUSH2 0x11CE PUSH2 0x11C9 DUP5 PUSH2 0x1040 JUMP JUMPDEST PUSH2 0x11B0 JUMP JUMPDEST PUSH2 0x1040 JUMP JUMPDEST SWAP1 POP SWAP2 SWAP1 POP JUMP JUMPDEST PUSH0 DUP2 SWAP1 POP SWAP2 SWAP1 POP JUMP JUMPDEST PUSH2 0x11EC DUP4 PUSH2 0x11B9 JUMP JUMPDEST PUSH2 0x1200 PUSH2 0x11F8 DUP3 PUSH2 0x11DA JUMP JUMPDEST DUP5 DUP5 SLOAD PUSH2 0x115F JUMP JUMPDEST DUP3 SSTORE POP POP POP POP JUMP JUMPDEST PUSH0 PUSH0 SWAP1 POP SWAP1 JUMP JUMPDEST PUSH2 0x1217 PUSH2 0x1208 JUMP JUMPDEST PUSH2 0x1222 DUP2 DUP5 DUP5 PUSH2 0x11E3 JUMP JUMPDEST POP POP POP JUMP JUMPDEST JUMPDEST DUP2 DUP2 LT ISZERO PUSH2 0x1245 JUMPI PUSH2 0x123A PUSH0 DUP3 PUSH2 0x120F JUMP JUMPDEST PUSH1 0x1 DUP2 ADD SWAP1 POP PUSH2 0x1228 JUMP JUMPDEST POP POP JUMP JUMPDEST PUSH1 0x1F DUP3 GT ISZERO PUSH2 0x128A JUMPI PUSH2 0x125B DUP2 PUSH2 0x1132 JUMP JUMPDEST PUSH2 0x1264 DUP5 PUSH2 0x1144 JUMP JUMPDEST DUP2 ADD PUSH1 0x20 DUP6 LT ISZERO PUSH2 0x1273 JUMPI DUP2 SWAP1 POP JUMPDEST PUSH2 0x1287 PUSH2 0x127F DUP6 PUSH2 0x1144 JUMP JUMPDEST DUP4 ADD DUP3 PUSH2 0x1227 JUMP JUMPDEST POP POP JUMPDEST POP POP POP JUMP JUMPDEST PUSH0 DUP3 DUP3 SHR SWAP1 POP SWAP3 SWAP2 POP POP JUMP JUMPDEST PUSH0 PUSH2 0x12AA PUSH0 NOT DUP5 PUSH1 0x8 MUL PUSH2 0x128F JUMP JUMPDEST NOT DUP1 DUP4 AND SWAP2 POP POP SWAP3 SWAP2 POP POP JUMP JUMPDEST PUSH0 PUSH2 0x12C2 DUP4 DUP4 PUSH2 0x129B JUMP JUMPDEST SWAP2 POP DUP3 PUSH1 0x2 MUL DUP3 OR SWAP1 POP SWAP3 SWAP2 POP POP JUMP JUMPDEST PUSH2 0x12DB DUP3 PUSH2 0x109E JUMP JUMPDEST PUSH8 0xFFFFFFFFFFFFFFFF DUP2 GT ISZERO PUSH2 0x12F4 JUMPI PUSH2 0x12F3 PUSH2 0x10A8 JUMP JUMPDEST JUMPDEST PUSH2 0x12FE DUP3 SLOAD PUSH2 0x1102 JUMP JUMPDEST PUSH2 0x1309 DUP3 DUP3 DUP6 PUSH2 0x1249 JUMP JUMPDEST PUSH0 PUSH1 0x20 SWAP1 POP PUSH1 0x1F DUP4 GT PUSH1 0x1 DUP2 EQ PUSH2 0x133A JUMPI PUSH0 DUP5 ISZERO PUSH2 0x1328 JUMPI DUP3 DUP8 ADD MLOAD SWAP1 POP JUMPDEST PUSH2 0x1332 DUP6 DUP3 PUSH2 0x12B7 JUMP JUMPDEST DUP7 SSTORE POP PUSH2 0x1399 JUMP JUMPDEST PUSH1 0x1F NOT DUP5 AND PUSH2 0x1348 DUP7 PUSH2 0x1132 JUMP JUMPDEST PUSH0 JUMPDEST DUP3 DUP2 LT ISZERO PUSH2 0x136F JUMPI DUP5 DUP10 ADD MLOAD DUP3 SSTORE PUSH1 0x1 DUP3 ADD SWAP2 POP PUSH1 0x20 DUP6 ADD SWAP5 POP PUSH1 0x20 DUP2 ADD SWAP1 POP PUSH2 0x134A JUMP JUMPDEST DUP7 DUP4 LT ISZERO PUSH2 0x138C JUMPI DUP5 DUP10 ADD MLOAD PUSH2 0x1388 PUSH1 0x1F DUP10 AND DUP3 PUSH2 0x129B JUMP JUMPDEST DUP4 SSTORE POP JUMPDEST PUSH1 0x1 PUSH1 0x2 DUP9 MUL ADD DUP9 SSTORE POP POP POP JUMPDEST POP POP POP POP POP POP JUMP JUMPDEST PUSH0 PUSH20 0xFFFFFFFFFFFFFFFFFFFFFFFFFFFFFFFFFFFFFFFF DUP3 AND SWAP1 POP SWAP2 SWAP1 POP JUMP JUMPDEST PUSH0 PUSH2 0x13CA DUP3 PUSH2 0x13A1 JUMP JUMPDEST SWAP1 POP SWAP2 SWAP1 POP JUMP JUMPDEST PUSH2 0x13DA DUP2 PUSH2 0x13C0 JUMP JUMPDEST DUP3 MSTORE POP POP JUMP JUMPDEST PUSH0 PUSH1 0x20 DUP3 ADD SWAP1 POP PUSH2 0x13F3 PUSH0 DUP4 ADD DUP5 PUSH2 0x13D1 JUMP JUMPDEST SWAP3 SWAP2 POP POP JUMP JUMPDEST PUSH32 0x4E487B7100000000000000000000000000000000000000000000000000000000 PUSH0 MSTORE PUSH1 0x12 PUSH1 0x4 MSTORE PUSH1 0x24 PUSH0 REVERT JUMPDEST PUSH32 0x4E487B7100000000000000000000000000000000000000000000000000000000 PUSH0 MSTORE PUSH1 0x11 PUSH1 0x4 MSTORE PUSH1 0x24 PUSH0 REVERT JUMPDEST PUSH0 PUSH2 0x145D DUP3 PUSH2 0x1040 JUMP JUMPDEST SWAP2 POP PUSH2 0x1468 DUP4 PUSH2 0x1040 JUMP JUMPDEST SWAP3 POP DUP3 PUSH2 0x1478 JUMPI PUSH2 0x1477 PUSH2 0x13F9 JUMP JUMPDEST JUMPDEST DUP3 DUP3 DIV SWAP1 POP SWAP3 SWAP2 POP POP JUMP JUMPDEST PUSH0 DUP2 SWAP1 POP SWAP2 SWAP1 POP JUMP JUMPDEST PUSH2 0x1495 DUP2 PUSH2 0x1483 JUMP JUMPDEST DUP3 MSTORE POP POP JUMP JUMPDEST PUSH2 0x14A4 DUP2 PUSH2 0x1040 JUMP JUMPDEST DUP3 MSTORE POP POP JUMP JUMPDEST PUSH0 PUSH1 0xA0 DUP3 ADD SWAP1 POP PUSH2 0x14BD PUSH0 DUP4 ADD DUP9 PUSH2 0x148C JUMP JUMPDEST PUSH2 0x14CA PUSH1 0x20 DUP4 ADD DUP8 PUSH2 0x148C JUMP JUMPDEST PUSH2 0x14D7 PUSH1 0x40 DUP4 ADD DUP7 PUSH2 0x148C JUMP JUMPDEST PUSH2 0x14E4 PUSH1 0x60 DUP4 ADD DUP6 PUSH2 0x149B JUMP JUMPDEST PUSH2 0x14F1 PUSH1 0x80 DUP4 ADD DUP5 PUSH2 0x13D1 JUMP JUMPDEST SWAP7 SWAP6 POP POP POP POP POP POP JUMP JUMPDEST PUSH0 DUP3 DUP3 MSTORE PUSH1 0x20 DUP3 ADD SWAP1 POP SWAP3 SWAP2 POP POP JUMP JUMPDEST DUP3 DUP2 DUP4 MCOPY PUSH0 DUP4 DUP4 ADD MSTORE POP POP POP JUMP JUMPDEST PUSH0 PUSH1 0x1F NOT PUSH1 0x1F DUP4 ADD AND SWAP1 POP SWAP2 SWAP1 POP JUMP JUMPDEST PUSH0 PUSH2 0x1533 DUP3 PUSH2 0x109E JUMP JUMPDEST PUSH2 0x153D DUP2 DUP6 PUSH2 0x14FB JUMP JUMPDEST SWAP4 POP PUSH2 0x154D DUP2 DUP6 PUSH1 0x20 DUP7 ADD PUSH2 0x150B JUMP JUMPDEST PUSH2 0x1556 DUP2 PUSH2 0x1519 JUMP JUMPDEST DUP5 ADD SWAP2 POP POP SWAP3 SWAP2 POP POP JUMP JUMPDEST PUSH0 PUSH1 0x20 DUP3 ADD SWAP1 POP DUP2 DUP2 SUB PUSH0 DUP4 ADD MSTORE PUSH2 0x1579 DUP2 DUP5 PUSH2 0x1529 JUMP JUMPDEST SWAP1 POP SWAP3 SWAP2 POP POP JUMP JUMPDEST PUSH0 DUP2 MLOAD SWAP1 POP SWAP2 SWAP1 POP JUMP JUMPDEST PUSH0 DUP2 SWAP1 POP PUSH1 0x20 DUP3 ADD SWAP1 POP SWAP2 SWAP1 POP JUMP JUMPDEST PUSH0 PUSH2 0x15A5 DUP3 MLOAD PUSH2 0x1483 JUMP JUMPDEST DUP1 SWAP2 POP POP SWAP2 SWAP1 POP JUMP JUMPDEST PUSH0 PUSH2 0x15B8 DUP3 PUSH2 0x1581 JUMP JUMPDEST DUP3 PUSH2 0x15C2 DUP5 PUSH2 0x158B JUMP JUMPDEST SWAP1 POP PUSH2 0x15CD DUP2 PUSH2 0x159A JUMP JUMPDEST SWAP3 POP PUSH1 0x20 DUP3 LT ISZERO PUSH2 0x160D JUMPI PUSH2 0x1608 PUSH32 0xFFFFFFFFFFFFFFFFFFFFFFFFFFFFFFFFFFFFFFFFFFFFFFFFFFFFFFFFFFFFFFFF DUP4 PUSH1 0x20 SUB PUSH1 0x8 MUL PUSH2 0x1153 JUMP JUMPDEST DUP4 AND SWAP3 POP JUMPDEST POP POP SWAP2 SWAP1 POP JUMP JUMPDEST PUSH0 PUSH1 0x40 DUP3 ADD SWAP1 POP PUSH2 0x1627 PUSH0 DUP4 ADD DUP6 PUSH2 0x149B JUMP JUMPDEST PUSH2 0x1634 PUSH1 0x20 DUP4 ADD DUP5 PUSH2 0x149B JUMP JUMPDEST SWAP4 SWAP3 POP POP POP JUMP JUMPDEST PUSH0 PUSH2 0x1645 DUP3 PUSH2 0x1040 JUMP JUMPDEST SWAP2 POP PUSH2 0x1650 DUP4 PUSH2 0x1040 JUMP JUMPDEST SWAP3 POP DUP3 DUP3 MUL PUSH2 0x165E DUP2 PUSH2 0x1040 JUMP JUMPDEST SWAP2 POP DUP3 DUP3 DIV DUP5 EQ DUP4 ISZERO OR PUSH2 0x1675 JUMPI PUSH2 0x1674 PUSH2 0x1426 JUMP JUMPDEST JUMPDEST POP SWAP3 SWAP2 POP POP JUMP JUMPDEST PUSH0 PUSH2 0x1686 DUP3 PUSH2 0x1040 JUMP JUMPDEST SWAP2 POP PUSH2 0x1691 DUP4 PUSH2 0x1040 JUMP JUMPDEST SWAP3 POP DUP3 DUP3 SUB SWAP1 POP DUP2 DUP2 GT ISZERO PUSH2 0x16A9 JUMPI PUSH2 0x16A8 PUSH2 0x1426 JUMP JUMPDEST JUMPDEST SWAP3 SWAP2 POP POP JUMP JUMPDEST PUSH0 PUSH1 0x20 DUP3 ADD SWAP1 POP PUSH2 0x16C2 PUSH0 DUP4 ADD DUP5 PUSH2 0x149B JUMP JUMPDEST SWAP3 SWAP2 POP POP JUMP JUMPDEST PUSH32 0x4E487B7100000000000000000000000000000000000000000000000000000000 PUSH0 MSTORE PUSH1 0x32 PUSH1 0x4 MSTORE PUSH1 0x24 PUSH0 REVERT JUMPDEST PUSH0 PUSH2 0x16FF DUP3 PUSH2 0x1040 JUMP JUMPDEST SWAP2 POP PUSH2 0x170A DUP4 PUSH2 0x1040 JUMP JUMPDEST SWAP3 POP DUP3 DUP3 ADD SWAP1 POP DUP1 DUP3 GT ISZERO PUSH2 0x1722 JUMPI PUSH2 0x1721 PUSH2 0x1426 JUMP JUMPDEST JUMPDEST SWAP3 SWAP2 POP POP JUMP JUMPDEST PUSH0 PUSH1 0x60 DUP3 ADD SWAP1 POP PUSH2 0x173B PUSH0 DUP4 ADD DUP7 PUSH2 0x13D1 JUMP JUMPDEST PUSH2 0x1748 PUSH1 0x20 DUP4 ADD DUP6 PUSH2 0x149B JUMP JUMPDEST PUSH2 0x1755 PUSH1 0x40 DUP4 ADD DUP5 PUSH2 0x149B JUMP JUMPDEST SWAP5 SWAP4 POP POP POP POP JUMP JUMPDEST PUSH1 0x80 MLOAD PUSH1 0xA0 MLOAD PUSH1 0xC0 MLOAD PUSH1 0xE0 MLOAD PUSH2 0x100 MLOAD PUSH2 0x120 MLOAD PUSH2 0x140 MLOAD PUSH2 0x57AC PUSH2 0x17AE PUSH0 CODECOPY PUSH0 PUSH2 0x323A ADD MSTORE PUSH0 PUSH2 0x31FF ADD MSTORE PUSH0 PUSH2 0x3B61 ADD MSTORE PUSH0 PUSH2 0x3B40 ADD MSTORE PUSH0 PUSH2 0x2F44 ADD MSTORE PUSH0 PUSH2 0x2F9A ADD MSTORE PUSH0 PUSH2 0x2FC3 ADD MSTORE PUSH2 0x57AC PUSH0 RETURN INVALID PUSH1 0x80 PUSH1 0x40 MSTORE PUSH1 0x4 CALLDATASIZE LT PUSH2 0x353 JUMPI PUSH0 CALLDATALOAD PUSH1 0xE0 SHR DUP1 PUSH4 0x79CC6790 GT PUSH2 0x1C5 JUMPI DUP1 PUSH4 0xBA183D1A GT PUSH2 0xF6 JUMPI DUP1 PUSH4 0xCFDBF254 GT PUSH2 0x94 JUMPI DUP1 PUSH4 0xDD62ED3E GT PUSH2 0x6E JUMPI DUP1 PUSH4 0xDD62ED3E EQ PUSH2 0xBDA JUMPI DUP1 PUSH4 0xE30C3978 EQ PUSH2 0xC16 JUMPI DUP1 PUSH4 0xE6EF73D6 EQ PUSH2 0xC40 JUMPI DUP1 PUSH4 0xF2FDE38B EQ PUSH2 0xC6A JUMPI PUSH2 0x354 JUMP JUMPDEST DUP1 PUSH4 0xCFDBF254 EQ PUSH2 0xB4C JUMPI DUP1 PUSH4 0xD505ACCF EQ PUSH2 0xB76 JUMPI DUP1 PUSH4 0xDBAC26E9 EQ PUSH2 0xB9E JUMPI PUSH2 0x354 JUMP JUMPDEST DUP1 PUSH4 0xC81B6848 GT PUSH2 0xD0 JUMPI DUP1 PUSH4 0xC81B6848 EQ PUSH2 0xAAA JUMPI DUP1 PUSH4 0xC8C8EBE4 EQ PUSH2 0xAD2 JUMPI DUP1 PUSH4 0xCD8DE42C EQ PUSH2 0xAFC JUMPI DUP1 PUSH4 0xCEA9D26F EQ PUSH2 0xB24 JUMPI PUSH2 0x354 JUMP JUMPDEST DUP1 PUSH4 0xBA183D1A EQ PUSH2 0xA3F JUMPI DUP1 PUSH4 0xC2ED286B EQ PUSH2 0xA55 JUMPI DUP1 PUSH4 0xC6A38E7C EQ PUSH2 0xA7D JUMPI PUSH2 0x354 JUMP JUMPDEST DUP1 PUSH4 0x95D89B41 GT PUSH2 0x163 JUMPI DUP1 PUSH4 0x989763EF GT PUSH2 0x13D JUMPI DUP1 PUSH4 0x989763EF EQ PUSH2 0x975 JUMPI DUP1 PUSH4 0xA457C2D7 EQ PUSH2 0x9B1 JUMPI DUP1 PUSH4 0xA9059CBB EQ PUSH2 0x9ED JUMPI DUP1 PUSH4 0xB3BBB662 EQ PUSH2 0xA29 JUMPI PUSH2 0x354 JUMP JUMPDEST DUP1 PUSH4 0x95D89B41 EQ PUSH2 0x8E5 JUMPI DUP1 PUSH4 0x9711715A EQ PUSH2 0x90F JUMPI DUP1 PUSH4 0x981B24D0 EQ PUSH2 0x939 JUMPI PUSH2 0x354 JUMP JUMPDEST DUP1 PUSH4 0x84B0196E GT PUSH2 0x19F JUMPI DUP1 PUSH4 0x84B0196E EQ PUSH2 0x825 JUMPI DUP1 PUSH4 0x8DA5CB5B EQ PUSH2 0x855 JUMPI DUP1 PUSH4 0x8FA81732 EQ PUSH2 0x87F JUMPI DUP1 PUSH4 0x926ADA6C EQ PUSH2 0x8A9 JUMPI PUSH2 0x354 JUMP JUMPDEST DUP1 PUSH4 0x79CC6790 EQ PUSH2 0x7AB JUMPI DUP1 PUSH4 0x7ECEBE00 EQ PUSH2 0x7D3 JUMPI DUP1 PUSH4 0x8456CB59 EQ PUSH2 0x80F JUMPI PUSH2 0x354 JUMP JUMPDEST DUP1 PUSH4 0x40C10F19 GT PUSH2 0x29F JUMPI DUP1 PUSH4 0x5C975ABB GT PUSH2 0x23D JUMPI DUP1 PUSH4 0x70A08231 GT PUSH2 0x217 JUMPI DUP1 PUSH4 0x70A08231 EQ PUSH2 0x719 JUMPI DUP1 PUSH4 0x715018A6 EQ PUSH2 0x755 JUMPI DUP1 PUSH4 0x771A3A1D EQ PUSH2 0x76B JUMPI DUP1 PUSH4 0x79BA5097 EQ PUSH2 0x795 JUMPI PUSH2 0x354 JUMP JUMPDEST DUP1 PUSH4 0x5C975ABB EQ PUSH2 0x69F JUMPI DUP1 PUSH4 0x66650DAE EQ PUSH2 0x6C9 JUMPI DUP1 PUSH4 0x68573107 EQ PUSH2 0x6F1 JUMPI PUSH2 0x354 JUMP JUMPDEST DUP1 PUSH4 0x4623C81E GT PUSH2 0x279 JUMPI DUP1 PUSH4 0x4623C81E EQ PUSH2 0x5FB JUMPI DUP1 PUSH4 0x4EE2CD7E EQ PUSH2 0x625 JUMPI DUP1 PUSH4 0x537DF3B6 EQ PUSH2 0x661 JUMPI DUP1 PUSH4 0x5A1B4B70 EQ PUSH2 0x689 JUMPI PUSH2 0x354 JUMP JUMPDEST DUP1 PUSH4 0x40C10F19 EQ PUSH2 0x583 JUMPI DUP1 PUSH4 0x42966C68 EQ PUSH2 0x5AB JUMPI DUP1 PUSH4 0x44337EA1 EQ PUSH2 0x5D3 JUMPI PUSH2 0x354 JUMP JUMPDEST DUP1 PUSH4 0x100E70F5 GT PUSH2 0x30C JUMPI DUP1 PUSH4 0x313CE567 GT PUSH2 0x2E6 JUMPI DUP1 PUSH4 0x313CE567 EQ PUSH2 0x4DD JUMPI DUP1 PUSH4 0x3644E515 EQ PUSH2 0x507 JUMPI DUP1 PUSH4 0x39509351 EQ PUSH2 0x531 JUMPI DUP1 PUSH4 0x3F4BA83A EQ PUSH2 0x56D JUMPI PUSH2 0x354 JUMP JUMPDEST DUP1 PUSH4 0x100E70F5 EQ PUSH2 0x461 JUMPI DUP1 PUSH4 0x18160DDD EQ PUSH2 0x477 JUMPI DUP1 PUSH4 0x23B872DD EQ PUSH2 0x4A1 JUMPI PUSH2 0x354 JUMP JUMPDEST DUP1 PUSH4 0x18FA451 EQ PUSH2 0x356 JUMPI DUP1 PUSH4 0x6FDDE03 EQ PUSH2 0x37E JUMPI DUP1 PUSH4 0x95EA7B3 EQ PUSH2 0x3A8 JUMPI DUP1 PUSH4 0x99A04E5 EQ PUSH2 0x3E4 JUMPI DUP1 PUSH4 0xD0C0E33 EQ PUSH2 0x40C JUMPI DUP1 PUSH4 0xF8240FD EQ PUSH2 0x439 JUMPI PUSH2 0x354 JUMP JUMPDEST JUMPDEST STOP JUMPDEST CALLVALUE DUP1 ISZERO PUSH2 0x361 JUMPI PUSH0 PUSH0 REVERT JUMPDEST POP PUSH2 0x37C PUSH1 0x4 DUP1 CALLDATASIZE SUB DUP2 ADD SWAP1 PUSH2 0x377 SWAP2 SWAP1 PUSH2 0x472A JUMP JUMPDEST PUSH2 0xC92 JUMP JUMPDEST STOP JUMPDEST CALLVALUE DUP1 ISZERO PUSH2 0x389 JUMPI PUSH0 PUSH0 REVERT JUMPDEST POP PUSH2 0x392 PUSH2 0xDEF JUMP JUMPDEST PUSH1 0x40 MLOAD PUSH2 0x39F SWAP2 SWAP1 PUSH2 0x47C5 JUMP JUMPDEST PUSH1 0x40 MLOAD DUP1 SWAP2 SUB SWAP1 RETURN JUMPDEST CALLVALUE DUP1 ISZERO PUSH2 0x3B3 JUMPI PUSH0 PUSH0 REVERT JUMPDEST POP PUSH2 0x3CE PUSH1 0x4 DUP1 CALLDATASIZE SUB DUP2 ADD SWAP1 PUSH2 0x3C9 SWAP2 SWAP1 PUSH2 0x483F JUMP JUMPDEST PUSH2 0xE7F JUMP JUMPDEST PUSH1 0x40 MLOAD PUSH2 0x3DB SWAP2 SWAP1 PUSH2 0x4897 JUMP JUMPDEST PUSH1 0x40 MLOAD DUP1 SWAP2 SUB SWAP1 RETURN JUMPDEST CALLVALUE DUP1 ISZERO PUSH2 0x3EF JUMPI PUSH0 PUSH0 REVERT JUMPDEST POP PUSH2 0x40A PUSH1 0x4 DUP1 CALLDATASIZE SUB DUP2 ADD SWAP1 PUSH2 0x405 SWAP2 SWAP1 PUSH2 0x48EB JUMP JUMPDEST PUSH2 0xEF6 JUMP JUMPDEST STOP JUMPDEST CALLVALUE DUP1 ISZERO PUSH2 0x417 JUMPI PUSH0 PUSH0 REVERT JUMPDEST POP PUSH2 0x420 PUSH2 0x1064 JUMP JUMPDEST PUSH1 0x40 MLOAD PUSH2 0x430 SWAP5 SWAP4 SWAP3 SWAP2 SWAP1 PUSH2 0x4947 JUMP JUMPDEST PUSH1 0x40 MLOAD DUP1 SWAP2 SUB SWAP1 RETURN JUMPDEST CALLVALUE DUP1 ISZERO PUSH2 0x444 JUMPI PUSH0 PUSH0 REVERT JUMPDEST POP PUSH2 0x45F PUSH1 0x4 DUP1 CALLDATASIZE SUB DUP2 ADD SWAP1 PUSH2 0x45A SWAP2 SWAP1 PUSH2 0x472A JUMP JUMPDEST PUSH2 0x10AC JUMP JUMPDEST STOP JUMPDEST CALLVALUE DUP1 ISZERO PUSH2 0x46C JUMPI PUSH0 PUSH0 REVERT JUMPDEST POP PUSH2 0x475 PUSH2 0x11FB JUMP JUMPDEST STOP JUMPDEST CALLVALUE DUP1 ISZERO PUSH2 0x482 JUMPI PUSH0 PUSH0 REVERT JUMPDEST POP PUSH2 0x48B PUSH2 0x12CD JUMP JUMPDEST PUSH1 0x40 MLOAD PUSH2 0x498 SWAP2 SWAP1 PUSH2 0x498A JUMP JUMPDEST PUSH1 0x40 MLOAD DUP1 SWAP2 SUB SWAP1 RETURN JUMPDEST CALLVALUE DUP1 ISZERO PUSH2 0x4AC JUMPI PUSH0 PUSH0 REVERT JUMPDEST POP PUSH2 0x4C7 PUSH1 0x4 DUP1 CALLDATASIZE SUB DUP2 ADD SWAP1 PUSH2 0x4C2 SWAP2 SWAP1 PUSH2 0x49A3 JUMP JUMPDEST PUSH2 0x12D6 JUMP JUMPDEST PUSH1 0x40 MLOAD PUSH2 0x4D4 SWAP2 SWAP1 PUSH2 0x4897 JUMP JUMPDEST PUSH1 0x40 MLOAD DUP1 SWAP2 SUB SWAP1 RETURN JUMPDEST CALLVALUE DUP1 ISZERO PUSH2 0x4E8 JUMPI PUSH0 PUSH0 REVERT JUMPDEST POP PUSH2 0x4F1 PUSH2 0x1304 JUMP JUMPDEST PUSH1 0x40 MLOAD PUSH2 0x4FE SWAP2 SWAP1 PUSH2 0x4A0E JUMP JUMPDEST PUSH1 0x40 MLOAD DUP1 SWAP2 SUB SWAP1 RETURN JUMPDEST CALLVALUE DUP1 ISZERO PUSH2 0x512 JUMPI PUSH0 PUSH0 REVERT JUMPDEST POP PUSH2 0x51B PUSH2 0x130C JUMP JUMPDEST PUSH1 0x40 MLOAD PUSH2 0x528 SWAP2 SWAP1 PUSH2 0x4A3F JUMP JUMPDEST PUSH1 0x40 MLOAD DUP1 SWAP2 SUB SWAP1 RETURN JUMPDEST CALLVALUE DUP1 ISZERO PUSH2 0x53C JUMPI PUSH0 PUSH0 REVERT JUMPDEST POP PUSH2 0x557 PUSH1 0x4 DUP1 CALLDATASIZE SUB DUP2 ADD SWAP1 PUSH2 0x552 SWAP2 SWAP1 PUSH2 0x483F JUMP JUMPDEST PUSH2 0x131A JUMP JUMPDEST PUSH1 0x40 MLOAD PUSH2 0x564 SWAP2 SWAP1 PUSH2 0x4897 JUMP JUMPDEST PUSH1 0x40 MLOAD DUP1 SWAP2 SUB SWAP1 RETURN JUMPDEST CALLVALUE DUP1 ISZERO PUSH2 0x578 JUMPI PUSH0 PUSH0 REVERT JUMPDEST POP PUSH2 0x581 PUSH2 0x1350 JUMP JUMPDEST STOP JUMPDEST CALLVALUE DUP1 ISZERO PUSH2 0x58E JUMPI PUSH0 PUSH0 REVERT JUMPDEST POP PUSH2 0x5A9 PUSH1 0x4 DUP1 CALLDATASIZE SUB DUP2 ADD SWAP1 PUSH2 0x5A4 SWAP2 SWAP1 PUSH2 0x483F JUMP JUMPDEST PUSH2 0x1362 JUMP JUMPDEST STOP JUMPDEST CALLVALUE DUP1 ISZERO PUSH2 0x5B6 JUMPI PUSH0 PUSH0 REVERT JUMPDEST POP PUSH2 0x5D1 PUSH1 0x4 DUP1 CALLDATASIZE SUB DUP2 ADD SWAP1 PUSH2 0x5CC SWAP2 SWAP1 PUSH2 0x472A JUMP JUMPDEST PUSH2 0x1474 JUMP JUMPDEST STOP JUMPDEST CALLVALUE DUP1 ISZERO PUSH2 0x5DE JUMPI PUSH0 PUSH0 REVERT JUMPDEST POP PUSH2 0x5F9 PUSH1 0x4 DUP1 CALLDATASIZE SUB DUP2 ADD SWAP1 PUSH2 0x5F4 SWAP2 SWAP1 PUSH2 0x4A58 JUMP JUMPDEST PUSH2 0x1488 JUMP JUMPDEST STOP JUMPDEST CALLVALUE DUP1 ISZERO PUSH2 0x606 JUMPI PUSH0 PUSH0 REVERT JUMPDEST POP PUSH2 0x60F PUSH2 0x1623 JUMP JUMPDEST PUSH1 0x40 MLOAD PUSH2 0x61C SWAP2 SWAP1 PUSH2 0x498A JUMP JUMPDEST PUSH1 0x40 MLOAD DUP1 SWAP2 SUB SWAP1 RETURN JUMPDEST CALLVALUE DUP1 ISZERO PUSH2 0x630 JUMPI PUSH0 PUSH0 REVERT JUMPDEST POP PUSH2 0x64B PUSH1 0x4 DUP1 CALLDATASIZE SUB DUP2 ADD SWAP1 PUSH2 0x646 SWAP2 SWAP1 PUSH2 0x483F JUMP JUMPDEST PUSH2 0x162A JUMP JUMPDEST PUSH1 0x40 MLOAD PUSH2 0x658 SWAP2 SWAP1 PUSH2 0x498A JUMP JUMPDEST PUSH1 0x40 MLOAD DUP1 SWAP2 SUB SWAP1 RETURN JUMPDEST CALLVALUE DUP1 ISZERO PUSH2 0x66C JUMPI PUSH0 PUSH0 REVERT JUMPDEST POP PUSH2 0x687 PUSH1 0x4 DUP1 CALLDATASIZE SUB DUP2 ADD SWAP1 PUSH2 0x682 SWAP2 SWAP1 PUSH2 0x4A58 JUMP JUMPDEST PUSH2 0x1696 JUMP JUMPDEST STOP JUMPDEST CALLVALUE DUP1 ISZERO PUSH2 0x694 JUMPI PUSH0 PUSH0 REVERT JUMPDEST POP PUSH2 0x69D PUSH2 0x17C3 JUMP JUMPDEST STOP JUMPDEST CALLVALUE DUP1 ISZERO PUSH2 0x6AA JUMPI PUSH0 PUSH0 REVERT JUMPDEST POP PUSH2 0x6B3 PUSH2 0x1895 JUMP JUMPDEST PUSH1 0x40 MLOAD PUSH2 0x6C0 SWAP2 SWAP1 PUSH2 0x4897 JUMP JUMPDEST PUSH1 0x40 MLOAD DUP1 SWAP2 SUB SWAP1 RETURN JUMPDEST CALLVALUE DUP1 ISZERO PUSH2 0x6D4 JUMPI PUSH0 PUSH0 REVERT JUMPDEST POP PUSH2 0x6EF PUSH1 0x4 DUP1 CALLDATASIZE SUB DUP2 ADD SWAP1 PUSH2 0x6EA SWAP2 SWAP1 PUSH2 0x4AAD JUMP JUMPDEST PUSH2 0x18AA JUMP JUMPDEST STOP JUMPDEST CALLVALUE DUP1 ISZERO PUSH2 0x6FC JUMPI PUSH0 PUSH0 REVERT JUMPDEST POP PUSH2 0x717 PUSH1 0x4 DUP1 CALLDATASIZE SUB DUP2 ADD SWAP1 PUSH2 0x712 SWAP2 SWAP1 PUSH2 0x4BA1 JUMP JUMPDEST PUSH2 0x1990 JUMP JUMPDEST STOP JUMPDEST CALLVALUE DUP1 ISZERO PUSH2 0x724 JUMPI PUSH0 PUSH0 REVERT JUMPDEST POP PUSH2 0x73F PUSH1 0x4 DUP1 CALLDATASIZE SUB DUP2 ADD SWAP1 PUSH2 0x73A SWAP2 SWAP1 PUSH2 0x4A58 JUMP JUMPDEST PUSH2 0x1C1A JUMP JUMPDEST PUSH1 0x40 MLOAD PUSH2 0x74C SWAP2 SWAP1 PUSH2 0x498A JUMP JUMPDEST PUSH1 0x40 MLOAD DUP1 SWAP2 SUB SWAP1 RETURN JUMPDEST CALLVALUE DUP1 ISZERO PUSH2 0x760 JUMPI PUSH0 PUSH0 REVERT JUMPDEST POP PUSH2 0x769 PUSH2 0x1C60 JUMP JUMPDEST STOP JUMPDEST CALLVALUE DUP1 ISZERO PUSH2 0x776 JUMPI PUSH0 PUSH0 REVERT JUMPDEST POP PUSH2 0x77F PUSH2 0x1C73 JUMP JUMPDEST PUSH1 0x40 MLOAD PUSH2 0x78C SWAP2 SWAP1 PUSH2 0x498A JUMP JUMPDEST PUSH1 0x40 MLOAD DUP1 SWAP2 SUB SWAP1 RETURN JUMPDEST CALLVALUE DUP1 ISZERO PUSH2 0x7A0 JUMPI PUSH0 PUSH0 REVERT JUMPDEST POP PUSH2 0x7A9 PUSH2 0x1C78 JUMP JUMPDEST STOP JUMPDEST CALLVALUE DUP1 ISZERO PUSH2 0x7B6 JUMPI PUSH0 PUSH0 REVERT JUMPDEST POP PUSH2 0x7D1 PUSH1 0x4 DUP1 CALLDATASIZE SUB DUP2 ADD SWAP1 PUSH2 0x7CC SWAP2 SWAP1 PUSH2 0x483F JUMP JUMPDEST PUSH2 0x1D06 JUMP JUMPDEST STOP JUMPDEST CALLVALUE DUP1 ISZERO PUSH2 0x7DE JUMPI PUSH0 PUSH0 REVERT JUMPDEST POP PUSH2 0x7F9 PUSH1 0x4 DUP1 CALLDATASIZE SUB DUP2 ADD SWAP1 PUSH2 0x7F4 SWAP2 SWAP1 PUSH2 0x4A58 JUMP JUMPDEST PUSH2 0x1D26 JUMP JUMPDEST PUSH1 0x40 MLOAD PUSH2 0x806 SWAP2 SWAP1 PUSH2 0x498A JUMP JUMPDEST PUSH1 0x40 MLOAD DUP1 SWAP2 SUB SWAP1 RETURN JUMPDEST CALLVALUE DUP1 ISZERO PUSH2 0x81A JUMPI PUSH0 PUSH0 REVERT JUMPDEST POP PUSH2 0x823 PUSH2 0x1D37 JUMP JUMPDEST STOP JUMPDEST CALLVALUE DUP1 ISZERO PUSH2 0x830 JUMPI PUSH0 PUSH0 REVERT JUMPDEST POP PUSH2 0x839 PUSH2 0x1D49 JUMP JUMPDEST PUSH1 0x40 MLOAD PUSH2 0x84C SWAP8 SWAP7 SWAP6 SWAP5 SWAP4 SWAP3 SWAP2 SWAP1 PUSH2 0x4D10 JUMP JUMPDEST PUSH1 0x40 MLOAD DUP1 SWAP2 SUB SWAP1 RETURN JUMPDEST CALLVALUE DUP1 ISZERO PUSH2 0x860 JUMPI PUSH0 PUSH0 REVERT JUMPDEST POP PUSH2 0x869 PUSH2 0x1DEE JUMP JUMPDEST PUSH1 0x40 MLOAD PUSH2 0x876 SWAP2 SWAP1 PUSH2 0x4D92 JUMP JUMPDEST PUSH1 0x40 MLOAD DUP1 SWAP2 SUB SWAP1 RETURN JUMPDEST CALLVALUE DUP1 ISZERO PUSH2 0x88A JUMPI PUSH0 PUSH0 REVERT JUMPDEST POP PUSH2 0x893 PUSH2 0x1E16 JUMP JUMPDEST PUSH1 0x40 MLOAD PUSH2 0x8A0 SWAP2 SWAP1 PUSH2 0x498A JUMP JUMPDEST PUSH1 0x40 MLOAD DUP1 SWAP2 SUB SWAP1 RETURN JUMPDEST CALLVALUE DUP1 ISZERO PUSH2 0x8B4 JUMPI PUSH0 PUSH0 REVERT JUMPDEST POP PUSH2 0x8CF PUSH1 0x4 DUP1 CALLDATASIZE SUB DUP2 ADD SWAP1 PUSH2 0x8CA SWAP2 SWAP1 PUSH2 0x4A58 JUMP JUMPDEST PUSH2 0x1E1C JUMP JUMPDEST PUSH1 0x40 MLOAD PUSH2 0x8DC SWAP2 SWAP1 PUSH2 0x4897 JUMP JUMPDEST PUSH1 0x40 MLOAD DUP1 SWAP2 SUB SWAP1 RETURN JUMPDEST CALLVALUE DUP1 ISZERO PUSH2 0x8F0 JUMPI PUSH0 PUSH0 REVERT JUMPDEST POP PUSH2 0x8F9 PUSH2 0x1E39 JUMP JUMPDEST PUSH1 0x40 MLOAD PUSH2 0x906 SWAP2 SWAP1 PUSH2 0x47C5 JUMP JUMPDEST PUSH1 0x40 MLOAD DUP1 SWAP2 SUB SWAP1 RETURN JUMPDEST CALLVALUE DUP1 ISZERO PUSH2 0x91A JUMPI PUSH0 PUSH0 REVERT JUMPDEST POP PUSH2 0x923 PUSH2 0x1EC9 JUMP JUMPDEST PUSH1 0x40 MLOAD PUSH2 0x930 SWAP2 SWAP1 PUSH2 0x498A JUMP JUMPDEST PUSH1 0x40 MLOAD DUP1 SWAP2 SUB SWAP1 RETURN JUMPDEST CALLVALUE DUP1 ISZERO PUSH2 0x944 JUMPI PUSH0 PUSH0 REVERT JUMPDEST POP PUSH2 0x95F PUSH1 0x4 DUP1 CALLDATASIZE SUB DUP2 ADD SWAP1 PUSH2 0x95A SWAP2 SWAP1 PUSH2 0x472A JUMP JUMPDEST PUSH2 0x1EDF JUMP JUMPDEST PUSH1 0x40 MLOAD PUSH2 0x96C SWAP2 SWAP1 PUSH2 0x498A JUMP JUMPDEST PUSH1 0x40 MLOAD DUP1 SWAP2 SUB SWAP1 RETURN JUMPDEST CALLVALUE DUP1 ISZERO PUSH2 0x980 JUMPI PUSH0 PUSH0 REVERT JUMPDEST POP PUSH2 0x99B PUSH1 0x4 DUP1 CALLDATASIZE SUB DUP2 ADD SWAP1 PUSH2 0x996 SWAP2 SWAP1 PUSH2 0x4A58 JUMP JUMPDEST PUSH2 0x1F0E JUMP JUMPDEST PUSH1 0x40 MLOAD PUSH2 0x9A8 SWAP2 SWAP1 PUSH2 0x4897 JUMP JUMPDEST PUSH1 0x40 MLOAD DUP1 SWAP2 SUB SWAP1 RETURN JUMPDEST CALLVALUE DUP1 ISZERO PUSH2 0x9BC JUMPI PUSH0 PUSH0 REVERT JUMPDEST POP PUSH2 0x9D7 PUSH1 0x4 DUP1 CALLDATASIZE SUB DUP2 ADD SWAP1 PUSH2 0x9D2 SWAP2 SWAP1 PUSH2 0x483F JUMP JUMPDEST PUSH2 0x1F2B JUMP JUMPDEST PUSH1 0x40 MLOAD PUSH2 0x9E4 SWAP2 SWAP1 PUSH2 0x4897 JUMP JUMPDEST PUSH1 0x40 MLOAD DUP1 SWAP2 SUB SWAP1 RETURN JUMPDEST CALLVALUE DUP1 ISZERO PUSH2 0x9F8 JUMPI PUSH0 PUSH0 REVERT JUMPDEST POP PUSH2 0xA13 PUSH1 0x4 DUP1 CALLDATASIZE SUB DUP2 ADD SWAP1 PUSH2 0xA0E SWAP2 SWAP1 PUSH2 0x483F JUMP JUMPDEST PUSH2 0x1FA6 JUMP JUMPDEST PUSH1 0x40 MLOAD PUSH2 0xA20 SWAP2 SWAP1 PUSH2 0x4897 JUMP JUMPDEST PUSH1 0x40 MLOAD DUP1 SWAP2 SUB SWAP1 RETURN JUMPDEST CALLVALUE DUP1 ISZERO PUSH2 0xA34 JUMPI PUSH0 PUSH0 REVERT JUMPDEST POP PUSH2 0xA3D PUSH2 0x1FC8 JUMP JUMPDEST STOP JUMPDEST CALLVALUE DUP1 ISZERO PUSH2 0xA4A JUMPI PUSH0 PUSH0 REVERT JUMPDEST POP PUSH2 0xA53 PUSH2 0x2103 JUMP JUMPDEST STOP JUMPDEST CALLVALUE DUP1 ISZERO PUSH2 0xA60 JUMPI PUSH0 PUSH0 REVERT JUMPDEST POP PUSH2 0xA7B PUSH1 0x4 DUP1 CALLDATASIZE SUB DUP2 ADD SWAP1 PUSH2 0xA76 SWAP2 SWAP1 PUSH2 0x4AAD JUMP JUMPDEST PUSH2 0x223B JUMP JUMPDEST STOP JUMPDEST CALLVALUE DUP1 ISZERO PUSH2 0xA88 JUMPI PUSH0 PUSH0 REVERT JUMPDEST POP PUSH2 0xA91 PUSH2 0x2321 JUMP JUMPDEST PUSH1 0x40 MLOAD PUSH2 0xAA1 SWAP5 SWAP4 SWAP3 SWAP2 SWAP1 PUSH2 0x4947 JUMP JUMPDEST PUSH1 0x40 MLOAD DUP1 SWAP2 SUB SWAP1 RETURN JUMPDEST CALLVALUE DUP1 ISZERO PUSH2 0xAB5 JUMPI PUSH0 PUSH0 REVERT JUMPDEST POP PUSH2 0xAD0 PUSH1 0x4 DUP1 CALLDATASIZE SUB DUP2 ADD SWAP1 PUSH2 0xACB SWAP2 SWAP1 PUSH2 0x4DAB JUMP JUMPDEST PUSH2 0x2369 JUMP JUMPDEST STOP JUMPDEST CALLVALUE DUP1 ISZERO PUSH2 0xADD JUMPI PUSH0 PUSH0 REVERT JUMPDEST POP PUSH2 0xAE6 PUSH2 0x25B0 JUMP JUMPDEST PUSH1 0x40 MLOAD PUSH2 0xAF3 SWAP2 SWAP1 PUSH2 0x498A JUMP JUMPDEST PUSH1 0x40 MLOAD DUP1 SWAP2 SUB SWAP1 RETURN JUMPDEST CALLVALUE DUP1 ISZERO PUSH2 0xB07 JUMPI PUSH0 PUSH0 REVERT JUMPDEST POP PUSH2 0xB22 PUSH1 0x4 DUP1 CALLDATASIZE SUB DUP2 ADD SWAP1 PUSH2 0xB1D SWAP2 SWAP1 PUSH2 0x4A58 JUMP JUMPDEST PUSH2 0x25B6 JUMP JUMPDEST STOP JUMPDEST CALLVALUE DUP1 ISZERO PUSH2 0xB2F JUMPI PUSH0 PUSH0 REVERT JUMPDEST POP PUSH2 0xB4A PUSH1 0x4 DUP1 CALLDATASIZE SUB DUP2 ADD SWAP1 PUSH2 0xB45 SWAP2 SWAP1 PUSH2 0x49A3 JUMP JUMPDEST PUSH2 0x276C JUMP JUMPDEST STOP JUMPDEST CALLVALUE DUP1 ISZERO PUSH2 0xB57 JUMPI PUSH0 PUSH0 REVERT JUMPDEST POP PUSH2 0xB60 PUSH2 0x29EE JUMP JUMPDEST PUSH1 0x40 MLOAD PUSH2 0xB6D SWAP2 SWAP1 PUSH2 0x498A JUMP JUMPDEST PUSH1 0x40 MLOAD DUP1 SWAP2 SUB SWAP1 RETURN JUMPDEST CALLVALUE DUP1 ISZERO PUSH2 0xB81 JUMPI PUSH0 PUSH0 REVERT JUMPDEST POP PUSH2 0xB9C PUSH1 0x4 DUP1 CALLDATASIZE SUB DUP2 ADD SWAP1 PUSH2 0xB97 SWAP2 SWAP1 PUSH2 0x4E4A JUMP JUMPDEST PUSH2 0x29F3 JUMP JUMPDEST STOP JUMPDEST CALLVALUE DUP1 ISZERO PUSH2 0xBA9 JUMPI PUSH0 PUSH0 REVERT JUMPDEST POP PUSH2 0xBC4 PUSH1 0x4 DUP1 CALLDATASIZE SUB DUP2 ADD SWAP1 PUSH2 0xBBF SWAP2 SWAP1 PUSH2 0x4A58 JUMP JUMPDEST PUSH2 0x2B36 JUMP JUMPDEST PUSH1 0x40 MLOAD PUSH2 0xBD1 SWAP2 SWAP1 PUSH2 0x4897 JUMP JUMPDEST PUSH1 0x40 MLOAD DUP1 SWAP2 SUB SWAP1 RETURN JUMPDEST CALLVALUE DUP1 ISZERO PUSH2 0xBE5 JUMPI PUSH0 PUSH0 REVERT JUMPDEST POP PUSH2 0xC00 PUSH1 0x4 DUP1 CALLDATASIZE SUB DUP2 ADD SWAP1 PUSH2 0xBFB SWAP2 SWAP1 PUSH2 0x4EE7 JUMP JUMPDEST PUSH2 0x2B53 JUMP JUMPDEST PUSH1 0x40 MLOAD PUSH2 0xC0D SWAP2 SWAP1 PUSH2 0x498A JUMP JUMPDEST PUSH1 0x40 MLOAD DUP1 SWAP2 SUB SWAP1 RETURN JUMPDEST CALLVALUE DUP1 ISZERO PUSH2 0xC21 JUMPI PUSH0 PUSH0 REVERT JUMPDEST POP PUSH2 0xC2A PUSH2 0x2BD5 JUMP JUMPDEST PUSH1 0x40 MLOAD PUSH2 0xC37 SWAP2 SWAP1 PUSH2 0x4D92 JUMP JUMPDEST PUSH1 0x40 MLOAD DUP1 SWAP2 SUB SWAP1 RETURN JUMPDEST CALLVALUE DUP1 ISZERO PUSH2 0xC4B JUMPI PUSH0 PUSH0 REVERT JUMPDEST POP PUSH2 0xC54 PUSH2 0x2BFD JUMP JUMPDEST PUSH1 0x40 MLOAD PUSH2 0xC61 SWAP2 SWAP1 PUSH2 0x4D92 JUMP JUMPDEST PUSH1 0x40 MLOAD DUP1 SWAP2 SUB SWAP1 RETURN JUMPDEST CALLVALUE DUP1 ISZERO PUSH2 0xC75 JUMPI PUSH0 PUSH0 REVERT JUMPDEST POP PUSH2 0xC90 PUSH1 0x4 DUP1 CALLDATASIZE SUB DUP2 ADD SWAP1 PUSH2 0xC8B SWAP2 SWAP1 PUSH2 0x4A58 JUMP JUMPDEST PUSH2 0x2C22 JUMP JUMPDEST STOP JUMPDEST PUSH2 0xC9A PUSH2 0x2CCE JUMP JUMPDEST PUSH2 0x3E8 DUP2 GT ISZERO PUSH2 0xCE1 JUMPI DUP1 PUSH1 0x40 MLOAD PUSH32 0xCFDD26EA00000000000000000000000000000000000000000000000000000000 DUP2 MSTORE PUSH1 0x4 ADD PUSH2 0xCD8 SWAP2 SWAP1 PUSH2 0x498A JUMP JUMPDEST PUSH1 0x40 MLOAD DUP1 SWAP2 SUB SWAP1 REVERT JUMPDEST PUSH1 0x40 MLOAD DUP1 PUSH1 0x80 ADD PUSH1 0x40 MSTORE DUP1 DUP3 DUP2 MSTORE PUSH1 0x20 ADD PUSH0 PUSH20 0xFFFFFFFFFFFFFFFFFFFFFFFFFFFFFFFFFFFFFFFF AND DUP2 MSTORE PUSH1 0x20 ADD PUSH3 0x15180 TIMESTAMP PUSH2 0xD1D SWAP2 SWAP1 PUSH2 0x4F52 JUMP JUMPDEST DUP2 MSTORE PUSH1 0x20 ADD PUSH1 0x1 ISZERO ISZERO DUP2 MSTORE POP PUSH1 0x7 PUSH0 DUP3 ADD MLOAD DUP2 PUSH0 ADD SSTORE PUSH1 0x20 DUP3 ADD MLOAD DUP2 PUSH1 0x1 ADD PUSH0 PUSH2 0x100 EXP DUP2 SLOAD DUP2 PUSH20 0xFFFFFFFFFFFFFFFFFFFFFFFFFFFFFFFFFFFFFFFF MUL NOT AND SWAP1 DUP4 PUSH20 0xFFFFFFFFFFFFFFFFFFFFFFFFFFFFFFFFFFFFFFFF AND MUL OR SWAP1 SSTORE POP PUSH1 0x40 DUP3 ADD MLOAD DUP2 PUSH1 0x2 ADD SSTORE PUSH1 0x60 DUP3 ADD MLOAD DUP2 PUSH1 0x3 ADD PUSH0 PUSH2 0x100 EXP DUP2 SLOAD DUP2 PUSH1 0xFF MUL NOT AND SWAP1 DUP4 ISZERO ISZERO MUL OR SWAP1 SSTORE POP SWAP1 POP POP PUSH32 0x64BFB855BE199DE2D0DFD918E58E6539A39398B7FC47B28312E94805B0F54D09 DUP2 PUSH3 0x15180 TIMESTAMP PUSH2 0xDD6 SWAP2 SWAP1 PUSH2 0x4F52 JUMP JUMPDEST PUSH1 0x40 MLOAD PUSH2 0xDE4 SWAP3 SWAP2 SWAP1 PUSH2 0x4F85 JUMP JUMPDEST PUSH1 0x40 MLOAD DUP1 SWAP2 SUB SWAP1 LOG1 POP JUMP JUMPDEST PUSH1 0x60 PUSH1 0x44 DUP1 SLOAD PUSH2 0xDFE SWAP1 PUSH2 0x4FD9 JUMP JUMPDEST DUP1 PUSH1 0x1F ADD PUSH1 0x20 DUP1 SWAP2 DIV MUL PUSH1 0x20 ADD PUSH1 0x40 MLOAD SWAP1 DUP2 ADD PUSH1 0x40 MSTORE DUP1 SWAP3 SWAP2 SWAP1 DUP2 DUP2 MSTORE PUSH1 0x20 ADD DUP3 DUP1 SLOAD PUSH2 0xE2A SWAP1 PUSH2 0x4FD9 JUMP JUMPDEST DUP1 ISZERO PUSH2 0xE75 JUMPI DUP1 PUSH1 0x1F LT PUSH2 0xE4C JUMPI PUSH2 0x100 DUP1 DUP4 SLOAD DIV MUL DUP4 MSTORE SWAP2 PUSH1 0x20 ADD SWAP2 PUSH2 0xE75 JUMP JUMPDEST DUP3 ADD SWAP2 SWAP1 PUSH0 MSTORE PUSH1 0x20 PUSH0 KECCAK256 SWAP1 JUMPDEST DUP2 SLOAD DUP2 MSTORE SWAP1 PUSH1 0x1 ADD SWAP1 PUSH1 0x20 ADD DUP1 DUP4 GT PUSH2 0xE58 JUMPI DUP3 SWAP1 SUB PUSH1 0x1F AND DUP3 ADD SWAP2 JUMPDEST POP POP POP POP POP SWAP1 POP SWAP1 JUMP JUMPDEST PUSH0 PUSH0 PUSH2 0xE89 PUSH2 0x2D55 JUMP JUMPDEST SWAP1 POP PUSH0 PUSH2 0xE96 DUP3 DUP7 PUSH2 0x2B53 JUMP JUMPDEST SWAP1 POP PUSH0 DUP2 EQ ISZERO DUP1 ISZERO PUSH2 0xEA8 JUMPI POP PUSH0 DUP5 EQ ISZERO JUMPDEST ISZERO PUSH2 0xEDF JUMPI PUSH1 0x40 MLOAD PUSH32 0x52E8549800000000000000000000000000000000000000000000000000000000 DUP2 MSTORE PUSH1 0x4 ADD PUSH1 0x40 MLOAD DUP1 SWAP2 SUB SWAP1 REVERT JUMPDEST PUSH2 0xEEA DUP3 DUP7 DUP7 PUSH2 0x2D5C JUMP JUMPDEST PUSH1 0x1 SWAP3 POP POP POP SWAP3 SWAP2 POP POP JUMP JUMPDEST PUSH2 0xEFE PUSH2 0x2CCE JUMP JUMPDEST PUSH2 0xF06 PUSH2 0x2D6E JUMP JUMPDEST PUSH0 PUSH20 0xFFFFFFFFFFFFFFFFFFFFFFFFFFFFFFFFFFFFFFFF AND DUP3 PUSH20 0xFFFFFFFFFFFFFFFFFFFFFFFFFFFFFFFFFFFFFFFF AND SUB PUSH2 0xF6B JUMPI PUSH1 0x40 MLOAD PUSH32 0xE6C4247B00000000000000000000000000000000000000000000000000000000 DUP2 MSTORE PUSH1 0x4 ADD PUSH1 0x40 MLOAD DUP1 SWAP2 SUB SWAP1 REVERT JUMPDEST PUSH0 DUP2 EQ DUP1 PUSH2 0xF78 JUMPI POP SELFBALANCE DUP2 GT JUMPDEST ISZERO PUSH2 0xFAF JUMPI PUSH1 0x40 MLOAD PUSH32 0x2C5211C600000000000000000000000000000000000000000000000000000000 DUP2 MSTORE PUSH1 0x4 ADD PUSH1 0x40 MLOAD DUP1 SWAP2 SUB SWAP1 REVERT JUMPDEST PUSH0 DUP3 PUSH20 0xFFFFFFFFFFFFFFFFFFFFFFFFFFFFFFFFFFFFFFFF AND DUP3 PUSH1 0x40 MLOAD PUSH2 0xFD4 SWAP1 PUSH2 0x5036 JUMP JUMPDEST PUSH0 PUSH1 0x40 MLOAD DUP1 DUP4 SUB DUP2 DUP6 DUP8 GAS CALL SWAP3 POP POP POP RETURNDATASIZE DUP1 PUSH0 DUP2 EQ PUSH2 0x100E JUMPI PUSH1 0x40 MLOAD SWAP2 POP PUSH1 0x1F NOT PUSH1 0x3F RETURNDATASIZE ADD AND DUP3 ADD PUSH1 0x40 MSTORE RETURNDATASIZE DUP3 MSTORE RETURNDATASIZE PUSH0 PUSH1 0x20 DUP5 ADD RETURNDATACOPY PUSH2 0x1013 JUMP JUMPDEST PUSH1 0x60 SWAP2 POP JUMPDEST POP POP SWAP1 POP DUP1 PUSH2 0x1057 JUMPI PUSH1 0x40 MLOAD PUSH32 0x8C379A000000000000000000000000000000000000000000000000000000000 DUP2 MSTORE PUSH1 0x4 ADD PUSH2 0x104E SWAP1 PUSH2 0x5094 JUMP JUMPDEST PUSH1 0x40 MLOAD DUP1 SWAP2 SUB SWAP1 REVERT JUMPDEST POP PUSH2 0x1060 PUSH2 0x2DB4 JUMP JUMPDEST POP POP JUMP JUMPDEST PUSH1 0x7 DUP1 PUSH0 ADD SLOAD SWAP1 DUP1 PUSH1 0x1 ADD PUSH0 SWAP1 SLOAD SWAP1 PUSH2 0x100 EXP SWAP1 DIV PUSH20 0xFFFFFFFFFFFFFFFFFFFFFFFFFFFFFFFFFFFFFFFF AND SWAP1 DUP1 PUSH1 0x2 ADD SLOAD SWAP1 DUP1 PUSH1 0x3 ADD PUSH0 SWAP1 SLOAD SWAP1 PUSH2 0x100 EXP SWAP1 DIV PUSH1 0xFF AND SWAP1 POP DUP5 JUMP JUMPDEST PUSH2 0x10B4 PUSH2 0x2CCE JUMP JUMPDEST PUSH0 DUP2 SUB PUSH2 0x10ED JUMPI PUSH1 0x40 MLOAD PUSH32 0x2C5211C600000000000000000000000000000000000000000000000000000000 DUP2 MSTORE PUSH1 0x4 ADD PUSH1 0x40 MLOAD DUP1 SWAP2 SUB SWAP1 REVERT JUMPDEST PUSH1 0x40 MLOAD DUP1 PUSH1 0x80 ADD PUSH1 0x40 MSTORE DUP1 DUP3 DUP2 MSTORE PUSH1 0x20 ADD PUSH0 PUSH20 0xFFFFFFFFFFFFFFFFFFFFFFFFFFFFFFFFFFFFFFFF AND DUP2 MSTORE PUSH1 0x20 ADD PUSH3 0x15180 TIMESTAMP PUSH2 0x1129 SWAP2 SWAP1 PUSH2 0x4F52 JUMP JUMPDEST DUP2 MSTORE PUSH1 0x20 ADD PUSH1 0x1 ISZERO ISZERO DUP2 MSTORE POP PUSH1 0xB PUSH0 DUP3 ADD MLOAD DUP2 PUSH0 ADD SSTORE PUSH1 0x20 DUP3 ADD MLOAD DUP2 PUSH1 0x1 ADD PUSH0 PUSH2 0x100 EXP DUP2 SLOAD DUP2 PUSH20 0xFFFFFFFFFFFFFFFFFFFFFFFFFFFFFFFFFFFFFFFF MUL NOT AND SWAP1 DUP4 PUSH20 0xFFFFFFFFFFFFFFFFFFFFFFFFFFFFFFFFFFFFFFFF AND MUL OR SWAP1 SSTORE POP PUSH1 0x40 DUP3 ADD MLOAD DUP2 PUSH1 0x2 ADD SSTORE PUSH1 0x60 DUP3 ADD MLOAD DUP2 PUSH1 0x3 ADD PUSH0 PUSH2 0x100 EXP DUP2 SLOAD DUP2 PUSH1 0xFF MUL NOT AND SWAP1 DUP4 ISZERO ISZERO MUL OR SWAP1 SSTORE POP SWAP1 POP POP PUSH32 0x6A239F868FCA1FEB2785591A74767FE999BA17BEFEDC673187EC9681E7973C06 DUP2 PUSH3 0x15180 TIMESTAMP PUSH2 0x11E2 SWAP2 SWAP1 PUSH2 0x4F52 JUMP JUMPDEST PUSH1 0x40 MLOAD PUSH2 0x11F0 SWAP3 SWAP2 SWAP1 PUSH2 0x4F85 JUMP JUMPDEST PUSH1 0x40 MLOAD DUP1 SWAP2 SUB SWAP1 LOG1 POP JUMP JUMPDEST PUSH2 0x1203 PUSH2 0x2CCE JUMP JUMPDEST PUSH1 0xB PUSH1 0x3 ADD PUSH0 SWAP1 SLOAD SWAP1 PUSH2 0x100 EXP SWAP1 DIV PUSH1 0xFF AND PUSH2 0x124B JUMPI PUSH1 0x40 MLOAD PUSH32 0x259FAA2C00000000000000000000000000000000000000000000000000000000 DUP2 MSTORE PUSH1 0x4 ADD PUSH1 0x40 MLOAD DUP1 SWAP2 SUB SWAP1 REVERT JUMPDEST PUSH1 0xB PUSH0 PUSH0 DUP3 ADD PUSH0 SWAP1 SSTORE PUSH1 0x1 DUP3 ADD PUSH0 PUSH2 0x100 EXP DUP2 SLOAD SWAP1 PUSH20 0xFFFFFFFFFFFFFFFFFFFFFFFFFFFFFFFFFFFFFFFF MUL NOT AND SWAP1 SSTORE PUSH1 0x2 DUP3 ADD PUSH0 SWAP1 SSTORE PUSH1 0x3 DUP3 ADD PUSH0 PUSH2 0x100 EXP DUP2 SLOAD SWAP1 PUSH1 0xFF MUL NOT AND SWAP1 SSTORE POP POP PUSH32 0xB5AB2BBA66254976C098D63BFDE60E058DADFFE9F19D46425AA84D89A61412D2 PUSH1 0x40 MLOAD PUSH2 0x12C3 SWAP1 PUSH2 0x50FC JUMP JUMPDEST PUSH1 0x40 MLOAD DUP1 SWAP2 SUB SWAP1 LOG1 JUMP JUMPDEST PUSH0 PUSH1 0x43 SLOAD SWAP1 POP SWAP1 JUMP JUMPDEST PUSH0 PUSH0 PUSH2 0x12E0 PUSH2 0x2D55 JUMP JUMPDEST SWAP1 POP PUSH2 0x12ED DUP6 DUP3 DUP6 PUSH2 0x2DBE JUMP JUMPDEST PUSH2 0x12F8 DUP6 DUP6 DUP6 PUSH2 0x2E51 JUMP JUMPDEST PUSH1 0x1 SWAP2 POP POP SWAP4 SWAP3 POP POP POP JUMP JUMPDEST PUSH0 PUSH1 0x12 SWAP1 POP SWAP1 JUMP JUMPDEST PUSH0 PUSH2 0x1315 PUSH2 0x2F41 JUMP JUMPDEST SWAP1 POP SWAP1 JUMP JUMPDEST PUSH0 PUSH0 PUSH2 0x1324 PUSH2 0x2D55 JUMP JUMPDEST SWAP1 POP PUSH2 0x1345 DUP2 DUP6 DUP6 PUSH2 0x1336 DUP6 DUP10 PUSH2 0x2B53 JUMP JUMPDEST PUSH2 0x1340 SWAP2 SWAP1 PUSH2 0x4F52 JUMP JUMPDEST PUSH2 0x2D5C JUMP JUMPDEST PUSH1 0x1 SWAP2 POP POP SWAP3 SWAP2 POP POP JUMP JUMPDEST PUSH2 0x1358 PUSH2 0x2CCE JUMP JUMPDEST PUSH2 0x1360 PUSH2 0x2FF7 JUMP JUMPDEST JUMP JUMPDEST PUSH2 0x136A PUSH2 0x2CCE JUMP JUMPDEST PUSH2 0x1372 PUSH2 0x2D6E JUMP JUMPDEST PUSH0 PUSH20 0xFFFFFFFFFFFFFFFFFFFFFFFFFFFFFFFFFFFFFFFF AND DUP3 PUSH20 0xFFFFFFFFFFFFFFFFFFFFFFFFFFFFFFFFFFFFFFFF AND SUB PUSH2 0x13D7 JUMPI PUSH1 0x40 MLOAD PUSH32 0xE6C4247B00000000000000000000000000000000000000000000000000000000 DUP2 MSTORE PUSH1 0x4 ADD PUSH1 0x40 MLOAD DUP1 SWAP2 SUB SWAP1 REVERT JUMPDEST PUSH0 DUP2 SUB PUSH2 0x1410 JUMPI PUSH1 0x40 MLOAD PUSH32 0x2C5211C600000000000000000000000000000000000000000000000000000000 DUP2 MSTORE PUSH1 0x4 ADD PUSH1 0x40 MLOAD DUP1 SWAP2 SUB SWAP1 REVERT JUMPDEST PUSH2 0x141A DUP3 DUP3 PUSH2 0x3001 JUMP JUMPDEST DUP2 PUSH20 0xFFFFFFFFFFFFFFFFFFFFFFFFFFFFFFFFFFFFFFFF AND PUSH32 0x3F2C9D57C068687834F0DE942A9BABB9E5ACAB57D516D3480A3C16EE165A4273 DUP3 PUSH1 0x40 MLOAD PUSH2 0x1460 SWAP2 SWAP1 PUSH2 0x498A JUMP JUMPDEST PUSH1 0x40 MLOAD DUP1 SWAP2 SUB SWAP1 LOG2 PUSH2 0x1470 PUSH2 0x2DB4 JUMP JUMPDEST POP POP JUMP JUMPDEST PUSH2 0x1485 PUSH2 0x147F PUSH2 0x2D55 JUMP JUMPDEST DUP3 PUSH2 0x300F JUMP JUMPDEST POP JUMP JUMPDEST PUSH2 0x1490 PUSH2 0x2CCE JUMP JUMPDEST PUSH2 0x1498 PUSH2 0x1DEE JUMP JUMPDEST PUSH20 0xFFFFFFFFFFFFFFFFFFFFFFFFFFFFFFFFFFFFFFFF AND DUP2 PUSH20 0xFFFFFFFFFFFFFFFFFFFFFFFFFFFFFFFFFFFFFFFF AND SUB PUSH2 0x14FC JUMPI PUSH1 0x40 MLOAD PUSH32 0xE6E791C400000000000000000000000000000000000000000000000000000000 DUP2 MSTORE PUSH1 0x4 ADD PUSH1 0x40 MLOAD DUP1 SWAP2 SUB SWAP1 REVERT JUMPDEST PUSH1 0x3 PUSH0 DUP3 PUSH20 0xFFFFFFFFFFFFFFFFFFFFFFFFFFFFFFFFFFFFFFFF AND PUSH20 0xFFFFFFFFFFFFFFFFFFFFFFFFFFFFFFFFFFFFFFFF AND DUP2 MSTORE PUSH1 0x20 ADD SWAP1 DUP2 MSTORE PUSH1 0x20 ADD PUSH0 KECCAK256 PUSH0 SWAP1 SLOAD SWAP1 PUSH2 0x100 EXP SWAP1 DIV PUSH1 0xFF AND ISZERO PUSH2 0x1588 JUMPI DUP1 PUSH1 0x40 MLOAD PUSH32 0x571F7B4900000000000000000000000000000000000000000000000000000000 DUP2 MSTORE PUSH1 0x4 ADD PUSH2 0x157F SWAP2 SWAP1 PUSH2 0x4D92 JUMP JUMPDEST PUSH1 0x40 MLOAD DUP1 SWAP2 SUB SWAP1 REVERT JUMPDEST PUSH1 0x1 PUSH1 0x3 PUSH0 DUP4 PUSH20 0xFFFFFFFFFFFFFFFFFFFFFFFFFFFFFFFFFFFFFFFF AND PUSH20 0xFFFFFFFFFFFFFFFFFFFFFFFFFFFFFFFFFFFFFFFF AND DUP2 MSTORE PUSH1 0x20 ADD SWAP1 DUP2 MSTORE PUSH1 0x20 ADD PUSH0 KECCAK256 PUSH0 PUSH2 0x100 EXP DUP2 SLOAD DUP2 PUSH1 0xFF MUL NOT AND SWAP1 DUP4 ISZERO ISZERO MUL OR SWAP1 SSTORE POP DUP1 PUSH20 0xFFFFFFFFFFFFFFFFFFFFFFFFFFFFFFFFFFFFFFFF AND PUSH32 0xFFA4E6181777692565CF28528FC88FD1516EA86B56DA075235FA575AF6A4B855 PUSH1 0x40 MLOAD PUSH1 0x40 MLOAD DUP1 SWAP2 SUB SWAP1 LOG2 POP JUMP JUMPDEST PUSH3 0x15180 DUP2 JUMP JUMPDEST PUSH0 PUSH0 PUSH0 PUSH2 0x1673 DUP5 PUSH1 0x4E PUSH0 DUP9 PUSH20 0xFFFFFFFFFFFFFFFFFFFFFFFFFFFFFFFFFFFFFFFF AND PUSH20 0xFFFFFFFFFFFFFFFFFFFFFFFFFFFFFFFFFFFFFFFF AND DUP2 MSTORE PUSH1 0x20 ADD SWAP1 DUP2 MSTORE PUSH1 0x20 ADD PUSH0 KECCAK256 PUSH2 0x308E JUMP JUMPDEST SWAP2 POP SWAP2 POP DUP2 PUSH2 0x168A JUMPI PUSH2 0x1685 DUP6 PUSH2 0x1C1A JUMP JUMPDEST PUSH2 0x168C JUMP JUMPDEST DUP1 JUMPDEST SWAP3 POP POP POP SWAP3 SWAP2 POP POP JUMP JUMPDEST PUSH2 0x169E PUSH2 0x2CCE JUMP JUMPDEST PUSH1 0x3 PUSH0 DUP3 PUSH20 0xFFFFFFFFFFFFFFFFFFFFFFFFFFFFFFFFFFFFFFFF AND PUSH20 0xFFFFFFFFFFFFFFFFFFFFFFFFFFFFFFFFFFFFFFFF AND DUP2 MSTORE PUSH1 0x20 ADD SWAP1 DUP2 MSTORE PUSH1 0x20 ADD PUSH0 KECCAK256 PUSH0 SWAP1 SLOAD SWAP1 PUSH2 0x100 EXP SWAP1 DIV PUSH1 0xFF AND PUSH2 0x1729 JUMPI DUP1 PUSH1 0x40 MLOAD PUSH32 0xE0B7A22800000000000000000000000000000000000000000000000000000000 DUP2 MSTORE PUSH1 0x4 ADD PUSH2 0x1720 SWAP2 SWAP1 PUSH2 0x4D92 JUMP JUMPDEST PUSH1 0x40 MLOAD DUP1 SWAP2 SUB SWAP1 REVERT JUMPDEST PUSH0 PUSH1 0x3 PUSH0 DUP4 PUSH20 0xFFFFFFFFFFFFFFFFFFFFFFFFFFFFFFFFFFFFFFFF AND PUSH20 0xFFFFFFFFFFFFFFFFFFFFFFFFFFFFFFFFFFFFFFFF AND DUP2 MSTORE PUSH1 0x20 ADD SWAP1 DUP2 MSTORE PUSH1 0x20 ADD PUSH0 KECCAK256 PUSH0 PUSH2 0x100 EXP DUP2 SLOAD DUP2 PUSH1 0xFF MUL NOT AND SWAP1 DUP4 ISZERO ISZERO MUL OR SWAP1 SSTORE POP DUP1 PUSH20 0xFFFFFFFFFFFFFFFFFFFFFFFFFFFFFFFFFFFFFFFF AND PUSH32 0x117E3210BB9AA7D9BAFF172026820255C6F6C30BA8999D1C2FD88E2848137C4E PUSH1 0x40 MLOAD PUSH1 0x40 MLOAD DUP1 SWAP2 SUB SWAP1 LOG2 POP JUMP JUMPDEST PUSH2 0x17CB PUSH2 0x2CCE JUMP JUMPDEST PUSH1 0x7 PUSH1 0x3 ADD PUSH0 SWAP1 SLOAD SWAP1 PUSH2 0x100 EXP SWAP1 DIV PUSH1 0xFF AND PUSH2 0x1813 JUMPI PUSH1 0x40 MLOAD PUSH32 0x259FAA2C00000000000000000000000000000000000000000000000000000000 DUP2 MSTORE PUSH1 0x4 ADD PUSH1 0x40 MLOAD DUP1 SWAP2 SUB SWAP1 REVERT JUMPDEST PUSH1 0x7 PUSH0 PUSH0 DUP3 ADD PUSH0 SWAP1 SSTORE PUSH1 0x1 DUP3 ADD PUSH0 PUSH2 0x100 EXP DUP2 SLOAD SWAP1 PUSH20 0xFFFFFFFFFFFFFFFFFFFFFFFFFFFFFFFFFFFFFFFF MUL NOT AND SWAP1 SSTORE PUSH1 0x2 DUP3 ADD PUSH0 SWAP1 SSTORE PUSH1 0x3 DUP3 ADD PUSH0 PUSH2 0x100 EXP DUP2 SLOAD SWAP1 PUSH1 0xFF MUL NOT AND SWAP1 SSTORE POP POP PUSH32 0xB5AB2BBA66254976C098D63BFDE60E058DADFFE9F19D46425AA84D89A61412D2 PUSH1 0x40 MLOAD PUSH2 0x188B SWAP1 PUSH2 0x5164 JUMP JUMPDEST PUSH1 0x40 MLOAD DUP1 SWAP2 SUB SWAP1 LOG1 JUMP JUMPDEST PUSH0 PUSH1 0x46 PUSH0 SWAP1 SLOAD SWAP1 PUSH2 0x100 EXP SWAP1 DIV PUSH1 0xFF AND SWAP1 POP SWAP1 JUMP JUMPDEST PUSH2 0x18B2 PUSH2 0x2CCE JUMP JUMPDEST DUP1 ISZERO ISZERO PUSH1 0x5 PUSH0 DUP5 PUSH20 0xFFFFFFFFFFFFFFFFFFFFFFFFFFFFFFFFFFFFFFFF AND PUSH20 0xFFFFFFFFFFFFFFFFFFFFFFFFFFFFFFFFFFFFFFFF AND DUP2 MSTORE PUSH1 0x20 ADD SWAP1 DUP2 MSTORE PUSH1 0x20 ADD PUSH0 KECCAK256 PUSH0 SWAP1 SLOAD SWAP1 PUSH2 0x100 EXP SWAP1 DIV PUSH1 0xFF AND ISZERO ISZERO SUB PUSH2 0x1938 JUMPI PUSH1 0x40 MLOAD PUSH32 0x8617982100000000000000000000000000000000000000000000000000000000 DUP2 MSTORE PUSH1 0x4 ADD PUSH1 0x40 MLOAD DUP1 SWAP2 SUB SWAP1 REVERT JUMPDEST DUP1 PUSH1 0x5 PUSH0 DUP5 PUSH20 0xFFFFFFFFFFFFFFFFFFFFFFFFFFFFFFFFFFFFFFFF AND PUSH20 0xFFFFFFFFFFFFFFFFFFFFFFFFFFFFFFFFFFFFFFFF AND DUP2 MSTORE PUSH1 0x20 ADD SWAP1 DUP2 MSTORE PUSH1 0x20 ADD PUSH0 KECCAK256 PUSH0 PUSH2 0x100 EXP DUP2 SLOAD DUP2 PUSH1 0xFF MUL NOT AND SWAP1 DUP4 ISZERO ISZERO MUL OR SWAP1 SSTORE POP POP POP JUMP JUMPDEST PUSH2 0x1998 PUSH2 0x2CCE JUMP JUMPDEST PUSH2 0x19A0 PUSH2 0x2D6E JUMP JUMPDEST DUP2 DUP2 SWAP1 POP DUP5 DUP5 SWAP1 POP EQ PUSH2 0x19DF JUMPI PUSH1 0x40 MLOAD PUSH32 0xA24A13A600000000000000000000000000000000000000000000000000000000 DUP2 MSTORE PUSH1 0x4 ADD PUSH1 0x40 MLOAD DUP1 SWAP2 SUB SWAP1 REVERT JUMPDEST PUSH0 DUP5 DUP5 SWAP1 POP EQ DUP1 PUSH2 0x19F3 JUMPI POP PUSH1 0xC8 DUP5 DUP5 SWAP1 POP GT JUMPDEST ISZERO PUSH2 0x1A38 JUMPI DUP4 DUP4 SWAP1 POP PUSH1 0x40 MLOAD PUSH32 0xE0F549DA00000000000000000000000000000000000000000000000000000000 DUP2 MSTORE PUSH1 0x4 ADD PUSH2 0x1A2F SWAP2 SWAP1 PUSH2 0x498A JUMP JUMPDEST PUSH1 0x40 MLOAD DUP1 SWAP2 SUB SWAP1 REVERT JUMPDEST PUSH0 PUSH0 SWAP1 POP JUMPDEST DUP5 DUP5 SWAP1 POP DUP2 LT ISZERO PUSH2 0x1C0B JUMPI PUSH0 PUSH20 0xFFFFFFFFFFFFFFFFFFFFFFFFFFFFFFFFFFFFFFFF AND DUP6 DUP6 DUP4 DUP2 DUP2 LT PUSH2 0x1A72 JUMPI PUSH2 0x1A71 PUSH2 0x5182 JUMP JUMPDEST JUMPDEST SWAP1 POP PUSH1 0x20 MUL ADD PUSH1 0x20 DUP2 ADD SWAP1 PUSH2 0x1A87 SWAP2 SWAP1 PUSH2 0x4A58 JUMP JUMPDEST PUSH20 0xFFFFFFFFFFFFFFFFFFFFFFFFFFFFFFFFFFFFFFFF AND SUB PUSH2 0x1AD4 JUMPI PUSH1 0x40 MLOAD PUSH32 0xE6C4247B00000000000000000000000000000000000000000000000000000000 DUP2 MSTORE PUSH1 0x4 ADD PUSH1 0x40 MLOAD DUP1 SWAP2 SUB SWAP1 REVERT JUMPDEST PUSH0 DUP4 DUP4 DUP4 DUP2 DUP2 LT PUSH2 0x1AE8 JUMPI PUSH2 0x1AE7 PUSH2 0x5182 JUMP JUMPDEST JUMPDEST SWAP1 POP PUSH1 0x20 MUL ADD CALLDATALOAD SUB PUSH2 0x1B26 JUMPI PUSH1 0x40 MLOAD PUSH32 0x2C5211C600000000000000000000000000000000000000000000000000000000 DUP2 MSTORE PUSH1 0x4 ADD PUSH1 0x40 MLOAD DUP1 SWAP2 SUB SWAP1 REVERT JUMPDEST PUSH2 0x1B70 DUP6 DUP6 DUP4 DUP2 DUP2 LT PUSH2 0x1B3C JUMPI PUSH2 0x1B3B PUSH2 0x5182 JUMP JUMPDEST JUMPDEST SWAP1 POP PUSH1 0x20 MUL ADD PUSH1 0x20 DUP2 ADD SWAP1 PUSH2 0x1B51 SWAP2 SWAP1 PUSH2 0x4A58 JUMP JUMPDEST DUP5 DUP5 DUP5 DUP2 DUP2 LT PUSH2 0x1B64 JUMPI PUSH2 0x1B63 PUSH2 0x5182 JUMP JUMPDEST JUMPDEST SWAP1 POP PUSH1 0x20 MUL ADD CALLDATALOAD PUSH2 0x3001 JUMP JUMPDEST DUP5 DUP5 DUP3 DUP2 DUP2 LT PUSH2 0x1B83 JUMPI PUSH2 0x1B82 PUSH2 0x5182 JUMP JUMPDEST JUMPDEST SWAP1 POP PUSH1 0x20 MUL ADD PUSH1 0x20 DUP2 ADD SWAP1 PUSH2 0x1B98 SWAP2 SWAP1 PUSH2 0x4A58 JUMP JUMPDEST PUSH20 0xFFFFFFFFFFFFFFFFFFFFFFFFFFFFFFFFFFFFFFFF AND PUSH32 0x3F2C9D57C068687834F0DE942A9BABB9E5ACAB57D516D3480A3C16EE165A4273 DUP5 DUP5 DUP5 DUP2 DUP2 LT PUSH2 0x1BE2 JUMPI PUSH2 0x1BE1 PUSH2 0x5182 JUMP JUMPDEST JUMPDEST SWAP1 POP PUSH1 0x20 MUL ADD CALLDATALOAD PUSH1 0x40 MLOAD PUSH2 0x1BF6 SWAP2 SWAP1 PUSH2 0x498A JUMP JUMPDEST PUSH1 0x40 MLOAD DUP1 SWAP2 SUB SWAP1 LOG2 DUP1 DUP1 PUSH1 0x1 ADD SWAP2 POP POP PUSH2 0x1A3D JUMP JUMPDEST POP PUSH2 0x1C14 PUSH2 0x2DB4 JUMP JUMPDEST POP POP POP POP JUMP JUMPDEST PUSH0 PUSH1 0x41 PUSH0 DUP4 PUSH20 0xFFFFFFFFFFFFFFFFFFFFFFFFFFFFFFFFFFFFFFFF AND PUSH20 0xFFFFFFFFFFFFFFFFFFFFFFFFFFFFFFFFFFFFFFFF AND DUP2 MSTORE PUSH1 0x20 ADD SWAP1 DUP2 MSTORE PUSH1 0x20 ADD PUSH0 KECCAK256 SLOAD SWAP1 POP SWAP2 SWAP1 POP JUMP JUMPDEST PUSH2 0x1C68 PUSH2 0x2CCE JUMP JUMPDEST PUSH2 0x1C71 PUSH0 PUSH2 0x3176 JUMP JUMPDEST JUMP JUMPDEST PUSH0 SLOAD DUP2 JUMP JUMPDEST PUSH0 PUSH2 0x1C81 PUSH2 0x2D55 JUMP JUMPDEST SWAP1 POP DUP1 PUSH20 0xFFFFFFFFFFFFFFFFFFFFFFFFFFFFFFFFFFFFFFFF AND PUSH2 0x1CA2 PUSH2 0x2BD5 JUMP JUMPDEST PUSH20 0xFFFFFFFFFFFFFFFFFFFFFFFFFFFFFFFFFFFFFFFF AND EQ PUSH2 0x1CFA JUMPI DUP1 PUSH1 0x40 MLOAD PUSH32 0x118CDAA700000000000000000000000000000000000000000000000000000000 DUP2 MSTORE PUSH1 0x4 ADD PUSH2 0x1CF1 SWAP2 SWAP1 PUSH2 0x4D92 JUMP JUMPDEST PUSH1 0x40 MLOAD DUP1 SWAP2 SUB SWAP1 REVERT JUMPDEST PUSH2 0x1D03 DUP2 PUSH2 0x3176 JUMP JUMPDEST POP JUMP JUMPDEST PUSH2 0x1D18 DUP3 PUSH2 0x1D12 PUSH2 0x2D55 JUMP JUMPDEST DUP4 PUSH2 0x2DBE JUMP JUMPDEST PUSH2 0x1D22 DUP3 DUP3 PUSH2 0x300F JUMP JUMPDEST POP POP JUMP JUMPDEST PUSH0 PUSH2 0x1D30 DUP3 PUSH2 0x31A6 JUMP JUMPDEST SWAP1 POP SWAP2 SWAP1 POP JUMP JUMPDEST PUSH2 0x1D3F PUSH2 0x2CCE JUMP JUMPDEST PUSH2 0x1D47 PUSH2 0x31EC JUMP JUMPDEST JUMP JUMPDEST PUSH0 PUSH1 0x60 DUP1 PUSH0 PUSH0 PUSH0 PUSH1 0x60 PUSH2 0x1D5A PUSH2 0x31F6 JUMP JUMPDEST PUSH2 0x1D62 PUSH2 0x3231 JUMP JUMPDEST CHAINID ADDRESS PUSH0 PUSH0 SHL PUSH0 PUSH8 0xFFFFFFFFFFFFFFFF DUP2 GT ISZERO PUSH2 0x1D81 JUMPI PUSH2 0x1D80 PUSH2 0x51AF JUMP JUMPDEST JUMPDEST PUSH1 0x40 MLOAD SWAP1 DUP1 DUP3 MSTORE DUP1 PUSH1 0x20 MUL PUSH1 0x20 ADD DUP3 ADD PUSH1 0x40 MSTORE DUP1 ISZERO PUSH2 0x1DAF JUMPI DUP2 PUSH1 0x20 ADD PUSH1 0x20 DUP3 MUL DUP1 CALLDATASIZE DUP4 CALLDATACOPY DUP1 DUP3 ADD SWAP2 POP POP SWAP1 POP JUMPDEST POP PUSH32 0xF00000000000000000000000000000000000000000000000000000000000000 SWAP6 SWAP5 SWAP4 SWAP3 SWAP2 SWAP1 SWAP7 POP SWAP7 POP SWAP7 POP SWAP7 POP SWAP7 POP SWAP7 POP SWAP7 POP SWAP1 SWAP2 SWAP3 SWAP4 SWAP5 SWAP6 SWAP7 JUMP JUMPDEST PUSH0 PUSH1 0x4A PUSH0 SWAP1 SLOAD SWAP1 PUSH2 0x100 EXP SWAP1 DIV PUSH20 0xFFFFFFFFFFFFFFFFFFFFFFFFFFFFFFFFFFFFFFFF AND SWAP1 POP SWAP1 JUMP JUMPDEST PUSH2 0x3E8 DUP2 JUMP JUMPDEST PUSH1 0x5 PUSH1 0x20 MSTORE DUP1 PUSH0 MSTORE PUSH1 0x40 PUSH0 KECCAK256 PUSH0 SWAP2 POP SLOAD SWAP1 PUSH2 0x100 EXP SWAP1 DIV PUSH1 0xFF AND DUP2 JUMP JUMPDEST PUSH1 0x60 PUSH1 0x45 DUP1 SLOAD PUSH2 0x1E48 SWAP1 PUSH2 0x4FD9 JUMP JUMPDEST DUP1 PUSH1 0x1F ADD PUSH1 0x20 DUP1 SWAP2 DIV MUL PUSH1 0x20 ADD PUSH1 0x40 MLOAD SWAP1 DUP2 ADD PUSH1 0x40 MSTORE DUP1 SWAP3 SWAP2 SWAP1 DUP2 DUP2 MSTORE PUSH1 0x20 ADD DUP3 DUP1 SLOAD PUSH2 0x1E74 SWAP1 PUSH2 0x4FD9 JUMP JUMPDEST DUP1 ISZERO PUSH2 0x1EBF JUMPI DUP1 PUSH1 0x1F LT PUSH2 0x1E96 JUMPI PUSH2 0x100 DUP1 DUP4 SLOAD DIV MUL DUP4 MSTORE SWAP2 PUSH1 0x20 ADD SWAP2 PUSH2 0x1EBF JUMP JUMPDEST DUP3 ADD SWAP2 SWAP1 PUSH0 MSTORE PUSH1 0x20 PUSH0 KECCAK256 SWAP1 JUMPDEST DUP2 SLOAD DUP2 MSTORE SWAP1 PUSH1 0x1 ADD SWAP1 PUSH1 0x20 ADD DUP1 DUP4 GT PUSH2 0x1EA2 JUMPI DUP3 SWAP1 SUB PUSH1 0x1F AND DUP3 ADD SWAP2 JUMPDEST POP POP POP POP POP SWAP1 POP SWAP1 JUMP JUMPDEST PUSH0 PUSH2 0x1ED2 PUSH2 0x2CCE JUMP JUMPDEST PUSH2 0x1EDA PUSH2 0x326C JUMP JUMPDEST SWAP1 POP SWAP1 JUMP JUMPDEST PUSH0 PUSH0 PUSH0 PUSH2 0x1EED DUP5 PUSH1 0x4F PUSH2 0x308E JUMP JUMPDEST SWAP2 POP SWAP2 POP DUP2 PUSH2 0x1F03 JUMPI PUSH2 0x1EFE PUSH2 0x12CD JUMP JUMPDEST PUSH2 0x1F05 JUMP JUMPDEST DUP1 JUMPDEST SWAP3 POP POP POP SWAP2 SWAP1 POP JUMP JUMPDEST PUSH1 0x4 PUSH1 0x20 MSTORE DUP1 PUSH0 MSTORE PUSH1 0x40 PUSH0 KECCAK256 PUSH0 SWAP2 POP SLOAD SWAP1 PUSH2 0x100 EXP SWAP1 DIV PUSH1 0xFF AND DUP2 JUMP JUMPDEST PUSH0 PUSH0 PUSH2 0x1F35 PUSH2 0x2D55 JUMP JUMPDEST SWAP1 POP PUSH0 PUSH2 0x1F42 DUP3 DUP7 PUSH2 0x2B53 JUMP JUMPDEST SWAP1 POP DUP4 DUP2 LT ISZERO PUSH2 0x1F8D JUMPI DUP5 DUP2 DUP6 PUSH1 0x40 MLOAD PUSH32 0xFB8F41B200000000000000000000000000000000000000000000000000000000 DUP2 MSTORE PUSH1 0x4 ADD PUSH2 0x1F84 SWAP4 SWAP3 SWAP2 SWAP1 PUSH2 0x51DC JUMP JUMPDEST PUSH1 0x40 MLOAD DUP1 SWAP2 SUB SWAP1 REVERT JUMPDEST PUSH2 0x1F9A DUP3 DUP7 DUP7 DUP5 SUB PUSH2 0x2D5C JUMP JUMPDEST PUSH1 0x1 SWAP3 POP POP POP SWAP3 SWAP2 POP POP JUMP JUMPDEST PUSH0 PUSH0 PUSH2 0x1FB0 PUSH2 0x2D55 JUMP JUMPDEST SWAP1 POP PUSH2 0x1FBD DUP2 DUP6 DUP6 PUSH2 0x2E51 JUMP JUMPDEST PUSH1 0x1 SWAP2 POP POP SWAP3 SWAP2 POP POP JUMP JUMPDEST PUSH2 0x1FD0 PUSH2 0x2CCE JUMP JUMPDEST PUSH1 0xB PUSH1 0x3 ADD PUSH0 SWAP1 SLOAD SWAP1 PUSH2 0x100 EXP SWAP1 DIV PUSH1 0xFF AND PUSH2 0x2018 JUMPI PUSH1 0x40 MLOAD PUSH32 0x259FAA2C00000000000000000000000000000000000000000000000000000000 DUP2 MSTORE PUSH1 0x4 ADD PUSH1 0x40 MLOAD DUP1 SWAP2 SUB SWAP1 REVERT JUMPDEST PUSH1 0xB PUSH1 0x2 ADD SLOAD TIMESTAMP LT ISZERO PUSH2 0x2069 JUMPI TIMESTAMP PUSH1 0xB PUSH1 0x2 ADD SLOAD PUSH1 0x40 MLOAD PUSH32 0x24D6E9BA00000000000000000000000000000000000000000000000000000000 DUP2 MSTORE PUSH1 0x4 ADD PUSH2 0x2060 SWAP3 SWAP2 SWAP1 PUSH2 0x4F85 JUMP JUMPDEST PUSH1 0x40 MLOAD DUP1 SWAP2 SUB SWAP1 REVERT JUMPDEST PUSH0 PUSH1 0x2 SLOAD SWAP1 POP PUSH1 0xB PUSH0 ADD SLOAD PUSH1 0x2 DUP2 SWAP1 SSTORE POP PUSH1 0xB PUSH0 PUSH0 DUP3 ADD PUSH0 SWAP1 SSTORE PUSH1 0x1 DUP3 ADD PUSH0 PUSH2 0x100 EXP DUP2 SLOAD SWAP1 PUSH20 0xFFFFFFFFFFFFFFFFFFFFFFFFFFFFFFFFFFFFFFFF MUL NOT AND SWAP1 SSTORE PUSH1 0x2 DUP3 ADD PUSH0 SWAP1 SSTORE PUSH1 0x3 DUP3 ADD PUSH0 PUSH2 0x100 EXP DUP2 SLOAD SWAP1 PUSH1 0xFF MUL NOT AND SWAP1 SSTORE POP POP PUSH32 0xD40D861B6C61FB22040B4EB8DE22CC4C267673593FEF5C5880E2F55E75EF4548 DUP2 PUSH1 0x2 SLOAD PUSH1 0x40 MLOAD PUSH2 0x20F8 SWAP3 SWAP2 SWAP1 PUSH2 0x4F85 JUMP JUMPDEST PUSH1 0x40 MLOAD DUP1 SWAP2 SUB SWAP1 LOG1 POP JUMP JUMPDEST PUSH2 0x210B PUSH2 0x2CCE JUMP JUMPDEST PUSH1 0x7 PUSH1 0x3 ADD PUSH0 SWAP1 SLOAD SWAP1 PUSH2 0x100 EXP SWAP1 DIV PUSH1 0xFF AND PUSH2 0x2153 JUMPI PUSH1 0x40 MLOAD PUSH32 0x259FAA2C00000000000000000000000000000000000000000000000000000000 DUP2 MSTORE PUSH1 0x4 ADD PUSH1 0x40 MLOAD DUP1 SWAP2 SUB SWAP1 REVERT JUMPDEST PUSH1 0x7 PUSH1 0x2 ADD SLOAD TIMESTAMP LT ISZERO PUSH2 0x21A4 JUMPI TIMESTAMP PUSH1 0x7 PUSH1 0x2 ADD SLOAD PUSH1 0x40 MLOAD PUSH32 0x24D6E9BA00000000000000000000000000000000000000000000000000000000 DUP2 MSTORE PUSH1 0x4 ADD PUSH2 0x219B SWAP3 SWAP2 SWAP1 PUSH2 0x4F85 JUMP JUMPDEST PUSH1 0x40 MLOAD DUP1 SWAP2 SUB SWAP1 REVERT JUMPDEST PUSH0 PUSH0 SLOAD SWAP1 POP PUSH1 0x7 PUSH0 ADD SLOAD PUSH0 DUP2 SWAP1 SSTORE POP PUSH1 0x7 PUSH0 PUSH0 DUP3 ADD PUSH0 SWAP1 SSTORE PUSH1 0x1 DUP3 ADD PUSH0 PUSH2 0x100 EXP DUP2 SLOAD SWAP1 PUSH20 0xFFFFFFFFFFFFFFFFFFFFFFFFFFFFFFFFFFFFFFFF MUL NOT AND SWAP1 SSTORE PUSH1 0x2 DUP3 ADD PUSH0 SWAP1 SSTORE PUSH1 0x3 DUP3 ADD PUSH0 PUSH2 0x100 EXP DUP2 SLOAD SWAP1 PUSH1 0xFF MUL NOT AND SWAP1 SSTORE POP POP PUSH32 0xA8EE157EB2A9AA895D74DF4D2D3BC0AD165FF3162F8EC46A4ECF602DD5C48FDA DUP2 PUSH0 SLOAD PUSH1 0x40 MLOAD PUSH2 0x2230 SWAP3 SWAP2 SWAP1 PUSH2 0x4F85 JUMP JUMPDEST PUSH1 0x40 MLOAD DUP1 SWAP2 SUB SWAP1 LOG1 POP JUMP JUMPDEST PUSH2 0x2243 PUSH2 0x2CCE JUMP JUMPDEST DUP1 ISZERO ISZERO PUSH1 0x4 PUSH0 DUP5 PUSH20 0xFFFFFFFFFFFFFFFFFFFFFFFFFFFFFFFFFFFFFFFF AND PUSH20 0xFFFFFFFFFFFFFFFFFFFFFFFFFFFFFFFFFFFFFFFF AND DUP2 MSTORE PUSH1 0x20 ADD SWAP1 DUP2 MSTORE PUSH1 0x20 ADD PUSH0 KECCAK256 PUSH0 SWAP1 SLOAD SWAP1 PUSH2 0x100 EXP SWAP1 DIV PUSH1 0xFF AND ISZERO ISZERO SUB PUSH2 0x22C9 JUMPI PUSH1 0x40 MLOAD PUSH32 0x8617982100000000000000000000000000000000000000000000000000000000 DUP2 MSTORE PUSH1 0x4 ADD PUSH1 0x40 MLOAD DUP1 SWAP2 SUB SWAP1 REVERT JUMPDEST DUP1 PUSH1 0x4 PUSH0 DUP5 PUSH20 0xFFFFFFFFFFFFFFFFFFFFFFFFFFFFFFFFFFFFFFFF AND PUSH20 0xFFFFFFFFFFFFFFFFFFFFFFFFFFFFFFFFFFFFFFFF AND DUP2 MSTORE PUSH1 0x20 ADD SWAP1 DUP2 MSTORE PUSH1 0x20 ADD PUSH0 KECCAK256 PUSH0 PUSH2 0x100 EXP DUP2 SLOAD DUP2 PUSH1 0xFF MUL NOT AND SWAP1 DUP4 ISZERO ISZERO MUL OR SWAP1 SSTORE POP POP POP JUMP JUMPDEST PUSH1 0xB DUP1 PUSH0 ADD SLOAD SWAP1 DUP1 PUSH1 0x1 ADD PUSH0 SWAP1 SLOAD SWAP1 PUSH2 0x100 EXP SWAP1 DIV PUSH20 0xFFFFFFFFFFFFFFFFFFFFFFFFFFFFFFFFFFFFFFFF AND SWAP1 DUP1 PUSH1 0x2 ADD SLOAD SWAP1 DUP1 PUSH1 0x3 ADD PUSH0 SWAP1 SLOAD SWAP1 PUSH2 0x100 EXP SWAP1 DIV PUSH1 0xFF AND SWAP1 POP DUP5 JUMP JUMPDEST PUSH2 0x2371 PUSH2 0x2CCE JUMP JUMPDEST PUSH0 DUP3 DUP3 SWAP1 POP EQ DUP1 PUSH2 0x2385 JUMPI POP PUSH1 0xC8 DUP3 DUP3 SWAP1 POP GT JUMPDEST ISZERO PUSH2 0x23CA JUMPI DUP2 DUP2 SWAP1 POP PUSH1 0x40 MLOAD PUSH32 0xE0F549DA00000000000000000000000000000000000000000000000000000000 DUP2 MSTORE PUSH1 0x4 ADD PUSH2 0x23C1 SWAP2 SWAP1 PUSH2 0x498A JUMP JUMPDEST PUSH1 0x40 MLOAD DUP1 SWAP2 SUB SWAP1 REVERT JUMPDEST PUSH0 PUSH0 SWAP1 POP JUMPDEST DUP3 DUP3 SWAP1 POP DUP2 LT ISZERO PUSH2 0x25AB JUMPI PUSH1 0x3 PUSH0 DUP5 DUP5 DUP5 DUP2 DUP2 LT PUSH2 0x23F0 JUMPI PUSH2 0x23EF PUSH2 0x5182 JUMP JUMPDEST JUMPDEST SWAP1 POP PUSH1 0x20 MUL ADD PUSH1 0x20 DUP2 ADD SWAP1 PUSH2 0x2405 SWAP2 SWAP1 PUSH2 0x4A58 JUMP JUMPDEST PUSH20 0xFFFFFFFFFFFFFFFFFFFFFFFFFFFFFFFFFFFFFFFF AND PUSH20 0xFFFFFFFFFFFFFFFFFFFFFFFFFFFFFFFFFFFFFFFF AND DUP2 MSTORE PUSH1 0x20 ADD SWAP1 DUP2 MSTORE PUSH1 0x20 ADD PUSH0 KECCAK256 PUSH0 SWAP1 SLOAD SWAP1 PUSH2 0x100 EXP SWAP1 DIV PUSH1 0xFF AND ISZERO DUP1 ISZERO PUSH2 0x24B2 JUMPI POP PUSH2 0x245B PUSH2 0x1DEE JUMP JUMPDEST PUSH20 0xFFFFFFFFFFFFFFFFFFFFFFFFFFFFFFFFFFFFFFFF AND DUP4 DUP4 DUP4 DUP2 DUP2 LT PUSH2 0x2484 JUMPI PUSH2 0x2483 PUSH2 0x5182 JUMP JUMPDEST JUMPDEST SWAP1 POP PUSH1 0x20 MUL ADD PUSH1 0x20 DUP2 ADD SWAP1 PUSH2 0x2499 SWAP2 SWAP1 PUSH2 0x4A58 JUMP JUMPDEST PUSH20 0xFFFFFFFFFFFFFFFFFFFFFFFFFFFFFFFFFFFFFFFF AND EQ ISZERO JUMPDEST ISZERO PUSH2 0x259E JUMPI PUSH1 0x1 PUSH1 0x3 PUSH0 DUP6 DUP6 DUP6 DUP2 DUP2 LT PUSH2 0x24CF JUMPI PUSH2 0x24CE PUSH2 0x5182 JUMP JUMPDEST JUMPDEST SWAP1 POP PUSH1 0x20 MUL ADD PUSH1 0x20 DUP2 ADD SWAP1 PUSH2 0x24E4 SWAP2 SWAP1 PUSH2 0x4A58 JUMP JUMPDEST PUSH20 0xFFFFFFFFFFFFFFFFFFFFFFFFFFFFFFFFFFFFFFFF AND PUSH20 0xFFFFFFFFFFFFFFFFFFFFFFFFFFFFFFFFFFFFFFFF AND DUP2 MSTORE PUSH1 0x20 ADD SWAP1 DUP2 MSTORE PUSH1 0x20 ADD PUSH0 KECCAK256 PUSH0 PUSH2 0x100 EXP DUP2 SLOAD DUP2 PUSH1 0xFF MUL NOT AND SWAP1 DUP4 ISZERO ISZERO MUL OR SWAP1 SSTORE POP DUP3 DUP3 DUP3 DUP2 DUP2 LT PUSH2 0x2546 JUMPI PUSH2 0x2545 PUSH2 0x5182 JUMP JUMPDEST JUMPDEST SWAP1 POP PUSH1 0x20 MUL ADD PUSH1 0x20 DUP2 ADD SWAP1 PUSH2 0x255B SWAP2 SWAP1 PUSH2 0x4A58 JUMP JUMPDEST PUSH20 0xFFFFFFFFFFFFFFFFFFFFFFFFFFFFFFFFFFFFFFFF AND PUSH32 0xFFA4E6181777692565CF28528FC88FD1516EA86B56DA075235FA575AF6A4B855 PUSH1 0x40 MLOAD PUSH1 0x40 MLOAD DUP1 SWAP2 SUB SWAP1 LOG2 JUMPDEST DUP1 DUP1 PUSH1 0x1 ADD SWAP2 POP POP PUSH2 0x23CF JUMP JUMPDEST POP POP POP JUMP JUMPDEST PUSH1 0x2 SLOAD DUP2 JUMP JUMPDEST PUSH2 0x25BE PUSH2 0x2CCE JUMP JUMPDEST PUSH0 PUSH20 0xFFFFFFFFFFFFFFFFFFFFFFFFFFFFFFFFFFFFFFFF AND DUP2 PUSH20 0xFFFFFFFFFFFFFFFFFFFFFFFFFFFFFFFFFFFFFFFF AND SUB PUSH2 0x2623 JUMPI PUSH1 0x40 MLOAD PUSH32 0xE6C4247B00000000000000000000000000000000000000000000000000000000 DUP2 MSTORE PUSH1 0x4 ADD PUSH1 0x40 MLOAD DUP1 SWAP2 SUB SWAP1 REVERT JUMPDEST PUSH1 0x1 PUSH0 SWAP1 SLOAD SWAP1 PUSH2 0x100 EXP SWAP1 DIV PUSH20 0xFFFFFFFFFFFFFFFFFFFFFFFFFFFFFFFFFFFFFFFF AND PUSH20 0xFFFFFFFFFFFFFFFFFFFFFFFFFFFFFFFFFFFFFFFF AND DUP2 PUSH20 0xFFFFFFFFFFFFFFFFFFFFFFFFFFFFFFFFFFFFFFFF AND SUB PUSH2 0x26A9 JUMPI PUSH1 0x40 MLOAD PUSH32 0x8617982100000000000000000000000000000000000000000000000000000000 DUP2 MSTORE PUSH1 0x4 ADD PUSH1 0x40 MLOAD DUP1 SWAP2 SUB SWAP1 REVERT JUMPDEST PUSH0 PUSH1 0x1 PUSH0 SWAP1 SLOAD SWAP1 PUSH2 0x100 EXP SWAP1 DIV PUSH20 0xFFFFFFFFFFFFFFFFFFFFFFFFFFFFFFFFFFFFFFFF AND SWAP1 POP DUP2 PUSH1 0x1 PUSH0 PUSH2 0x100 EXP DUP2 SLOAD DUP2 PUSH20 0xFFFFFFFFFFFFFFFFFFFFFFFFFFFFFFFFFFFFFFFF MUL NOT AND SWAP1 DUP4 PUSH20 0xFFFFFFFFFFFFFFFFFFFFFFFFFFFFFFFFFFFFFFFF AND MUL OR SWAP1 SSTORE POP DUP2 PUSH20 0xFFFFFFFFFFFFFFFFFFFFFFFFFFFFFFFFFFFFFFFF AND DUP2 PUSH20 0xFFFFFFFFFFFFFFFFFFFFFFFFFFFFFFFFFFFFFFFF AND PUSH32 0xF970BC488F38CDC7CAF559DE1924E9C564D90C54D1767C82DF2CBC55C9829A5E PUSH1 0x40 MLOAD PUSH1 0x40 MLOAD DUP1 SWAP2 SUB SWAP1 LOG3 POP POP JUMP JUMPDEST PUSH2 0x2774 PUSH2 0x2CCE JUMP JUMPDEST PUSH2 0x277C PUSH2 0x2D6E JUMP JUMPDEST ADDRESS PUSH20 0xFFFFFFFFFFFFFFFFFFFFFFFFFFFFFFFFFFFFFFFF AND DUP4 PUSH20 0xFFFFFFFFFFFFFFFFFFFFFFFFFFFFFFFFFFFFFFFF AND SUB PUSH2 0x27E1 JUMPI PUSH1 0x40 MLOAD PUSH32 0xDDACEDEB00000000000000000000000000000000000000000000000000000000 DUP2 MSTORE PUSH1 0x4 ADD PUSH1 0x40 MLOAD DUP1 SWAP2 SUB SWAP1 REVERT JUMPDEST PUSH0 PUSH20 0xFFFFFFFFFFFFFFFFFFFFFFFFFFFFFFFFFFFFFFFF AND DUP3 PUSH20 0xFFFFFFFFFFFFFFFFFFFFFFFFFFFFFFFFFFFFFFFF AND SUB PUSH2 0x2846 JUMPI PUSH1 0x40 MLOAD PUSH32 0xE6C4247B00000000000000000000000000000000000000000000000000000000 DUP2 MSTORE PUSH1 0x4 ADD PUSH1 0x40 MLOAD DUP1 SWAP2 SUB SWAP1 REVERT JUMPDEST PUSH0 DUP2 SUB PUSH2 0x287F JUMPI PUSH1 0x40 MLOAD PUSH32 0x2C5211C600000000000000000000000000000000000000000000000000000000 DUP2 MSTORE PUSH1 0x4 ADD PUSH1 0x40 MLOAD DUP1 SWAP2 SUB SWAP1 REVERT JUMPDEST PUSH0 PUSH0 DUP5 PUSH20 0xFFFFFFFFFFFFFFFFFFFFFFFFFFFFFFFFFFFFFFFF AND DUP5 DUP5 PUSH1 0x40 MLOAD PUSH1 0x24 ADD PUSH2 0x28AB SWAP3 SWAP2 SWAP1 PUSH2 0x5211 JUMP JUMPDEST PUSH1 0x40 MLOAD PUSH1 0x20 DUP2 DUP4 SUB SUB DUP2 MSTORE SWAP1 PUSH1 0x40 MSTORE PUSH32 0xA9059CBB00000000000000000000000000000000000000000000000000000000 PUSH28 0xFFFFFFFFFFFFFFFFFFFFFFFFFFFFFFFFFFFFFFFFFFFFFFFFFFFFFFFF NOT AND PUSH1 0x20 DUP3 ADD DUP1 MLOAD PUSH28 0xFFFFFFFFFFFFFFFFFFFFFFFFFFFFFFFFFFFFFFFFFFFFFFFFFFFFFFFF DUP4 DUP2 DUP4 AND OR DUP4 MSTORE POP POP POP POP PUSH1 0x40 MLOAD PUSH2 0x2935 SWAP2 SWAP1 PUSH2 0x5272 JUMP JUMPDEST PUSH0 PUSH1 0x40 MLOAD DUP1 DUP4 SUB DUP2 PUSH0 DUP7 GAS CALL SWAP2 POP POP RETURNDATASIZE DUP1 PUSH0 DUP2 EQ PUSH2 0x296E JUMPI PUSH1 0x40 MLOAD SWAP2 POP PUSH1 0x1F NOT PUSH1 0x3F RETURNDATASIZE ADD AND DUP3 ADD PUSH1 0x40 MSTORE RETURNDATASIZE DUP3 MSTORE RETURNDATASIZE PUSH0 PUSH1 0x20 DUP5 ADD RETURNDATACOPY PUSH2 0x2973 JUMP JUMPDEST PUSH1 0x60 SWAP2 POP JUMPDEST POP SWAP2 POP SWAP2 POP DUP2 DUP1 ISZERO PUSH2 0x29A0 JUMPI POP PUSH0 DUP2 MLOAD EQ DUP1 PUSH2 0x299F JUMPI POP DUP1 DUP1 PUSH1 0x20 ADD SWAP1 MLOAD DUP2 ADD SWAP1 PUSH2 0x299E SWAP2 SWAP1 PUSH2 0x529C JUMP JUMPDEST JUMPDEST JUMPDEST PUSH2 0x29DF JUMPI PUSH1 0x40 MLOAD PUSH32 0x8C379A000000000000000000000000000000000000000000000000000000000 DUP2 MSTORE PUSH1 0x4 ADD PUSH2 0x29D6 SWAP1 PUSH2 0x5311 JUMP JUMPDEST PUSH1 0x40 MLOAD DUP1 SWAP2 SUB SWAP1 REVERT JUMPDEST POP POP PUSH2 0x29E9 PUSH2 0x2DB4 JUMP JUMPDEST POP POP POP JUMP JUMPDEST PUSH1 0xC8 DUP2 JUMP JUMPDEST PUSH0 DUP8 DUP8 DUP8 DUP8 DUP8 DUP8 DUP8 PUSH1 0x40 MLOAD PUSH1 0x20 ADD PUSH2 0x2A11 SWAP8 SWAP7 SWAP6 SWAP5 SWAP4 SWAP3 SWAP2 SWAP1 PUSH2 0x53E8 JUMP JUMPDEST PUSH1 0x40 MLOAD PUSH1 0x20 DUP2 DUP4 SUB SUB DUP2 MSTORE SWAP1 PUSH1 0x40 MSTORE DUP1 MLOAD SWAP1 PUSH1 0x20 ADD KECCAK256 SWAP1 POP PUSH1 0x6 PUSH0 DUP10 PUSH20 0xFFFFFFFFFFFFFFFFFFFFFFFFFFFFFFFFFFFFFFFF AND PUSH20 0xFFFFFFFFFFFFFFFFFFFFFFFFFFFFFFFFFFFFFFFF AND DUP2 MSTORE PUSH1 0x20 ADD SWAP1 DUP2 MSTORE PUSH1 0x20 ADD PUSH0 KECCAK256 PUSH0 DUP3 DUP2 MSTORE PUSH1 0x20 ADD SWAP1 DUP2 MSTORE PUSH1 0x20 ADD PUSH0 KECCAK256 PUSH0 SWAP1 SLOAD SWAP1 PUSH2 0x100 EXP SWAP1 DIV PUSH1 0xFF AND ISZERO PUSH2 0x2AB9 JUMPI PUSH1 0x40 MLOAD PUSH32 0x493EFC1900000000000000000000000000000000000000000000000000000000 DUP2 MSTORE PUSH1 0x4 ADD PUSH1 0x40 MLOAD DUP1 SWAP2 SUB SWAP1 REVERT JUMPDEST PUSH1 0x1 PUSH1 0x6 PUSH0 DUP11 PUSH20 0xFFFFFFFFFFFFFFFFFFFFFFFFFFFFFFFFFFFFFFFF AND PUSH20 0xFFFFFFFFFFFFFFFFFFFFFFFFFFFFFFFFFFFFFFFF AND DUP2 MSTORE PUSH1 0x20 ADD SWAP1 DUP2 MSTORE PUSH1 0x20 ADD PUSH0 KECCAK256 PUSH0 DUP4 DUP2 MSTORE PUSH1 0x20 ADD SWAP1 DUP2 MSTORE PUSH1 0x20 ADD PUSH0 KECCAK256 PUSH0 PUSH2 0x100 EXP DUP2 SLOAD DUP2 PUSH1 0xFF MUL NOT AND SWAP1 DUP4 ISZERO ISZERO MUL OR SWAP1 SSTORE POP PUSH2 0x2B2C DUP9 DUP9 DUP9 DUP9 DUP9 DUP9 DUP9 PUSH2 0x32CA JUMP JUMPDEST POP POP POP POP POP POP POP POP JUMP JUMPDEST PUSH1 0x3 PUSH1 0x20 MSTORE DUP1 PUSH0 MSTORE PUSH1 0x40 PUSH0 KECCAK256 PUSH0 SWAP2 POP SLOAD SWAP1 PUSH2 0x100 EXP SWAP1 DIV PUSH1 0xFF AND DUP2 JUMP JUMPDEST PUSH0 PUSH1 0x42 PUSH0 DUP5 PUSH20 0xFFFFFFFFFFFFFFFFFFFFFFFFFFFFFFFFFFFFFFFF AND PUSH20 0xFFFFFFFFFFFFFFFFFFFFFFFFFFFFFFFFFFFFFFFF AND DUP2 MSTORE PUSH1 0x20 ADD SWAP1 DUP2 MSTORE PUSH1 0x20 ADD PUSH0 KECCAK256 PUSH0 DUP4 PUSH20 0xFFFFFFFFFFFFFFFFFFFFFFFFFFFFFFFFFFFFFFFF AND PUSH20 0xFFFFFFFFFFFFFFFFFFFFFFFFFFFFFFFFFFFFFFFF AND DUP2 MSTORE PUSH1 0x20 ADD SWAP1 DUP2 MSTORE PUSH1 0x20 ADD PUSH0 KECCAK256 SLOAD SWAP1 POP SWAP3 SWAP2 POP POP JUMP JUMPDEST PUSH0 PUSH1 0x4B PUSH0 SWAP1 SLOAD SWAP1 PUSH2 0x100 EXP SWAP1 DIV PUSH20 0xFFFFFFFFFFFFFFFFFFFFFFFFFFFFFFFFFFFFFFFF AND SWAP1 POP SWAP1 JUMP JUMPDEST PUSH1 0x1 PUSH0 SWAP1 SLOAD SWAP1 PUSH2 0x100 EXP SWAP1 DIV PUSH20 0xFFFFFFFFFFFFFFFFFFFFFFFFFFFFFFFFFFFFFFFF AND DUP2 JUMP JUMPDEST PUSH2 0x2C2A PUSH2 0x2CCE JUMP JUMPDEST DUP1 PUSH1 0x4B PUSH0 PUSH2 0x100 EXP DUP2 SLOAD DUP2 PUSH20 0xFFFFFFFFFFFFFFFFFFFFFFFFFFFFFFFFFFFFFFFF MUL NOT AND SWAP1 DUP4 PUSH20 0xFFFFFFFFFFFFFFFFFFFFFFFFFFFFFFFFFFFFFFFF AND MUL OR SWAP1 SSTORE POP DUP1 PUSH20 0xFFFFFFFFFFFFFFFFFFFFFFFFFFFFFFFFFFFFFFFF AND PUSH2 0x2C89 PUSH2 0x1DEE JUMP JUMPDEST PUSH20 0xFFFFFFFFFFFFFFFFFFFFFFFFFFFFFFFFFFFFFFFF AND PUSH32 0x38D16B8CAC22D99FC7C124B9CD0DE2D3FA1FAEF420BFE791D8C362D765E22700 PUSH1 0x40 MLOAD PUSH1 0x40 MLOAD DUP1 SWAP2 SUB SWAP1 LOG3 POP JUMP JUMPDEST PUSH2 0x2CD6 PUSH2 0x2D55 JUMP JUMPDEST PUSH20 0xFFFFFFFFFFFFFFFFFFFFFFFFFFFFFFFFFFFFFFFF AND PUSH2 0x2CF4 PUSH2 0x1DEE JUMP JUMPDEST PUSH20 0xFFFFFFFFFFFFFFFFFFFFFFFFFFFFFFFFFFFFFFFF AND EQ PUSH2 0x2D53 JUMPI PUSH2 0x2D17 PUSH2 0x2D55 JUMP JUMPDEST PUSH1 0x40 MLOAD PUSH32 0x118CDAA700000000000000000000000000000000000000000000000000000000 DUP2 MSTORE PUSH1 0x4 ADD PUSH2 0x2D4A SWAP2 SWAP1 PUSH2 0x4D92 JUMP JUMPDEST PUSH1 0x40 MLOAD DUP1 SWAP2 SUB SWAP1 REVERT JUMPDEST JUMP JUMPDEST PUSH0 CALLER SWAP1 POP SWAP1 JUMP JUMPDEST PUSH2 0x2D69 DUP4 DUP4 DUP4 PUSH1 0x1 PUSH2 0x340F JUMP JUMPDEST POP POP POP JUMP JUMPDEST PUSH1 0x2 PUSH1 0x4C SLOAD SUB PUSH2 0x2DAA JUMPI PUSH1 0x40 MLOAD PUSH32 0x3EE5AEB500000000000000000000000000000000000000000000000000000000 DUP2 MSTORE PUSH1 0x4 ADD PUSH1 0x40 MLOAD DUP1 SWAP2 SUB SWAP1 REVERT JUMPDEST PUSH1 0x2 PUSH1 0x4C DUP2 SWAP1 SSTORE POP JUMP JUMPDEST PUSH1 0x1 PUSH1 0x4C DUP2 SWAP1 SSTORE POP JUMP JUMPDEST PUSH0 PUSH2 0x2DC9 DUP5 DUP5 PUSH2 0x2B53 JUMP JUMPDEST SWAP1 POP PUSH32 0xFFFFFFFFFFFFFFFFFFFFFFFFFFFFFFFFFFFFFFFFFFFFFFFFFFFFFFFFFFFFFFFF DUP2 LT ISZERO PUSH2 0x2E4B JUMPI DUP2 DUP2 LT ISZERO PUSH2 0x2E3C JUMPI DUP3 DUP2 DUP4 PUSH1 0x40 MLOAD PUSH32 0xFB8F41B200000000000000000000000000000000000000000000000000000000 DUP2 MSTORE PUSH1 0x4 ADD PUSH2 0x2E33 SWAP4 SWAP3 SWAP2 SWAP1 PUSH2 0x51DC JUMP JUMPDEST PUSH1 0x40 MLOAD DUP1 SWAP2 SUB SWAP1 REVERT JUMPDEST PUSH2 0x2E4A DUP5 DUP5 DUP5 DUP5 SUB PUSH0 PUSH2 0x340F JUMP JUMPDEST JUMPDEST POP POP POP POP JUMP JUMPDEST PUSH0 PUSH20 0xFFFFFFFFFFFFFFFFFFFFFFFFFFFFFFFFFFFFFFFF AND DUP4 PUSH20 0xFFFFFFFFFFFFFFFFFFFFFFFFFFFFFFFFFFFFFFFF AND SUB PUSH2 0x2EC1 JUMPI PUSH0 PUSH1 0x40 MLOAD PUSH32 0x96C6FD1E00000000000000000000000000000000000000000000000000000000 DUP2 MSTORE PUSH1 0x4 ADD PUSH2 0x2EB8 SWAP2 SWAP1 PUSH2 0x4D92 JUMP JUMPDEST PUSH1 0x40 MLOAD DUP1 SWAP2 SUB SWAP1 REVERT JUMPDEST PUSH0 PUSH20 0xFFFFFFFFFFFFFFFFFFFFFFFFFFFFFFFFFFFFFFFF AND DUP3 PUSH20 0xFFFFFFFFFFFFFFFFFFFFFFFFFFFFFFFFFFFFFFFF AND SUB PUSH2 0x2F31 JUMPI PUSH0 PUSH1 0x40 MLOAD PUSH32 0xEC442F0500000000000000000000000000000000000000000000000000000000 DUP2 MSTORE PUSH1 0x4 ADD PUSH2 0x2F28 SWAP2 SWAP1 PUSH2 0x4D92 JUMP JUMPDEST PUSH1 0x40 MLOAD DUP1 SWAP2 SUB SWAP1 REVERT JUMPDEST PUSH2 0x2F3C DUP4 DUP4 DUP4 PUSH2 0x35DE JUMP JUMPDEST POP POP POP JUMP JUMPDEST PUSH0 PUSH32 0x0 PUSH20 0xFFFFFFFFFFFFFFFFFFFFFFFFFFFFFFFFFFFFFFFF AND ADDRESS PUSH20 0xFFFFFFFFFFFFFFFFFFFFFFFFFFFFFFFFFFFFFFFF AND EQ DUP1 ISZERO PUSH2 0x2FBC JUMPI POP PUSH32 0x0 CHAINID EQ JUMPDEST ISZERO PUSH2 0x2FE9 JUMPI PUSH32 0x0 SWAP1 POP PUSH2 0x2FF4 JUMP JUMPDEST PUSH2 0x2FF1 PUSH2 0x3B1C JUMP JUMPDEST SWAP1 POP JUMPDEST SWAP1 JUMP JUMPDEST PUSH2 0x2FFF PUSH2 0x3BB1 JUMP JUMPDEST JUMP JUMPDEST PUSH2 0x300B DUP3 DUP3 PUSH2 0x3C12 JUMP JUMPDEST POP POP JUMP JUMPDEST PUSH0 PUSH20 0xFFFFFFFFFFFFFFFFFFFFFFFFFFFFFFFFFFFFFFFF AND DUP3 PUSH20 0xFFFFFFFFFFFFFFFFFFFFFFFFFFFFFFFFFFFFFFFF AND SUB PUSH2 0x307F JUMPI PUSH0 PUSH1 0x40 MLOAD PUSH32 0x96C6FD1E00000000000000000000000000000000000000000000000000000000 DUP2 MSTORE PUSH1 0x4 ADD PUSH2 0x3076 SWAP2 SWAP1 PUSH2 0x4D92 JUMP JUMPDEST PUSH1 0x40 MLOAD DUP1 SWAP2 SUB SWAP1 REVERT JUMPDEST PUSH2 0x308A DUP3 PUSH0 DUP4 PUSH2 0x35DE JUMP JUMPDEST POP POP JUMP JUMPDEST PUSH0 PUSH0 PUSH0 DUP5 GT PUSH2 0x30D2 JUMPI PUSH1 0x40 MLOAD PUSH32 0x8C379A000000000000000000000000000000000000000000000000000000000 DUP2 MSTORE PUSH1 0x4 ADD PUSH2 0x30C9 SWAP1 PUSH2 0x54B2 JUMP JUMPDEST PUSH1 0x40 MLOAD DUP1 SWAP2 SUB SWAP1 REVERT JUMPDEST PUSH1 0x4D SLOAD DUP5 GT ISZERO PUSH2 0x3117 JUMPI PUSH1 0x40 MLOAD PUSH32 0x8C379A000000000000000000000000000000000000000000000000000000000 DUP2 MSTORE PUSH1 0x4 ADD PUSH2 0x310E SWAP1 PUSH2 0x5540 JUMP JUMPDEST PUSH1 0x40 MLOAD DUP1 SWAP2 SUB SWAP1 REVERT JUMPDEST PUSH0 PUSH2 0x312D DUP6 DUP6 PUSH0 ADD PUSH2 0x3C91 SWAP1 SWAP2 SWAP1 PUSH4 0xFFFFFFFF AND JUMP JUMPDEST SWAP1 POP DUP4 PUSH0 ADD DUP1 SLOAD SWAP1 POP DUP2 SUB PUSH2 0x3148 JUMPI PUSH0 PUSH0 SWAP3 POP SWAP3 POP POP PUSH2 0x316F JUMP JUMPDEST PUSH1 0x1 DUP5 PUSH1 0x1 ADD DUP3 DUP2 SLOAD DUP2 LT PUSH2 0x3160 JUMPI PUSH2 0x315F PUSH2 0x5182 JUMP JUMPDEST JUMPDEST SWAP1 PUSH0 MSTORE PUSH1 0x20 PUSH0 KECCAK256 ADD SLOAD SWAP3 POP SWAP3 POP POP JUMPDEST SWAP3 POP SWAP3 SWAP1 POP JUMP JUMPDEST PUSH1 0x4B PUSH0 PUSH2 0x100 EXP DUP2 SLOAD SWAP1 PUSH20 0xFFFFFFFFFFFFFFFFFFFFFFFFFFFFFFFFFFFFFFFF MUL NOT AND SWAP1 SSTORE PUSH2 0x31A3 DUP2 PUSH2 0x3D44 JUMP JUMPDEST POP JUMP JUMPDEST PUSH0 PUSH1 0x49 PUSH0 DUP4 PUSH20 0xFFFFFFFFFFFFFFFFFFFFFFFFFFFFFFFFFFFFFFFF AND PUSH20 0xFFFFFFFFFFFFFFFFFFFFFFFFFFFFFFFFFFFFFFFF AND DUP2 MSTORE PUSH1 0x20 ADD SWAP1 DUP2 MSTORE PUSH1 0x20 ADD PUSH0 KECCAK256 SLOAD SWAP1 POP SWAP2 SWAP1 POP JUMP JUMPDEST PUSH2 0x31F4 PUSH2 0x3E07 JUMP JUMPDEST JUMP JUMPDEST PUSH1 0x60 PUSH2 0x322C PUSH1 0x47 PUSH32 0x0 PUSH2 0x3E69 SWAP1 SWAP2 SWAP1 PUSH4 0xFFFFFFFF AND JUMP JUMPDEST SWAP1 POP SWAP1 JUMP JUMPDEST PUSH1 0x60 PUSH2 0x3267 PUSH1 0x48 PUSH32 0x0 PUSH2 0x3E69 SWAP1 SWAP2 SWAP1 PUSH4 0xFFFFFFFF AND JUMP JUMPDEST SWAP1 POP SWAP1 JUMP JUMPDEST PUSH0 PUSH1 0x1 PUSH1 0x4D PUSH0 DUP3 DUP3 SLOAD PUSH2 0x327F SWAP2 SWAP1 PUSH2 0x4F52 JUMP JUMPDEST SWAP3 POP POP DUP2 SWAP1 SSTORE POP PUSH0 PUSH1 0x4D SLOAD SWAP1 POP PUSH32 0x8030E83B04D87BEF53480E26263266D6CA66863AA8506ACA6F2559D18AA1CB67 DUP2 PUSH1 0x40 MLOAD PUSH2 0x32BB SWAP2 SWAP1 PUSH2 0x498A JUMP JUMPDEST PUSH1 0x40 MLOAD DUP1 SWAP2 SUB SWAP1 LOG1 DUP1 SWAP2 POP POP SWAP1 JUMP JUMPDEST DUP4 TIMESTAMP GT ISZERO PUSH2 0x330F JUMPI DUP4 PUSH1 0x40 MLOAD PUSH32 0x6279130200000000000000000000000000000000000000000000000000000000 DUP2 MSTORE PUSH1 0x4 ADD PUSH2 0x3306 SWAP2 SWAP1 PUSH2 0x498A JUMP JUMPDEST PUSH1 0x40 MLOAD DUP1 SWAP2 SUB SWAP1 REVERT JUMPDEST PUSH0 PUSH32 0x6E71EDAE12B1B97F4D1F60370FEF10105FA2FAAE0126114A169C64845D6126C9 DUP9 DUP9 DUP9 PUSH2 0x333D DUP13 PUSH2 0x3F16 JUMP JUMPDEST DUP10 PUSH1 0x40 MLOAD PUSH1 0x20 ADD PUSH2 0x3353 SWAP7 SWAP6 SWAP5 SWAP4 SWAP3 SWAP2 SWAP1 PUSH2 0x555E JUMP JUMPDEST PUSH1 0x40 MLOAD PUSH1 0x20 DUP2 DUP4 SUB SUB DUP2 MSTORE SWAP1 PUSH1 0x40 MSTORE DUP1 MLOAD SWAP1 PUSH1 0x20 ADD KECCAK256 SWAP1 POP PUSH0 PUSH2 0x3375 DUP3 PUSH2 0x3F69 JUMP JUMPDEST SWAP1 POP PUSH0 PUSH2 0x3384 DUP3 DUP8 DUP8 DUP8 PUSH2 0x3F82 JUMP JUMPDEST SWAP1 POP DUP10 PUSH20 0xFFFFFFFFFFFFFFFFFFFFFFFFFFFFFFFFFFFFFFFF AND DUP2 PUSH20 0xFFFFFFFFFFFFFFFFFFFFFFFFFFFFFFFFFFFFFFFF AND EQ PUSH2 0x33F8 JUMPI DUP1 DUP11 PUSH1 0x40 MLOAD PUSH32 0x4B800E4600000000000000000000000000000000000000000000000000000000 DUP2 MSTORE PUSH1 0x4 ADD PUSH2 0x33EF SWAP3 SWAP2 SWAP1 PUSH2 0x55BD JUMP JUMPDEST PUSH1 0x40 MLOAD DUP1 SWAP2 SUB SWAP1 REVERT JUMPDEST PUSH2 0x3403 DUP11 DUP11 DUP11 PUSH2 0x2D5C JUMP JUMPDEST POP POP POP POP POP POP POP POP POP POP JUMP JUMPDEST PUSH0 PUSH20 0xFFFFFFFFFFFFFFFFFFFFFFFFFFFFFFFFFFFFFFFF AND DUP5 PUSH20 0xFFFFFFFFFFFFFFFFFFFFFFFFFFFFFFFFFFFFFFFF AND SUB PUSH2 0x347F JUMPI PUSH0 PUSH1 0x40 MLOAD PUSH32 0xE602DF0500000000000000000000000000000000000000000000000000000000 DUP2 MSTORE PUSH1 0x4 ADD PUSH2 0x3476 SWAP2 SWAP1 PUSH2 0x4D92 JUMP JUMPDEST PUSH1 0x40 MLOAD DUP1 SWAP2 SUB SWAP1 REVERT JUMPDEST PUSH0 PUSH20 0xFFFFFFFFFFFFFFFFFFFFFFFFFFFFFFFFFFFFFFFF AND DUP4 PUSH20 0xFFFFFFFFFFFFFFFFFFFFFFFFFFFFFFFFFFFFFFFF AND SUB PUSH2 0x34EF JUMPI PUSH0 PUSH1 0x40 MLOAD PUSH32 0x94280D6200000000000000000000000000000000000000000000000000000000 DUP2 MSTORE PUSH1 0x4 ADD PUSH2 0x34E6 SWAP2 SWAP1 PUSH2 0x4D92 JUMP JUMPDEST PUSH1 0x40 MLOAD DUP1 SWAP2 SUB SWAP1 REVERT JUMPDEST DUP2 PUSH1 0x42 PUSH0 DUP7 PUSH20 0xFFFFFFFFFFFFFFFFFFFFFFFFFFFFFFFFFFFFFFFF AND PUSH20 0xFFFFFFFFFFFFFFFFFFFFFFFFFFFFFFFFFFFFFFFF AND DUP2 MSTORE PUSH1 0x20 ADD SWAP1 DUP2 MSTORE PUSH1 0x20 ADD PUSH0 KECCAK256 PUSH0 DUP6 PUSH20 0xFFFFFFFFFFFFFFFFFFFFFFFFFFFFFFFFFFFFFFFF AND PUSH20 0xFFFFFFFFFFFFFFFFFFFFFFFFFFFFFFFFFFFFFFFF AND DUP2 MSTORE PUSH1 0x20 ADD SWAP1 DUP2 MSTORE PUSH1 0x20 ADD PUSH0 KECCAK256 DUP2 SWAP1 SSTORE POP DUP1 ISZERO PUSH2 0x35D8 JUMPI DUP3 PUSH20 0xFFFFFFFFFFFFFFFFFFFFFFFFFFFFFFFFFFFFFFFF AND DUP5 PUSH20 0xFFFFFFFFFFFFFFFFFFFFFFFFFFFFFFFFFFFFFFFF AND PUSH32 0x8C5BE1E5EBEC7D5BD14F71427D1E84F3DD0314C0F7B2291E5B200AC8C7C3B925 DUP5 PUSH1 0x40 MLOAD PUSH2 0x35CF SWAP2 SWAP1 PUSH2 0x498A JUMP JUMPDEST PUSH1 0x40 MLOAD DUP1 SWAP2 SUB SWAP1 LOG3 JUMPDEST POP POP POP POP JUMP JUMPDEST DUP3 PUSH1 0x3 PUSH0 DUP3 PUSH20 0xFFFFFFFFFFFFFFFFFFFFFFFFFFFFFFFFFFFFFFFF AND PUSH20 0xFFFFFFFFFFFFFFFFFFFFFFFFFFFFFFFFFFFFFFFF AND DUP2 MSTORE PUSH1 0x20 ADD SWAP1 DUP2 MSTORE PUSH1 0x20 ADD PUSH0 KECCAK256 PUSH0 SWAP1 SLOAD SWAP1 PUSH2 0x100 EXP SWAP1 DIV PUSH1 0xFF AND ISZERO PUSH2 0x366B JUMPI DUP1 PUSH1 0x40 MLOAD PUSH32 0x571F7B4900000000000000000000000000000000000000000000000000000000 DUP2 MSTORE PUSH1 0x4 ADD PUSH2 0x3662 SWAP2 SWAP1 PUSH2 0x4D92 JUMP JUMPDEST PUSH1 0x40 MLOAD DUP1 SWAP2 SUB SWAP1 REVERT JUMPDEST DUP3 PUSH1 0x3 PUSH0 DUP3 PUSH20 0xFFFFFFFFFFFFFFFFFFFFFFFFFFFFFFFFFFFFFFFF AND PUSH20 0xFFFFFFFFFFFFFFFFFFFFFFFFFFFFFFFFFFFFFFFF AND DUP2 MSTORE PUSH1 0x20 ADD SWAP1 DUP2 MSTORE PUSH1 0x20 ADD PUSH0 KECCAK256 PUSH0 SWAP1 SLOAD SWAP1 PUSH2 0x100 EXP SWAP1 DIV PUSH1 0xFF AND ISZERO PUSH2 0x36F8 JUMPI DUP1 PUSH1 0x40 MLOAD PUSH32 0x571F7B4900000000000000000000000000000000000000000000000000000000 DUP2 MSTORE PUSH1 0x4 ADD PUSH2 0x36EF SWAP2 SWAP1 PUSH2 0x4D92 JUMP JUMPDEST PUSH1 0x40 MLOAD DUP1 SWAP2 SUB SWAP1 REVERT JUMPDEST PUSH0 PUSH20 0xFFFFFFFFFFFFFFFFFFFFFFFFFFFFFFFFFFFFFFFF AND DUP6 PUSH20 0xFFFFFFFFFFFFFFFFFFFFFFFFFFFFFFFFFFFFFFFF AND EQ PUSH2 0x377A JUMPI PUSH2 0x3779 PUSH1 0x4E PUSH0 DUP8 PUSH20 0xFFFFFFFFFFFFFFFFFFFFFFFFFFFFFFFFFFFFFFFF AND PUSH20 0xFFFFFFFFFFFFFFFFFFFFFFFFFFFFFFFFFFFFFFFF AND DUP2 MSTORE PUSH1 0x20 ADD SWAP1 DUP2 MSTORE PUSH1 0x20 ADD PUSH0 KECCAK256 PUSH2 0x3774 DUP8 PUSH2 0x1C1A JUMP JUMPDEST PUSH2 0x3FB0 JUMP JUMPDEST JUMPDEST PUSH0 PUSH20 0xFFFFFFFFFFFFFFFFFFFFFFFFFFFFFFFFFFFFFFFF AND DUP5 PUSH20 0xFFFFFFFFFFFFFFFFFFFFFFFFFFFFFFFFFFFFFFFF AND EQ PUSH2 0x37FC JUMPI PUSH2 0x37FB PUSH1 0x4E PUSH0 DUP7 PUSH20 0xFFFFFFFFFFFFFFFFFFFFFFFFFFFFFFFFFFFFFFFF AND PUSH20 0xFFFFFFFFFFFFFFFFFFFFFFFFFFFFFFFFFFFFFFFF AND DUP2 MSTORE PUSH1 0x20 ADD SWAP1 DUP2 MSTORE PUSH1 0x20 ADD PUSH0 KECCAK256 PUSH2 0x37F6 DUP7 PUSH2 0x1C1A JUMP JUMPDEST PUSH2 0x3FB0 JUMP JUMPDEST JUMPDEST PUSH2 0x380E PUSH1 0x4F PUSH2 0x3809 PUSH2 0x12CD JUMP JUMPDEST PUSH2 0x3FBE JUMP JUMPDEST PUSH0 PUSH20 0xFFFFFFFFFFFFFFFFFFFFFFFFFFFFFFFFFFFFFFFF AND DUP6 PUSH20 0xFFFFFFFFFFFFFFFFFFFFFFFFFFFFFFFFFFFFFFFF AND EQ ISZERO DUP1 ISZERO PUSH2 0x3876 JUMPI POP PUSH0 PUSH20 0xFFFFFFFFFFFFFFFFFFFFFFFFFFFFFFFFFFFFFFFF AND DUP5 PUSH20 0xFFFFFFFFFFFFFFFFFFFFFFFFFFFFFFFFFFFFFFFF AND EQ ISZERO JUMPDEST ISZERO PUSH2 0x3B09 JUMPI PUSH1 0x5 PUSH0 DUP7 PUSH20 0xFFFFFFFFFFFFFFFFFFFFFFFFFFFFFFFFFFFFFFFF AND PUSH20 0xFFFFFFFFFFFFFFFFFFFFFFFFFFFFFFFFFFFFFFFF AND DUP2 MSTORE PUSH1 0x20 ADD SWAP1 DUP2 MSTORE PUSH1 0x20 ADD PUSH0 KECCAK256 PUSH0 SWAP1 SLOAD SWAP1 PUSH2 0x100 EXP SWAP1 DIV PUSH1 0xFF AND ISZERO DUP1 ISZERO PUSH2 0x3919 JUMPI POP PUSH1 0x5 PUSH0 DUP6 PUSH20 0xFFFFFFFFFFFFFFFFFFFFFFFFFFFFFFFFFFFFFFFF AND PUSH20 0xFFFFFFFFFFFFFFFFFFFFFFFFFFFFFFFFFFFFFFFF AND DUP2 MSTORE PUSH1 0x20 ADD SWAP1 DUP2 MSTORE PUSH1 0x20 ADD PUSH0 KECCAK256 PUSH0 SWAP1 SLOAD SWAP1 PUSH2 0x100 EXP SWAP1 DIV PUSH1 0xFF AND ISZERO JUMPDEST ISZERO PUSH2 0x3969 JUMPI PUSH1 0x2 SLOAD DUP4 GT ISZERO PUSH2 0x3968 JUMPI DUP3 PUSH1 0x2 SLOAD PUSH1 0x40 MLOAD PUSH31 0x83FA1800000000000000000000000000000000000000000000000000000000 DUP2 MSTORE PUSH1 0x4 ADD PUSH2 0x395F SWAP3 SWAP2 SWAP1 PUSH2 0x4F85 JUMP JUMPDEST PUSH1 0x40 MLOAD DUP1 SWAP2 SUB SWAP1 REVERT JUMPDEST JUMPDEST PUSH1 0x4 PUSH0 DUP7 PUSH20 0xFFFFFFFFFFFFFFFFFFFFFFFFFFFFFFFFFFFFFFFF AND PUSH20 0xFFFFFFFFFFFFFFFFFFFFFFFFFFFFFFFFFFFFFFFF AND DUP2 MSTORE PUSH1 0x20 ADD SWAP1 DUP2 MSTORE PUSH1 0x20 ADD PUSH0 KECCAK256 PUSH0 SWAP1 SLOAD SWAP1 PUSH2 0x100 EXP SWAP1 DIV PUSH1 0xFF AND ISZERO DUP1 ISZERO PUSH2 0x3A07 JUMPI POP PUSH1 0x4 PUSH0 DUP6 PUSH20 0xFFFFFFFFFFFFFFFFFFFFFFFFFFFFFFFFFFFFFFFF AND PUSH20 0xFFFFFFFFFFFFFFFFFFFFFFFFFFFFFFFFFFFFFFFF AND DUP2 MSTORE PUSH1 0x20 ADD SWAP1 DUP2 MSTORE PUSH1 0x20 ADD PUSH0 KECCAK256 PUSH0 SWAP1 SLOAD SWAP1 PUSH2 0x100 EXP SWAP1 DIV PUSH1 0xFF AND ISZERO JUMPDEST DUP1 ISZERO PUSH2 0x3A13 JUMPI POP PUSH0 PUSH0 SLOAD GT JUMPDEST ISZERO PUSH2 0x3B08 JUMPI PUSH0 PUSH2 0x2710 PUSH0 SLOAD DUP6 PUSH2 0x3A29 SWAP2 SWAP1 PUSH2 0x55E4 JUMP JUMPDEST PUSH2 0x3A33 SWAP2 SWAP1 PUSH2 0x5652 JUMP JUMPDEST SWAP1 POP PUSH0 DUP2 DUP6 PUSH2 0x3A42 SWAP2 SWAP1 PUSH2 0x5682 JUMP JUMPDEST SWAP1 POP PUSH2 0x3A70 DUP8 PUSH1 0x1 PUSH0 SWAP1 SLOAD SWAP1 PUSH2 0x100 EXP SWAP1 DIV PUSH20 0xFFFFFFFFFFFFFFFFFFFFFFFFFFFFFFFFFFFFFFFF AND DUP5 PUSH2 0x402B JUMP JUMPDEST PUSH1 0x1 PUSH0 SWAP1 SLOAD SWAP1 PUSH2 0x100 EXP SWAP1 DIV PUSH20 0xFFFFFFFFFFFFFFFFFFFFFFFFFFFFFFFFFFFFFFFF AND PUSH20 0xFFFFFFFFFFFFFFFFFFFFFFFFFFFFFFFFFFFFFFFF AND DUP8 PUSH20 0xFFFFFFFFFFFFFFFFFFFFFFFFFFFFFFFFFFFFFFFF AND PUSH32 0x5D37FD68FE66745A199F8C603E00AE02183F4AABB8EC0089589B0B40C4EAD5E1 DUP5 PUSH1 0x40 MLOAD PUSH2 0x3AEE SWAP2 SWAP1 PUSH2 0x498A JUMP JUMPDEST PUSH1 0x40 MLOAD DUP1 SWAP2 SUB SWAP1 LOG3 PUSH2 0x3B01 DUP8 DUP8 DUP4 PUSH2 0x402B JUMP JUMPDEST POP POP PUSH2 0x3B15 JUMP JUMPDEST JUMPDEST PUSH2 0x3B14 DUP6 DUP6 DUP6 PUSH2 0x402B JUMP JUMPDEST JUMPDEST POP POP POP POP POP JUMP JUMPDEST PUSH0 PUSH32 0x8B73C3C69BB8FE3D512ECC4CF759CC79239F7B179B0FFACAA9A75D522B39400F PUSH32 0x0 PUSH32 0x0 CHAINID ADDRESS PUSH1 0x40 MLOAD PUSH1 0x20 ADD PUSH2 0x3B96 SWAP6 SWAP5 SWAP4 SWAP3 SWAP2 SWAP1 PUSH2 0x56B5 JUMP JUMPDEST PUSH1 0x40 MLOAD PUSH1 0x20 DUP2 DUP4 SUB SUB DUP2 MSTORE SWAP1 PUSH1 0x40 MSTORE DUP1 MLOAD SWAP1 PUSH1 0x20 ADD KECCAK256 SWAP1 POP SWAP1 JUMP JUMPDEST PUSH2 0x3BB9 PUSH2 0x4043 JUMP JUMPDEST PUSH0 PUSH1 0x46 PUSH0 PUSH2 0x100 EXP DUP2 SLOAD DUP2 PUSH1 0xFF MUL NOT AND SWAP1 DUP4 ISZERO ISZERO MUL OR SWAP1 SSTORE POP PUSH32 0x5DB9EE0A495BF2E6FF9C91A7834C1BA4FDD244A5E8AA4E537BD38AEAE4B073AA PUSH2 0x3BFB PUSH2 0x2D55 JUMP JUMPDEST PUSH1 0x40 MLOAD PUSH2 0x3C08 SWAP2 SWAP1 PUSH2 0x4D92 JUMP JUMPDEST PUSH1 0x40 MLOAD DUP1 SWAP2 SUB SWAP1 LOG1 JUMP JUMPDEST PUSH0 PUSH20 0xFFFFFFFFFFFFFFFFFFFFFFFFFFFFFFFFFFFFFFFF AND DUP3 PUSH20 0xFFFFFFFFFFFFFFFFFFFFFFFFFFFFFFFFFFFFFFFF AND SUB PUSH2 0x3C82 JUMPI PUSH0 PUSH1 0x40 MLOAD PUSH32 0xEC442F0500000000000000000000000000000000000000000000000000000000 DUP2 MSTORE PUSH1 0x4 ADD PUSH2 0x3C79 SWAP2 SWAP1 PUSH2 0x4D92 JUMP JUMPDEST PUSH1 0x40 MLOAD DUP1 SWAP2 SUB SWAP1 REVERT JUMPDEST PUSH2 0x3C8D PUSH0 DUP4 DUP4 PUSH2 0x35DE JUMP JUMPDEST POP POP JUMP JUMPDEST PUSH0 PUSH0 PUSH0 SWAP1 POP PUSH0 DUP5 DUP1 SLOAD SWAP1 POP SWAP1 POP PUSH0 DUP2 SUB PUSH2 0x3CAF JUMPI PUSH0 SWAP3 POP POP POP PUSH2 0x3D3E JUMP JUMPDEST JUMPDEST DUP1 DUP3 LT ISZERO PUSH2 0x3CF7 JUMPI PUSH0 PUSH2 0x3CC3 DUP4 DUP4 PUSH2 0x4083 JUMP JUMPDEST SWAP1 POP DUP5 PUSH2 0x3CD0 DUP8 DUP4 PUSH2 0x40A8 JUMP JUMPDEST PUSH0 ADD SLOAD GT ISZERO PUSH2 0x3CE1 JUMPI DUP1 SWAP2 POP PUSH2 0x3CF1 JUMP JUMPDEST PUSH1 0x1 DUP2 PUSH2 0x3CEE SWAP2 SWAP1 PUSH2 0x4F52 JUMP JUMPDEST SWAP3 POP JUMPDEST POP PUSH2 0x3CB0 JUMP JUMPDEST PUSH0 DUP3 GT DUP1 ISZERO PUSH2 0x3D1D JUMPI POP DUP4 PUSH2 0x3D18 DUP7 PUSH1 0x1 DUP6 PUSH2 0x3D13 SWAP2 SWAP1 PUSH2 0x5682 JUMP JUMPDEST PUSH2 0x40A8 JUMP JUMPDEST PUSH0 ADD SLOAD EQ JUMPDEST ISZERO PUSH2 0x3D38 JUMPI PUSH1 0x1 DUP3 PUSH2 0x3D2F SWAP2 SWAP1 PUSH2 0x5682 JUMP JUMPDEST SWAP3 POP POP POP PUSH2 0x3D3E JUMP JUMPDEST DUP2 SWAP3 POP POP POP JUMPDEST SWAP3 SWAP2 POP POP JUMP JUMPDEST PUSH0 PUSH1 0x4A PUSH0 SWAP1 SLOAD SWAP1 PUSH2 0x100 EXP SWAP1 DIV PUSH20 0xFFFFFFFFFFFFFFFFFFFFFFFFFFFFFFFFFFFFFFFF AND SWAP1 POP DUP2 PUSH1 0x4A PUSH0 PUSH2 0x100 EXP DUP2 SLOAD DUP2 PUSH20 0xFFFFFFFFFFFFFFFFFFFFFFFFFFFFFFFFFFFFFFFF MUL NOT AND SWAP1 DUP4 PUSH20 0xFFFFFFFFFFFFFFFFFFFFFFFFFFFFFFFFFFFFFFFF AND MUL OR SWAP1 SSTORE POP DUP2 PUSH20 0xFFFFFFFFFFFFFFFFFFFFFFFFFFFFFFFFFFFFFFFF AND DUP2 PUSH20 0xFFFFFFFFFFFFFFFFFFFFFFFFFFFFFFFFFFFFFFFF AND PUSH32 0x8BE0079C531659141344CD1FD0A4F28419497F9722A3DAAFE3B4186F6B6457E0 PUSH1 0x40 MLOAD PUSH1 0x40 MLOAD DUP1 SWAP2 SUB SWAP1 LOG3 POP POP JUMP JUMPDEST PUSH2 0x3E0F PUSH2 0x40D9 JUMP JUMPDEST PUSH1 0x1 PUSH1 0x46 PUSH0 PUSH2 0x100 EXP DUP2 SLOAD DUP2 PUSH1 0xFF MUL NOT AND SWAP1 DUP4 ISZERO ISZERO MUL OR SWAP1 SSTORE POP PUSH32 0x62E78CEA01BEE320CD4E420270B5EA74000D11B0C9F74754EBDBFC544B05A258 PUSH2 0x3E52 PUSH2 0x2D55 JUMP JUMPDEST PUSH1 0x40 MLOAD PUSH2 0x3E5F SWAP2 SWAP1 PUSH2 0x4D92 JUMP JUMPDEST PUSH1 0x40 MLOAD DUP1 SWAP2 SUB SWAP1 LOG1 JUMP JUMPDEST PUSH1 0x60 PUSH1 0xFF PUSH0 SHL DUP4 EQ PUSH2 0x3E85 JUMPI PUSH2 0x3E7E DUP4 PUSH2 0x411A JUMP JUMPDEST SWAP1 POP PUSH2 0x3F10 JUMP JUMPDEST DUP2 DUP1 SLOAD PUSH2 0x3E91 SWAP1 PUSH2 0x4FD9 JUMP JUMPDEST DUP1 PUSH1 0x1F ADD PUSH1 0x20 DUP1 SWAP2 DIV MUL PUSH1 0x20 ADD PUSH1 0x40 MLOAD SWAP1 DUP2 ADD PUSH1 0x40 MSTORE DUP1 SWAP3 SWAP2 SWAP1 DUP2 DUP2 MSTORE PUSH1 0x20 ADD DUP3 DUP1 SLOAD PUSH2 0x3EBD SWAP1 PUSH2 0x4FD9 JUMP JUMPDEST DUP1 ISZERO PUSH2 0x3F08 JUMPI DUP1 PUSH1 0x1F LT PUSH2 0x3EDF JUMPI PUSH2 0x100 DUP1 DUP4 SLOAD DIV MUL DUP4 MSTORE SWAP2 PUSH1 0x20 ADD SWAP2 PUSH2 0x3F08 JUMP JUMPDEST DUP3 ADD SWAP2 SWAP1 PUSH0 MSTORE PUSH1 0x20 PUSH0 KECCAK256 SWAP1 JUMPDEST DUP2 SLOAD DUP2 MSTORE SWAP1 PUSH1 0x1 ADD SWAP1 PUSH1 0x20 ADD DUP1 DUP4 GT PUSH2 0x3EEB JUMPI DUP3 SWAP1 SUB PUSH1 0x1F AND DUP3 ADD SWAP2 JUMPDEST POP POP POP POP POP SWAP1 POP JUMPDEST SWAP3 SWAP2 POP POP JUMP JUMPDEST PUSH0 PUSH1 0x49 PUSH0 DUP4 PUSH20 0xFFFFFFFFFFFFFFFFFFFFFFFFFFFFFFFFFFFFFFFF AND PUSH20 0xFFFFFFFFFFFFFFFFFFFFFFFFFFFFFFFFFFFFFFFF AND DUP2 MSTORE PUSH1 0x20 ADD SWAP1 DUP2 MSTORE PUSH1 0x20 ADD PUSH0 KECCAK256 PUSH0 DUP2 SLOAD DUP1 SWAP3 SWAP2 SWAP1 PUSH1 0x1 ADD SWAP2 SWAP1 POP SSTORE SWAP1 POP SWAP2 SWAP1 POP JUMP JUMPDEST PUSH0 PUSH2 0x3F7B PUSH2 0x3F75 PUSH2 0x2F41 JUMP JUMPDEST DUP4 PUSH2 0x418C JUMP JUMPDEST SWAP1 POP SWAP2 SWAP1 POP JUMP JUMPDEST PUSH0 PUSH0 PUSH0 PUSH0 PUSH2 0x3F92 DUP9 DUP9 DUP9 DUP9 PUSH2 0x41CC JUMP JUMPDEST SWAP3 POP SWAP3 POP SWAP3 POP PUSH2 0x3FA2 DUP3 DUP3 PUSH2 0x42B3 JUMP JUMPDEST DUP3 SWAP4 POP POP POP POP SWAP5 SWAP4 POP POP POP POP JUMP JUMPDEST PUSH2 0x3FBA DUP3 DUP3 PUSH2 0x3FBE JUMP JUMPDEST POP POP JUMP JUMPDEST PUSH0 PUSH1 0x4D SLOAD SWAP1 POP DUP1 PUSH2 0x3FD0 DUP5 PUSH0 ADD PUSH2 0x4415 JUMP JUMPDEST LT ISZERO PUSH2 0x4026 JUMPI DUP3 PUSH0 ADD DUP2 SWAP1 DUP1 PUSH1 0x1 DUP2 SLOAD ADD DUP1 DUP3 SSTORE DUP1 SWAP2 POP POP PUSH1 0x1 SWAP1 SUB SWAP1 PUSH0 MSTORE PUSH1 0x20 PUSH0 KECCAK256 ADD PUSH0 SWAP1 SWAP2 SWAP1 SWAP2 SWAP1 SWAP2 POP SSTORE DUP3 PUSH1 0x1 ADD DUP3 SWAP1 DUP1 PUSH1 0x1 DUP2 SLOAD ADD DUP1 DUP3 SSTORE DUP1 SWAP2 POP POP PUSH1 0x1 SWAP1 SUB SWAP1 PUSH0 MSTORE PUSH1 0x20 PUSH0 KECCAK256 ADD PUSH0 SWAP1 SWAP2 SWAP1 SWAP2 SWAP1 SWAP2 POP SSTORE JUMPDEST POP POP POP JUMP JUMPDEST PUSH2 0x4033 PUSH2 0x40D9 JUMP JUMPDEST PUSH2 0x403E DUP4 DUP4 DUP4 PUSH2 0x445D JUMP JUMPDEST POP POP POP JUMP JUMPDEST PUSH2 0x404B PUSH2 0x1895 JUMP JUMPDEST PUSH2 0x4081 JUMPI PUSH1 0x40 MLOAD PUSH32 0x8DFC202B00000000000000000000000000000000000000000000000000000000 DUP2 MSTORE PUSH1 0x4 ADD PUSH1 0x40 MLOAD DUP1 SWAP2 SUB SWAP1 REVERT JUMPDEST JUMP JUMPDEST PUSH0 PUSH1 0x2 DUP3 DUP5 XOR PUSH2 0x4093 SWAP2 SWAP1 PUSH2 0x5652 JUMP JUMPDEST DUP3 DUP5 AND PUSH2 0x40A0 SWAP2 SWAP1 PUSH2 0x4F52 JUMP JUMPDEST SWAP1 POP SWAP3 SWAP2 POP POP JUMP JUMPDEST PUSH0 PUSH0 DUP4 SWAP1 POP PUSH2 0x40D0 PUSH2 0x40CB DUP5 PUSH2 0x40BD DUP5 PUSH2 0x4679 JUMP JUMPDEST PUSH2 0x4688 SWAP1 SWAP2 SWAP1 PUSH4 0xFFFFFFFF AND JUMP JUMPDEST PUSH2 0x4698 JUMP JUMPDEST SWAP2 POP POP SWAP3 SWAP2 POP POP JUMP JUMPDEST PUSH2 0x40E1 PUSH2 0x1895 JUMP JUMPDEST ISZERO PUSH2 0x4118 JUMPI PUSH1 0x40 MLOAD PUSH32 0xD93C066500000000000000000000000000000000000000000000000000000000 DUP2 MSTORE PUSH1 0x4 ADD PUSH1 0x40 MLOAD DUP1 SWAP2 SUB SWAP1 REVERT JUMPDEST JUMP JUMPDEST PUSH1 0x60 PUSH0 PUSH2 0x4126 DUP4 PUSH2 0x46A1 JUMP JUMPDEST SWAP1 POP PUSH0 PUSH1 0x20 PUSH8 0xFFFFFFFFFFFFFFFF DUP2 GT ISZERO PUSH2 0x4144 JUMPI PUSH2 0x4143 PUSH2 0x51AF JUMP JUMPDEST JUMPDEST PUSH1 0x40 MLOAD SWAP1 DUP1 DUP3 MSTORE DUP1 PUSH1 0x1F ADD PUSH1 0x1F NOT AND PUSH1 0x20 ADD DUP3 ADD PUSH1 0x40 MSTORE DUP1 ISZERO PUSH2 0x4176 JUMPI DUP2 PUSH1 0x20 ADD PUSH1 0x1 DUP3 MUL DUP1 CALLDATASIZE DUP4 CALLDATACOPY DUP1 DUP3 ADD SWAP2 POP POP SWAP1 POP JUMPDEST POP SWAP1 POP DUP2 DUP2 MSTORE DUP4 PUSH1 0x20 DUP3 ADD MSTORE DUP1 SWAP3 POP POP POP SWAP2 SWAP1 POP JUMP JUMPDEST PUSH0 PUSH1 0x40 MLOAD PUSH32 0x1901000000000000000000000000000000000000000000000000000000000000 DUP2 MSTORE DUP4 PUSH1 0x2 DUP3 ADD MSTORE DUP3 PUSH1 0x22 DUP3 ADD MSTORE PUSH1 0x42 DUP2 KECCAK256 SWAP2 POP POP SWAP3 SWAP2 POP POP JUMP JUMPDEST PUSH0 PUSH0 PUSH0 PUSH32 0x7FFFFFFFFFFFFFFFFFFFFFFFFFFFFFFF5D576E7357A4501DDFE92F46681B20A0 DUP5 PUSH0 SHR GT ISZERO PUSH2 0x4208 JUMPI PUSH0 PUSH1 0x3 DUP6 SWAP3 POP SWAP3 POP SWAP3 POP PUSH2 0x42A9 JUMP JUMPDEST PUSH0 PUSH1 0x1 DUP9 DUP9 DUP9 DUP9 PUSH1 0x40 MLOAD PUSH0 DUP2 MSTORE PUSH1 0x20 ADD PUSH1 0x40 MSTORE PUSH1 0x40 MLOAD PUSH2 0x422B SWAP5 SWAP4 SWAP3 SWAP2 SWAP1 PUSH2 0x5706 JUMP JUMPDEST PUSH1 0x20 PUSH1 0x40 MLOAD PUSH1 0x20 DUP2 SUB SWAP1 DUP1 DUP5 SUB SWAP1 DUP6 GAS STATICCALL ISZERO DUP1 ISZERO PUSH2 0x424B JUMPI RETURNDATASIZE PUSH0 PUSH0 RETURNDATACOPY RETURNDATASIZE PUSH0 REVERT JUMPDEST POP POP POP PUSH1 0x20 PUSH1 0x40 MLOAD SUB MLOAD SWAP1 POP PUSH0 PUSH20 0xFFFFFFFFFFFFFFFFFFFFFFFFFFFFFFFFFFFFFFFF AND DUP2 PUSH20 0xFFFFFFFFFFFFFFFFFFFFFFFFFFFFFFFFFFFFFFFF AND SUB PUSH2 0x429C JUMPI PUSH0 PUSH1 0x1 PUSH0 PUSH0 SHL SWAP4 POP SWAP4 POP SWAP4 POP POP PUSH2 0x42A9 JUMP JUMPDEST DUP1 PUSH0 PUSH0 PUSH0 SHL SWAP4 POP SWAP4 POP SWAP4 POP POP JUMPDEST SWAP5 POP SWAP5 POP SWAP5 SWAP2 POP POP JUMP JUMPDEST PUSH0 PUSH1 0x3 DUP2 GT ISZERO PUSH2 0x42C6 JUMPI PUSH2 0x42C5 PUSH2 0x5749 JUMP JUMPDEST JUMPDEST DUP3 PUSH1 0x3 DUP2 GT ISZERO PUSH2 0x42D9 JUMPI PUSH2 0x42D8 PUSH2 0x5749 JUMP JUMPDEST JUMPDEST SUB ISZERO PUSH2 0x4411 JUMPI PUSH1 0x1 PUSH1 0x3 DUP2 GT ISZERO PUSH2 0x42F3 JUMPI PUSH2 0x42F2 PUSH2 0x5749 JUMP JUMPDEST JUMPDEST DUP3 PUSH1 0x3 DUP2 GT ISZERO PUSH2 0x4306 JUMPI PUSH2 0x4305 PUSH2 0x5749 JUMP JUMPDEST JUMPDEST SUB PUSH2 0x433D JUMPI PUSH1 0x40 MLOAD PUSH32 0xF645EEDF00000000000000000000000000000000000000000000000000000000 DUP2 MSTORE PUSH1 0x4 ADD PUSH1 0x40 MLOAD DUP1 SWAP2 SUB SWAP1 REVERT JUMPDEST PUSH1 0x2 PUSH1 0x3 DUP2 GT ISZERO PUSH2 0x4351 JUMPI PUSH2 0x4350 PUSH2 0x5749 JUMP JUMPDEST JUMPDEST DUP3 PUSH1 0x3 DUP2 GT ISZERO PUSH2 0x4364 JUMPI PUSH2 0x4363 PUSH2 0x5749 JUMP JUMPDEST JUMPDEST SUB PUSH2 0x43A8 JUMPI DUP1 PUSH0 SHR PUSH1 0x40 MLOAD PUSH32 0xFCE698F700000000000000000000000000000000000000000000000000000000 DUP2 MSTORE PUSH1 0x4 ADD PUSH2 0x439F SWAP2 SWAP1 PUSH2 0x498A JUMP JUMPDEST PUSH1 0x40 MLOAD DUP1 SWAP2 SUB SWAP1 REVERT JUMPDEST PUSH1 0x3 DUP1 DUP2 GT ISZERO PUSH2 0x43BB JUMPI PUSH2 0x43BA PUSH2 0x5749 JUMP JUMPDEST JUMPDEST DUP3 PUSH1 0x3 DUP2 GT ISZERO PUSH2 0x43CE JUMPI PUSH2 0x43CD PUSH2 0x5749 JUMP JUMPDEST JUMPDEST SUB PUSH2 0x4410 JUMPI DUP1 PUSH1 0x40 MLOAD PUSH32 0xD78BCE0C00000000000000000000000000000000000000000000000000000000 DUP2 MSTORE PUSH1 0x4 ADD PUSH2 0x4407 SWAP2 SWAP1 PUSH2 0x4A3F JUMP JUMPDEST PUSH1 0x40 MLOAD DUP1 SWAP2 SUB SWAP1 REVERT JUMPDEST JUMPDEST POP POP JUMP JUMPDEST PUSH0 PUSH0 DUP3 DUP1 SLOAD SWAP1 POP SUB PUSH2 0x4429 JUMPI PUSH0 SWAP1 POP PUSH2 0x4458 JUMP JUMPDEST DUP2 PUSH1 0x1 DUP4 DUP1 SLOAD SWAP1 POP PUSH2 0x443B SWAP2 SWAP1 PUSH2 0x5682 JUMP JUMPDEST DUP2 SLOAD DUP2 LT PUSH2 0x444C JUMPI PUSH2 0x444B PUSH2 0x5182 JUMP JUMPDEST JUMPDEST SWAP1 PUSH0 MSTORE PUSH1 0x20 PUSH0 KECCAK256 ADD SLOAD SWAP1 POP JUMPDEST SWAP2 SWAP1 POP JUMP JUMPDEST PUSH0 PUSH20 0xFFFFFFFFFFFFFFFFFFFFFFFFFFFFFFFFFFFFFFFF AND DUP4 PUSH20 0xFFFFFFFFFFFFFFFFFFFFFFFFFFFFFFFFFFFFFFFF AND SUB PUSH2 0x44AD JUMPI DUP1 PUSH1 0x43 PUSH0 DUP3 DUP3 SLOAD PUSH2 0x44A1 SWAP2 SWAP1 PUSH2 0x4F52 JUMP JUMPDEST SWAP3 POP POP DUP2 SWAP1 SSTORE POP PUSH2 0x457D JUMP JUMPDEST PUSH0 PUSH1 0x41 PUSH0 DUP6 PUSH20 0xFFFFFFFFFFFFFFFFFFFFFFFFFFFFFFFFFFFFFFFF AND PUSH20 0xFFFFFFFFFFFFFFFFFFFFFFFFFFFFFFFFFFFFFFFF AND DUP2 MSTORE PUSH1 0x20 ADD SWAP1 DUP2 MSTORE PUSH1 0x20 ADD PUSH0 KECCAK256 SLOAD SWAP1 POP DUP2 DUP2 LT ISZERO PUSH2 0x4537 JUMPI DUP4 DUP2 DUP4 PUSH1 0x40 MLOAD PUSH32 0xE450D38C00000000000000000000000000000000000000000000000000000000 DUP2 MSTORE PUSH1 0x4 ADD PUSH2 0x452E SWAP4 SWAP3 SWAP2 SWAP1 PUSH2 0x51DC JUMP JUMPDEST PUSH1 0x40 MLOAD DUP1 SWAP2 SUB SWAP1 REVERT JUMPDEST DUP2 DUP2 SUB PUSH1 0x41 PUSH0 DUP7 PUSH20 0xFFFFFFFFFFFFFFFFFFFFFFFFFFFFFFFFFFFFFFFF AND PUSH20 0xFFFFFFFFFFFFFFFFFFFFFFFFFFFFFFFFFFFFFFFF AND DUP2 MSTORE PUSH1 0x20 ADD SWAP1 DUP2 MSTORE PUSH1 0x20 ADD PUSH0 KECCAK256 DUP2 SWAP1 SSTORE POP POP JUMPDEST PUSH0 PUSH20 0xFFFFFFFFFFFFFFFFFFFFFFFFFFFFFFFFFFFFFFFF AND DUP3 PUSH20 0xFFFFFFFFFFFFFFFFFFFFFFFFFFFFFFFFFFFFFFFF AND SUB PUSH2 0x45C4 JUMPI DUP1 PUSH1 0x43 PUSH0 DUP3 DUP3 SLOAD SUB SWAP3 POP POP DUP2 SWAP1 SSTORE POP PUSH2 0x460F JUMP JUMPDEST DUP1 PUSH1 0x41 PUSH0 DUP5 PUSH20 0xFFFFFFFFFFFFFFFFFFFFFFFFFFFFFFFFFFFFFFFF AND PUSH20 0xFFFFFFFFFFFFFFFFFFFFFFFFFFFFFFFFFFFFFFFF AND DUP2 MSTORE PUSH1 0x20 ADD SWAP1 DUP2 MSTORE PUSH1 0x20 ADD PUSH0 KECCAK256 PUSH0 DUP3 DUP3 SLOAD ADD SWAP3 POP POP DUP2 SWAP1 SSTORE POP JUMPDEST DUP2 PUSH20 0xFFFFFFFFFFFFFFFFFFFFFFFFFFFFFFFFFFFFFFFF AND DUP4 PUSH20 0xFFFFFFFFFFFFFFFFFFFFFFFFFFFFFFFFFFFFFFFF AND PUSH32 0xDDF252AD1BE2C89B69C2B068FC378DAA952BA7F163C4A11628F55A4DF523B3EF DUP4 PUSH1 0x40 MLOAD PUSH2 0x466C SWAP2 SWAP1 PUSH2 0x498A JUMP JUMPDEST PUSH1 0x40 MLOAD DUP1 SWAP2 SUB SWAP1 LOG3 POP POP POP JUMP JUMPDEST PUSH0 DUP2 PUSH0 MSTORE PUSH1 0x20 PUSH0 KECCAK256 SWAP1 POP SWAP2 SWAP1 POP JUMP JUMPDEST PUSH0 DUP2 DUP4 PUSH0 SHR ADD PUSH0 SHL SWAP1 POP SWAP3 SWAP2 POP POP JUMP JUMPDEST PUSH0 DUP2 SWAP1 POP SWAP2 SWAP1 POP JUMP JUMPDEST PUSH0 PUSH0 PUSH1 0xFF DUP4 PUSH0 SHR AND SWAP1 POP PUSH1 0x1F DUP2 GT ISZERO PUSH2 0x46E6 JUMPI PUSH1 0x40 MLOAD PUSH32 0xB3512B0C00000000000000000000000000000000000000000000000000000000 DUP2 MSTORE PUSH1 0x4 ADD PUSH1 0x40 MLOAD DUP1 SWAP2 SUB SWAP1 REVERT JUMPDEST DUP1 SWAP2 POP POP SWAP2 SWAP1 POP JUMP JUMPDEST PUSH0 PUSH0 REVERT JUMPDEST PUSH0 PUSH0 REVERT JUMPDEST PUSH0 DUP2 SWAP1 POP SWAP2 SWAP1 POP JUMP JUMPDEST PUSH2 0x4709 DUP2 PUSH2 0x46F7 JUMP JUMPDEST DUP2 EQ PUSH2 0x4713 JUMPI PUSH0 PUSH0 REVERT JUMPDEST POP JUMP JUMPDEST PUSH0 DUP2 CALLDATALOAD SWAP1 POP PUSH2 0x4724 DUP2 PUSH2 0x4700 JUMP JUMPDEST SWAP3 SWAP2 POP POP JUMP JUMPDEST PUSH0 PUSH1 0x20 DUP3 DUP5 SUB SLT ISZERO PUSH2 0x473F JUMPI PUSH2 0x473E PUSH2 0x46EF JUMP JUMPDEST JUMPDEST PUSH0 PUSH2 0x474C DUP5 DUP3 DUP6 ADD PUSH2 0x4716 JUMP JUMPDEST SWAP2 POP POP SWAP3 SWAP2 POP POP JUMP JUMPDEST PUSH0 DUP2 MLOAD SWAP1 POP SWAP2 SWAP1 POP JUMP JUMPDEST PUSH0 DUP3 DUP3 MSTORE PUSH1 0x20 DUP3 ADD SWAP1 POP SWAP3 SWAP2 POP POP JUMP JUMPDEST DUP3 DUP2 DUP4 MCOPY PUSH0 DUP4 DUP4 ADD MSTORE POP POP POP JUMP JUMPDEST PUSH0 PUSH1 0x1F NOT PUSH1 0x1F DUP4 ADD AND SWAP1 POP SWAP2 SWAP1 POP JUMP JUMPDEST PUSH0 PUSH2 0x4797 DUP3 PUSH2 0x4755 JUMP JUMPDEST PUSH2 0x47A1 DUP2 DUP6 PUSH2 0x475F JUMP JUMPDEST SWAP4 POP PUSH2 0x47B1 DUP2 DUP6 PUSH1 0x20 DUP7 ADD PUSH2 0x476F JUMP JUMPDEST PUSH2 0x47BA DUP2 PUSH2 0x477D JUMP JUMPDEST DUP5 ADD SWAP2 POP POP SWAP3 SWAP2 POP POP JUMP JUMPDEST PUSH0 PUSH1 0x20 DUP3 ADD SWAP1 POP DUP2 DUP2 SUB PUSH0 DUP4 ADD MSTORE PUSH2 0x47DD DUP2 DUP5 PUSH2 0x478D JUMP JUMPDEST SWAP1 POP SWAP3 SWAP2 POP POP JUMP JUMPDEST PUSH0 PUSH20 0xFFFFFFFFFFFFFFFFFFFFFFFFFFFFFFFFFFFFFFFF DUP3 AND SWAP1 POP SWAP2 SWAP1 POP JUMP JUMPDEST PUSH0 PUSH2 0x480E DUP3 PUSH2 0x47E5 JUMP JUMPDEST SWAP1 POP SWAP2 SWAP1 POP JUMP JUMPDEST PUSH2 0x481E DUP2 PUSH2 0x4804 JUMP JUMPDEST DUP2 EQ PUSH2 0x4828 JUMPI PUSH0 PUSH0 REVERT JUMPDEST POP JUMP JUMPDEST PUSH0 DUP2 CALLDATALOAD SWAP1 POP PUSH2 0x4839 DUP2 PUSH2 0x4815 JUMP JUMPDEST SWAP3 SWAP2 POP POP JUMP JUMPDEST PUSH0 PUSH0 PUSH1 0x40 DUP4 DUP6 SUB SLT ISZERO PUSH2 0x4855 JUMPI PUSH2 0x4854 PUSH2 0x46EF JUMP JUMPDEST JUMPDEST PUSH0 PUSH2 0x4862 DUP6 DUP3 DUP7 ADD PUSH2 0x482B JUMP JUMPDEST SWAP3 POP POP PUSH1 0x20 PUSH2 0x4873 DUP6 DUP3 DUP7 ADD PUSH2 0x4716 JUMP JUMPDEST SWAP2 POP POP SWAP3 POP SWAP3 SWAP1 POP JUMP JUMPDEST PUSH0 DUP2 ISZERO ISZERO SWAP1 POP SWAP2 SWAP1 POP JUMP JUMPDEST PUSH2 0x4891 DUP2 PUSH2 0x487D JUMP JUMPDEST DUP3 MSTORE POP POP JUMP JUMPDEST PUSH0 PUSH1 0x20 DUP3 ADD SWAP1 POP PUSH2 0x48AA PUSH0 DUP4 ADD DUP5 PUSH2 0x4888 JUMP JUMPDEST SWAP3 SWAP2 POP POP JUMP JUMPDEST PUSH0 PUSH2 0x48BA DUP3 PUSH2 0x47E5 JUMP JUMPDEST SWAP1 POP SWAP2 SWAP1 POP JUMP JUMPDEST PUSH2 0x48CA DUP2 PUSH2 0x48B0 JUMP JUMPDEST DUP2 EQ PUSH2 0x48D4 JUMPI PUSH0 PUSH0 REVERT JUMPDEST POP JUMP JUMPDEST PUSH0 DUP2 CALLDATALOAD SWAP1 POP PUSH2 0x48E5 DUP2 PUSH2 0x48C1 JUMP JUMPDEST SWAP3 SWAP2 POP POP JUMP JUMPDEST PUSH0 PUSH0 PUSH1 0x40 DUP4 DUP6 SUB SLT ISZERO PUSH2 0x4901 JUMPI PUSH2 0x4900 PUSH2 0x46EF JUMP JUMPDEST JUMPDEST PUSH0 PUSH2 0x490E DUP6 DUP3 DUP7 ADD PUSH2 0x48D7 JUMP JUMPDEST SWAP3 POP POP PUSH1 0x20 PUSH2 0x491F DUP6 DUP3 DUP7 ADD PUSH2 0x4716 JUMP JUMPDEST SWAP2 POP POP SWAP3 POP SWAP3 SWAP1 POP JUMP JUMPDEST PUSH2 0x4932 DUP2 PUSH2 0x46F7 JUMP JUMPDEST DUP3 MSTORE POP POP JUMP JUMPDEST PUSH2 0x4941 DUP2 PUSH2 0x4804 JUMP JUMPDEST DUP3 MSTORE POP POP JUMP JUMPDEST PUSH0 PUSH1 0x80 DUP3 ADD SWAP1 POP PUSH2 0x495A PUSH0 DUP4 ADD DUP8 PUSH2 0x4929 JUMP JUMPDEST PUSH2 0x4967 PUSH1 0x20 DUP4 ADD DUP7 PUSH2 0x4938 JUMP JUMPDEST PUSH2 0x4974 PUSH1 0x40 DUP4 ADD DUP6 PUSH2 0x4929 JUMP JUMPDEST PUSH2 0x4981 PUSH1 0x60 DUP4 ADD DUP5 PUSH2 0x4888 JUMP JUMPDEST SWAP6 SWAP5 POP POP POP POP POP JUMP JUMPDEST PUSH0 PUSH1 0x20 DUP3 ADD SWAP1 POP PUSH2 0x499D PUSH0 DUP4 ADD DUP5 PUSH2 0x4929 JUMP JUMPDEST SWAP3 SWAP2 POP POP JUMP JUMPDEST PUSH0 PUSH0 PUSH0 PUSH1 0x60 DUP5 DUP7 SUB SLT ISZERO PUSH2 0x49BA JUMPI PUSH2 0x49B9 PUSH2 0x46EF JUMP JUMPDEST JUMPDEST PUSH0 PUSH2 0x49C7 DUP7 DUP3 DUP8 ADD PUSH2 0x482B JUMP JUMPDEST SWAP4 POP POP PUSH1 0x20 PUSH2 0x49D8 DUP7 DUP3 DUP8 ADD PUSH2 0x482B JUMP JUMPDEST SWAP3 POP POP PUSH1 0x40 PUSH2 0x49E9 DUP7 DUP3 DUP8 ADD PUSH2 0x4716 JUMP JUMPDEST SWAP2 POP POP SWAP3 POP SWAP3 POP SWAP3 JUMP JUMPDEST PUSH0 PUSH1 0xFF DUP3 AND SWAP1 POP SWAP2 SWAP1 POP JUMP JUMPDEST PUSH2 0x4A08 DUP2 PUSH2 0x49F3 JUMP JUMPDEST DUP3 MSTORE POP POP JUMP JUMPDEST PUSH0 PUSH1 0x20 DUP3 ADD SWAP1 POP PUSH2 0x4A21 PUSH0 DUP4 ADD DUP5 PUSH2 0x49FF JUMP JUMPDEST SWAP3 SWAP2 POP POP JUMP JUMPDEST PUSH0 DUP2 SWAP1 POP SWAP2 SWAP1 POP JUMP JUMPDEST PUSH2 0x4A39 DUP2 PUSH2 0x4A27 JUMP JUMPDEST DUP3 MSTORE POP POP JUMP JUMPDEST PUSH0 PUSH1 0x20 DUP3 ADD SWAP1 POP PUSH2 0x4A52 PUSH0 DUP4 ADD DUP5 PUSH2 0x4A30 JUMP JUMPDEST SWAP3 SWAP2 POP POP JUMP JUMPDEST PUSH0 PUSH1 0x20 DUP3 DUP5 SUB SLT ISZERO PUSH2 0x4A6D JUMPI PUSH2 0x4A6C PUSH2 0x46EF JUMP JUMPDEST JUMPDEST PUSH0 PUSH2 0x4A7A DUP5 DUP3 DUP6 ADD PUSH2 0x482B JUMP JUMPDEST SWAP2 POP POP SWAP3 SWAP2 POP POP JUMP JUMPDEST PUSH2 0x4A8C DUP2 PUSH2 0x487D JUMP JUMPDEST DUP2 EQ PUSH2 0x4A96 JUMPI PUSH0 PUSH0 REVERT JUMPDEST POP JUMP JUMPDEST PUSH0 DUP2 CALLDATALOAD SWAP1 POP PUSH2 0x4AA7 DUP2 PUSH2 0x4A83 JUMP JUMPDEST SWAP3 SWAP2 POP POP JUMP JUMPDEST PUSH0 PUSH0 PUSH1 0x40 DUP4 DUP6 SUB SLT ISZERO PUSH2 0x4AC3 JUMPI PUSH2 0x4AC2 PUSH2 0x46EF JUMP JUMPDEST JUMPDEST PUSH0 PUSH2 0x4AD0 DUP6 DUP3 DUP7 ADD PUSH2 0x482B JUMP JUMPDEST SWAP3 POP POP PUSH1 0x20 PUSH2 0x4AE1 DUP6 DUP3 DUP7 ADD PUSH2 0x4A99 JUMP JUMPDEST SWAP2 POP POP SWAP3 POP SWAP3 SWAP1 POP JUMP JUMPDEST PUSH0 PUSH0 REVERT JUMPDEST PUSH0 PUSH0 REVERT JUMPDEST PUSH0 PUSH0 REVERT JUMPDEST PUSH0 PUSH0 DUP4 PUSH1 0x1F DUP5 ADD SLT PUSH2 0x4B0C JUMPI PUSH2 0x4B0B PUSH2 0x4AEB JUMP JUMPDEST JUMPDEST DUP3 CALLDATALOAD SWAP1 POP PUSH8 0xFFFFFFFFFFFFFFFF DUP2 GT ISZERO PUSH2 0x4B29 JUMPI PUSH2 0x4B28 PUSH2 0x4AEF JUMP JUMPDEST JUMPDEST PUSH1 0x20 DUP4 ADD SWAP2 POP DUP4 PUSH1 0x20 DUP3 MUL DUP4 ADD GT ISZERO PUSH2 0x4B45 JUMPI PUSH2 0x4B44 PUSH2 0x4AF3 JUMP JUMPDEST JUMPDEST SWAP3 POP SWAP3 SWAP1 POP JUMP JUMPDEST PUSH0 PUSH0 DUP4 PUSH1 0x1F DUP5 ADD SLT PUSH2 0x4B61 JUMPI PUSH2 0x4B60 PUSH2 0x4AEB JUMP JUMPDEST JUMPDEST DUP3 CALLDATALOAD SWAP1 POP PUSH8 0xFFFFFFFFFFFFFFFF DUP2 GT ISZERO PUSH2 0x4B7E JUMPI PUSH2 0x4B7D PUSH2 0x4AEF JUMP JUMPDEST JUMPDEST PUSH1 0x20 DUP4 ADD SWAP2 POP DUP4 PUSH1 0x20 DUP3 MUL DUP4 ADD GT ISZERO PUSH2 0x4B9A JUMPI PUSH2 0x4B99 PUSH2 0x4AF3 JUMP JUMPDEST JUMPDEST SWAP3 POP SWAP3 SWAP1 POP JUMP JUMPDEST PUSH0 PUSH0 PUSH0 PUSH0 PUSH1 0x40 DUP6 DUP8 SUB SLT ISZERO PUSH2 0x4BB9 JUMPI PUSH2 0x4BB8 PUSH2 0x46EF JUMP JUMPDEST JUMPDEST PUSH0 DUP6 ADD CALLDATALOAD PUSH8 0xFFFFFFFFFFFFFFFF DUP2 GT ISZERO PUSH2 0x4BD6 JUMPI PUSH2 0x4BD5 PUSH2 0x46F3 JUMP JUMPDEST JUMPDEST PUSH2 0x4BE2 DUP8 DUP3 DUP9 ADD PUSH2 0x4AF7 JUMP JUMPDEST SWAP5 POP SWAP5 POP POP PUSH1 0x20 DUP6 ADD CALLDATALOAD PUSH8 0xFFFFFFFFFFFFFFFF DUP2 GT ISZERO PUSH2 0x4C05 JUMPI PUSH2 0x4C04 PUSH2 0x46F3 JUMP JUMPDEST JUMPDEST PUSH2 0x4C11 DUP8 DUP3 DUP9 ADD PUSH2 0x4B4C JUMP JUMPDEST SWAP3 POP SWAP3 POP POP SWAP3 SWAP6 SWAP2 SWAP5 POP SWAP3 POP JUMP JUMPDEST PUSH0 PUSH32 0xFF00000000000000000000000000000000000000000000000000000000000000 DUP3 AND SWAP1 POP SWAP2 SWAP1 POP JUMP JUMPDEST PUSH2 0x4C53 DUP2 PUSH2 0x4C1F JUMP JUMPDEST DUP3 MSTORE POP POP JUMP JUMPDEST PUSH0 DUP2 MLOAD SWAP1 POP SWAP2 SWAP1 POP JUMP JUMPDEST PUSH0 DUP3 DUP3 MSTORE PUSH1 0x20 DUP3 ADD SWAP1 POP SWAP3 SWAP2 POP POP JUMP JUMPDEST PUSH0 DUP2 SWAP1 POP PUSH1 0x20 DUP3 ADD SWAP1 POP SWAP2 SWAP1 POP JUMP JUMPDEST PUSH2 0x4C8B DUP2 PUSH2 0x46F7 JUMP JUMPDEST DUP3 MSTORE POP POP JUMP JUMPDEST PUSH0 PUSH2 0x4C9C DUP4 DUP4 PUSH2 0x4C82 JUMP JUMPDEST PUSH1 0x20 DUP4 ADD SWAP1 POP SWAP3 SWAP2 POP POP JUMP JUMPDEST PUSH0 PUSH1 0x20 DUP3 ADD SWAP1 POP SWAP2 SWAP1 POP JUMP JUMPDEST PUSH0 PUSH2 0x4CBE DUP3 PUSH2 0x4C59 JUMP JUMPDEST PUSH2 0x4CC8 DUP2 DUP6 PUSH2 0x4C63 JUMP JUMPDEST SWAP4 POP PUSH2 0x4CD3 DUP4 PUSH2 0x4C73 JUMP JUMPDEST DUP1 PUSH0 JUMPDEST DUP4 DUP2 LT ISZERO PUSH2 0x4D03 JUMPI DUP2 MLOAD PUSH2 0x4CEA DUP9 DUP3 PUSH2 0x4C91 JUMP JUMPDEST SWAP8 POP PUSH2 0x4CF5 DUP4 PUSH2 0x4CA8 JUMP JUMPDEST SWAP3 POP POP PUSH1 0x1 DUP2 ADD SWAP1 POP PUSH2 0x4CD6 JUMP JUMPDEST POP DUP6 SWAP4 POP POP POP POP SWAP3 SWAP2 POP POP JUMP JUMPDEST PUSH0 PUSH1 0xE0 DUP3 ADD SWAP1 POP PUSH2 0x4D23 PUSH0 DUP4 ADD DUP11 PUSH2 0x4C4A JUMP JUMPDEST DUP2 DUP2 SUB PUSH1 0x20 DUP4 ADD MSTORE PUSH2 0x4D35 DUP2 DUP10 PUSH2 0x478D JUMP JUMPDEST SWAP1 POP DUP2 DUP2 SUB PUSH1 0x40 DUP4 ADD MSTORE PUSH2 0x4D49 DUP2 DUP9 PUSH2 0x478D JUMP JUMPDEST SWAP1 POP PUSH2 0x4D58 PUSH1 0x60 DUP4 ADD DUP8 PUSH2 0x4929 JUMP JUMPDEST PUSH2 0x4D65 PUSH1 0x80 DUP4 ADD DUP7 PUSH2 0x4938 JUMP JUMPDEST PUSH2 0x4D72 PUSH1 0xA0 DUP4 ADD DUP6 PUSH2 0x4A30 JUMP JUMPDEST DUP2 DUP2 SUB PUSH1 0xC0 DUP4 ADD MSTORE PUSH2 0x4D84 DUP2 DUP5 PUSH2 0x4CB4 JUMP JUMPDEST SWAP1 POP SWAP9 SWAP8 POP POP POP POP POP POP POP POP JUMP JUMPDEST PUSH0 PUSH1 0x20 DUP3 ADD SWAP1 POP PUSH2 0x4DA5 PUSH0 DUP4 ADD DUP5 PUSH2 0x4938 JUMP JUMPDEST SWAP3 SWAP2 POP POP JUMP JUMPDEST PUSH0 PUSH0 PUSH1 0x20 DUP4 DUP6 SUB SLT ISZERO PUSH2 0x4DC1 JUMPI PUSH2 0x4DC0 PUSH2 0x46EF JUMP JUMPDEST JUMPDEST PUSH0 DUP4 ADD CALLDATALOAD PUSH8 0xFFFFFFFFFFFFFFFF DUP2 GT ISZERO PUSH2 0x4DDE JUMPI PUSH2 0x4DDD PUSH2 0x46F3 JUMP JUMPDEST JUMPDEST PUSH2 0x4DEA DUP6 DUP3 DUP7 ADD PUSH2 0x4AF7 JUMP JUMPDEST SWAP3 POP SWAP3 POP POP SWAP3 POP SWAP3 SWAP1 POP JUMP JUMPDEST PUSH2 0x4DFF DUP2 PUSH2 0x49F3 JUMP JUMPDEST DUP2 EQ PUSH2 0x4E09 JUMPI PUSH0 PUSH0 REVERT JUMPDEST POP JUMP JUMPDEST PUSH0 DUP2 CALLDATALOAD SWAP1 POP PUSH2 0x4E1A DUP2 PUSH2 0x4DF6 JUMP JUMPDEST SWAP3 SWAP2 POP POP JUMP JUMPDEST PUSH2 0x4E29 DUP2 PUSH2 0x4A27 JUMP JUMPDEST DUP2 EQ PUSH2 0x4E33 JUMPI PUSH0 PUSH0 REVERT JUMPDEST POP JUMP JUMPDEST PUSH0 DUP2 CALLDATALOAD SWAP1 POP PUSH2 0x4E44 DUP2 PUSH2 0x4E20 JUMP JUMPDEST SWAP3 SWAP2 POP POP JUMP JUMPDEST PUSH0 PUSH0 PUSH0 PUSH0 PUSH0 PUSH0 PUSH0 PUSH1 0xE0 DUP9 DUP11 SUB SLT ISZERO PUSH2 0x4E65 JUMPI PUSH2 0x4E64 PUSH2 0x46EF JUMP JUMPDEST JUMPDEST PUSH0 PUSH2 0x4E72 DUP11 DUP3 DUP12 ADD PUSH2 0x482B JUMP JUMPDEST SWAP8 POP POP PUSH1 0x20 PUSH2 0x4E83 DUP11 DUP3 DUP12 ADD PUSH2 0x482B JUMP JUMPDEST SWAP7 POP POP PUSH1 0x40 PUSH2 0x4E94 DUP11 DUP3 DUP12 ADD PUSH2 0x4716 JUMP JUMPDEST SWAP6 POP POP PUSH1 0x60 PUSH2 0x4EA5 DUP11 DUP3 DUP12 ADD PUSH2 0x4716 JUMP JUMPDEST SWAP5 POP POP PUSH1 0x80 PUSH2 0x4EB6 DUP11 DUP3 DUP12 ADD PUSH2 0x4E0C JUMP JUMPDEST SWAP4 POP POP PUSH1 0xA0 PUSH2 0x4EC7 DUP11 DUP3 DUP12 ADD PUSH2 0x4E36 JUMP JUMPDEST SWAP3 POP POP PUSH1 0xC0 PUSH2 0x4ED8 DUP11 DUP3 DUP12 ADD PUSH2 0x4E36 JUMP JUMPDEST SWAP2 POP POP SWAP3 SWAP6 SWAP9 SWAP2 SWAP5 SWAP8 POP SWAP3 SWAP6 POP JUMP JUMPDEST PUSH0 PUSH0 PUSH1 0x40 DUP4 DUP6 SUB SLT ISZERO PUSH2 0x4EFD JUMPI PUSH2 0x4EFC PUSH2 0x46EF JUMP JUMPDEST JUMPDEST PUSH0 PUSH2 0x4F0A DUP6 DUP3 DUP7 ADD PUSH2 0x482B JUMP JUMPDEST SWAP3 POP POP PUSH1 0x20 PUSH2 0x4F1B DUP6 DUP3 DUP7 ADD PUSH2 0x482B JUMP JUMPDEST SWAP2 POP POP SWAP3 POP SWAP3 SWAP1 POP JUMP JUMPDEST PUSH32 0x4E487B7100000000000000000000000000000000000000000000000000000000 PUSH0 MSTORE PUSH1 0x11 PUSH1 0x4 MSTORE PUSH1 0x24 PUSH0 REVERT JUMPDEST PUSH0 PUSH2 0x4F5C DUP3 PUSH2 0x46F7 JUMP JUMPDEST SWAP2 POP PUSH2 0x4F67 DUP4 PUSH2 0x46F7 JUMP JUMPDEST SWAP3 POP DUP3 DUP3 ADD SWAP1 POP DUP1 DUP3 GT ISZERO PUSH2 0x4F7F JUMPI PUSH2 0x4F7E PUSH2 0x4F25 JUMP JUMPDEST JUMPDEST SWAP3 SWAP2 POP POP JUMP JUMPDEST PUSH0 PUSH1 0x40 DUP3 ADD SWAP1 POP PUSH2 0x4F98 PUSH0 DUP4 ADD DUP6 PUSH2 0x4929 JUMP JUMPDEST PUSH2 0x4FA5 PUSH1 0x20 DUP4 ADD DUP5 PUSH2 0x4929 JUMP JUMPDEST SWAP4 SWAP3 POP POP POP JUMP JUMPDEST PUSH32 0x4E487B7100000000000000000000000000000000000000000000000000000000 PUSH0 MSTORE PUSH1 0x22 PUSH1 0x4 MSTORE PUSH1 0x24 PUSH0 REVERT JUMPDEST PUSH0 PUSH1 0x2 DUP3 DIV SWAP1 POP PUSH1 0x1 DUP3 AND DUP1 PUSH2 0x4FF0 JUMPI PUSH1 0x7F DUP3 AND SWAP2 POP JUMPDEST PUSH1 0x20 DUP3 LT DUP2 SUB PUSH2 0x5003 JUMPI PUSH2 0x5002 PUSH2 0x4FAC JUMP JUMPDEST JUMPDEST POP SWAP2 SWAP1 POP JUMP JUMPDEST PUSH0 DUP2 SWAP1 POP SWAP3 SWAP2 POP POP JUMP JUMPDEST POP JUMP JUMPDEST PUSH0 PUSH2 0x5021 PUSH0 DUP4 PUSH2 0x5009 JUMP JUMPDEST SWAP2 POP PUSH2 0x502C DUP3 PUSH2 0x5013 JUMP JUMPDEST PUSH0 DUP3 ADD SWAP1 POP SWAP2 SWAP1 POP JUMP JUMPDEST PUSH0 PUSH2 0x5040 DUP3 PUSH2 0x5016 JUMP JUMPDEST SWAP2 POP DUP2 SWAP1 POP SWAP2 SWAP1 POP JUMP JUMPDEST PUSH32 0x436C6177546F6B656E3A2045544820726573637565206661696C656400000000 PUSH0 DUP3 ADD MSTORE POP JUMP JUMPDEST PUSH0 PUSH2 0x507E PUSH1 0x1C DUP4 PUSH2 0x475F JUMP JUMPDEST SWAP2 POP PUSH2 0x5089 DUP3 PUSH2 0x504A JUMP JUMPDEST PUSH1 0x20 DUP3 ADD SWAP1 POP SWAP2 SWAP1 POP JUMP JUMPDEST PUSH0 PUSH1 0x20 DUP3 ADD SWAP1 POP DUP2 DUP2 SUB PUSH0 DUP4 ADD MSTORE PUSH2 0x50AB DUP2 PUSH2 0x5072 JUMP JUMPDEST SWAP1 POP SWAP2 SWAP1 POP JUMP JUMPDEST PUSH32 0x4D61785472616E73616374696F6E000000000000000000000000000000000000 PUSH0 DUP3 ADD MSTORE POP JUMP JUMPDEST PUSH0 PUSH2 0x50E6 PUSH1 0xE DUP4 PUSH2 0x475F JUMP JUMPDEST SWAP2 POP PUSH2 0x50F1 DUP3 PUSH2 0x50B2 JUMP JUMPDEST PUSH1 0x20 DUP3 ADD SWAP1 POP SWAP2 SWAP1 POP JUMP JUMPDEST PUSH0 PUSH1 0x20 DUP3 ADD SWAP1 POP DUP2 DUP2 SUB PUSH0 DUP4 ADD MSTORE PUSH2 0x5113 DUP2 PUSH2 0x50DA JUMP JUMPDEST SWAP1 POP SWAP2 SWAP1 POP JUMP JUMPDEST PUSH32 0x5461785261746500000000000000000000000000000000000000000000000000 PUSH0 DUP3 ADD MSTORE POP JUMP JUMPDEST PUSH0 PUSH2 0x514E PUSH1 0x7 DUP4 PUSH2 0x475F JUMP JUMPDEST SWAP2 POP PUSH2 0x5159 DUP3 PUSH2 0x511A JUMP JUMPDEST PUSH1 0x20 DUP3 ADD SWAP1 POP SWAP2 SWAP1 POP JUMP JUMPDEST PUSH0 PUSH1 0x20 DUP3 ADD SWAP1 POP DUP2 DUP2 SUB PUSH0 DUP4 ADD MSTORE PUSH2 0x517B DUP2 PUSH2 0x5142 JUMP JUMPDEST SWAP1 POP SWAP2 SWAP1 POP JUMP JUMPDEST PUSH32 0x4E487B7100000000000000000000000000000000000000000000000000000000 PUSH0 MSTORE PUSH1 0x32 PUSH1 0x4 MSTORE PUSH1 0x24 PUSH0 REVERT JUMPDEST PUSH32 0x4E487B7100000000000000000000000000000000000000000000000000000000 PUSH0 MSTORE PUSH1 0x41 PUSH1 0x4 MSTORE PUSH1 0x24 PUSH0 REVERT JUMPDEST PUSH0 PUSH1 0x60 DUP3 ADD SWAP1 POP PUSH2 0x51EF PUSH0 DUP4 ADD DUP7 PUSH2 0x4938 JUMP JUMPDEST PUSH2 0x51FC PUSH1 0x20 DUP4 ADD DUP6 PUSH2 0x4929 JUMP JUMPDEST PUSH2 0x5209 PUSH1 0x40 DUP4 ADD DUP5 PUSH2 0x4929 JUMP JUMPDEST SWAP5 SWAP4 POP POP POP POP JUMP JUMPDEST PUSH0 PUSH1 0x40 DUP3 ADD SWAP1 POP PUSH2 0x5224 PUSH0 DUP4 ADD DUP6 PUSH2 0x4938 JUMP JUMPDEST PUSH2 0x5231 PUSH1 0x20 DUP4 ADD DUP5 PUSH2 0x4929 JUMP JUMPDEST SWAP4 SWAP3 POP POP POP JUMP JUMPDEST PUSH0 DUP2 MLOAD SWAP1 POP SWAP2 SWAP1 POP JUMP JUMPDEST PUSH0 PUSH2 0x524C DUP3 PUSH2 0x5238 JUMP JUMPDEST PUSH2 0x5256 DUP2 DUP6 PUSH2 0x5009 JUMP JUMPDEST SWAP4 POP PUSH2 0x5266 DUP2 DUP6 PUSH1 0x20 DUP7 ADD PUSH2 0x476F JUMP JUMPDEST DUP1 DUP5 ADD SWAP2 POP POP SWAP3 SWAP2 POP POP JUMP JUMPDEST PUSH0 PUSH2 0x527D DUP3 DUP5 PUSH2 0x5242 JUMP JUMPDEST SWAP2 POP DUP2 SWAP1 POP SWAP3 SWAP2 POP POP JUMP JUMPDEST PUSH0 DUP2 MLOAD SWAP1 POP PUSH2 0x5296 DUP2 PUSH2 0x4A83 JUMP JUMPDEST SWAP3 SWAP2 POP POP JUMP JUMPDEST PUSH0 PUSH1 0x20 DUP3 DUP5 SUB SLT ISZERO PUSH2 0x52B1 JUMPI PUSH2 0x52B0 PUSH2 0x46EF JUMP JUMPDEST JUMPDEST PUSH0 PUSH2 0x52BE DUP5 DUP3 DUP6 ADD PUSH2 0x5288 JUMP JUMPDEST SWAP2 POP POP SWAP3 SWAP2 POP POP JUMP JUMPDEST PUSH32 0x436C6177546F6B656E3A20546F6B656E20726573637565206661696C65640000 PUSH0 DUP3 ADD MSTORE POP JUMP JUMPDEST PUSH0 PUSH2 0x52FB PUSH1 0x1E DUP4 PUSH2 0x475F JUMP JUMPDEST SWAP2 POP PUSH2 0x5306 DUP3 PUSH2 0x52C7 JUMP JUMPDEST PUSH1 0x20 DUP3 ADD SWAP1 POP SWAP2 SWAP1 POP JUMP JUMPDEST PUSH0 PUSH1 0x20 DUP3 ADD SWAP1 POP DUP2 DUP2 SUB PUSH0 DUP4 ADD MSTORE PUSH2 0x5328 DUP2 PUSH2 0x52EF JUMP JUMPDEST SWAP1 POP SWAP2 SWAP1 POP JUMP JUMPDEST PUSH0 DUP2 PUSH1 0x60 SHL SWAP1 POP SWAP2 SWAP1 POP JUMP JUMPDEST PUSH0 PUSH2 0x5345 DUP3 PUSH2 0x532F JUMP JUMPDEST SWAP1 POP SWAP2 SWAP1 POP JUMP JUMPDEST PUSH0 PUSH2 0x5356 DUP3 PUSH2 0x533B JUMP JUMPDEST SWAP1 POP SWAP2 SWAP1 POP JUMP JUMPDEST PUSH2 0x536E PUSH2 0x5369 DUP3 PUSH2 0x4804 JUMP JUMPDEST PUSH2 0x534C JUMP JUMPDEST DUP3 MSTORE POP POP JUMP JUMPDEST PUSH0 DUP2 SWAP1 POP SWAP2 SWAP1 POP JUMP JUMPDEST PUSH2 0x538E PUSH2 0x5389 DUP3 PUSH2 0x46F7 JUMP JUMPDEST PUSH2 0x5374 JUMP JUMPDEST DUP3 MSTORE POP POP JUMP JUMPDEST PUSH0 DUP2 PUSH1 0xF8 SHL SWAP1 POP SWAP2 SWAP1 POP JUMP JUMPDEST PUSH0 PUSH2 0x53AA DUP3 PUSH2 0x5394 JUMP JUMPDEST SWAP1 POP SWAP2 SWAP1 POP JUMP JUMPDEST PUSH2 0x53C2 PUSH2 0x53BD DUP3 PUSH2 0x49F3 JUMP JUMPDEST PUSH2 0x53A0 JUMP JUMPDEST DUP3 MSTORE POP POP JUMP JUMPDEST PUSH0 DUP2 SWAP1 POP SWAP2 SWAP1 POP JUMP JUMPDEST PUSH2 0x53E2 PUSH2 0x53DD DUP3 PUSH2 0x4A27 JUMP JUMPDEST PUSH2 0x53C8 JUMP JUMPDEST DUP3 MSTORE POP POP JUMP JUMPDEST PUSH0 PUSH2 0x53F3 DUP3 DUP11 PUSH2 0x535D JUMP JUMPDEST PUSH1 0x14 DUP3 ADD SWAP2 POP PUSH2 0x5403 DUP3 DUP10 PUSH2 0x535D JUMP JUMPDEST PUSH1 0x14 DUP3 ADD SWAP2 POP PUSH2 0x5413 DUP3 DUP9 PUSH2 0x537D JUMP JUMPDEST PUSH1 0x20 DUP3 ADD SWAP2 POP PUSH2 0x5423 DUP3 DUP8 PUSH2 0x537D JUMP JUMPDEST PUSH1 0x20 DUP3 ADD SWAP2 POP PUSH2 0x5433 DUP3 DUP7 PUSH2 0x53B1 JUMP JUMPDEST PUSH1 0x1 DUP3 ADD SWAP2 POP PUSH2 0x5443 DUP3 DUP6 PUSH2 0x53D1 JUMP JUMPDEST PUSH1 0x20 DUP3 ADD SWAP2 POP PUSH2 0x5453 DUP3 DUP5 PUSH2 0x53D1 JUMP JUMPDEST PUSH1 0x20 DUP3 ADD SWAP2 POP DUP2 SWAP1 POP SWAP9 SWAP8 POP POP POP POP POP POP POP POP JUMP JUMPDEST PUSH32 0x436C6177546F6B656E3A20736E617073686F7420696420697320300000000000 PUSH0 DUP3 ADD MSTORE POP JUMP JUMPDEST PUSH0 PUSH2 0x549C PUSH1 0x1B DUP4 PUSH2 0x475F JUMP JUMPDEST SWAP2 POP PUSH2 0x54A7 DUP3 PUSH2 0x5468 JUMP JUMPDEST PUSH1 0x20 DUP3 ADD SWAP1 POP SWAP2 SWAP1 POP JUMP JUMPDEST PUSH0 PUSH1 0x20 DUP3 ADD SWAP1 POP DUP2 DUP2 SUB PUSH0 DUP4 ADD MSTORE PUSH2 0x54C9 DUP2 PUSH2 0x5490 JUMP JUMPDEST SWAP1 POP SWAP2 SWAP1 POP JUMP JUMPDEST PUSH32 0x436C6177546F6B656E3A206E6F6E6578697374656E7420736E617073686F7420 PUSH0 DUP3 ADD MSTORE PUSH32 0x6964000000000000000000000000000000000000000000000000000000000000 PUSH1 0x20 DUP3 ADD MSTORE POP JUMP JUMPDEST PUSH0 PUSH2 0x552A PUSH1 0x22 DUP4 PUSH2 0x475F JUMP JUMPDEST SWAP2 POP PUSH2 0x5535 DUP3 PUSH2 0x54D0 JUMP JUMPDEST PUSH1 0x40 DUP3 ADD SWAP1 POP SWAP2 SWAP1 POP JUMP JUMPDEST PUSH0 PUSH1 0x20 DUP3 ADD SWAP1 POP DUP2 DUP2 SUB PUSH0 DUP4 ADD MSTORE PUSH2 0x5557 DUP2 PUSH2 0x551E JUMP JUMPDEST SWAP1 POP SWAP2 SWAP1 POP JUMP JUMPDEST PUSH0 PUSH1 0xC0 DUP3 ADD SWAP1 POP PUSH2 0x5571 PUSH0 DUP4 ADD DUP10 PUSH2 0x4A30 JUMP JUMPDEST PUSH2 0x557E PUSH1 0x20 DUP4 ADD DUP9 PUSH2 0x4938 JUMP JUMPDEST PUSH2 0x558B PUSH1 0x40 DUP4 ADD DUP8 PUSH2 0x4938 JUMP JUMPDEST PUSH2 0x5598 PUSH1 0x60 DUP4 ADD DUP7 PUSH2 0x4929 JUMP JUMPDEST PUSH2 0x55A5 PUSH1 0x80 DUP4 ADD DUP6 PUSH2 0x4929 JUMP JUMPDEST PUSH2 0x55B2 PUSH1 0xA0 DUP4 ADD DUP5 PUSH2 0x4929 JUMP JUMPDEST SWAP8 SWAP7 POP POP POP POP POP POP POP JUMP JUMPDEST PUSH0 PUSH1 0x40 DUP3 ADD SWAP1 POP PUSH2 0x55D0 PUSH0 DUP4 ADD DUP6 PUSH2 0x4938 JUMP JUMPDEST PUSH2 0x55DD PUSH1 0x20 DUP4 ADD DUP5 PUSH2 0x4938 JUMP JUMPDEST SWAP4 SWAP3 POP POP POP JUMP JUMPDEST PUSH0 PUSH2 0x55EE DUP3 PUSH2 0x46F7 JUMP JUMPDEST SWAP2 POP PUSH2 0x55F9 DUP4 PUSH2 0x46F7 JUMP JUMPDEST SWAP3 POP DUP3 DUP3 MUL PUSH2 0x5607 DUP2 PUSH2 0x46F7 JUMP JUMPDEST SWAP2 POP DUP3 DUP3 DIV DUP5 EQ DUP4 ISZERO OR PUSH2 0x561E JUMPI PUSH2 0x561D PUSH2 0x4F25 JUMP JUMPDEST JUMPDEST POP SWAP3 SWAP2 POP POP JUMP JUMPDEST PUSH32 0x4E487B7100000000000000000000000000000000000000000000000000000000 PUSH0 MSTORE PUSH1 0x12 PUSH1 0x4 MSTORE PUSH1 0x24 PUSH0 REVERT JUMPDEST PUSH0 PUSH2 0x565C DUP3 PUSH2 0x46F7 JUMP JUMPDEST SWAP2 POP PUSH2 0x5667 DUP4 PUSH2 0x46F7 JUMP JUMPDEST SWAP3 POP DUP3 PUSH2 0x5677 JUMPI PUSH2 0x5676 PUSH2 0x5625 JUMP JUMPDEST JUMPDEST DUP3 DUP3 DIV SWAP1 POP SWAP3 SWAP2 POP POP JUMP JUMPDEST PUSH0 PUSH2 0x568C DUP3 PUSH2 0x46F7 JUMP JUMPDEST SWAP2 POP PUSH2 0x5697 DUP4 PUSH2 0x46F7 JUMP JUMPDEST SWAP3 POP DUP3 DUP3 SUB SWAP1 POP DUP2 DUP2 GT ISZERO PUSH2 0x56AF JUMPI PUSH2 0x56AE PUSH2 0x4F25 JUMP JUMPDEST JUMPDEST SWAP3 SWAP2 POP POP JUMP JUMPDEST PUSH0 PUSH1 0xA0 DUP3 ADD SWAP1 POP PUSH2 0x56C8 PUSH0 DUP4 ADD DUP9 PUSH2 0x4A30 JUMP JUMPDEST PUSH2 0x56D5 PUSH1 0x20 DUP4 ADD DUP8 PUSH2 0x4A30 JUMP JUMPDEST PUSH2 0x56E2 PUSH1 0x40 DUP4 ADD DUP7 PUSH2 0x4A30 JUMP JUMPDEST PUSH2 0x56EF PUSH1 0x60 DUP4 ADD DUP6 PUSH2 0x4929 JUMP JUMPDEST PUSH2 0x56FC PUSH1 0x80 DUP4 ADD DUP5 PUSH2 0x4938 JUMP JUMPDEST SWAP7 SWAP6 POP POP POP POP POP POP JUMP JUMPDEST PUSH0 PUSH1 0x80 DUP3 ADD SWAP1 POP PUSH2 0x5719 PUSH0 DUP4 ADD DUP8 PUSH2 0x4A30 JUMP JUMPDEST PUSH2 0x5726 PUSH1 0x20 DUP4 ADD DUP7 PUSH2 0x49FF JUMP JUMPDEST PUSH2 0x5733 PUSH1 0x40 DUP4 ADD DUP6 PUSH2 0x4A30 JUMP JUMPDEST PUSH2 0x5740 PUSH1 0x60 DUP4 ADD DUP5 PUSH2 0x4A30 JUMP JUMPDEST SWAP6 SWAP5 POP POP POP POP POP JUMP JUMPDEST PUSH32 0x4E487B7100000000000000000000000000000000000000000000000000000000 PUSH0 MSTORE PUSH1 0x21 PUSH1 0x4 MSTORE PUSH1 0x24 PUSH0 REVERT INVALID LOG2 PUSH5 0x6970667358 0x22 SLT KECCAK256 0xB8 DUP10 0xCA 0xD 0x1E SELFBALANCE 0x1F SELFBALANCE 0xB2 SLOAD GASLIMIT MUL EXTCODECOPY SWAP5 0x29 0xAF 0xA8 SMOD 0xB1 CREATE NOT 0xDA 0xE1 XOR 0xE7 JUMPDEST 0xDB PUSH11 0x92DB3BC64736F6C634300 ADDMOD SHL STOP CALLER "
		},
		"gasEstimates": {
			"creation": {
				"codeDepositCost": "4488800",
				"executionCost": "infinite",
				"totalCost": "infinite"
			},
			"external": {
				"": "263",
				"DOMAIN_SEPARATOR()": "infinite",
				"MAX_BATCH_SIZE()": "392",
				"MAX_TAX_RATE()": "437",
				"TIMELOCK_DURATION()": "393",
				"acceptOwnership()": "54782",
				"addToBlacklist(address)": "infinite",
				"allowance(address,address)": "infinite",
				"approve(address,uint256)": "infinite",
				"balanceOf(address)": "2896",
				"balanceOfAt(address,uint256)": "infinite",
				"batchBlacklist(address[])": "infinite",
				"batchMint(address[],uint256[])": "infinite",
				"blacklisted(address)": "2944",
				"burn(uint256)": "infinite",
				"burnFrom(address,uint256)": "infinite",
				"decimals()": "406",
				"decreaseAllowance(address,uint256)": "infinite",
				"eip712Domain()": "infinite",
				"excludedFromMaxTransaction(address)": "2967",
				"excludedFromTax(address)": "2900",
				"executeMaxTransactionChange()": "infinite",
				"executeTaxRateChange()": "infinite",
				"increaseAllowance(address,uint256)": "infinite",
				"maxTransactionAmount()": "2514",
				"mint(address,uint256)": "infinite",
				"name()": "infinite",
				"nonces(address)": "2962",
				"owner()": "2605",
				"pause()": "infinite",
				"paused()": "2541",
				"pendingMaxTransactionChange()": "infinite",
				"pendingOwner()": "2603",
				"pendingTaxRateChange()": "infinite",
				"permit(address,address,uint256,uint256,uint8,bytes32,bytes32)": "infinite",
				"proposeMaxTransactionChange(uint256)": "infinite",
				"proposeTaxRateChange(uint256)": "infinite",
				"removeFromBlacklist(address)": "infinite",
				"renounceOwnership()": "infinite",
				"rescueETH(address,uint256)": "infinite",
				"rescueTokens(address,address,uint256)": "infinite",
				"revokeMaxTransactionChange()": "infinite",
				"revokeTaxRateChange()": "infinite",
				"setExcludedFromMaxTransaction(address,bool)": "infinite",
				"setExcludedFromTax(address,bool)": "infinite",
				"setTaxReceiver(address)": "infinite",
				"snapshot()": "infinite",
				"symbol()": "infinite",
				"taxRate()": "2535",
				"taxReceiver()": "2618",
				"totalSupply()": "2523",
				"totalSupplyAt(uint256)": "infinite",
				"transfer(address,uint256)": "infinite",
				"transferFrom(address,address,uint256)": "infinite",
				"transferOwnership(address)": "infinite",
				"unpause()": "infinite"
			},
			"internal": {
				"_createSnapshot()": "infinite",
				"_lastSnapshotId(uint256[] storage pointer)": "infinite",
				"_mintTokens(address,uint256)": "infinite",
				"_pauseToken()": "infinite",
				"_unpauseToken()": "infinite",
				"_update(address,address,uint256)": "infinite",
				"_updateAccountSnapshot(struct ClawToken.Snapshots storage pointer,uint256)": "infinite",
				"_updateSnapshot(struct ClawToken.Snapshots storage pointer,uint256)": "infinite",
				"_valueAt(uint256,struct ClawToken.Snapshots storage pointer)": "infinite"
			}
		},
		"methodIdentifiers": {
			"DOMAIN_SEPARATOR()": "3644e515",
			"MAX_BATCH_SIZE()": "cfdbf254",
			"MAX_TAX_RATE()": "8fa81732",
			"TIMELOCK_DURATION()": "4623c81e",
			"acceptOwnership()": "79ba5097",
			"addToBlacklist(address)": "44337ea1",
			"allowance(address,address)": "dd62ed3e",
			"approve(address,uint256)": "095ea7b3",
			"balanceOf(address)": "70a08231",
			"balanceOfAt(address,uint256)": "4ee2cd7e",
			"batchBlacklist(address[])": "c81b6848",
			"batchMint(address[],uint256[])": "68573107",
			"blacklisted(address)": "dbac26e9",
			"burn(uint256)": "42966c68",
			"burnFrom(address,uint256)": "79cc6790",
			"decimals()": "313ce567",
			"decreaseAllowance(address,uint256)": "a457c2d7",
			"eip712Domain()": "84b0196e",
			"excludedFromMaxTransaction(address)": "926ada6c",
			"excludedFromTax(address)": "989763ef",
			"executeMaxTransactionChange()": "b3bbb662",
			"executeTaxRateChange()": "ba183d1a",
			"increaseAllowance(address,uint256)": "39509351",
			"maxTransactionAmount()": "c8c8ebe4",
			"mint(address,uint256)": "40c10f19",
			"name()": "06fdde03",
			"nonces(address)": "7ecebe00",
			"owner()": "8da5cb5b",
			"pause()": "8456cb59",
			"paused()": "5c975abb",
			"pendingMaxTransactionChange()": "c6a38e7c",
			"pendingOwner()": "e30c3978",
			"pendingTaxRateChange()": "0d0c0e33",
			"permit(address,address,uint256,uint256,uint8,bytes32,bytes32)": "d505accf",
			"proposeMaxTransactionChange(uint256)": "0f8240fd",
			"proposeTaxRateChange(uint256)": "018fa451",
			"removeFromBlacklist(address)": "537df3b6",
			"renounceOwnership()": "715018a6",
			"rescueETH(address,uint256)": "099a04e5",
			"rescueTokens(address,address,uint256)": "cea9d26f",
			"revokeMaxTransactionChange()": "100e70f5",
			"revokeTaxRateChange()": "5a1b4b70",
			"setExcludedFromMaxTransaction(address,bool)": "66650dae",
			"setExcludedFromTax(address,bool)": "c2ed286b",
			"setTaxReceiver(address)": "cd8de42c",
			"snapshot()": "9711715a",
			"symbol()": "95d89b41",
			"taxRate()": "771a3a1d",
			"taxReceiver()": "e6ef73d6",
			"totalSupply()": "18160ddd",
			"totalSupplyAt(uint256)": "981b24d0",
			"transfer(address,uint256)": "a9059cbb",
			"transferFrom(address,address,uint256)": "23b872dd",
			"transferOwnership(address)": "f2fde38b",
			"unpause()": "3f4ba83a"
		}
	},
	"abi": [
		{
			"inputs": [
				{
					"internalType": "uint256",
					"name": "initialSupply",
					"type": "uint256"
				}
			],
			"stateMutability": "nonpayable",
			"type": "constructor"
		},
		{
			"inputs": [
				{
					"internalType": "address",
					"name": "account",
					"type": "address"
				}
			],
			"name": "AccountBlacklisted",
			"type": "error"
		},
		{
			"inputs": [
				{
					"internalType": "address",
					"name": "account",
					"type": "address"
				}
			],
			"name": "AccountNotBlacklisted",
			"type": "error"
		},
		{
			"inputs": [],
			"name": "ApprovalRaceCondition",
			"type": "error"
		},
		{
			"inputs": [],
			"name": "ArrayLengthMismatch",
			"type": "error"
		},
		{
			"inputs": [
				{
					"internalType": "uint256",
					"name": "size",
					"type": "uint256"
				}
			],
			"name": "BatchSizeExceeded",
			"type": "error"
		},
		{
			"inputs": [],
			"name": "CannotBlacklistOwner",
			"type": "error"
		},
		{
			"inputs": [],
			"name": "CannotRescueOwnToken",
			"type": "error"
		},
		{
			"inputs": [],
			"name": "ECDSAInvalidSignature",
			"type": "error"
		},
		{
			"inputs": [
				{
					"internalType": "uint256",
					"name": "length",
					"type": "uint256"
				}
			],
			"name": "ECDSAInvalidSignatureLength",
			"type": "error"
		},
		{
			"inputs": [
				{
					"internalType": "bytes32",
					"name": "s",
					"type": "bytes32"
				}
			],
			"name": "ECDSAInvalidSignatureS",
			"type": "error"
		},
		{
			"inputs": [
				{
					"internalType": "address",
					"name": "spender",
					"type": "address"
				},
				{
					"internalType": "uint256",
					"name": "allowance",
					"type": "uint256"
				},
				{
					"internalType": "uint256",
					"name": "needed",
					"type": "uint256"
				}
			],
			"name": "ERC20InsufficientAllowance",
			"type": "error"
		},
		{
			"inputs": [
				{
					"internalType": "address",
					"name": "sender",
					"type": "address"
				},
				{
					"internalType": "uint256",
					"name": "balance",
					"type": "uint256"
				},
				{
					"internalType": "uint256",
					"name": "needed",
					"type": "uint256"
				}
			],
			"name": "ERC20InsufficientBalance",
			"type": "error"
		},
		{
			"inputs": [
				{
					"internalType": "address",
					"name": "approver",
					"type": "address"
				}
			],
			"name": "ERC20InvalidApprover",
			"type": "error"
		},
		{
			"inputs": [
				{
					"internalType": "address",
					"name": "receiver",
					"type": "address"
				}
			],
			"name": "ERC20InvalidReceiver",
			"type": "error"
		},
		{
			"inputs": [
				{
					"internalType": "address",
					"name": "sender",
					"type": "address"
				}
			],
			"name": "ERC20InvalidSender",
			"type": "error"
		},
		{
			"inputs": [
				{
					"internalType": "address",
					"name": "spender",
					"type": "address"
				}
			],
			"name": "ERC20InvalidSpender",
			"type": "error"
		},
		{
			"inputs": [
				{
					"internalType": "uint256",
					"name": "deadline",
					"type": "uint256"
				}
			],
			"name": "ERC2612ExpiredSignature",
			"type": "error"
		},
		{
			"inputs": [
				{
					"internalType": "address",
					"name": "signer",
					"type": "address"
				},
				{
					"internalType": "address",
					"name": "owner",
					"type": "address"
				}
			],
			"name": "ERC2612InvalidSigner",
			"type": "error"
		},
		{
			"inputs": [],
			"name": "EnforcedPause",
			"type": "error"
		},
		{
			"inputs": [
				{
					"internalType": "uint256",
					"name": "amount",
					"type": "uint256"
				},
				{
					"internalType": "uint256",
					"name": "maxAmount",
					"type": "uint256"
				}
			],
			"name": "ExceedsMaxTransactionAmount",
			"type": "error"
		},
		{
			"inputs": [],
			"name": "ExpectedPause",
			"type": "error"
		},
		{
			"inputs": [
				{
					"internalType": "address",
					"name": "account",
					"type": "address"
				},
				{
					"internalType": "uint256",
					"name": "currentNonce",
					"type": "uint256"
				}
			],
			"name": "InvalidAccountNonce",
			"type": "error"
		},
		{
			"inputs": [],
			"name": "InvalidAddress",
			"type": "error"
		},
		{
			"inputs": [],
			"name": "InvalidAmount",
			"type": "error"
		},
		{
			"inputs": [],
			"name": "InvalidShortString",
			"type": "error"
		},
		{
			"inputs": [
				{
					"internalType": "uint256",
					"name": "rate",
					"type": "uint256"
				}
			],
			"name": "InvalidTaxRate",
			"type": "error"
		},
		{
			"inputs": [],
			"name": "NoConfigurationChange",
			"type": "error"
		},
		{
			"inputs": [
				{
					"internalType": "address",
					"name": "owner",
					"type": "address"
				}
			],
			"name": "OwnableInvalidOwner",
			"type": "error"
		},
		{
			"inputs": [
				{
					"internalType": "address",
					"name": "account",
					"type": "address"
				}
			],
			"name": "OwnableUnauthorizedAccount",
			"type": "error"
		},
		{
			"inputs": [],
			"name": "PendingChangeNotFound",
			"type": "error"
		},
		{
			"inputs": [],
			"name": "PermitAlreadyUsed",
			"type": "error"
		},
		{
			"inputs": [],
			"name": "ReentrancyGuardReentrantCall",
			"type": "error"
		},
		{
			"inputs": [
				{
					"internalType": "string",
					"name": "str",
					"type": "string"
				}
			],
			"name": "StringTooLong",
			"type": "error"
		},
		{
			"inputs": [
				{
					"internalType": "uint256",
					"name": "currentTime",
					"type": "uint256"
				},
				{
					"internalType": "uint256",
					"name": "unlockTime",
					"type": "uint256"
				}
			],
			"name": "TimelockNotExpired",
			"type": "error"
		},
		{
			"anonymous": false,
			"inputs": [
				{
					"indexed": true,
					"internalType": "address",
					"name": "owner",
					"type": "address"
				},
				{
					"indexed": true,
					"internalType": "address",
					"name": "spender",
					"type": "address"
				},
				{
					"indexed": false,
					"internalType": "uint256",
					"name": "value",
					"type": "uint256"
				}
			],
			"name": "Approval",
			"type": "event"
		},
		{
			"anonymous": false,
			"inputs": [
				{
					"indexed": true,
					"internalType": "address",
					"name": "account",
					"type": "address"
				}
			],
			"name": "Blacklisted",
			"type": "event"
		},
		{
			"anonymous": false,
			"inputs": [],
			"name": "EIP712DomainChanged",
			"type": "event"
		},
		{
			"anonymous": false,
			"inputs": [
				{
					"indexed": false,
					"internalType": "uint256",
					"name": "oldAmount",
					"type": "uint256"
				},
				{
					"indexed": false,
					"internalType": "uint256",
					"name": "newAmount",
					"type": "uint256"
				}
			],
			"name": "MaxTransactionAmountUpdated",
			"type": "event"
		},
		{
			"anonymous": false,
			"inputs": [
				{
					"indexed": false,
					"internalType": "uint256",
					"name": "newAmount",
					"type": "uint256"
				},
				{
					"indexed": false,
					"internalType": "uint256",
					"name": "unlockTime",
					"type": "uint256"
				}
			],
			"name": "MaxTransactionChangeProposed",
			"type": "event"
		},
		{
			"anonymous": false,
			"inputs": [
				{
					"indexed": true,
					"internalType": "address",
					"name": "previousOwner",
					"type": "address"
				},
				{
					"indexed": true,
					"internalType": "address",
					"name": "newOwner",
					"type": "address"
				}
			],
			"name": "OwnershipTransferStarted",
			"type": "event"
		},
		{
			"anonymous": false,
			"inputs": [
				{
					"indexed": true,
					"internalType": "address",
					"name": "previousOwner",
					"type": "address"
				},
				{
					"indexed": true,
					"internalType": "address",
					"name": "newOwner",
					"type": "address"
				}
			],
			"name": "OwnershipTransferred",
			"type": "event"
		},
		{
			"anonymous": false,
			"inputs": [
				{
					"indexed": false,
					"internalType": "address",
					"name": "account",
					"type": "address"
				}
			],
			"name": "Paused",
			"type": "event"
		},
		{
			"anonymous": false,
			"inputs": [
				{
					"indexed": false,
					"internalType": "string",
					"name": "changeType",
					"type": "string"
				}
			],
			"name": "PendingChangeRevoked",
			"type": "event"
		},
		{
			"anonymous": false,
			"inputs": [
				{
					"indexed": false,
					"internalType": "uint256",
					"name": "id",
					"type": "uint256"
				}
			],
			"name": "Snapshot",
			"type": "event"
		},
		{
			"anonymous": false,
			"inputs": [
				{
					"indexed": true,
					"internalType": "address",
					"name": "from",
					"type": "address"
				},
				{
					"indexed": true,
					"internalType": "address",
					"name": "to",
					"type": "address"
				},
				{
					"indexed": false,
					"internalType": "uint256",
					"name": "amount",
					"type": "uint256"
				}
			],
			"name": "TaxCollected",
			"type": "event"
		},
		{
			"anonymous": false,
			"inputs": [
				{
					"indexed": false,
					"internalType": "uint256",
					"name": "newRate",
					"type": "uint256"
				},
				{
					"indexed": false,
					"internalType": "uint256",
					"name": "unlockTime",
					"type": "uint256"
				}
			],
			"name": "TaxRateChangeProposed",
			"type": "event"
		},
		{
			"anonymous": false,
			"inputs": [
				{
					"indexed": false,
					"internalType": "uint256",
					"name": "oldRate",
					"type": "uint256"
				},
				{
					"indexed": false,
					"internalType": "uint256",
					"name": "newRate",
					"type": "uint256"
				}
			],
			"name": "TaxRateUpdated",
			"type": "event"
		},
		{
			"anonymous": false,
			"inputs": [
				{
					"indexed": true,
					"internalType": "address",
					"name": "oldReceiver",
					"type": "address"
				},
				{
					"indexed": true,
					"internalType": "address",
					"name": "newReceiver",
					"type": "address"
				}
			],
			"name": "TaxReceiverUpdated",
			"type": "event"
		},
		{
			"anonymous": false,
			"inputs": [
				{
					"indexed": true,
					"internalType": "address",
					"name": "to",
					"type": "address"
				},
				{
					"indexed": false,
					"internalType": "uint256",
					"name": "amount",
					"type": "uint256"
				}
			],
			"name": "TokensMinted",
			"type": "event"
		},
		{
			"anonymous": false,
			"inputs": [
				{
					"indexed": true,
					"internalType": "address",
					"name": "from",
					"type": "address"
				},
				{
					"indexed": true,
					"internalType": "address",
					"name": "to",
					"type": "address"
				},
				{
					"indexed": false,
					"internalType": "uint256",
					"name": "value",
					"type": "uint256"
				}
			],
			"name": "Transfer",
			"type": "event"
		},
		{
			"anonymous": false,
			"inputs": [
				{
					"indexed": true,
					"internalType": "address",
					"name": "account",
					"type": "address"
				}
			],
			"name": "UnBlacklisted",
			"type": "event"
		},
		{
			"anonymous": false,
			"inputs": [
				{
					"indexed": false,
					"internalType": "address",
					"name": "account",
					"type": "address"
				}
			],
			"name": "Unpaused",
			"type": "event"
		},
		{
			"stateMutability": "payable",
			"type": "fallback"
		},
		{
			"inputs": [],
			"name": "DOMAIN_SEPARATOR",
			"outputs": [
				{
					"internalType": "bytes32",
					"name": "",
					"type": "bytes32"
				}
			],
			"stateMutability": "view",
			"type": "function"
		},
		{
			"inputs": [],
			"name": "MAX_BATCH_SIZE",
			"outputs": [
				{
					"internalType": "uint256",
					"name": "",
					"type": "uint256"
				}
			],
			"stateMutability": "view",
			"type": "function"
		},
		{
			"inputs": [],
			"name": "MAX_TAX_RATE",
			"outputs": [
				{
					"internalType": "uint256",
					"name": "",
					"type": "uint256"
				}
			],
			"stateMutability": "view",
			"type": "function"
		},
		{
			"inputs": [],
			"name": "TIMELOCK_DURATION",
			"outputs": [
				{
					"internalType": "uint256",
					"name": "",
					"type": "uint256"
				}
			],
			"stateMutability": "view",
			"type": "function"
		},
		{
			"inputs": [],
			"name": "acceptOwnership",
			"outputs": [],
			"stateMutability": "nonpayable",
			"type": "function"
		},
		{
			"inputs": [
				{
					"internalType": "address",
					"name": "account",
					"type": "address"
				}
			],
			"name": "addToBlacklist",
			"outputs": [],
			"stateMutability": "nonpayable",
			"type": "function"
		},
		{
			"inputs": [
				{
					"internalType": "address",
					"name": "owner",
					"type": "address"
				},
				{
					"internalType": "address",
					"name": "spender",
					"type": "address"
				}
			],
			"name": "allowance",
			"outputs": [
				{
					"internalType": "uint256",
					"name": "",
					"type": "uint256"
				}
			],
			"stateMutability": "view",
			"type": "function"
		},
		{
			"inputs": [
				{
					"internalType": "address",
					"name": "spender",
					"type": "address"
				},
				{
					"internalType": "uint256",
					"name": "value",
					"type": "uint256"
				}
			],
			"name": "approve",
			"outputs": [
				{
					"internalType": "bool",
					"name": "",
					"type": "bool"
				}
			],
			"stateMutability": "nonpayable",
			"type": "function"
		},
		{
			"inputs": [
				{
					"internalType": "address",
					"name": "account",
					"type": "address"
				}
			],
			"name": "balanceOf",
			"outputs": [
				{
					"internalType": "uint256",
					"name": "",
					"type": "uint256"
				}
			],
			"stateMutability": "view",
			"type": "function"
		},
		{
			"inputs": [
				{
					"internalType": "address",
					"name": "account",
					"type": "address"
				},
				{
					"internalType": "uint256",
					"name": "snapshotId",
					"type": "uint256"
				}
			],
			"name": "balanceOfAt",
			"outputs": [
				{
					"internalType": "uint256",
					"name": "",
					"type": "uint256"
				}
			],
			"stateMutability": "view",
			"type": "function"
		},
		{
			"inputs": [
				{
					"internalType": "address[]",
					"name": "accounts",
					"type": "address[]"
				}
			],
			"name": "batchBlacklist",
			"outputs": [],
			"stateMutability": "nonpayable",
			"type": "function"
		},
		{
			"inputs": [
				{
					"internalType": "address[]",
					"name": "recipients",
					"type": "address[]"
				},
				{
					"internalType": "uint256[]",
					"name": "amounts",
					"type": "uint256[]"
				}
			],
			"name": "batchMint",
			"outputs": [],
			"stateMutability": "nonpayable",
			"type": "function"
		},
		{
			"inputs": [
				{
					"internalType": "address",
					"name": "",
					"type": "address"
				}
			],
			"name": "blacklisted",
			"outputs": [
				{
					"internalType": "bool",
					"name": "",
					"type": "bool"
				}
			],
			"stateMutability": "view",
			"type": "function"
		},
		{
			"inputs": [
				{
					"internalType": "uint256",
					"name": "value",
					"type": "uint256"
				}
			],
			"name": "burn",
			"outputs": [],
			"stateMutability": "nonpayable",
			"type": "function"
		},
		{
			"inputs": [
				{
					"internalType": "address",
					"name": "account",
					"type": "address"
				},
				{
					"internalType": "uint256",
					"name": "value",
					"type": "uint256"
				}
			],
			"name": "burnFrom",
			"outputs": [],
			"stateMutability": "nonpayable",
			"type": "function"
		},
		{
			"inputs": [],
			"name": "decimals",
			"outputs": [
				{
					"internalType": "uint8",
					"name": "",
					"type": "uint8"
				}
			],
			"stateMutability": "view",
			"type": "function"
		},
		{
			"inputs": [
				{
					"internalType": "address",
					"name": "spender",
					"type": "address"
				},
				{
					"internalType": "uint256",
					"name": "requestedDecrease",
					"type": "uint256"
				}
			],
			"name": "decreaseAllowance",
			"outputs": [
				{
					"internalType": "bool",
					"name": "",
					"type": "bool"
				}
			],
			"stateMutability": "nonpayable",
			"type": "function"
		},
		{
			"inputs": [],
			"name": "eip712Domain",
			"outputs": [
				{
					"internalType": "bytes1",
					"name": "fields",
					"type": "bytes1"
				},
				{
					"internalType": "string",
					"name": "name",
					"type": "string"
				},
				{
					"internalType": "string",
					"name": "version",
					"type": "string"
				},
				{
					"internalType": "uint256",
					"name": "chainId",
					"type": "uint256"
				},
				{
					"internalType": "address",
					"name": "verifyingContract",
					"type": "address"
				},
				{
					"internalType": "bytes32",
					"name": "salt",
					"type": "bytes32"
				},
				{
					"internalType": "uint256[]",
					"name": "extensions",
					"type": "uint256[]"
				}
			],
			"stateMutability": "view",
			"type": "function"
		},
		{
			"inputs": [
				{
					"internalType": "address",
					"name": "",
					"type": "address"
				}
			],
			"name": "excludedFromMaxTransaction",
			"outputs": [
				{
					"internalType": "bool",
					"name": "",
					"type": "bool"
				}
			],
			"stateMutability": "view",
			"type": "function"
		},
		{
			"inputs": [
				{
					"internalType": "address",
					"name": "",
					"type": "address"
				}
			],
			"name": "excludedFromTax",
			"outputs": [
				{
					"internalType": "bool",
					"name": "",
					"type": "bool"
				}
			],
			"stateMutability": "view",
			"type": "function"
		},
		{
			"inputs": [],
			"name": "executeMaxTransactionChange",
			"outputs": [],
			"stateMutability": "nonpayable",
			"type": "function"
		},
		{
			"inputs": [],
			"name": "executeTaxRateChange",
			"outputs": [],
			"stateMutability": "nonpayable",
			"type": "function"
		},
		{
			"inputs": [
				{
					"internalType": "address",
					"name": "spender",
					"type": "address"
				},
				{
					"internalType": "uint256",
					"name": "addedValue",
					"type": "uint256"
				}
			],
			"name": "increaseAllowance",
			"outputs": [
				{
					"internalType": "bool",
					"name": "",
					"type": "bool"
				}
			],
			"stateMutability": "nonpayable",
			"type": "function"
		},
		{
			"inputs": [],
			"name": "maxTransactionAmount",
			"outputs": [
				{
					"internalType": "uint256",
					"name": "",
					"type": "uint256"
				}
			],
			"stateMutability": "view",
			"type": "function"
		},
		{
			"inputs": [
				{
					"internalType": "address",
					"name": "to",
					"type": "address"
				},
				{
					"internalType": "uint256",
					"name": "amount",
					"type": "uint256"
				}
			],
			"name": "mint",
			"outputs": [],
			"stateMutability": "nonpayable",
			"type": "function"
		},
		{
			"inputs": [],
			"name": "name",
			"outputs": [
				{
					"internalType": "string",
					"name": "",
					"type": "string"
				}
			],
			"stateMutability": "view",
			"type": "function"
		},
		{
			"inputs": [
				{
					"internalType": "address",
					"name": "owner",
					"type": "address"
				}
			],
			"name": "nonces",
			"outputs": [
				{
					"internalType": "uint256",
					"name": "",
					"type": "uint256"
				}
			],
			"stateMutability": "view",
			"type": "function"
		},
		{
			"inputs": [],
			"name": "owner",
			"outputs": [
				{
					"internalType": "address",
					"name": "",
					"type": "address"
				}
			],
			"stateMutability": "view",
			"type": "function"
		},
		{
			"inputs": [],
			"name": "pause",
			"outputs": [],
			"stateMutability": "nonpayable",
			"type": "function"
		},
		{
			"inputs": [],
			"name": "paused",
			"outputs": [
				{
					"internalType": "bool",
					"name": "",
					"type": "bool"
				}
			],
			"stateMutability": "view",
			"type": "function"
		},
		{
			"inputs": [],
			"name": "pendingMaxTransactionChange",
			"outputs": [
				{
					"internalType": "uint256",
					"name": "value",
					"type": "uint256"
				},
				{
					"internalType": "address",
					"name": "addressValue",
					"type": "address"
				},
				{
					"internalType": "uint256",
					"name": "unlockTime",
					"type": "uint256"
				},
				{
					"internalType": "bool",
					"name": "exists",
					"type": "bool"
				}
			],
			"stateMutability": "view",
			"type": "function"
		},
		{
			"inputs": [],
			"name": "pendingOwner",
			"outputs": [
				{
					"internalType": "address",
					"name": "",
					"type": "address"
				}
			],
			"stateMutability": "view",
			"type": "function"
		},
		{
			"inputs": [],
			"name": "pendingTaxRateChange",
			"outputs": [
				{
					"internalType": "uint256",
					"name": "value",
					"type": "uint256"
				},
				{
					"internalType": "address",
					"name": "addressValue",
					"type": "address"
				},
				{
					"internalType": "uint256",
					"name": "unlockTime",
					"type": "uint256"
				},
				{
					"internalType": "bool",
					"name": "exists",
					"type": "bool"
				}
			],
			"stateMutability": "view",
			"type": "function"
		},
		{
			"inputs": [
				{
					"internalType": "address",
					"name": "owner",
					"type": "address"
				},
				{
					"internalType": "address",
					"name": "spender",
					"type": "address"
				},
				{
					"internalType": "uint256",
					"name": "value",
					"type": "uint256"
				},
				{
					"internalType": "uint256",
					"name": "deadline",
					"type": "uint256"
				},
				{
					"internalType": "uint8",
					"name": "v",
					"type": "uint8"
				},
				{
					"internalType": "bytes32",
					"name": "r",
					"type": "bytes32"
				},
				{
					"internalType": "bytes32",
					"name": "s",
					"type": "bytes32"
				}
			],
			"name": "permit",
			"outputs": [],
			"stateMutability": "nonpayable",
			"type": "function"
		},
		{
			"inputs": [
				{
					"internalType": "uint256",
					"name": "newAmount",
					"type": "uint256"
				}
			],
			"name": "proposeMaxTransactionChange",
			"outputs": [],
			"stateMutability": "nonpayable",
			"type": "function"
		},
		{
			"inputs": [
				{
					"internalType": "uint256",
					"name": "newRate",
					"type": "uint256"
				}
			],
			"name": "proposeTaxRateChange",
			"outputs": [],
			"stateMutability": "nonpayable",
			"type": "function"
		},
		{
			"inputs": [
				{
					"internalType": "address",
					"name": "account",
					"type": "address"
				}
			],
			"name": "removeFromBlacklist",
			"outputs": [],
			"stateMutability": "nonpayable",
			"type": "function"
		},
		{
			"inputs": [],
			"name": "renounceOwnership",
			"outputs": [],
			"stateMutability": "nonpayable",
			"type": "function"
		},
		{
			"inputs": [
				{
					"internalType": "address payable",
					"name": "to",
					"type": "address"
				},
				{
					"internalType": "uint256",
					"name": "amount",
					"type": "uint256"
				}
			],
			"name": "rescueETH",
			"outputs": [],
			"stateMutability": "nonpayable",
			"type": "function"
		},
		{
			"inputs": [
				{
					"internalType": "address",
					"name": "token",
					"type": "address"
				},
				{
					"internalType": "address",
					"name": "to",
					"type": "address"
				},
				{
					"internalType": "uint256",
					"name": "amount",
					"type": "uint256"
				}
			],
			"name": "rescueTokens",
			"outputs": [],
			"stateMutability": "nonpayable",
			"type": "function"
		},
		{
			"inputs": [],
			"name": "revokeMaxTransactionChange",
			"outputs": [],
			"stateMutability": "nonpayable",
			"type": "function"
		},
		{
			"inputs": [],
			"name": "revokeTaxRateChange",
			"outputs": [],
			"stateMutability": "nonpayable",
			"type": "function"
		},
		{
			"inputs": [
				{
					"internalType": "address",
					"name": "account",
					"type": "address"
				},
				{
					"internalType": "bool",
					"name": "excluded",
					"type": "bool"
				}
			],
			"name": "setExcludedFromMaxTransaction",
			"outputs": [],
			"stateMutability": "nonpayable",
			"type": "function"
		},
		{
			"inputs": [
				{
					"internalType": "address",
					"name": "account",
					"type": "address"
				},
				{
					"internalType": "bool",
					"name": "excluded",
					"type": "bool"
				}
			],
			"name": "setExcludedFromTax",
			"outputs": [],
			"stateMutability": "nonpayable",
			"type": "function"
		},
		{
			"inputs": [
				{
					"internalType": "address",
					"name": "newReceiver",
					"type": "address"
				}
			],
			"name": "setTaxReceiver",
			"outputs": [],
			"stateMutability": "nonpayable",
			"type": "function"
		},
		{
			"inputs": [],
			"name": "snapshot",
			"outputs": [
				{
					"internalType": "uint256",
					"name": "",
					"type": "uint256"
				}
			],
			"stateMutability": "nonpayable",
			"type": "function"
		},
		{
			"inputs": [],
			"name": "symbol",
			"outputs": [
				{
					"internalType": "string",
					"name": "",
					"type": "string"
				}
			],
			"stateMutability": "view",
			"type": "function"
		},
		{
			"inputs": [],
			"name": "taxRate",
			"outputs": [
				{
					"internalType": "uint256",
					"name": "",
					"type": "uint256"
				}
			],
			"stateMutability": "view",
			"type": "function"
		},
		{
			"inputs": [],
			"name": "taxReceiver",
			"outputs": [
				{
					"internalType": "address",
					"name": "",
					"type": "address"
				}
			],
			"stateMutability": "view",
			"type": "function"
		},
		{
			"inputs": [],
			"name": "totalSupply",
			"outputs": [
				{
					"internalType": "uint256",
					"name": "",
					"type": "uint256"
				}
			],
			"stateMutability": "view",
			"type": "function"
		},
		{
			"inputs": [
				{
					"internalType": "uint256",
					"name": "snapshotId",
					"type": "uint256"
				}
			],
			"name": "totalSupplyAt",
			"outputs": [
				{
					"internalType": "uint256",
					"name": "",
					"type": "uint256"
				}
			],
			"stateMutability": "view",
			"type": "function"
		},
		{
			"inputs": [
				{
					"internalType": "address",
					"name": "to",
					"type": "address"
				},
				{
					"internalType": "uint256",
					"name": "value",
					"type": "uint256"
				}
			],
			"name": "transfer",
			"outputs": [
				{
					"internalType": "bool",
					"name": "",
					"type": "bool"
				}
			],
			"stateMutability": "nonpayable",
			"type": "function"
		},
		{
			"inputs": [
				{
					"internalType": "address",
					"name": "from",
					"type": "address"
				},
				{
					"internalType": "address",
					"name": "to",
					"type": "address"
				},
				{
					"internalType": "uint256",
					"name": "value",
					"type": "uint256"
				}
			],
			"name": "transferFrom",
			"outputs": [
				{
					"internalType": "bool",
					"name": "",
					"type": "bool"
				}
			],
			"stateMutability": "nonpayable",
			"type": "function"
		},
		{
			"inputs": [
				{
					"internalType": "address",
					"name": "newOwner",
					"type": "address"
				}
			],
			"name": "transferOwnership",
			"outputs": [],
			"stateMutability": "nonpayable",
			"type": "function"
		},
		{
			"inputs": [],
			"name": "unpause",
			"outputs": [],
			"stateMutability": "nonpayable",
			"type": "function"
		},
		{
			"stateMutability": "payable",
			"type": "receive"
		}
	]
}